{
	"abi": [
		{
			"inputs": [],
			"stateMutability": "nonpayable",
			"type": "constructor"
		},
		{
			"anonymous": false,
			"inputs": [
				{
					"indexed": true,
					"internalType": "uint256",
					"name": "_id",
					"type": "uint256"
				},
				{
					"indexed": true,
					"internalType": "address",
					"name": "_challenger",
					"type": "address"
				},
				{
					"indexed": true,
					"internalType": "address",
					"name": "_accepter",
					"type": "address"
				},
				{
					"indexed": false,
					"internalType": "uint256",
					"name": "_price",
					"type": "uint256"
				}
			],
			"name": "BetAccepted",
			"type": "event"
		},
		{
			"anonymous": false,
			"inputs": [
				{
					"indexed": true,
					"internalType": "uint256",
					"name": "_id",
					"type": "uint256"
				},
				{
					"indexed": true,
					"internalType": "uint256",
					"name": "amount",
					"type": "uint256"
				},
				{
					"indexed": true,
					"internalType": "address",
					"name": "_winner",
					"type": "address"
				}
			],
			"name": "BetClosed",
			"type": "event"
		},
		{
			"anonymous": false,
			"inputs": [
				{
					"indexed": true,
					"internalType": "uint256",
					"name": "_id",
					"type": "uint256"
				},
				{
					"indexed": true,
					"internalType": "address",
					"name": "_challenger",
					"type": "address"
				},
				{
					"indexed": true,
					"internalType": "uint256",
					"name": "_price",
					"type": "uint256"
				}
			],
			"name": "BetPublished",
			"type": "event"
		},
		{
			"anonymous": false,
			"inputs": [
				{
					"indexed": true,
					"internalType": "bytes32",
					"name": "id",
					"type": "bytes32"
				}
			],
			"name": "ChainlinkCancelled",
			"type": "event"
		},
		{
			"anonymous": false,
			"inputs": [
				{
					"indexed": true,
					"internalType": "bytes32",
					"name": "id",
					"type": "bytes32"
				}
			],
			"name": "ChainlinkFulfilled",
			"type": "event"
		},
		{
			"anonymous": false,
			"inputs": [
				{
					"indexed": true,
					"internalType": "bytes32",
					"name": "id",
					"type": "bytes32"
				}
			],
			"name": "ChainlinkRequested",
			"type": "event"
		},
		{
			"anonymous": false,
			"inputs": [
				{
					"indexed": true,
					"internalType": "bytes32",
					"name": "requestId",
					"type": "bytes32"
				},
				{
					"indexed": false,
					"internalType": "uint256",
					"name": "number1",
					"type": "uint256"
				},
				{
					"indexed": false,
					"internalType": "uint256",
					"name": "number2",
					"type": "uint256"
				},
				{
					"indexed": false,
					"internalType": "uint256",
					"name": "gameId",
					"type": "uint256"
				},
				{
					"indexed": false,
					"internalType": "uint256",
					"name": "teamId",
					"type": "uint256"
				}
			],
			"name": "RequestFulfilled",
			"type": "event"
		},
		{
			"inputs": [
				{
					"internalType": "uint256",
					"name": "_id",
					"type": "uint256"
				}
			],
			"name": "acceptBet",
			"outputs": [],
			"stateMutability": "payable",
			"type": "function"
		},
		{
			"inputs": [],
			"name": "betCounter",
			"outputs": [
				{
					"internalType": "uint256",
					"name": "",
					"type": "uint256"
				}
			],
			"stateMutability": "view",
			"type": "function"
		},
		{
			"inputs": [
				{
					"internalType": "uint256",
					"name": "",
					"type": "uint256"
				}
			],
			"name": "bets",
			"outputs": [
				{
					"internalType": "uint256",
					"name": "id",
					"type": "uint256"
				},
				{
					"internalType": "uint256",
					"name": "gameId",
					"type": "uint256"
				},
				{
					"internalType": "uint256",
					"name": "teamId",
					"type": "uint256"
				},
				{
					"internalType": "string",
					"name": "teamName",
					"type": "string"
				},
				{
					"internalType": "string",
					"name": "HomeTeam",
					"type": "string"
				},
				{
					"internalType": "string",
					"name": "AwayTeam",
					"type": "string"
				},
				{
					"internalType": "string",
					"name": "DateTime",
					"type": "string"
				},
				{
					"internalType": "uint256",
					"name": "price",
					"type": "uint256"
				},
				{
					"internalType": "address",
					"name": "challenger",
					"type": "address"
				},
				{
					"internalType": "address",
					"name": "accepter",
					"type": "address"
				},
				{
					"internalType": "address",
					"name": "winner",
					"type": "address"
				},
				{
					"internalType": "bool",
					"name": "isActive",
					"type": "bool"
				},
				{
					"internalType": "bool",
					"name": "isAccepted",
					"type": "bool"
				},
				{
					"internalType": "string",
					"name": "status",
					"type": "string"
				}
			],
			"stateMutability": "view",
			"type": "function"
		},
		{
			"inputs": [
				{
					"internalType": "uint256",
					"name": "_id",
					"type": "uint256"
				}
			],
			"name": "cancelBet",
			"outputs": [],
			"stateMutability": "payable",
			"type": "function"
		},
		{
			"inputs": [],
			"name": "currentGameId",
			"outputs": [
				{
					"internalType": "uint256",
					"name": "",
					"type": "uint256"
				}
			],
			"stateMutability": "view",
			"type": "function"
		},
		{
			"inputs": [
				{
					"internalType": "bytes32",
					"name": "requestId",
					"type": "bytes32"
				},
				{
					"internalType": "uint256",
					"name": "_number1",
					"type": "uint256"
				},
				{
					"internalType": "uint256",
					"name": "_number2",
					"type": "uint256"
				},
				{
					"internalType": "uint256",
					"name": "_gameId",
					"type": "uint256"
				},
				{
					"internalType": "uint256",
					"name": "_TeamId",
					"type": "uint256"
				}
			],
			"name": "fulfillBytesAndUint",
			"outputs": [],
			"stateMutability": "nonpayable",
			"type": "function"
		},
		{
			"inputs": [
				{
					"internalType": "uint256",
					"name": "id",
					"type": "uint256"
				}
			],
			"name": "getAcceptWinnerTeamName",
			"outputs": [
				{
					"internalType": "string",
					"name": "",
					"type": "string"
				}
			],
			"stateMutability": "view",
			"type": "function"
		},
		{
			"inputs": [],
			"name": "getAvailableBets",
			"outputs": [
				{
					"components": [
						{
							"internalType": "uint256",
							"name": "id",
							"type": "uint256"
						},
						{
							"internalType": "uint256",
							"name": "gameId",
							"type": "uint256"
						},
						{
							"internalType": "uint256",
							"name": "teamId",
							"type": "uint256"
						},
						{
							"internalType": "string",
							"name": "teamName",
							"type": "string"
						},
						{
							"internalType": "string",
							"name": "HomeTeam",
							"type": "string"
						},
						{
							"internalType": "string",
							"name": "AwayTeam",
							"type": "string"
						},
						{
							"internalType": "string",
							"name": "DateTime",
							"type": "string"
						},
						{
							"internalType": "uint256",
							"name": "price",
							"type": "uint256"
						},
						{
							"internalType": "address",
							"name": "challenger",
							"type": "address"
						},
						{
							"internalType": "address",
							"name": "accepter",
							"type": "address"
						},
						{
							"internalType": "address",
							"name": "winner",
							"type": "address"
						},
						{
							"internalType": "bool",
							"name": "isActive",
							"type": "bool"
						},
						{
							"internalType": "bool",
							"name": "isAccepted",
							"type": "bool"
						},
						{
							"internalType": "string",
							"name": "status",
							"type": "string"
						}
					],
					"internalType": "struct BetContract.Bet[]",
					"name": "",
					"type": "tuple[]"
				}
			],
			"stateMutability": "view",
			"type": "function"
		},
		{
			"inputs": [],
			"name": "getNumberOfAvailableBets",
			"outputs": [
				{
					"internalType": "uint256",
					"name": "",
					"type": "uint256"
				}
			],
			"stateMutability": "view",
			"type": "function"
		},
		{
			"inputs": [],
			"name": "getNumberOfBets",
			"outputs": [
				{
					"internalType": "uint256",
					"name": "",
					"type": "uint256"
				}
			],
			"stateMutability": "view",
			"type": "function"
		},
		{
			"inputs": [],
			"name": "getUserBets",
			"outputs": [
				{
					"components": [
						{
							"internalType": "uint256",
							"name": "id",
							"type": "uint256"
						},
						{
							"internalType": "uint256",
							"name": "gameId",
							"type": "uint256"
						},
						{
							"internalType": "uint256",
							"name": "teamId",
							"type": "uint256"
						},
						{
							"internalType": "string",
							"name": "teamName",
							"type": "string"
						},
						{
							"internalType": "string",
							"name": "HomeTeam",
							"type": "string"
						},
						{
							"internalType": "string",
							"name": "AwayTeam",
							"type": "string"
						},
						{
							"internalType": "string",
							"name": "DateTime",
							"type": "string"
						},
						{
							"internalType": "uint256",
							"name": "price",
							"type": "uint256"
						},
						{
							"internalType": "address",
							"name": "challenger",
							"type": "address"
						},
						{
							"internalType": "address",
							"name": "accepter",
							"type": "address"
						},
						{
							"internalType": "address",
							"name": "winner",
							"type": "address"
						},
						{
							"internalType": "bool",
							"name": "isActive",
							"type": "bool"
						},
						{
							"internalType": "bool",
							"name": "isAccepted",
							"type": "bool"
						},
						{
							"internalType": "string",
							"name": "status",
							"type": "string"
						}
					],
					"internalType": "struct BetContract.Bet[]",
					"name": "",
					"type": "tuple[]"
				}
			],
			"stateMutability": "view",
			"type": "function"
		},
		{
			"inputs": [
				{
					"internalType": "uint256",
					"name": "_price",
					"type": "uint256"
				},
				{
					"internalType": "uint256",
					"name": "_gameId",
					"type": "uint256"
				},
				{
					"internalType": "string",
					"name": "_homeTeam",
					"type": "string"
				},
				{
					"internalType": "string",
					"name": "_awayTeam",
					"type": "string"
				},
				{
					"internalType": "string",
					"name": "_dataTime",
					"type": "string"
				},
				{
					"internalType": "uint256",
					"name": "_teamId",
					"type": "uint256"
				},
				{
					"internalType": "string",
					"name": "_teamName",
					"type": "string"
				}
			],
			"name": "publishBet",
			"outputs": [],
			"stateMutability": "payable",
			"type": "function"
		},
		{
			"inputs": [],
			"name": "upkeep_setWinner",
			"outputs": [],
			"stateMutability": "nonpayable",
			"type": "function"
		}
	],
	"bytecode": "608060405260016004553480156200001657600080fd5b506001600655600280546001600160a01b03191673326c977e6efc84e512bb9c30f76e30c160ed06fb179055600380546001600160a01b031916737ca7215c6b8013f249a195cc107f97c4e623e5f51790557f3030353934383134363338663431633661396364316165336466613938326436600c55600a620000a3670de0b6b3a76400006001620000b8565b620000af9190620000e4565b600d5562000107565b8082028115828204841417620000de57634e487b7160e01b600052601160045260246000fd5b92915050565b6000826200010257634e487b7160e01b600052601260045260246000fd5b500490565b61300780620001176000396000f3fe6080604052600436106100c25760003560e01c80636c0c27e11161007f578063ab75187711610059578063ab751877146101d6578063bc21ca0e14610203578063c738f5e314610218578063f222d0b91461022d57600080fd5b80636c0c27e1146101985780639a7b8918146101ab578063a416f5ab146101c057600080fd5b806312074a46146100c757806322af00fa146100f257806334eaa8081461012c578063357401f5146101415780634a02b38414610154578063536a3ddc14610174575b600080fd5b3480156100d357600080fd5b506100dc610242565b6040516100e99190612764565b60405180910390f35b3480156100fe57600080fd5b5061011261010d3660046128c7565b61068f565b6040516100e99e9d9c9b9a999897969594939291906128e0565b61013f61013a366004612a5c565b6109be565b005b61013f61014f3660046128c7565b610c5d565b34801561016057600080fd5b5061013f61016f366004612b25565b610e09565b34801561018057600080fd5b5061018a600a5481565b6040519081526020016100e9565b61013f6101a63660046128c7565b610f25565b3480156101b757600080fd5b506100dc611138565b3480156101cc57600080fd5b5061018a600b5481565b3480156101e257600080fd5b506101f66101f13660046128c7565b611651565b6040516100e99190612b60565b34801561020f57600080fd5b5061018a611a04565b34801561022457600080fd5b5061013f611a84565b34801561023957600080fd5b50600b5461018a565b336000908152600f6020526040812054606091816001600160401b0381111561026d5761026d6129ba565b6040519080825280602002602001820160405280156102a657816020015b610293612655565b81526020019060019003908161028b5790505b50905060005b8281101561068857336000908152600f602052604081208054839081106102d5576102d5612b73565b90600052602060002001549050600e6000828152602001908152602001600020604051806101c001604052908160008201548152602001600182015481526020016002820154815260200160038201805461032f90612b89565b80601f016020809104026020016040519081016040528092919081815260200182805461035b90612b89565b80156103a85780601f1061037d576101008083540402835291602001916103a8565b820191906000526020600020905b81548152906001019060200180831161038b57829003601f168201915b505050505081526020016004820180546103c190612b89565b80601f01602080910402602001604051908101604052809291908181526020018280546103ed90612b89565b801561043a5780601f1061040f5761010080835404028352916020019161043a565b820191906000526020600020905b81548152906001019060200180831161041d57829003601f168201915b5050505050815260200160058201805461045390612b89565b80601f016020809104026020016040519081016040528092919081815260200182805461047f90612b89565b80156104cc5780601f106104a1576101008083540402835291602001916104cc565b820191906000526020600020905b8154815290600101906020018083116104af57829003601f168201915b505050505081526020016006820180546104e590612b89565b80601f016020809104026020016040519081016040528092919081815260200182805461051190612b89565b801561055e5780601f106105335761010080835404028352916020019161055e565b820191906000526020600020905b81548152906001019060200180831161054157829003601f168201915b50505091835250506007820154602082015260088201546001600160a01b039081166040830152600983015481166060830152600a830154908116608083015260ff600160a01b82048116151560a0840152600160a81b90910416151560c0820152600b8201805460e0909201916105d590612b89565b80601f016020809104026020016040519081016040528092919081815260200182805461060190612b89565b801561064e5780601f106106235761010080835404028352916020019161064e565b820191906000526020600020905b81548152906001019060200180831161063157829003601f168201915b50505050508152505083838151811061066957610669612b73565b602002602001018190525050808061068090612bd3565b9150506102ac565b5092915050565b600e602052600090815260409020805460018201546002830154600384018054939492939192916106bf90612b89565b80601f01602080910402602001604051908101604052809291908181526020018280546106eb90612b89565b80156107385780601f1061070d57610100808354040283529160200191610738565b820191906000526020600020905b81548152906001019060200180831161071b57829003601f168201915b50505050509080600401805461074d90612b89565b80601f016020809104026020016040519081016040528092919081815260200182805461077990612b89565b80156107c65780601f1061079b576101008083540402835291602001916107c6565b820191906000526020600020905b8154815290600101906020018083116107a957829003601f168201915b5050505050908060050180546107db90612b89565b80601f016020809104026020016040519081016040528092919081815260200182805461080790612b89565b80156108545780601f1061082957610100808354040283529160200191610854565b820191906000526020600020905b81548152906001019060200180831161083757829003601f168201915b50505050509080600601805461086990612b89565b80601f016020809104026020016040519081016040528092919081815260200182805461089590612b89565b80156108e25780601f106108b7576101008083540402835291602001916108e2565b820191906000526020600020905b8154815290600101906020018083116108c557829003601f168201915b505050600784015460088501546009860154600a870154600b88018054979894976001600160a01b03948516975092841695509281169360ff600160a01b8304811694600160a81b909304169290919061093b90612b89565b80601f016020809104026020016040519081016040528092919081815260200182805461096790612b89565b80156109b45780601f10610989576101008083540402835291602001916109b4565b820191906000526020600020905b81548152906001019060200180831161099757829003601f168201915b505050505090508e565b66038d7ea4c68000871015610a1a5760405162461bcd60e51b815260206004820152601860248201527f4d696e696d756d2070726963652069732031204d61746963000000000000000060448201526064015b60405180910390fd5b86341015610a3a5760405162461bcd60e51b8152600401610a1190612bec565b600b8054906000610a4a83612bd3565b9091555050604080516101c081018252600b5480825260208083018a815283850187815260608501878152608086018c905260a086018b905260c086018a905260e086018e9052336101008701526000610120870181905261014087018190526001610160880181905261018088018290528851808a018a526009815268141d589b1a5cda195960ba1b818801526101a0890152958152600e909452959092208451815590519281019290925551600282015591519091906003820190610b119082612c7f565b5060808201516004820190610b269082612c7f565b5060a08201516005820190610b3b9082612c7f565b5060c08201516006820190610b509082612c7f565b5060e082015160078201556101008201516008820180546001600160a01b039283166001600160a01b03199182161790915561012084015160098401805491841691909216179055610140830151600a830180546101608601516101808701511515600160a81b0260ff60a81b19911515600160a01b026001600160a81b0319909316949095169390931717919091169190911790556101a0820151600b820190610bfb9082612c7f565b5050336000818152600f60209081526040808320600b8054825460018101845592865293852090910192909255905490518b945090917f1e8cd9f962f202a3d2de4fe68d64850937ad80c549fef41a9173f48e9464397791a450505050505050565b6000818152600e60205260409020600a810154600160a01b900460ff161515600114610cc25760405162461bcd60e51b8152602060048201526014602482015273151a194818995d081dd85cc818d85b98d95b195960621b6044820152606401610a11565b81600b5410158015610cd45750600082115b610cf05760405162461bcd60e51b8152600401610a1190612d3e565b60088101546001600160a01b03163314610d4c5760405162461bcd60e51b815260206004820152601960248201527f426574206368616c6c656e6765722063616e2063616e63656c000000000000006044820152606401610a11565b600a8101805460ff60a01b1916905560408051808201909152600881526710d85b98d95b195960c21b6020820152600b820190610d899082612c7f565b50600781015460088201546040516001600160a01b0390911690600090829084156108fc0290859084818181858888f19350505050905080610e025760405162461bcd60e51b8152602060048201526012602482015271151c985b9cd858dd1a5bdb8811985a5b195960721b6044820152606401610a11565b5050505050565b60008581526005602052604090205485906001600160a01b03163314610e825760405162461bcd60e51b815260206004820152602860248201527f536f75726365206d75737420626520746865206f7261636c65206f6620746865604482015267081c995c5d595cdd60c21b6064820152608401610a11565b60008181526005602052604080822080546001600160a01b03191690555182917f7cc135e0cebb02c3480ae5d74d377283180a2601f8f644edf7987b009316c63a91a260408051868152602081018690529081018490526060810183905286907f78e6df904d928feb84261a6267619ca16c25bbcb7d6e5062e1dfac3168fb59bc9060800160405180910390a250600793909355600891909155600a5560095550565b6000818152600e60205260409020600a810154600160a01b900460ff161515600114610f8b5760405162461bcd60e51b815260206004820152601560248201527454686520626574206973206e6f742061637469766160581b6044820152606401610a11565b6000600b5411610fad5760405162461bcd60e51b8152600401610a1190612d3e565b600082118015610fbf5750600b548211155b610fdb5760405162461bcd60e51b8152600401610a1190612d3e565b60088101546001600160a01b031633036110415760405162461bcd60e51b815260206004820152602160248201527f4368616c6c656e6765722063616e206e6f7420616363657074207468652062656044820152601d60fa1b6064820152608401610a11565b80600701543410156110655760405162461bcd60e51b8152600401610a1190612bec565b6009810180546001600160a01b03191633179055600a8101805460ff60a81b1916600160a81b1790556040805180820190915260088152671058d8d95c1d195960c21b6020820152600b8201906110bc9082612c7f565b50336000908152600f6020908152604080832080546001810182559084529282902090920184905560098301546008840154600785015493519384526001600160a01b039182169391169185917fcdac8516359a273bd88d2aafe047de47cfcfb70d6448be9c49a82491cafa0eb7910160405180910390a45050565b60606000600b546001600160401b03811115611156576111566129ba565b60405190808252806020026020018201604052801561117f578160200160208202803683370190505b509050600060015b600b548111611229576000818152600e60205260409020600a0154600160a81b900460ff161580156111d657506000818152600e60205260409020600a0154600160a01b900460ff1615156001145b15611217576000818152600e602052604090205483518490849081106111fe576111fe612b73565b60209081029190910101528161121381612bd3565b9250505b8061122181612bd3565b915050611187565b506000816001600160401b03811115611244576112446129ba565b60405190808252806020026020018201604052801561127d57816020015b61126a612655565b8152602001906001900390816112625790505b50905060005b8281101561164957600e60008583815181106112a1576112a1612b73565b60200260200101518152602001908152602001600020604051806101c00160405290816000820154815260200160018201548152602001600282015481526020016003820180546112f190612b89565b80601f016020809104026020016040519081016040528092919081815260200182805461131d90612b89565b801561136a5780601f1061133f5761010080835404028352916020019161136a565b820191906000526020600020905b81548152906001019060200180831161134d57829003601f168201915b5050505050815260200160048201805461138390612b89565b80601f01602080910402602001604051908101604052809291908181526020018280546113af90612b89565b80156113fc5780601f106113d1576101008083540402835291602001916113fc565b820191906000526020600020905b8154815290600101906020018083116113df57829003601f168201915b5050505050815260200160058201805461141590612b89565b80601f016020809104026020016040519081016040528092919081815260200182805461144190612b89565b801561148e5780601f106114635761010080835404028352916020019161148e565b820191906000526020600020905b81548152906001019060200180831161147157829003601f168201915b505050505081526020016006820180546114a790612b89565b80601f01602080910402602001604051908101604052809291908181526020018280546114d390612b89565b80156115205780601f106114f557610100808354040283529160200191611520565b820191906000526020600020905b81548152906001019060200180831161150357829003601f168201915b50505091835250506007820154602082015260088201546001600160a01b039081166040830152600983015481166060830152600a830154908116608083015260ff600160a01b82048116151560a0840152600160a81b90910416151560c0820152600b8201805460e09092019161159790612b89565b80601f01602080910402602001604051908101604052809291908181526020018280546115c390612b89565b80156116105780601f106115e557610100808354040283529160200191611610565b820191906000526020600020905b8154815290600101906020018083116115f357829003601f168201915b50505050508152505082828151811061162b5761162b612b73565b6020026020010181905250808061164190612bd3565b915050611283565b509392505050565b60606000600e6000848152602001908152602001600020604051806101c00160405290816000820154815260200160018201548152602001600282015481526020016003820180546116a290612b89565b80601f01602080910402602001604051908101604052809291908181526020018280546116ce90612b89565b801561171b5780601f106116f05761010080835404028352916020019161171b565b820191906000526020600020905b8154815290600101906020018083116116fe57829003601f168201915b5050505050815260200160048201805461173490612b89565b80601f016020809104026020016040519081016040528092919081815260200182805461176090612b89565b80156117ad5780601f10611782576101008083540402835291602001916117ad565b820191906000526020600020905b81548152906001019060200180831161179057829003601f168201915b505050505081526020016005820180546117c690612b89565b80601f01602080910402602001604051908101604052809291908181526020018280546117f290612b89565b801561183f5780601f106118145761010080835404028352916020019161183f565b820191906000526020600020905b81548152906001019060200180831161182257829003601f168201915b5050505050815260200160068201805461185890612b89565b80601f016020809104026020016040519081016040528092919081815260200182805461188490612b89565b80156118d15780601f106118a6576101008083540402835291602001916118d1565b820191906000526020600020905b8154815290600101906020018083116118b457829003601f168201915b50505091835250506007820154602082015260088201546001600160a01b039081166040830152600983015481166060830152600a830154908116608083015260ff600160a01b82048116151560a0840152600160a81b90910416151560c0820152600b8201805460e09092019161194890612b89565b80601f016020809104026020016040519081016040528092919081815260200182805461197490612b89565b80156119c15780601f10611996576101008083540402835291602001916119c1565b820191906000526020600020905b8154815290600101906020018083116119a457829003601f168201915b50505050508152505090506000816060015190508160800151805190602001208180519060200120036119f9575060a0015192915050565b506080015192915050565b60008060015b600b548111611a7e576000818152600e60205260409020600a0154600160a81b900460ff16158015611a5957506000818152600e60205260409020600a0154600160a01b900460ff1615156001145b15611a6c5781611a6881612bd3565b9250505b80611a7681612bd3565b915050611a0a565b50919050565b600260065403611ad65760405162461bcd60e51b815260206004820152601f60248201527f5265656e7472616e637947756172643a207265656e7472616e742063616c6c006044820152606401610a11565b6002600655611ae3611ba8565b60015b600b548111611ba057600a546000828152600e602052604090206001015403611b8e576000818152600e602052604090206002015460095403611b4e576000818152600e6020526040902060080154611b499082906001600160a01b0316611da6565b611b8e565b6000818152600e602052604090206002015460095414611b8e576000818152600e6020526040902060090154611b8e9082906001600160a01b0316611da6565b80611b9881612bd3565b915050611ae6565b506001600655565b6000611bbe600c5430634a02b38460e01b611fcc565b9050611c006040518060400160405280600381526020016219d95d60ea1b8152506040518060a0016040528060718152602001612f6160719139839190611ff1565b611c5060405180604001604052806005815260200164706174683160d81b81525060405180604001604052806006815260200165302c4e616d6560d01b81525083611ff19092919063ffffffff16565b611ca0604051806040016040528060058152602001643830ba341960d91b81525060405180604001604052806006815260200165302c57696e7360d01b81525083611ff19092919063ffffffff16565b611cf260405180604001604052806005815260200164706174683360d81b81525060405180604001604052806008815260200167302c4c6f7373657360c01b81525083611ff19092919063ffffffff16565b611d44604051806040016040528060058152602001641c185d1a0d60da1b815250604051806040016040528060088152602001670c0b11d85b59525160c21b81525083611ff19092919063ffffffff16565b611d9660405180604001604052806005815260200164706174683560d81b815250604051806040016040528060088152602001670c0b1519585b525160c21b81525083611ff19092919063ffffffff16565b611da281600d54612014565b5050565b600260065403611df85760405162461bcd60e51b815260206004820152601f60248201527f5265656e7472616e637947756172643a207265656e7472616e742063616c6c006044820152606401610a11565b60026006556000828152600e60205260409020600a0154600160a01b900460ff161515600114611e5e5760405162461bcd60e51b8152602060048201526011602482015270426574206973206e6f742041637469766560781b6044820152606401610a11565b6000828152600e60205260409020600a0154600160a81b900460ff161515600114611ec15760405162461bcd60e51b815260206004820152601360248201527210995d081a5cc81b9bdd081058d8d95c1d1959606a1b6044820152606401610a11565b6000828152600e60208181526040808420600a810180546001600160a01b0319166001600160a01b0388161790558151808301909252600682526510db1bdcd95960d21b8284015293869052919052600b90910190611f209082612c7f565b506000828152600e60205260408120600a8101805460ff60a01b1916905560070154611f4d906002612d6c565b60405190915082906001600160a01b0382169083156108fc029084906000818181858888f19350505050158015611f88573d6000803e3d6000fd5b50806001600160a01b031682857f597a101e271512cbf5aa9ec669ae424aca2c3d863fd79008b760a76b585a059760405160405180910390a4505060016006555050565b611fd46126e3565b611fdc6126e3565b611fe881868686612037565b95945050505050565b6080830151612000908361207d565b608083015161200f908261207d565b505050565b60035460009061202e906001600160a01b03168484612094565b90505b92915050565b61203f6126e3565b61204f8560800151610100612125565b50508284526001600160a01b03821660208501526001600160e01b031981166040850152835b949350505050565b61208a826003835161218a565b61200f8282612297565b6004546000906120a5816001612d83565b60045583516040808601516080870151519151600093633c6d41b960e01b936120db938693849392899160029190602401612d96565b60408051601f198184030181529190526020810180516001600160e01b03166001600160e01b031990931692909217909152905061211b868386846122be565b9695505050505050565b604080518082019091526060815260006020820152612145602083612deb565b1561216d57612155602083612deb565b612160906020612e0d565b61216a9083612d83565b91505b506020828101829052604080518085526000815290920101905290565b6017816001600160401b0316116121b4576121ae8360e0600585901b16831761241c565b50505050565b60ff816001600160401b0316116121f0576121da836018611fe0600586901b161761241c565b506121ae836001600160401b0383166001612441565b61ffff816001600160401b03161161222d57612217836019611fe0600586901b161761241c565b506121ae836001600160401b0383166002612441565b63ffffffff816001600160401b03161161226c5761225683601a611fe0600586901b161761241c565b506121ae836001600160401b0383166004612441565b61228183601b611fe0600586901b161761241c565b506121ae836001600160401b0383166008612441565b60408051808201909152606081526000602082015261202e83846000015151848551612467565b6040516bffffffffffffffffffffffff193060601b1660208201526034810184905260009060540160408051808303601f1901815282825280516020918201206000818152600590925291812080546001600160a01b0319166001600160a01b038a1617905590925082917fb5e6e01e79f91267dc17b4e6314d5d4d03593d2ceee0fbb452b750bd70ea5af99190a2600254604051630200057560e51b81526001600160a01b0390911690634000aea09061238190889087908790600401612e20565b6020604051808303816000875af11580156123a0573d6000803e3d6000fd5b505050506040513d601f19601f820116820180604052508101906123c49190612e47565b6120755760405162461bcd60e51b815260206004820152602360248201527f756e61626c6520746f207472616e73666572416e6443616c6c20746f206f7261604482015262636c6560e81b6064820152608401610a11565b60408051808201909152606081526000602082015261202e8384600001515184612551565b6040805180820190915260608152600060208201526120758485600001515185856125ac565b604080518082019091526060815260006020820152825182111561248a57600080fd5b60208501516124998386612d83565b11156124cc576124cc856124bc876020015187866124b79190612d83565b61262d565b6124c7906002612d6c565b61263e565b6000808651805187602083010193508088870111156124eb5787860182525b505050602084015b6020841061252b578051825261250a602083612d83565b9150612517602082612d83565b9050612524602085612e0d565b93506124f3565b51815160001960208690036101000a019081169019919091161790525083949350505050565b604080518082019091526060815260006020820152836020015183106125865761258684856020015160026124c79190612d6c565b83518051602085830101848153508085036125a2576001810182525b5093949350505050565b60408051808201909152606081526000602082015260208501516125d08584612d83565b11156125e4576125e4856124bc8685612d83565b600060016125f484610100612f54565b6125fe9190612e0d565b90508551838682010185831982511617815250805184870111156126225783860181525b509495945050505050565b600081831115611a7e575081612031565b815161264a8383612125565b506121ae8382612297565b604051806101c00160405280600081526020016000815260200160008152602001606081526020016060815260200160608152602001606081526020016000815260200160006001600160a01b0316815260200160006001600160a01b0316815260200160006001600160a01b03168152602001600015158152602001600015158152602001606081525090565b6040805160a0810182526000808252602080830182905282840182905260608084018390528451808601909552845283015290608082015290565b6000815180845260005b8181101561274457602081850181015186830182015201612728565b506000602082860101526020601f19601f83011685010191505092915050565b60006020808301818452808551808352604092508286019150828160051b87010184880160005b838110156128b957603f1989840301855281516101c0815185528882015189860152878201518886015260608083015182828801526127cc8388018261271e565b92505050608080830151868303828801526127e7838261271e565b9250505060a08083015186830382880152612802838261271e565b9250505060c0808301518683038288015261281d838261271e565b9250505060e080830151818701525061010080830151612847828801826001600160a01b03169052565b5050610120828101516001600160a01b0390811691870191909152610140808401519091169086015261016080830151151590860152610180808301511515908601526101a091820151858203928601929092526128a5818361271e565b96890196945050509086019060010161278b565b509098975050505050505050565b6000602082840312156128d957600080fd5b5035919050565b8e81528d60208201528c60408201526101c0606082015260006129076101c083018e61271e565b8281036080840152612919818e61271e565b905082810360a084015261292d818d61271e565b905082810360c0840152612941818c61271e565b90508960e084015261295f61010084018a6001600160a01b03169052565b6001600160a01b0388166101208401526001600160a01b0387166101408401528515156101608401528415156101808401528281036101a08401526129a4818561271e565b9150509f9e505050505050505050505050505050565b634e487b7160e01b600052604160045260246000fd5b600082601f8301126129e157600080fd5b81356001600160401b03808211156129fb576129fb6129ba565b604051601f8301601f19908116603f01168101908282118183101715612a2357612a236129ba565b81604052838152866020858801011115612a3c57600080fd5b836020870160208301376000602085830101528094505050505092915050565b600080600080600080600060e0888a031215612a7757600080fd5b873596506020880135955060408801356001600160401b0380821115612a9c57600080fd5b612aa88b838c016129d0565b965060608a0135915080821115612abe57600080fd5b612aca8b838c016129d0565b955060808a0135915080821115612ae057600080fd5b612aec8b838c016129d0565b945060a08a0135935060c08a0135915080821115612b0957600080fd5b50612b168a828b016129d0565b91505092959891949750929550565b600080600080600060a08688031215612b3d57600080fd5b505083359560208501359550604085013594606081013594506080013592509050565b60208152600061202e602083018461271e565b634e487b7160e01b600052603260045260246000fd5b600181811c90821680612b9d57607f821691505b602082108103611a7e57634e487b7160e01b600052602260045260246000fd5b634e487b7160e01b600052601160045260246000fd5b600060018201612be557612be5612bbd565b5060010190565b60208082526025908201527f596f752073686f756c642070726f76696465207072696365206173206d73672e60408201526476616c756560d81b606082015260800190565b601f82111561200f57600081815260208120601f850160051c81016020861015612c585750805b601f850160051c820191505b81811015612c7757828155600101612c64565b505050505050565b81516001600160401b03811115612c9857612c986129ba565b612cac81612ca68454612b89565b84612c31565b602080601f831160018114612ce15760008415612cc95750858301515b600019600386901b1c1916600185901b178555612c77565b600085815260208120601f198616915b82811015612d1057888601518255948401946001909101908401612cf1565b5085821015612d2e5787850151600019600388901b60f8161c191681555b5050505050600190811b01905550565b60208082526014908201527310995d081a5cc81b9bdd081c1d589b1a5cda195960621b604082015260600190565b808202811582820484141761203157612031612bbd565b8082018082111561203157612031612bbd565b60018060a01b038816815286602082015285604082015263ffffffff60e01b851660608201528360808201528260a082015260e060c08201526000612dde60e083018461271e565b9998505050505050505050565b600082612e0857634e487b7160e01b600052601260045260246000fd5b500690565b8181038181111561203157612031612bbd565b60018060a01b0384168152826020820152606060408201526000611fe8606083018461271e565b600060208284031215612e5957600080fd5b81518015158114612e6957600080fd5b9392505050565b600181815b80851115612eab578160001904821115612e9157612e91612bbd565b80851615612e9e57918102915b93841c9390800290612e75565b509250929050565b600082612ec257506001612031565b81612ecf57506000612031565b8160018114612ee55760028114612eef57612f0b565b6001915050612031565b60ff841115612f0057612f00612bbd565b50506001821b612031565b5060208310610133831016604e8410600b8410161715612f2e575081810a612031565b612f388383612e70565b8060001904821115612f4c57612f4c612bbd565b029392505050565b600061202e8383612eb356fe68747470733a2f2f6170692e73706f727473646174612e696f2f76332f6e62612f73636f7265732f6a736f6e2f5465616d47616d6553746174734279536561736f6e2f323032332f31312f313f6b65793d3736633262353661636532383435633539653834663330623861383861643336a2646970667358221220c22a2962ac20462a2dc7b6819cbe0bd11de0e9eb7d3d02c937d43ac8a3e8848564736f6c63430008110033",
	"bytecodeSha1": "1c59a43b1bc1548fde4106706a3b84b62df14d4b",
	"compiler": {
		"evm_version": "istanbul",
		"optimizer": {
			"enabled": true,
			"runs": 200
		},
		"version": "0.8.17+commit.8df45f5f"
	},
	"contractName": "BetContract",
	"language": "Solidity",
	"natspec": {
		"kind": "dev",
		"methods": {},
		"version": 1
	},
	"opcodes": "PUSH1 0x80 PUSH1 0x40 MSTORE PUSH1 0x4 CALLDATASIZE LT PUSH2 0xC2 JUMPI PUSH1 0x0 CALLDATALOAD PUSH1 0xE0 SHR DUP1 PUSH4 0x6C0C27E1 GT PUSH2 0x7F JUMPI DUP1 PUSH4 0xAB751877 GT PUSH2 0x59 JUMPI DUP1 PUSH4 0xAB751877 EQ PUSH2 0x1D6 JUMPI DUP1 PUSH4 0xBC21CA0E EQ PUSH2 0x203 JUMPI DUP1 PUSH4 0xC738F5E3 EQ PUSH2 0x218 JUMPI DUP1 PUSH4 0xF222D0B9 EQ PUSH2 0x22D JUMPI PUSH1 0x0 DUP1 REVERT JUMPDEST DUP1 PUSH4 0x6C0C27E1 EQ PUSH2 0x198 JUMPI DUP1 PUSH4 0x9A7B8918 EQ PUSH2 0x1AB JUMPI DUP1 PUSH4 0xA416F5AB EQ PUSH2 0x1C0 JUMPI PUSH1 0x0 DUP1 REVERT JUMPDEST DUP1 PUSH4 0x12074A46 EQ PUSH2 0xC7 JUMPI DUP1 PUSH4 0x22AF00FA EQ PUSH2 0xF2 JUMPI DUP1 PUSH4 0x34EAA808 EQ PUSH2 0x12C JUMPI DUP1 PUSH4 0x357401F5 EQ PUSH2 0x141 JUMPI DUP1 PUSH4 0x4A02B384 EQ PUSH2 0x154 JUMPI DUP1 PUSH4 0x536A3DDC EQ PUSH2 0x174 JUMPI JUMPDEST PUSH1 0x0 DUP1 REVERT JUMPDEST CALLVALUE DUP1 ISZERO PUSH2 0xD3 JUMPI PUSH1 0x0 DUP1 REVERT JUMPDEST POP PUSH2 0xDC PUSH2 0x242 JUMP JUMPDEST PUSH1 0x40 MLOAD PUSH2 0xE9 SWAP2 SWAP1 PUSH2 0x2764 JUMP JUMPDEST PUSH1 0x40 MLOAD DUP1 SWAP2 SUB SWAP1 RETURN JUMPDEST CALLVALUE DUP1 ISZERO PUSH2 0xFE JUMPI PUSH1 0x0 DUP1 REVERT JUMPDEST POP PUSH2 0x112 PUSH2 0x10D CALLDATASIZE PUSH1 0x4 PUSH2 0x28C7 JUMP JUMPDEST PUSH2 0x68F JUMP JUMPDEST PUSH1 0x40 MLOAD PUSH2 0xE9 SWAP15 SWAP14 SWAP13 SWAP12 SWAP11 SWAP10 SWAP9 SWAP8 SWAP7 SWAP6 SWAP5 SWAP4 SWAP3 SWAP2 SWAP1 PUSH2 0x28E0 JUMP JUMPDEST PUSH2 0x13F PUSH2 0x13A CALLDATASIZE PUSH1 0x4 PUSH2 0x2A5C JUMP JUMPDEST PUSH2 0x9BE JUMP JUMPDEST STOP JUMPDEST PUSH2 0x13F PUSH2 0x14F CALLDATASIZE PUSH1 0x4 PUSH2 0x28C7 JUMP JUMPDEST PUSH2 0xC5D JUMP JUMPDEST CALLVALUE DUP1 ISZERO PUSH2 0x160 JUMPI PUSH1 0x0 DUP1 REVERT JUMPDEST POP PUSH2 0x13F PUSH2 0x16F CALLDATASIZE PUSH1 0x4 PUSH2 0x2B25 JUMP JUMPDEST PUSH2 0xE09 JUMP JUMPDEST CALLVALUE DUP1 ISZERO PUSH2 0x180 JUMPI PUSH1 0x0 DUP1 REVERT JUMPDEST POP PUSH2 0x18A PUSH1 0xA SLOAD DUP2 JUMP JUMPDEST PUSH1 0x40 MLOAD SWAP1 DUP2 MSTORE PUSH1 0x20 ADD PUSH2 0xE9 JUMP JUMPDEST PUSH2 0x13F PUSH2 0x1A6 CALLDATASIZE PUSH1 0x4 PUSH2 0x28C7 JUMP JUMPDEST PUSH2 0xF25 JUMP JUMPDEST CALLVALUE DUP1 ISZERO PUSH2 0x1B7 JUMPI PUSH1 0x0 DUP1 REVERT JUMPDEST POP PUSH2 0xDC PUSH2 0x1138 JUMP JUMPDEST CALLVALUE DUP1 ISZERO PUSH2 0x1CC JUMPI PUSH1 0x0 DUP1 REVERT JUMPDEST POP PUSH2 0x18A PUSH1 0xB SLOAD DUP2 JUMP JUMPDEST CALLVALUE DUP1 ISZERO PUSH2 0x1E2 JUMPI PUSH1 0x0 DUP1 REVERT JUMPDEST POP PUSH2 0x1F6 PUSH2 0x1F1 CALLDATASIZE PUSH1 0x4 PUSH2 0x28C7 JUMP JUMPDEST PUSH2 0x1651 JUMP JUMPDEST PUSH1 0x40 MLOAD PUSH2 0xE9 SWAP2 SWAP1 PUSH2 0x2B60 JUMP JUMPDEST CALLVALUE DUP1 ISZERO PUSH2 0x20F JUMPI PUSH1 0x0 DUP1 REVERT JUMPDEST POP PUSH2 0x18A PUSH2 0x1A04 JUMP JUMPDEST CALLVALUE DUP1 ISZERO PUSH2 0x224 JUMPI PUSH1 0x0 DUP1 REVERT JUMPDEST POP PUSH2 0x13F PUSH2 0x1A84 JUMP JUMPDEST CALLVALUE DUP1 ISZERO PUSH2 0x239 JUMPI PUSH1 0x0 DUP1 REVERT JUMPDEST POP PUSH1 0xB SLOAD PUSH2 0x18A JUMP JUMPDEST CALLER PUSH1 0x0 SWAP1 DUP2 MSTORE PUSH1 0xF PUSH1 0x20 MSTORE PUSH1 0x40 DUP2 KECCAK256 SLOAD PUSH1 0x60 SWAP2 DUP2 PUSH1 0x1 PUSH1 0x1 PUSH1 0x40 SHL SUB DUP2 GT ISZERO PUSH2 0x26D JUMPI PUSH2 0x26D PUSH2 0x29BA JUMP JUMPDEST PUSH1 0x40 MLOAD SWAP1 DUP1 DUP3 MSTORE DUP1 PUSH1 0x20 MUL PUSH1 0x20 ADD DUP3 ADD PUSH1 0x40 MSTORE DUP1 ISZERO PUSH2 0x2A6 JUMPI DUP2 PUSH1 0x20 ADD JUMPDEST PUSH2 0x293 PUSH2 0x2655 JUMP JUMPDEST DUP2 MSTORE PUSH1 0x20 ADD SWAP1 PUSH1 0x1 SWAP1 SUB SWAP1 DUP2 PUSH2 0x28B JUMPI SWAP1 POP JUMPDEST POP SWAP1 POP PUSH1 0x0 JUMPDEST DUP3 DUP2 LT ISZERO PUSH2 0x688 JUMPI CALLER PUSH1 0x0 SWAP1 DUP2 MSTORE PUSH1 0xF PUSH1 0x20 MSTORE PUSH1 0x40 DUP2 KECCAK256 DUP1 SLOAD DUP4 SWAP1 DUP2 LT PUSH2 0x2D5 JUMPI PUSH2 0x2D5 PUSH2 0x2B73 JUMP JUMPDEST SWAP1 PUSH1 0x0 MSTORE PUSH1 0x20 PUSH1 0x0 KECCAK256 ADD SLOAD SWAP1 POP PUSH1 0xE PUSH1 0x0 DUP3 DUP2 MSTORE PUSH1 0x20 ADD SWAP1 DUP2 MSTORE PUSH1 0x20 ADD PUSH1 0x0 KECCAK256 PUSH1 0x40 MLOAD DUP1 PUSH2 0x1C0 ADD PUSH1 0x40 MSTORE SWAP1 DUP2 PUSH1 0x0 DUP3 ADD SLOAD DUP2 MSTORE PUSH1 0x20 ADD PUSH1 0x1 DUP3 ADD SLOAD DUP2 MSTORE PUSH1 0x20 ADD PUSH1 0x2 DUP3 ADD SLOAD DUP2 MSTORE PUSH1 0x20 ADD PUSH1 0x3 DUP3 ADD DUP1 SLOAD PUSH2 0x32F SWAP1 PUSH2 0x2B89 JUMP JUMPDEST DUP1 PUSH1 0x1F ADD PUSH1 0x20 DUP1 SWAP2 DIV MUL PUSH1 0x20 ADD PUSH1 0x40 MLOAD SWAP1 DUP2 ADD PUSH1 0x40 MSTORE DUP1 SWAP3 SWAP2 SWAP1 DUP2 DUP2 MSTORE PUSH1 0x20 ADD DUP3 DUP1 SLOAD PUSH2 0x35B SWAP1 PUSH2 0x2B89 JUMP JUMPDEST DUP1 ISZERO PUSH2 0x3A8 JUMPI DUP1 PUSH1 0x1F LT PUSH2 0x37D JUMPI PUSH2 0x100 DUP1 DUP4 SLOAD DIV MUL DUP4 MSTORE SWAP2 PUSH1 0x20 ADD SWAP2 PUSH2 0x3A8 JUMP JUMPDEST DUP3 ADD SWAP2 SWAP1 PUSH1 0x0 MSTORE PUSH1 0x20 PUSH1 0x0 KECCAK256 SWAP1 JUMPDEST DUP2 SLOAD DUP2 MSTORE SWAP1 PUSH1 0x1 ADD SWAP1 PUSH1 0x20 ADD DUP1 DUP4 GT PUSH2 0x38B JUMPI DUP3 SWAP1 SUB PUSH1 0x1F AND DUP3 ADD SWAP2 JUMPDEST POP POP POP POP POP DUP2 MSTORE PUSH1 0x20 ADD PUSH1 0x4 DUP3 ADD DUP1 SLOAD PUSH2 0x3C1 SWAP1 PUSH2 0x2B89 JUMP JUMPDEST DUP1 PUSH1 0x1F ADD PUSH1 0x20 DUP1 SWAP2 DIV MUL PUSH1 0x20 ADD PUSH1 0x40 MLOAD SWAP1 DUP2 ADD PUSH1 0x40 MSTORE DUP1 SWAP3 SWAP2 SWAP1 DUP2 DUP2 MSTORE PUSH1 0x20 ADD DUP3 DUP1 SLOAD PUSH2 0x3ED SWAP1 PUSH2 0x2B89 JUMP JUMPDEST DUP1 ISZERO PUSH2 0x43A JUMPI DUP1 PUSH1 0x1F LT PUSH2 0x40F JUMPI PUSH2 0x100 DUP1 DUP4 SLOAD DIV MUL DUP4 MSTORE SWAP2 PUSH1 0x20 ADD SWAP2 PUSH2 0x43A JUMP JUMPDEST DUP3 ADD SWAP2 SWAP1 PUSH1 0x0 MSTORE PUSH1 0x20 PUSH1 0x0 KECCAK256 SWAP1 JUMPDEST DUP2 SLOAD DUP2 MSTORE SWAP1 PUSH1 0x1 ADD SWAP1 PUSH1 0x20 ADD DUP1 DUP4 GT PUSH2 0x41D JUMPI DUP3 SWAP1 SUB PUSH1 0x1F AND DUP3 ADD SWAP2 JUMPDEST POP POP POP POP POP DUP2 MSTORE PUSH1 0x20 ADD PUSH1 0x5 DUP3 ADD DUP1 SLOAD PUSH2 0x453 SWAP1 PUSH2 0x2B89 JUMP JUMPDEST DUP1 PUSH1 0x1F ADD PUSH1 0x20 DUP1 SWAP2 DIV MUL PUSH1 0x20 ADD PUSH1 0x40 MLOAD SWAP1 DUP2 ADD PUSH1 0x40 MSTORE DUP1 SWAP3 SWAP2 SWAP1 DUP2 DUP2 MSTORE PUSH1 0x20 ADD DUP3 DUP1 SLOAD PUSH2 0x47F SWAP1 PUSH2 0x2B89 JUMP JUMPDEST DUP1 ISZERO PUSH2 0x4CC JUMPI DUP1 PUSH1 0x1F LT PUSH2 0x4A1 JUMPI PUSH2 0x100 DUP1 DUP4 SLOAD DIV MUL DUP4 MSTORE SWAP2 PUSH1 0x20 ADD SWAP2 PUSH2 0x4CC JUMP JUMPDEST DUP3 ADD SWAP2 SWAP1 PUSH1 0x0 MSTORE PUSH1 0x20 PUSH1 0x0 KECCAK256 SWAP1 JUMPDEST DUP2 SLOAD DUP2 MSTORE SWAP1 PUSH1 0x1 ADD SWAP1 PUSH1 0x20 ADD DUP1 DUP4 GT PUSH2 0x4AF JUMPI DUP3 SWAP1 SUB PUSH1 0x1F AND DUP3 ADD SWAP2 JUMPDEST POP POP POP POP POP DUP2 MSTORE PUSH1 0x20 ADD PUSH1 0x6 DUP3 ADD DUP1 SLOAD PUSH2 0x4E5 SWAP1 PUSH2 0x2B89 JUMP JUMPDEST DUP1 PUSH1 0x1F ADD PUSH1 0x20 DUP1 SWAP2 DIV MUL PUSH1 0x20 ADD PUSH1 0x40 MLOAD SWAP1 DUP2 ADD PUSH1 0x40 MSTORE DUP1 SWAP3 SWAP2 SWAP1 DUP2 DUP2 MSTORE PUSH1 0x20 ADD DUP3 DUP1 SLOAD PUSH2 0x511 SWAP1 PUSH2 0x2B89 JUMP JUMPDEST DUP1 ISZERO PUSH2 0x55E JUMPI DUP1 PUSH1 0x1F LT PUSH2 0x533 JUMPI PUSH2 0x100 DUP1 DUP4 SLOAD DIV MUL DUP4 MSTORE SWAP2 PUSH1 0x20 ADD SWAP2 PUSH2 0x55E JUMP JUMPDEST DUP3 ADD SWAP2 SWAP1 PUSH1 0x0 MSTORE PUSH1 0x20 PUSH1 0x0 KECCAK256 SWAP1 JUMPDEST DUP2 SLOAD DUP2 MSTORE SWAP1 PUSH1 0x1 ADD SWAP1 PUSH1 0x20 ADD DUP1 DUP4 GT PUSH2 0x541 JUMPI DUP3 SWAP1 SUB PUSH1 0x1F AND DUP3 ADD SWAP2 JUMPDEST POP POP POP SWAP2 DUP4 MSTORE POP POP PUSH1 0x7 DUP3 ADD SLOAD PUSH1 0x20 DUP3 ADD MSTORE PUSH1 0x8 DUP3 ADD SLOAD PUSH1 0x1 PUSH1 0x1 PUSH1 0xA0 SHL SUB SWAP1 DUP2 AND PUSH1 0x40 DUP4 ADD MSTORE PUSH1 0x9 DUP4 ADD SLOAD DUP2 AND PUSH1 0x60 DUP4 ADD MSTORE PUSH1 0xA DUP4 ADD SLOAD SWAP1 DUP2 AND PUSH1 0x80 DUP4 ADD MSTORE PUSH1 0xFF PUSH1 0x1 PUSH1 0xA0 SHL DUP3 DIV DUP2 AND ISZERO ISZERO PUSH1 0xA0 DUP5 ADD MSTORE PUSH1 0x1 PUSH1 0xA8 SHL SWAP1 SWAP2 DIV AND ISZERO ISZERO PUSH1 0xC0 DUP3 ADD MSTORE PUSH1 0xB DUP3 ADD DUP1 SLOAD PUSH1 0xE0 SWAP1 SWAP3 ADD SWAP2 PUSH2 0x5D5 SWAP1 PUSH2 0x2B89 JUMP JUMPDEST DUP1 PUSH1 0x1F ADD PUSH1 0x20 DUP1 SWAP2 DIV MUL PUSH1 0x20 ADD PUSH1 0x40 MLOAD SWAP1 DUP2 ADD PUSH1 0x40 MSTORE DUP1 SWAP3 SWAP2 SWAP1 DUP2 DUP2 MSTORE PUSH1 0x20 ADD DUP3 DUP1 SLOAD PUSH2 0x601 SWAP1 PUSH2 0x2B89 JUMP JUMPDEST DUP1 ISZERO PUSH2 0x64E JUMPI DUP1 PUSH1 0x1F LT PUSH2 0x623 JUMPI PUSH2 0x100 DUP1 DUP4 SLOAD DIV MUL DUP4 MSTORE SWAP2 PUSH1 0x20 ADD SWAP2 PUSH2 0x64E JUMP JUMPDEST DUP3 ADD SWAP2 SWAP1 PUSH1 0x0 MSTORE PUSH1 0x20 PUSH1 0x0 KECCAK256 SWAP1 JUMPDEST DUP2 SLOAD DUP2 MSTORE SWAP1 PUSH1 0x1 ADD SWAP1 PUSH1 0x20 ADD DUP1 DUP4 GT PUSH2 0x631 JUMPI DUP3 SWAP1 SUB PUSH1 0x1F AND DUP3 ADD SWAP2 JUMPDEST POP POP POP POP POP DUP2 MSTORE POP POP DUP4 DUP4 DUP2 MLOAD DUP2 LT PUSH2 0x669 JUMPI PUSH2 0x669 PUSH2 0x2B73 JUMP JUMPDEST PUSH1 0x20 MUL PUSH1 0x20 ADD ADD DUP2 SWAP1 MSTORE POP POP DUP1 DUP1 PUSH2 0x680 SWAP1 PUSH2 0x2BD3 JUMP JUMPDEST SWAP2 POP POP PUSH2 0x2AC JUMP JUMPDEST POP SWAP3 SWAP2 POP POP JUMP JUMPDEST PUSH1 0xE PUSH1 0x20 MSTORE PUSH1 0x0 SWAP1 DUP2 MSTORE PUSH1 0x40 SWAP1 KECCAK256 DUP1 SLOAD PUSH1 0x1 DUP3 ADD SLOAD PUSH1 0x2 DUP4 ADD SLOAD PUSH1 0x3 DUP5 ADD DUP1 SLOAD SWAP4 SWAP5 SWAP3 SWAP4 SWAP2 SWAP3 SWAP2 PUSH2 0x6BF SWAP1 PUSH2 0x2B89 JUMP JUMPDEST DUP1 PUSH1 0x1F ADD PUSH1 0x20 DUP1 SWAP2 DIV MUL PUSH1 0x20 ADD PUSH1 0x40 MLOAD SWAP1 DUP2 ADD PUSH1 0x40 MSTORE DUP1 SWAP3 SWAP2 SWAP1 DUP2 DUP2 MSTORE PUSH1 0x20 ADD DUP3 DUP1 SLOAD PUSH2 0x6EB SWAP1 PUSH2 0x2B89 JUMP JUMPDEST DUP1 ISZERO PUSH2 0x738 JUMPI DUP1 PUSH1 0x1F LT PUSH2 0x70D JUMPI PUSH2 0x100 DUP1 DUP4 SLOAD DIV MUL DUP4 MSTORE SWAP2 PUSH1 0x20 ADD SWAP2 PUSH2 0x738 JUMP JUMPDEST DUP3 ADD SWAP2 SWAP1 PUSH1 0x0 MSTORE PUSH1 0x20 PUSH1 0x0 KECCAK256 SWAP1 JUMPDEST DUP2 SLOAD DUP2 MSTORE SWAP1 PUSH1 0x1 ADD SWAP1 PUSH1 0x20 ADD DUP1 DUP4 GT PUSH2 0x71B JUMPI DUP3 SWAP1 SUB PUSH1 0x1F AND DUP3 ADD SWAP2 JUMPDEST POP POP POP POP POP SWAP1 DUP1 PUSH1 0x4 ADD DUP1 SLOAD PUSH2 0x74D SWAP1 PUSH2 0x2B89 JUMP JUMPDEST DUP1 PUSH1 0x1F ADD PUSH1 0x20 DUP1 SWAP2 DIV MUL PUSH1 0x20 ADD PUSH1 0x40 MLOAD SWAP1 DUP2 ADD PUSH1 0x40 MSTORE DUP1 SWAP3 SWAP2 SWAP1 DUP2 DUP2 MSTORE PUSH1 0x20 ADD DUP3 DUP1 SLOAD PUSH2 0x779 SWAP1 PUSH2 0x2B89 JUMP JUMPDEST DUP1 ISZERO PUSH2 0x7C6 JUMPI DUP1 PUSH1 0x1F LT PUSH2 0x79B JUMPI PUSH2 0x100 DUP1 DUP4 SLOAD DIV MUL DUP4 MSTORE SWAP2 PUSH1 0x20 ADD SWAP2 PUSH2 0x7C6 JUMP JUMPDEST DUP3 ADD SWAP2 SWAP1 PUSH1 0x0 MSTORE PUSH1 0x20 PUSH1 0x0 KECCAK256 SWAP1 JUMPDEST DUP2 SLOAD DUP2 MSTORE SWAP1 PUSH1 0x1 ADD SWAP1 PUSH1 0x20 ADD DUP1 DUP4 GT PUSH2 0x7A9 JUMPI DUP3 SWAP1 SUB PUSH1 0x1F AND DUP3 ADD SWAP2 JUMPDEST POP POP POP POP POP SWAP1 DUP1 PUSH1 0x5 ADD DUP1 SLOAD PUSH2 0x7DB SWAP1 PUSH2 0x2B89 JUMP JUMPDEST DUP1 PUSH1 0x1F ADD PUSH1 0x20 DUP1 SWAP2 DIV MUL PUSH1 0x20 ADD PUSH1 0x40 MLOAD SWAP1 DUP2 ADD PUSH1 0x40 MSTORE DUP1 SWAP3 SWAP2 SWAP1 DUP2 DUP2 MSTORE PUSH1 0x20 ADD DUP3 DUP1 SLOAD PUSH2 0x807 SWAP1 PUSH2 0x2B89 JUMP JUMPDEST DUP1 ISZERO PUSH2 0x854 JUMPI DUP1 PUSH1 0x1F LT PUSH2 0x829 JUMPI PUSH2 0x100 DUP1 DUP4 SLOAD DIV MUL DUP4 MSTORE SWAP2 PUSH1 0x20 ADD SWAP2 PUSH2 0x854 JUMP JUMPDEST DUP3 ADD SWAP2 SWAP1 PUSH1 0x0 MSTORE PUSH1 0x20 PUSH1 0x0 KECCAK256 SWAP1 JUMPDEST DUP2 SLOAD DUP2 MSTORE SWAP1 PUSH1 0x1 ADD SWAP1 PUSH1 0x20 ADD DUP1 DUP4 GT PUSH2 0x837 JUMPI DUP3 SWAP1 SUB PUSH1 0x1F AND DUP3 ADD SWAP2 JUMPDEST POP POP POP POP POP SWAP1 DUP1 PUSH1 0x6 ADD DUP1 SLOAD PUSH2 0x869 SWAP1 PUSH2 0x2B89 JUMP JUMPDEST DUP1 PUSH1 0x1F ADD PUSH1 0x20 DUP1 SWAP2 DIV MUL PUSH1 0x20 ADD PUSH1 0x40 MLOAD SWAP1 DUP2 ADD PUSH1 0x40 MSTORE DUP1 SWAP3 SWAP2 SWAP1 DUP2 DUP2 MSTORE PUSH1 0x20 ADD DUP3 DUP1 SLOAD PUSH2 0x895 SWAP1 PUSH2 0x2B89 JUMP JUMPDEST DUP1 ISZERO PUSH2 0x8E2 JUMPI DUP1 PUSH1 0x1F LT PUSH2 0x8B7 JUMPI PUSH2 0x100 DUP1 DUP4 SLOAD DIV MUL DUP4 MSTORE SWAP2 PUSH1 0x20 ADD SWAP2 PUSH2 0x8E2 JUMP JUMPDEST DUP3 ADD SWAP2 SWAP1 PUSH1 0x0 MSTORE PUSH1 0x20 PUSH1 0x0 KECCAK256 SWAP1 JUMPDEST DUP2 SLOAD DUP2 MSTORE SWAP1 PUSH1 0x1 ADD SWAP1 PUSH1 0x20 ADD DUP1 DUP4 GT PUSH2 0x8C5 JUMPI DUP3 SWAP1 SUB PUSH1 0x1F AND DUP3 ADD SWAP2 JUMPDEST POP POP POP PUSH1 0x7 DUP5 ADD SLOAD PUSH1 0x8 DUP6 ADD SLOAD PUSH1 0x9 DUP7 ADD SLOAD PUSH1 0xA DUP8 ADD SLOAD PUSH1 0xB DUP9 ADD DUP1 SLOAD SWAP8 SWAP9 SWAP5 SWAP8 PUSH1 0x1 PUSH1 0x1 PUSH1 0xA0 SHL SUB SWAP5 DUP6 AND SWAP8 POP SWAP3 DUP5 AND SWAP6 POP SWAP3 DUP2 AND SWAP4 PUSH1 0xFF PUSH1 0x1 PUSH1 0xA0 SHL DUP4 DIV DUP2 AND SWAP5 PUSH1 0x1 PUSH1 0xA8 SHL SWAP1 SWAP4 DIV AND SWAP3 SWAP1 SWAP2 SWAP1 PUSH2 0x93B SWAP1 PUSH2 0x2B89 JUMP JUMPDEST DUP1 PUSH1 0x1F ADD PUSH1 0x20 DUP1 SWAP2 DIV MUL PUSH1 0x20 ADD PUSH1 0x40 MLOAD SWAP1 DUP2 ADD PUSH1 0x40 MSTORE DUP1 SWAP3 SWAP2 SWAP1 DUP2 DUP2 MSTORE PUSH1 0x20 ADD DUP3 DUP1 SLOAD PUSH2 0x967 SWAP1 PUSH2 0x2B89 JUMP JUMPDEST DUP1 ISZERO PUSH2 0x9B4 JUMPI DUP1 PUSH1 0x1F LT PUSH2 0x989 JUMPI PUSH2 0x100 DUP1 DUP4 SLOAD DIV MUL DUP4 MSTORE SWAP2 PUSH1 0x20 ADD SWAP2 PUSH2 0x9B4 JUMP JUMPDEST DUP3 ADD SWAP2 SWAP1 PUSH1 0x0 MSTORE PUSH1 0x20 PUSH1 0x0 KECCAK256 SWAP1 JUMPDEST DUP2 SLOAD DUP2 MSTORE SWAP1 PUSH1 0x1 ADD SWAP1 PUSH1 0x20 ADD DUP1 DUP4 GT PUSH2 0x997 JUMPI DUP3 SWAP1 SUB PUSH1 0x1F AND DUP3 ADD SWAP2 JUMPDEST POP POP POP POP POP SWAP1 POP DUP15 JUMP JUMPDEST PUSH7 0x38D7EA4C68000 DUP8 LT ISZERO PUSH2 0xA1A JUMPI PUSH1 0x40 MLOAD PUSH3 0x461BCD PUSH1 0xE5 SHL DUP2 MSTORE PUSH1 0x20 PUSH1 0x4 DUP3 ADD MSTORE PUSH1 0x18 PUSH1 0x24 DUP3 ADD MSTORE PUSH32 0x4D696E696D756D2070726963652069732031204D617469630000000000000000 PUSH1 0x44 DUP3 ADD MSTORE PUSH1 0x64 ADD JUMPDEST PUSH1 0x40 MLOAD DUP1 SWAP2 SUB SWAP1 REVERT JUMPDEST DUP7 CALLVALUE LT ISZERO PUSH2 0xA3A JUMPI PUSH1 0x40 MLOAD PUSH3 0x461BCD PUSH1 0xE5 SHL DUP2 MSTORE PUSH1 0x4 ADD PUSH2 0xA11 SWAP1 PUSH2 0x2BEC JUMP JUMPDEST PUSH1 0xB DUP1 SLOAD SWAP1 PUSH1 0x0 PUSH2 0xA4A DUP4 PUSH2 0x2BD3 JUMP JUMPDEST SWAP1 SWAP2 SSTORE POP POP PUSH1 0x40 DUP1 MLOAD PUSH2 0x1C0 DUP2 ADD DUP3 MSTORE PUSH1 0xB SLOAD DUP1 DUP3 MSTORE PUSH1 0x20 DUP1 DUP4 ADD DUP11 DUP2 MSTORE DUP4 DUP6 ADD DUP8 DUP2 MSTORE PUSH1 0x60 DUP6 ADD DUP8 DUP2 MSTORE PUSH1 0x80 DUP7 ADD DUP13 SWAP1 MSTORE PUSH1 0xA0 DUP7 ADD DUP12 SWAP1 MSTORE PUSH1 0xC0 DUP7 ADD DUP11 SWAP1 MSTORE PUSH1 0xE0 DUP7 ADD DUP15 SWAP1 MSTORE CALLER PUSH2 0x100 DUP8 ADD MSTORE PUSH1 0x0 PUSH2 0x120 DUP8 ADD DUP2 SWAP1 MSTORE PUSH2 0x140 DUP8 ADD DUP2 SWAP1 MSTORE PUSH1 0x1 PUSH2 0x160 DUP9 ADD DUP2 SWAP1 MSTORE PUSH2 0x180 DUP9 ADD DUP3 SWAP1 MSTORE DUP9 MLOAD DUP1 DUP11 ADD DUP11 MSTORE PUSH1 0x9 DUP2 MSTORE PUSH9 0x141D589B1A5CDA1959 PUSH1 0xBA SHL DUP2 DUP9 ADD MSTORE PUSH2 0x1A0 DUP10 ADD MSTORE SWAP6 DUP2 MSTORE PUSH1 0xE SWAP1 SWAP5 MSTORE SWAP6 SWAP1 SWAP3 KECCAK256 DUP5 MLOAD DUP2 SSTORE SWAP1 MLOAD SWAP3 DUP2 ADD SWAP3 SWAP1 SWAP3 SSTORE MLOAD PUSH1 0x2 DUP3 ADD SSTORE SWAP2 MLOAD SWAP1 SWAP2 SWAP1 PUSH1 0x3 DUP3 ADD SWAP1 PUSH2 0xB11 SWAP1 DUP3 PUSH2 0x2C7F JUMP JUMPDEST POP PUSH1 0x80 DUP3 ADD MLOAD PUSH1 0x4 DUP3 ADD SWAP1 PUSH2 0xB26 SWAP1 DUP3 PUSH2 0x2C7F JUMP JUMPDEST POP PUSH1 0xA0 DUP3 ADD MLOAD PUSH1 0x5 DUP3 ADD SWAP1 PUSH2 0xB3B SWAP1 DUP3 PUSH2 0x2C7F JUMP JUMPDEST POP PUSH1 0xC0 DUP3 ADD MLOAD PUSH1 0x6 DUP3 ADD SWAP1 PUSH2 0xB50 SWAP1 DUP3 PUSH2 0x2C7F JUMP JUMPDEST POP PUSH1 0xE0 DUP3 ADD MLOAD PUSH1 0x7 DUP3 ADD SSTORE PUSH2 0x100 DUP3 ADD MLOAD PUSH1 0x8 DUP3 ADD DUP1 SLOAD PUSH1 0x1 PUSH1 0x1 PUSH1 0xA0 SHL SUB SWAP3 DUP4 AND PUSH1 0x1 PUSH1 0x1 PUSH1 0xA0 SHL SUB NOT SWAP2 DUP3 AND OR SWAP1 SWAP2 SSTORE PUSH2 0x120 DUP5 ADD MLOAD PUSH1 0x9 DUP5 ADD DUP1 SLOAD SWAP2 DUP5 AND SWAP2 SWAP1 SWAP3 AND OR SWAP1 SSTORE PUSH2 0x140 DUP4 ADD MLOAD PUSH1 0xA DUP4 ADD DUP1 SLOAD PUSH2 0x160 DUP7 ADD MLOAD PUSH2 0x180 DUP8 ADD MLOAD ISZERO ISZERO PUSH1 0x1 PUSH1 0xA8 SHL MUL PUSH1 0xFF PUSH1 0xA8 SHL NOT SWAP2 ISZERO ISZERO PUSH1 0x1 PUSH1 0xA0 SHL MUL PUSH1 0x1 PUSH1 0x1 PUSH1 0xA8 SHL SUB NOT SWAP1 SWAP4 AND SWAP5 SWAP1 SWAP6 AND SWAP4 SWAP1 SWAP4 OR OR SWAP2 SWAP1 SWAP2 AND SWAP2 SWAP1 SWAP2 OR SWAP1 SSTORE PUSH2 0x1A0 DUP3 ADD MLOAD PUSH1 0xB DUP3 ADD SWAP1 PUSH2 0xBFB SWAP1 DUP3 PUSH2 0x2C7F JUMP JUMPDEST POP POP CALLER PUSH1 0x0 DUP2 DUP2 MSTORE PUSH1 0xF PUSH1 0x20 SWAP1 DUP2 MSTORE PUSH1 0x40 DUP1 DUP4 KECCAK256 PUSH1 0xB DUP1 SLOAD DUP3 SLOAD PUSH1 0x1 DUP2 ADD DUP5 SSTORE SWAP3 DUP7 MSTORE SWAP4 DUP6 KECCAK256 SWAP1 SWAP2 ADD SWAP3 SWAP1 SWAP3 SSTORE SWAP1 SLOAD SWAP1 MLOAD DUP12 SWAP5 POP SWAP1 SWAP2 PUSH32 0x1E8CD9F962F202A3D2DE4FE68D64850937AD80C549FEF41A9173F48E94643977 SWAP2 LOG4 POP POP POP POP POP POP POP JUMP JUMPDEST PUSH1 0x0 DUP2 DUP2 MSTORE PUSH1 0xE PUSH1 0x20 MSTORE PUSH1 0x40 SWAP1 KECCAK256 PUSH1 0xA DUP2 ADD SLOAD PUSH1 0x1 PUSH1 0xA0 SHL SWAP1 DIV PUSH1 0xFF AND ISZERO ISZERO PUSH1 0x1 EQ PUSH2 0xCC2 JUMPI PUSH1 0x40 MLOAD PUSH3 0x461BCD PUSH1 0xE5 SHL DUP2 MSTORE PUSH1 0x20 PUSH1 0x4 DUP3 ADD MSTORE PUSH1 0x14 PUSH1 0x24 DUP3 ADD MSTORE PUSH20 0x151A194818995D081DD85CC818D85B98D95B1959 PUSH1 0x62 SHL PUSH1 0x44 DUP3 ADD MSTORE PUSH1 0x64 ADD PUSH2 0xA11 JUMP JUMPDEST DUP2 PUSH1 0xB SLOAD LT ISZERO DUP1 ISZERO PUSH2 0xCD4 JUMPI POP PUSH1 0x0 DUP3 GT JUMPDEST PUSH2 0xCF0 JUMPI PUSH1 0x40 MLOAD PUSH3 0x461BCD PUSH1 0xE5 SHL DUP2 MSTORE PUSH1 0x4 ADD PUSH2 0xA11 SWAP1 PUSH2 0x2D3E JUMP JUMPDEST PUSH1 0x8 DUP2 ADD SLOAD PUSH1 0x1 PUSH1 0x1 PUSH1 0xA0 SHL SUB AND CALLER EQ PUSH2 0xD4C JUMPI PUSH1 0x40 MLOAD PUSH3 0x461BCD PUSH1 0xE5 SHL DUP2 MSTORE PUSH1 0x20 PUSH1 0x4 DUP3 ADD MSTORE PUSH1 0x19 PUSH1 0x24 DUP3 ADD MSTORE PUSH32 0x426574206368616C6C656E6765722063616E2063616E63656C00000000000000 PUSH1 0x44 DUP3 ADD MSTORE PUSH1 0x64 ADD PUSH2 0xA11 JUMP JUMPDEST PUSH1 0xA DUP2 ADD DUP1 SLOAD PUSH1 0xFF PUSH1 0xA0 SHL NOT AND SWAP1 SSTORE PUSH1 0x40 DUP1 MLOAD DUP1 DUP3 ADD SWAP1 SWAP2 MSTORE PUSH1 0x8 DUP2 MSTORE PUSH8 0x10D85B98D95B1959 PUSH1 0xC2 SHL PUSH1 0x20 DUP3 ADD MSTORE PUSH1 0xB DUP3 ADD SWAP1 PUSH2 0xD89 SWAP1 DUP3 PUSH2 0x2C7F JUMP JUMPDEST POP PUSH1 0x7 DUP2 ADD SLOAD PUSH1 0x8 DUP3 ADD SLOAD PUSH1 0x40 MLOAD PUSH1 0x1 PUSH1 0x1 PUSH1 0xA0 SHL SUB SWAP1 SWAP2 AND SWAP1 PUSH1 0x0 SWAP1 DUP3 SWAP1 DUP5 ISZERO PUSH2 0x8FC MUL SWAP1 DUP6 SWAP1 DUP5 DUP2 DUP2 DUP2 DUP6 DUP9 DUP9 CALL SWAP4 POP POP POP POP SWAP1 POP DUP1 PUSH2 0xE02 JUMPI PUSH1 0x40 MLOAD PUSH3 0x461BCD PUSH1 0xE5 SHL DUP2 MSTORE PUSH1 0x20 PUSH1 0x4 DUP3 ADD MSTORE PUSH1 0x12 PUSH1 0x24 DUP3 ADD MSTORE PUSH18 0x151C985B9CD858DD1A5BDB8811985A5B1959 PUSH1 0x72 SHL PUSH1 0x44 DUP3 ADD MSTORE PUSH1 0x64 ADD PUSH2 0xA11 JUMP JUMPDEST POP POP POP POP POP JUMP JUMPDEST PUSH1 0x0 DUP6 DUP2 MSTORE PUSH1 0x5 PUSH1 0x20 MSTORE PUSH1 0x40 SWAP1 KECCAK256 SLOAD DUP6 SWAP1 PUSH1 0x1 PUSH1 0x1 PUSH1 0xA0 SHL SUB AND CALLER EQ PUSH2 0xE82 JUMPI PUSH1 0x40 MLOAD PUSH3 0x461BCD PUSH1 0xE5 SHL DUP2 MSTORE PUSH1 0x20 PUSH1 0x4 DUP3 ADD MSTORE PUSH1 0x28 PUSH1 0x24 DUP3 ADD MSTORE PUSH32 0x536F75726365206D75737420626520746865206F7261636C65206F6620746865 PUSH1 0x44 DUP3 ADD MSTORE PUSH8 0x81C995C5D595CDD PUSH1 0xC2 SHL PUSH1 0x64 DUP3 ADD MSTORE PUSH1 0x84 ADD PUSH2 0xA11 JUMP JUMPDEST PUSH1 0x0 DUP2 DUP2 MSTORE PUSH1 0x5 PUSH1 0x20 MSTORE PUSH1 0x40 DUP1 DUP3 KECCAK256 DUP1 SLOAD PUSH1 0x1 PUSH1 0x1 PUSH1 0xA0 SHL SUB NOT AND SWAP1 SSTORE MLOAD DUP3 SWAP2 PUSH32 0x7CC135E0CEBB02C3480AE5D74D377283180A2601F8F644EDF7987B009316C63A SWAP2 LOG2 PUSH1 0x40 DUP1 MLOAD DUP7 DUP2 MSTORE PUSH1 0x20 DUP2 ADD DUP7 SWAP1 MSTORE SWAP1 DUP2 ADD DUP5 SWAP1 MSTORE PUSH1 0x60 DUP2 ADD DUP4 SWAP1 MSTORE DUP7 SWAP1 PUSH32 0x78E6DF904D928FEB84261A6267619CA16C25BBCB7D6E5062E1DFAC3168FB59BC SWAP1 PUSH1 0x80 ADD PUSH1 0x40 MLOAD DUP1 SWAP2 SUB SWAP1 LOG2 POP PUSH1 0x7 SWAP4 SWAP1 SWAP4 SSTORE PUSH1 0x8 SWAP2 SWAP1 SWAP2 SSTORE PUSH1 0xA SSTORE PUSH1 0x9 SSTORE POP JUMP JUMPDEST PUSH1 0x0 DUP2 DUP2 MSTORE PUSH1 0xE PUSH1 0x20 MSTORE PUSH1 0x40 SWAP1 KECCAK256 PUSH1 0xA DUP2 ADD SLOAD PUSH1 0x1 PUSH1 0xA0 SHL SWAP1 DIV PUSH1 0xFF AND ISZERO ISZERO PUSH1 0x1 EQ PUSH2 0xF8B JUMPI PUSH1 0x40 MLOAD PUSH3 0x461BCD PUSH1 0xE5 SHL DUP2 MSTORE PUSH1 0x20 PUSH1 0x4 DUP3 ADD MSTORE PUSH1 0x15 PUSH1 0x24 DUP3 ADD MSTORE PUSH21 0x54686520626574206973206E6F7420616374697661 PUSH1 0x58 SHL PUSH1 0x44 DUP3 ADD MSTORE PUSH1 0x64 ADD PUSH2 0xA11 JUMP JUMPDEST PUSH1 0x0 PUSH1 0xB SLOAD GT PUSH2 0xFAD JUMPI PUSH1 0x40 MLOAD PUSH3 0x461BCD PUSH1 0xE5 SHL DUP2 MSTORE PUSH1 0x4 ADD PUSH2 0xA11 SWAP1 PUSH2 0x2D3E JUMP JUMPDEST PUSH1 0x0 DUP3 GT DUP1 ISZERO PUSH2 0xFBF JUMPI POP PUSH1 0xB SLOAD DUP3 GT ISZERO JUMPDEST PUSH2 0xFDB JUMPI PUSH1 0x40 MLOAD PUSH3 0x461BCD PUSH1 0xE5 SHL DUP2 MSTORE PUSH1 0x4 ADD PUSH2 0xA11 SWAP1 PUSH2 0x2D3E JUMP JUMPDEST PUSH1 0x8 DUP2 ADD SLOAD PUSH1 0x1 PUSH1 0x1 PUSH1 0xA0 SHL SUB AND CALLER SUB PUSH2 0x1041 JUMPI PUSH1 0x40 MLOAD PUSH3 0x461BCD PUSH1 0xE5 SHL DUP2 MSTORE PUSH1 0x20 PUSH1 0x4 DUP3 ADD MSTORE PUSH1 0x21 PUSH1 0x24 DUP3 ADD MSTORE PUSH32 0x4368616C6C656E6765722063616E206E6F742061636365707420746865206265 PUSH1 0x44 DUP3 ADD MSTORE PUSH1 0x1D PUSH1 0xFA SHL PUSH1 0x64 DUP3 ADD MSTORE PUSH1 0x84 ADD PUSH2 0xA11 JUMP JUMPDEST DUP1 PUSH1 0x7 ADD SLOAD CALLVALUE LT ISZERO PUSH2 0x1065 JUMPI PUSH1 0x40 MLOAD PUSH3 0x461BCD PUSH1 0xE5 SHL DUP2 MSTORE PUSH1 0x4 ADD PUSH2 0xA11 SWAP1 PUSH2 0x2BEC JUMP JUMPDEST PUSH1 0x9 DUP2 ADD DUP1 SLOAD PUSH1 0x1 PUSH1 0x1 PUSH1 0xA0 SHL SUB NOT AND CALLER OR SWAP1 SSTORE PUSH1 0xA DUP2 ADD DUP1 SLOAD PUSH1 0xFF PUSH1 0xA8 SHL NOT AND PUSH1 0x1 PUSH1 0xA8 SHL OR SWAP1 SSTORE PUSH1 0x40 DUP1 MLOAD DUP1 DUP3 ADD SWAP1 SWAP2 MSTORE PUSH1 0x8 DUP2 MSTORE PUSH8 0x1058D8D95C1D1959 PUSH1 0xC2 SHL PUSH1 0x20 DUP3 ADD MSTORE PUSH1 0xB DUP3 ADD SWAP1 PUSH2 0x10BC SWAP1 DUP3 PUSH2 0x2C7F JUMP JUMPDEST POP CALLER PUSH1 0x0 SWAP1 DUP2 MSTORE PUSH1 0xF PUSH1 0x20 SWAP1 DUP2 MSTORE PUSH1 0x40 DUP1 DUP4 KECCAK256 DUP1 SLOAD PUSH1 0x1 DUP2 ADD DUP3 SSTORE SWAP1 DUP5 MSTORE SWAP3 DUP3 SWAP1 KECCAK256 SWAP1 SWAP3 ADD DUP5 SWAP1 SSTORE PUSH1 0x9 DUP4 ADD SLOAD PUSH1 0x8 DUP5 ADD SLOAD PUSH1 0x7 DUP6 ADD SLOAD SWAP4 MLOAD SWAP4 DUP5 MSTORE PUSH1 0x1 PUSH1 0x1 PUSH1 0xA0 SHL SUB SWAP2 DUP3 AND SWAP4 SWAP2 AND SWAP2 DUP6 SWAP2 PUSH32 0xCDAC8516359A273BD88D2AAFE047DE47CFCFB70D6448BE9C49A82491CAFA0EB7 SWAP2 ADD PUSH1 0x40 MLOAD DUP1 SWAP2 SUB SWAP1 LOG4 POP POP JUMP JUMPDEST PUSH1 0x60 PUSH1 0x0 PUSH1 0xB SLOAD PUSH1 0x1 PUSH1 0x1 PUSH1 0x40 SHL SUB DUP2 GT ISZERO PUSH2 0x1156 JUMPI PUSH2 0x1156 PUSH2 0x29BA JUMP JUMPDEST PUSH1 0x40 MLOAD SWAP1 DUP1 DUP3 MSTORE DUP1 PUSH1 0x20 MUL PUSH1 0x20 ADD DUP3 ADD PUSH1 0x40 MSTORE DUP1 ISZERO PUSH2 0x117F JUMPI DUP2 PUSH1 0x20 ADD PUSH1 0x20 DUP3 MUL DUP1 CALLDATASIZE DUP4 CALLDATACOPY ADD SWAP1 POP JUMPDEST POP SWAP1 POP PUSH1 0x0 PUSH1 0x1 JUMPDEST PUSH1 0xB SLOAD DUP2 GT PUSH2 0x1229 JUMPI PUSH1 0x0 DUP2 DUP2 MSTORE PUSH1 0xE PUSH1 0x20 MSTORE PUSH1 0x40 SWAP1 KECCAK256 PUSH1 0xA ADD SLOAD PUSH1 0x1 PUSH1 0xA8 SHL SWAP1 DIV PUSH1 0xFF AND ISZERO DUP1 ISZERO PUSH2 0x11D6 JUMPI POP PUSH1 0x0 DUP2 DUP2 MSTORE PUSH1 0xE PUSH1 0x20 MSTORE PUSH1 0x40 SWAP1 KECCAK256 PUSH1 0xA ADD SLOAD PUSH1 0x1 PUSH1 0xA0 SHL SWAP1 DIV PUSH1 0xFF AND ISZERO ISZERO PUSH1 0x1 EQ JUMPDEST ISZERO PUSH2 0x1217 JUMPI PUSH1 0x0 DUP2 DUP2 MSTORE PUSH1 0xE PUSH1 0x20 MSTORE PUSH1 0x40 SWAP1 KECCAK256 SLOAD DUP4 MLOAD DUP5 SWAP1 DUP5 SWAP1 DUP2 LT PUSH2 0x11FE JUMPI PUSH2 0x11FE PUSH2 0x2B73 JUMP JUMPDEST PUSH1 0x20 SWAP1 DUP2 MUL SWAP2 SWAP1 SWAP2 ADD ADD MSTORE DUP2 PUSH2 0x1213 DUP2 PUSH2 0x2BD3 JUMP JUMPDEST SWAP3 POP POP JUMPDEST DUP1 PUSH2 0x1221 DUP2 PUSH2 0x2BD3 JUMP JUMPDEST SWAP2 POP POP PUSH2 0x1187 JUMP JUMPDEST POP PUSH1 0x0 DUP2 PUSH1 0x1 PUSH1 0x1 PUSH1 0x40 SHL SUB DUP2 GT ISZERO PUSH2 0x1244 JUMPI PUSH2 0x1244 PUSH2 0x29BA JUMP JUMPDEST PUSH1 0x40 MLOAD SWAP1 DUP1 DUP3 MSTORE DUP1 PUSH1 0x20 MUL PUSH1 0x20 ADD DUP3 ADD PUSH1 0x40 MSTORE DUP1 ISZERO PUSH2 0x127D JUMPI DUP2 PUSH1 0x20 ADD JUMPDEST PUSH2 0x126A PUSH2 0x2655 JUMP JUMPDEST DUP2 MSTORE PUSH1 0x20 ADD SWAP1 PUSH1 0x1 SWAP1 SUB SWAP1 DUP2 PUSH2 0x1262 JUMPI SWAP1 POP JUMPDEST POP SWAP1 POP PUSH1 0x0 JUMPDEST DUP3 DUP2 LT ISZERO PUSH2 0x1649 JUMPI PUSH1 0xE PUSH1 0x0 DUP6 DUP4 DUP2 MLOAD DUP2 LT PUSH2 0x12A1 JUMPI PUSH2 0x12A1 PUSH2 0x2B73 JUMP JUMPDEST PUSH1 0x20 MUL PUSH1 0x20 ADD ADD MLOAD DUP2 MSTORE PUSH1 0x20 ADD SWAP1 DUP2 MSTORE PUSH1 0x20 ADD PUSH1 0x0 KECCAK256 PUSH1 0x40 MLOAD DUP1 PUSH2 0x1C0 ADD PUSH1 0x40 MSTORE SWAP1 DUP2 PUSH1 0x0 DUP3 ADD SLOAD DUP2 MSTORE PUSH1 0x20 ADD PUSH1 0x1 DUP3 ADD SLOAD DUP2 MSTORE PUSH1 0x20 ADD PUSH1 0x2 DUP3 ADD SLOAD DUP2 MSTORE PUSH1 0x20 ADD PUSH1 0x3 DUP3 ADD DUP1 SLOAD PUSH2 0x12F1 SWAP1 PUSH2 0x2B89 JUMP JUMPDEST DUP1 PUSH1 0x1F ADD PUSH1 0x20 DUP1 SWAP2 DIV MUL PUSH1 0x20 ADD PUSH1 0x40 MLOAD SWAP1 DUP2 ADD PUSH1 0x40 MSTORE DUP1 SWAP3 SWAP2 SWAP1 DUP2 DUP2 MSTORE PUSH1 0x20 ADD DUP3 DUP1 SLOAD PUSH2 0x131D SWAP1 PUSH2 0x2B89 JUMP JUMPDEST DUP1 ISZERO PUSH2 0x136A JUMPI DUP1 PUSH1 0x1F LT PUSH2 0x133F JUMPI PUSH2 0x100 DUP1 DUP4 SLOAD DIV MUL DUP4 MSTORE SWAP2 PUSH1 0x20 ADD SWAP2 PUSH2 0x136A JUMP JUMPDEST DUP3 ADD SWAP2 SWAP1 PUSH1 0x0 MSTORE PUSH1 0x20 PUSH1 0x0 KECCAK256 SWAP1 JUMPDEST DUP2 SLOAD DUP2 MSTORE SWAP1 PUSH1 0x1 ADD SWAP1 PUSH1 0x20 ADD DUP1 DUP4 GT PUSH2 0x134D JUMPI DUP3 SWAP1 SUB PUSH1 0x1F AND DUP3 ADD SWAP2 JUMPDEST POP POP POP POP POP DUP2 MSTORE PUSH1 0x20 ADD PUSH1 0x4 DUP3 ADD DUP1 SLOAD PUSH2 0x1383 SWAP1 PUSH2 0x2B89 JUMP JUMPDEST DUP1 PUSH1 0x1F ADD PUSH1 0x20 DUP1 SWAP2 DIV MUL PUSH1 0x20 ADD PUSH1 0x40 MLOAD SWAP1 DUP2 ADD PUSH1 0x40 MSTORE DUP1 SWAP3 SWAP2 SWAP1 DUP2 DUP2 MSTORE PUSH1 0x20 ADD DUP3 DUP1 SLOAD PUSH2 0x13AF SWAP1 PUSH2 0x2B89 JUMP JUMPDEST DUP1 ISZERO PUSH2 0x13FC JUMPI DUP1 PUSH1 0x1F LT PUSH2 0x13D1 JUMPI PUSH2 0x100 DUP1 DUP4 SLOAD DIV MUL DUP4 MSTORE SWAP2 PUSH1 0x20 ADD SWAP2 PUSH2 0x13FC JUMP JUMPDEST DUP3 ADD SWAP2 SWAP1 PUSH1 0x0 MSTORE PUSH1 0x20 PUSH1 0x0 KECCAK256 SWAP1 JUMPDEST DUP2 SLOAD DUP2 MSTORE SWAP1 PUSH1 0x1 ADD SWAP1 PUSH1 0x20 ADD DUP1 DUP4 GT PUSH2 0x13DF JUMPI DUP3 SWAP1 SUB PUSH1 0x1F AND DUP3 ADD SWAP2 JUMPDEST POP POP POP POP POP DUP2 MSTORE PUSH1 0x20 ADD PUSH1 0x5 DUP3 ADD DUP1 SLOAD PUSH2 0x1415 SWAP1 PUSH2 0x2B89 JUMP JUMPDEST DUP1 PUSH1 0x1F ADD PUSH1 0x20 DUP1 SWAP2 DIV MUL PUSH1 0x20 ADD PUSH1 0x40 MLOAD SWAP1 DUP2 ADD PUSH1 0x40 MSTORE DUP1 SWAP3 SWAP2 SWAP1 DUP2 DUP2 MSTORE PUSH1 0x20 ADD DUP3 DUP1 SLOAD PUSH2 0x1441 SWAP1 PUSH2 0x2B89 JUMP JUMPDEST DUP1 ISZERO PUSH2 0x148E JUMPI DUP1 PUSH1 0x1F LT PUSH2 0x1463 JUMPI PUSH2 0x100 DUP1 DUP4 SLOAD DIV MUL DUP4 MSTORE SWAP2 PUSH1 0x20 ADD SWAP2 PUSH2 0x148E JUMP JUMPDEST DUP3 ADD SWAP2 SWAP1 PUSH1 0x0 MSTORE PUSH1 0x20 PUSH1 0x0 KECCAK256 SWAP1 JUMPDEST DUP2 SLOAD DUP2 MSTORE SWAP1 PUSH1 0x1 ADD SWAP1 PUSH1 0x20 ADD DUP1 DUP4 GT PUSH2 0x1471 JUMPI DUP3 SWAP1 SUB PUSH1 0x1F AND DUP3 ADD SWAP2 JUMPDEST POP POP POP POP POP DUP2 MSTORE PUSH1 0x20 ADD PUSH1 0x6 DUP3 ADD DUP1 SLOAD PUSH2 0x14A7 SWAP1 PUSH2 0x2B89 JUMP JUMPDEST DUP1 PUSH1 0x1F ADD PUSH1 0x20 DUP1 SWAP2 DIV MUL PUSH1 0x20 ADD PUSH1 0x40 MLOAD SWAP1 DUP2 ADD PUSH1 0x40 MSTORE DUP1 SWAP3 SWAP2 SWAP1 DUP2 DUP2 MSTORE PUSH1 0x20 ADD DUP3 DUP1 SLOAD PUSH2 0x14D3 SWAP1 PUSH2 0x2B89 JUMP JUMPDEST DUP1 ISZERO PUSH2 0x1520 JUMPI DUP1 PUSH1 0x1F LT PUSH2 0x14F5 JUMPI PUSH2 0x100 DUP1 DUP4 SLOAD DIV MUL DUP4 MSTORE SWAP2 PUSH1 0x20 ADD SWAP2 PUSH2 0x1520 JUMP JUMPDEST DUP3 ADD SWAP2 SWAP1 PUSH1 0x0 MSTORE PUSH1 0x20 PUSH1 0x0 KECCAK256 SWAP1 JUMPDEST DUP2 SLOAD DUP2 MSTORE SWAP1 PUSH1 0x1 ADD SWAP1 PUSH1 0x20 ADD DUP1 DUP4 GT PUSH2 0x1503 JUMPI DUP3 SWAP1 SUB PUSH1 0x1F AND DUP3 ADD SWAP2 JUMPDEST POP POP POP SWAP2 DUP4 MSTORE POP POP PUSH1 0x7 DUP3 ADD SLOAD PUSH1 0x20 DUP3 ADD MSTORE PUSH1 0x8 DUP3 ADD SLOAD PUSH1 0x1 PUSH1 0x1 PUSH1 0xA0 SHL SUB SWAP1 DUP2 AND PUSH1 0x40 DUP4 ADD MSTORE PUSH1 0x9 DUP4 ADD SLOAD DUP2 AND PUSH1 0x60 DUP4 ADD MSTORE PUSH1 0xA DUP4 ADD SLOAD SWAP1 DUP2 AND PUSH1 0x80 DUP4 ADD MSTORE PUSH1 0xFF PUSH1 0x1 PUSH1 0xA0 SHL DUP3 DIV DUP2 AND ISZERO ISZERO PUSH1 0xA0 DUP5 ADD MSTORE PUSH1 0x1 PUSH1 0xA8 SHL SWAP1 SWAP2 DIV AND ISZERO ISZERO PUSH1 0xC0 DUP3 ADD MSTORE PUSH1 0xB DUP3 ADD DUP1 SLOAD PUSH1 0xE0 SWAP1 SWAP3 ADD SWAP2 PUSH2 0x1597 SWAP1 PUSH2 0x2B89 JUMP JUMPDEST DUP1 PUSH1 0x1F ADD PUSH1 0x20 DUP1 SWAP2 DIV MUL PUSH1 0x20 ADD PUSH1 0x40 MLOAD SWAP1 DUP2 ADD PUSH1 0x40 MSTORE DUP1 SWAP3 SWAP2 SWAP1 DUP2 DUP2 MSTORE PUSH1 0x20 ADD DUP3 DUP1 SLOAD PUSH2 0x15C3 SWAP1 PUSH2 0x2B89 JUMP JUMPDEST DUP1 ISZERO PUSH2 0x1610 JUMPI DUP1 PUSH1 0x1F LT PUSH2 0x15E5 JUMPI PUSH2 0x100 DUP1 DUP4 SLOAD DIV MUL DUP4 MSTORE SWAP2 PUSH1 0x20 ADD SWAP2 PUSH2 0x1610 JUMP JUMPDEST DUP3 ADD SWAP2 SWAP1 PUSH1 0x0 MSTORE PUSH1 0x20 PUSH1 0x0 KECCAK256 SWAP1 JUMPDEST DUP2 SLOAD DUP2 MSTORE SWAP1 PUSH1 0x1 ADD SWAP1 PUSH1 0x20 ADD DUP1 DUP4 GT PUSH2 0x15F3 JUMPI DUP3 SWAP1 SUB PUSH1 0x1F AND DUP3 ADD SWAP2 JUMPDEST POP POP POP POP POP DUP2 MSTORE POP POP DUP3 DUP3 DUP2 MLOAD DUP2 LT PUSH2 0x162B JUMPI PUSH2 0x162B PUSH2 0x2B73 JUMP JUMPDEST PUSH1 0x20 MUL PUSH1 0x20 ADD ADD DUP2 SWAP1 MSTORE POP DUP1 DUP1 PUSH2 0x1641 SWAP1 PUSH2 0x2BD3 JUMP JUMPDEST SWAP2 POP POP PUSH2 0x1283 JUMP JUMPDEST POP SWAP4 SWAP3 POP POP POP JUMP JUMPDEST PUSH1 0x60 PUSH1 0x0 PUSH1 0xE PUSH1 0x0 DUP5 DUP2 MSTORE PUSH1 0x20 ADD SWAP1 DUP2 MSTORE PUSH1 0x20 ADD PUSH1 0x0 KECCAK256 PUSH1 0x40 MLOAD DUP1 PUSH2 0x1C0 ADD PUSH1 0x40 MSTORE SWAP1 DUP2 PUSH1 0x0 DUP3 ADD SLOAD DUP2 MSTORE PUSH1 0x20 ADD PUSH1 0x1 DUP3 ADD SLOAD DUP2 MSTORE PUSH1 0x20 ADD PUSH1 0x2 DUP3 ADD SLOAD DUP2 MSTORE PUSH1 0x20 ADD PUSH1 0x3 DUP3 ADD DUP1 SLOAD PUSH2 0x16A2 SWAP1 PUSH2 0x2B89 JUMP JUMPDEST DUP1 PUSH1 0x1F ADD PUSH1 0x20 DUP1 SWAP2 DIV MUL PUSH1 0x20 ADD PUSH1 0x40 MLOAD SWAP1 DUP2 ADD PUSH1 0x40 MSTORE DUP1 SWAP3 SWAP2 SWAP1 DUP2 DUP2 MSTORE PUSH1 0x20 ADD DUP3 DUP1 SLOAD PUSH2 0x16CE SWAP1 PUSH2 0x2B89 JUMP JUMPDEST DUP1 ISZERO PUSH2 0x171B JUMPI DUP1 PUSH1 0x1F LT PUSH2 0x16F0 JUMPI PUSH2 0x100 DUP1 DUP4 SLOAD DIV MUL DUP4 MSTORE SWAP2 PUSH1 0x20 ADD SWAP2 PUSH2 0x171B JUMP JUMPDEST DUP3 ADD SWAP2 SWAP1 PUSH1 0x0 MSTORE PUSH1 0x20 PUSH1 0x0 KECCAK256 SWAP1 JUMPDEST DUP2 SLOAD DUP2 MSTORE SWAP1 PUSH1 0x1 ADD SWAP1 PUSH1 0x20 ADD DUP1 DUP4 GT PUSH2 0x16FE JUMPI DUP3 SWAP1 SUB PUSH1 0x1F AND DUP3 ADD SWAP2 JUMPDEST POP POP POP POP POP DUP2 MSTORE PUSH1 0x20 ADD PUSH1 0x4 DUP3 ADD DUP1 SLOAD PUSH2 0x1734 SWAP1 PUSH2 0x2B89 JUMP JUMPDEST DUP1 PUSH1 0x1F ADD PUSH1 0x20 DUP1 SWAP2 DIV MUL PUSH1 0x20 ADD PUSH1 0x40 MLOAD SWAP1 DUP2 ADD PUSH1 0x40 MSTORE DUP1 SWAP3 SWAP2 SWAP1 DUP2 DUP2 MSTORE PUSH1 0x20 ADD DUP3 DUP1 SLOAD PUSH2 0x1760 SWAP1 PUSH2 0x2B89 JUMP JUMPDEST DUP1 ISZERO PUSH2 0x17AD JUMPI DUP1 PUSH1 0x1F LT PUSH2 0x1782 JUMPI PUSH2 0x100 DUP1 DUP4 SLOAD DIV MUL DUP4 MSTORE SWAP2 PUSH1 0x20 ADD SWAP2 PUSH2 0x17AD JUMP JUMPDEST DUP3 ADD SWAP2 SWAP1 PUSH1 0x0 MSTORE PUSH1 0x20 PUSH1 0x0 KECCAK256 SWAP1 JUMPDEST DUP2 SLOAD DUP2 MSTORE SWAP1 PUSH1 0x1 ADD SWAP1 PUSH1 0x20 ADD DUP1 DUP4 GT PUSH2 0x1790 JUMPI DUP3 SWAP1 SUB PUSH1 0x1F AND DUP3 ADD SWAP2 JUMPDEST POP POP POP POP POP DUP2 MSTORE PUSH1 0x20 ADD PUSH1 0x5 DUP3 ADD DUP1 SLOAD PUSH2 0x17C6 SWAP1 PUSH2 0x2B89 JUMP JUMPDEST DUP1 PUSH1 0x1F ADD PUSH1 0x20 DUP1 SWAP2 DIV MUL PUSH1 0x20 ADD PUSH1 0x40 MLOAD SWAP1 DUP2 ADD PUSH1 0x40 MSTORE DUP1 SWAP3 SWAP2 SWAP1 DUP2 DUP2 MSTORE PUSH1 0x20 ADD DUP3 DUP1 SLOAD PUSH2 0x17F2 SWAP1 PUSH2 0x2B89 JUMP JUMPDEST DUP1 ISZERO PUSH2 0x183F JUMPI DUP1 PUSH1 0x1F LT PUSH2 0x1814 JUMPI PUSH2 0x100 DUP1 DUP4 SLOAD DIV MUL DUP4 MSTORE SWAP2 PUSH1 0x20 ADD SWAP2 PUSH2 0x183F JUMP JUMPDEST DUP3 ADD SWAP2 SWAP1 PUSH1 0x0 MSTORE PUSH1 0x20 PUSH1 0x0 KECCAK256 SWAP1 JUMPDEST DUP2 SLOAD DUP2 MSTORE SWAP1 PUSH1 0x1 ADD SWAP1 PUSH1 0x20 ADD DUP1 DUP4 GT PUSH2 0x1822 JUMPI DUP3 SWAP1 SUB PUSH1 0x1F AND DUP3 ADD SWAP2 JUMPDEST POP POP POP POP POP DUP2 MSTORE PUSH1 0x20 ADD PUSH1 0x6 DUP3 ADD DUP1 SLOAD PUSH2 0x1858 SWAP1 PUSH2 0x2B89 JUMP JUMPDEST DUP1 PUSH1 0x1F ADD PUSH1 0x20 DUP1 SWAP2 DIV MUL PUSH1 0x20 ADD PUSH1 0x40 MLOAD SWAP1 DUP2 ADD PUSH1 0x40 MSTORE DUP1 SWAP3 SWAP2 SWAP1 DUP2 DUP2 MSTORE PUSH1 0x20 ADD DUP3 DUP1 SLOAD PUSH2 0x1884 SWAP1 PUSH2 0x2B89 JUMP JUMPDEST DUP1 ISZERO PUSH2 0x18D1 JUMPI DUP1 PUSH1 0x1F LT PUSH2 0x18A6 JUMPI PUSH2 0x100 DUP1 DUP4 SLOAD DIV MUL DUP4 MSTORE SWAP2 PUSH1 0x20 ADD SWAP2 PUSH2 0x18D1 JUMP JUMPDEST DUP3 ADD SWAP2 SWAP1 PUSH1 0x0 MSTORE PUSH1 0x20 PUSH1 0x0 KECCAK256 SWAP1 JUMPDEST DUP2 SLOAD DUP2 MSTORE SWAP1 PUSH1 0x1 ADD SWAP1 PUSH1 0x20 ADD DUP1 DUP4 GT PUSH2 0x18B4 JUMPI DUP3 SWAP1 SUB PUSH1 0x1F AND DUP3 ADD SWAP2 JUMPDEST POP POP POP SWAP2 DUP4 MSTORE POP POP PUSH1 0x7 DUP3 ADD SLOAD PUSH1 0x20 DUP3 ADD MSTORE PUSH1 0x8 DUP3 ADD SLOAD PUSH1 0x1 PUSH1 0x1 PUSH1 0xA0 SHL SUB SWAP1 DUP2 AND PUSH1 0x40 DUP4 ADD MSTORE PUSH1 0x9 DUP4 ADD SLOAD DUP2 AND PUSH1 0x60 DUP4 ADD MSTORE PUSH1 0xA DUP4 ADD SLOAD SWAP1 DUP2 AND PUSH1 0x80 DUP4 ADD MSTORE PUSH1 0xFF PUSH1 0x1 PUSH1 0xA0 SHL DUP3 DIV DUP2 AND ISZERO ISZERO PUSH1 0xA0 DUP5 ADD MSTORE PUSH1 0x1 PUSH1 0xA8 SHL SWAP1 SWAP2 DIV AND ISZERO ISZERO PUSH1 0xC0 DUP3 ADD MSTORE PUSH1 0xB DUP3 ADD DUP1 SLOAD PUSH1 0xE0 SWAP1 SWAP3 ADD SWAP2 PUSH2 0x1948 SWAP1 PUSH2 0x2B89 JUMP JUMPDEST DUP1 PUSH1 0x1F ADD PUSH1 0x20 DUP1 SWAP2 DIV MUL PUSH1 0x20 ADD PUSH1 0x40 MLOAD SWAP1 DUP2 ADD PUSH1 0x40 MSTORE DUP1 SWAP3 SWAP2 SWAP1 DUP2 DUP2 MSTORE PUSH1 0x20 ADD DUP3 DUP1 SLOAD PUSH2 0x1974 SWAP1 PUSH2 0x2B89 JUMP JUMPDEST DUP1 ISZERO PUSH2 0x19C1 JUMPI DUP1 PUSH1 0x1F LT PUSH2 0x1996 JUMPI PUSH2 0x100 DUP1 DUP4 SLOAD DIV MUL DUP4 MSTORE SWAP2 PUSH1 0x20 ADD SWAP2 PUSH2 0x19C1 JUMP JUMPDEST DUP3 ADD SWAP2 SWAP1 PUSH1 0x0 MSTORE PUSH1 0x20 PUSH1 0x0 KECCAK256 SWAP1 JUMPDEST DUP2 SLOAD DUP2 MSTORE SWAP1 PUSH1 0x1 ADD SWAP1 PUSH1 0x20 ADD DUP1 DUP4 GT PUSH2 0x19A4 JUMPI DUP3 SWAP1 SUB PUSH1 0x1F AND DUP3 ADD SWAP2 JUMPDEST POP POP POP POP POP DUP2 MSTORE POP POP SWAP1 POP PUSH1 0x0 DUP2 PUSH1 0x60 ADD MLOAD SWAP1 POP DUP2 PUSH1 0x80 ADD MLOAD DUP1 MLOAD SWAP1 PUSH1 0x20 ADD KECCAK256 DUP2 DUP1 MLOAD SWAP1 PUSH1 0x20 ADD KECCAK256 SUB PUSH2 0x19F9 JUMPI POP PUSH1 0xA0 ADD MLOAD SWAP3 SWAP2 POP POP JUMP JUMPDEST POP PUSH1 0x80 ADD MLOAD SWAP3 SWAP2 POP POP JUMP JUMPDEST PUSH1 0x0 DUP1 PUSH1 0x1 JUMPDEST PUSH1 0xB SLOAD DUP2 GT PUSH2 0x1A7E JUMPI PUSH1 0x0 DUP2 DUP2 MSTORE PUSH1 0xE PUSH1 0x20 MSTORE PUSH1 0x40 SWAP1 KECCAK256 PUSH1 0xA ADD SLOAD PUSH1 0x1 PUSH1 0xA8 SHL SWAP1 DIV PUSH1 0xFF AND ISZERO DUP1 ISZERO PUSH2 0x1A59 JUMPI POP PUSH1 0x0 DUP2 DUP2 MSTORE PUSH1 0xE PUSH1 0x20 MSTORE PUSH1 0x40 SWAP1 KECCAK256 PUSH1 0xA ADD SLOAD PUSH1 0x1 PUSH1 0xA0 SHL SWAP1 DIV PUSH1 0xFF AND ISZERO ISZERO PUSH1 0x1 EQ JUMPDEST ISZERO PUSH2 0x1A6C JUMPI DUP2 PUSH2 0x1A68 DUP2 PUSH2 0x2BD3 JUMP JUMPDEST SWAP3 POP POP JUMPDEST DUP1 PUSH2 0x1A76 DUP2 PUSH2 0x2BD3 JUMP JUMPDEST SWAP2 POP POP PUSH2 0x1A0A JUMP JUMPDEST POP SWAP2 SWAP1 POP JUMP JUMPDEST PUSH1 0x2 PUSH1 0x6 SLOAD SUB PUSH2 0x1AD6 JUMPI PUSH1 0x40 MLOAD PUSH3 0x461BCD PUSH1 0xE5 SHL DUP2 MSTORE PUSH1 0x20 PUSH1 0x4 DUP3 ADD MSTORE PUSH1 0x1F PUSH1 0x24 DUP3 ADD MSTORE PUSH32 0x5265656E7472616E637947756172643A207265656E7472616E742063616C6C00 PUSH1 0x44 DUP3 ADD MSTORE PUSH1 0x64 ADD PUSH2 0xA11 JUMP JUMPDEST PUSH1 0x2 PUSH1 0x6 SSTORE PUSH2 0x1AE3 PUSH2 0x1BA8 JUMP JUMPDEST PUSH1 0x1 JUMPDEST PUSH1 0xB SLOAD DUP2 GT PUSH2 0x1BA0 JUMPI PUSH1 0xA SLOAD PUSH1 0x0 DUP3 DUP2 MSTORE PUSH1 0xE PUSH1 0x20 MSTORE PUSH1 0x40 SWAP1 KECCAK256 PUSH1 0x1 ADD SLOAD SUB PUSH2 0x1B8E JUMPI PUSH1 0x0 DUP2 DUP2 MSTORE PUSH1 0xE PUSH1 0x20 MSTORE PUSH1 0x40 SWAP1 KECCAK256 PUSH1 0x2 ADD SLOAD PUSH1 0x9 SLOAD SUB PUSH2 0x1B4E JUMPI PUSH1 0x0 DUP2 DUP2 MSTORE PUSH1 0xE PUSH1 0x20 MSTORE PUSH1 0x40 SWAP1 KECCAK256 PUSH1 0x8 ADD SLOAD PUSH2 0x1B49 SWAP1 DUP3 SWAP1 PUSH1 0x1 PUSH1 0x1 PUSH1 0xA0 SHL SUB AND PUSH2 0x1DA6 JUMP JUMPDEST PUSH2 0x1B8E JUMP JUMPDEST PUSH1 0x0 DUP2 DUP2 MSTORE PUSH1 0xE PUSH1 0x20 MSTORE PUSH1 0x40 SWAP1 KECCAK256 PUSH1 0x2 ADD SLOAD PUSH1 0x9 SLOAD EQ PUSH2 0x1B8E JUMPI PUSH1 0x0 DUP2 DUP2 MSTORE PUSH1 0xE PUSH1 0x20 MSTORE PUSH1 0x40 SWAP1 KECCAK256 PUSH1 0x9 ADD SLOAD PUSH2 0x1B8E SWAP1 DUP3 SWAP1 PUSH1 0x1 PUSH1 0x1 PUSH1 0xA0 SHL SUB AND PUSH2 0x1DA6 JUMP JUMPDEST DUP1 PUSH2 0x1B98 DUP2 PUSH2 0x2BD3 JUMP JUMPDEST SWAP2 POP POP PUSH2 0x1AE6 JUMP JUMPDEST POP PUSH1 0x1 PUSH1 0x6 SSTORE JUMP JUMPDEST PUSH1 0x0 PUSH2 0x1BBE PUSH1 0xC SLOAD ADDRESS PUSH4 0x4A02B384 PUSH1 0xE0 SHL PUSH2 0x1FCC JUMP JUMPDEST SWAP1 POP PUSH2 0x1C00 PUSH1 0x40 MLOAD DUP1 PUSH1 0x40 ADD PUSH1 0x40 MSTORE DUP1 PUSH1 0x3 DUP2 MSTORE PUSH1 0x20 ADD PUSH3 0x19D95D PUSH1 0xEA SHL DUP2 MSTORE POP PUSH1 0x40 MLOAD DUP1 PUSH1 0xA0 ADD PUSH1 0x40 MSTORE DUP1 PUSH1 0x71 DUP2 MSTORE PUSH1 0x20 ADD PUSH2 0x2F61 PUSH1 0x71 SWAP2 CODECOPY DUP4 SWAP2 SWAP1 PUSH2 0x1FF1 JUMP JUMPDEST PUSH2 0x1C50 PUSH1 0x40 MLOAD DUP1 PUSH1 0x40 ADD PUSH1 0x40 MSTORE DUP1 PUSH1 0x5 DUP2 MSTORE PUSH1 0x20 ADD PUSH5 0x7061746831 PUSH1 0xD8 SHL DUP2 MSTORE POP PUSH1 0x40 MLOAD DUP1 PUSH1 0x40 ADD PUSH1 0x40 MSTORE DUP1 PUSH1 0x6 DUP2 MSTORE PUSH1 0x20 ADD PUSH6 0x302C4E616D65 PUSH1 0xD0 SHL DUP2 MSTORE POP DUP4 PUSH2 0x1FF1 SWAP1 SWAP3 SWAP2 SWAP1 PUSH4 0xFFFFFFFF AND JUMP JUMPDEST PUSH2 0x1CA0 PUSH1 0x40 MLOAD DUP1 PUSH1 0x40 ADD PUSH1 0x40 MSTORE DUP1 PUSH1 0x5 DUP2 MSTORE PUSH1 0x20 ADD PUSH5 0x3830BA3419 PUSH1 0xD9 SHL DUP2 MSTORE POP PUSH1 0x40 MLOAD DUP1 PUSH1 0x40 ADD PUSH1 0x40 MSTORE DUP1 PUSH1 0x6 DUP2 MSTORE PUSH1 0x20 ADD PUSH6 0x302C57696E73 PUSH1 0xD0 SHL DUP2 MSTORE POP DUP4 PUSH2 0x1FF1 SWAP1 SWAP3 SWAP2 SWAP1 PUSH4 0xFFFFFFFF AND JUMP JUMPDEST PUSH2 0x1CF2 PUSH1 0x40 MLOAD DUP1 PUSH1 0x40 ADD PUSH1 0x40 MSTORE DUP1 PUSH1 0x5 DUP2 MSTORE PUSH1 0x20 ADD PUSH5 0x7061746833 PUSH1 0xD8 SHL DUP2 MSTORE POP PUSH1 0x40 MLOAD DUP1 PUSH1 0x40 ADD PUSH1 0x40 MSTORE DUP1 PUSH1 0x8 DUP2 MSTORE PUSH1 0x20 ADD PUSH8 0x302C4C6F73736573 PUSH1 0xC0 SHL DUP2 MSTORE POP DUP4 PUSH2 0x1FF1 SWAP1 SWAP3 SWAP2 SWAP1 PUSH4 0xFFFFFFFF AND JUMP JUMPDEST PUSH2 0x1D44 PUSH1 0x40 MLOAD DUP1 PUSH1 0x40 ADD PUSH1 0x40 MSTORE DUP1 PUSH1 0x5 DUP2 MSTORE PUSH1 0x20 ADD PUSH5 0x1C185D1A0D PUSH1 0xDA SHL DUP2 MSTORE POP PUSH1 0x40 MLOAD DUP1 PUSH1 0x40 ADD PUSH1 0x40 MSTORE DUP1 PUSH1 0x8 DUP2 MSTORE PUSH1 0x20 ADD PUSH8 0xC0B11D85B595251 PUSH1 0xC2 SHL DUP2 MSTORE POP DUP4 PUSH2 0x1FF1 SWAP1 SWAP3 SWAP2 SWAP1 PUSH4 0xFFFFFFFF AND JUMP JUMPDEST PUSH2 0x1D96 PUSH1 0x40 MLOAD DUP1 PUSH1 0x40 ADD PUSH1 0x40 MSTORE DUP1 PUSH1 0x5 DUP2 MSTORE PUSH1 0x20 ADD PUSH5 0x7061746835 PUSH1 0xD8 SHL DUP2 MSTORE POP PUSH1 0x40 MLOAD DUP1 PUSH1 0x40 ADD PUSH1 0x40 MSTORE DUP1 PUSH1 0x8 DUP2 MSTORE PUSH1 0x20 ADD PUSH8 0xC0B1519585B5251 PUSH1 0xC2 SHL DUP2 MSTORE POP DUP4 PUSH2 0x1FF1 SWAP1 SWAP3 SWAP2 SWAP1 PUSH4 0xFFFFFFFF AND JUMP JUMPDEST PUSH2 0x1DA2 DUP2 PUSH1 0xD SLOAD PUSH2 0x2014 JUMP JUMPDEST POP POP JUMP JUMPDEST PUSH1 0x2 PUSH1 0x6 SLOAD SUB PUSH2 0x1DF8 JUMPI PUSH1 0x40 MLOAD PUSH3 0x461BCD PUSH1 0xE5 SHL DUP2 MSTORE PUSH1 0x20 PUSH1 0x4 DUP3 ADD MSTORE PUSH1 0x1F PUSH1 0x24 DUP3 ADD MSTORE PUSH32 0x5265656E7472616E637947756172643A207265656E7472616E742063616C6C00 PUSH1 0x44 DUP3 ADD MSTORE PUSH1 0x64 ADD PUSH2 0xA11 JUMP JUMPDEST PUSH1 0x2 PUSH1 0x6 SSTORE PUSH1 0x0 DUP3 DUP2 MSTORE PUSH1 0xE PUSH1 0x20 MSTORE PUSH1 0x40 SWAP1 KECCAK256 PUSH1 0xA ADD SLOAD PUSH1 0x1 PUSH1 0xA0 SHL SWAP1 DIV PUSH1 0xFF AND ISZERO ISZERO PUSH1 0x1 EQ PUSH2 0x1E5E JUMPI PUSH1 0x40 MLOAD PUSH3 0x461BCD PUSH1 0xE5 SHL DUP2 MSTORE PUSH1 0x20 PUSH1 0x4 DUP3 ADD MSTORE PUSH1 0x11 PUSH1 0x24 DUP3 ADD MSTORE PUSH17 0x426574206973206E6F7420416374697665 PUSH1 0x78 SHL PUSH1 0x44 DUP3 ADD MSTORE PUSH1 0x64 ADD PUSH2 0xA11 JUMP JUMPDEST PUSH1 0x0 DUP3 DUP2 MSTORE PUSH1 0xE PUSH1 0x20 MSTORE PUSH1 0x40 SWAP1 KECCAK256 PUSH1 0xA ADD SLOAD PUSH1 0x1 PUSH1 0xA8 SHL SWAP1 DIV PUSH1 0xFF AND ISZERO ISZERO PUSH1 0x1 EQ PUSH2 0x1EC1 JUMPI PUSH1 0x40 MLOAD PUSH3 0x461BCD PUSH1 0xE5 SHL DUP2 MSTORE PUSH1 0x20 PUSH1 0x4 DUP3 ADD MSTORE PUSH1 0x13 PUSH1 0x24 DUP3 ADD MSTORE PUSH19 0x10995D081A5CC81B9BDD081058D8D95C1D1959 PUSH1 0x6A SHL PUSH1 0x44 DUP3 ADD MSTORE PUSH1 0x64 ADD PUSH2 0xA11 JUMP JUMPDEST PUSH1 0x0 DUP3 DUP2 MSTORE PUSH1 0xE PUSH1 0x20 DUP2 DUP2 MSTORE PUSH1 0x40 DUP1 DUP5 KECCAK256 PUSH1 0xA DUP2 ADD DUP1 SLOAD PUSH1 0x1 PUSH1 0x1 PUSH1 0xA0 SHL SUB NOT AND PUSH1 0x1 PUSH1 0x1 PUSH1 0xA0 SHL SUB DUP9 AND OR SWAP1 SSTORE DUP2 MLOAD DUP1 DUP4 ADD SWAP1 SWAP3 MSTORE PUSH1 0x6 DUP3 MSTORE PUSH6 0x10DB1BDCD959 PUSH1 0xD2 SHL DUP3 DUP5 ADD MSTORE SWAP4 DUP7 SWAP1 MSTORE SWAP2 SWAP1 MSTORE PUSH1 0xB SWAP1 SWAP2 ADD SWAP1 PUSH2 0x1F20 SWAP1 DUP3 PUSH2 0x2C7F JUMP JUMPDEST POP PUSH1 0x0 DUP3 DUP2 MSTORE PUSH1 0xE PUSH1 0x20 MSTORE PUSH1 0x40 DUP2 KECCAK256 PUSH1 0xA DUP2 ADD DUP1 SLOAD PUSH1 0xFF PUSH1 0xA0 SHL NOT AND SWAP1 SSTORE PUSH1 0x7 ADD SLOAD PUSH2 0x1F4D SWAP1 PUSH1 0x2 PUSH2 0x2D6C JUMP JUMPDEST PUSH1 0x40 MLOAD SWAP1 SWAP2 POP DUP3 SWAP1 PUSH1 0x1 PUSH1 0x1 PUSH1 0xA0 SHL SUB DUP3 AND SWAP1 DUP4 ISZERO PUSH2 0x8FC MUL SWAP1 DUP5 SWAP1 PUSH1 0x0 DUP2 DUP2 DUP2 DUP6 DUP9 DUP9 CALL SWAP4 POP POP POP POP ISZERO DUP1 ISZERO PUSH2 0x1F88 JUMPI RETURNDATASIZE PUSH1 0x0 DUP1 RETURNDATACOPY RETURNDATASIZE PUSH1 0x0 REVERT JUMPDEST POP DUP1 PUSH1 0x1 PUSH1 0x1 PUSH1 0xA0 SHL SUB AND DUP3 DUP6 PUSH32 0x597A101E271512CBF5AA9EC669AE424ACA2C3D863FD79008B760A76B585A0597 PUSH1 0x40 MLOAD PUSH1 0x40 MLOAD DUP1 SWAP2 SUB SWAP1 LOG4 POP POP PUSH1 0x1 PUSH1 0x6 SSTORE POP POP JUMP JUMPDEST PUSH2 0x1FD4 PUSH2 0x26E3 JUMP JUMPDEST PUSH2 0x1FDC PUSH2 0x26E3 JUMP JUMPDEST PUSH2 0x1FE8 DUP2 DUP7 DUP7 DUP7 PUSH2 0x2037 JUMP JUMPDEST SWAP6 SWAP5 POP POP POP POP POP JUMP JUMPDEST PUSH1 0x80 DUP4 ADD MLOAD PUSH2 0x2000 SWAP1 DUP4 PUSH2 0x207D JUMP JUMPDEST PUSH1 0x80 DUP4 ADD MLOAD PUSH2 0x200F SWAP1 DUP3 PUSH2 0x207D JUMP JUMPDEST POP POP POP JUMP JUMPDEST PUSH1 0x3 SLOAD PUSH1 0x0 SWAP1 PUSH2 0x202E SWAP1 PUSH1 0x1 PUSH1 0x1 PUSH1 0xA0 SHL SUB AND DUP5 DUP5 PUSH2 0x2094 JUMP JUMPDEST SWAP1 POP JUMPDEST SWAP3 SWAP2 POP POP JUMP JUMPDEST PUSH2 0x203F PUSH2 0x26E3 JUMP JUMPDEST PUSH2 0x204F DUP6 PUSH1 0x80 ADD MLOAD PUSH2 0x100 PUSH2 0x2125 JUMP JUMPDEST POP POP DUP3 DUP5 MSTORE PUSH1 0x1 PUSH1 0x1 PUSH1 0xA0 SHL SUB DUP3 AND PUSH1 0x20 DUP6 ADD MSTORE PUSH1 0x1 PUSH1 0x1 PUSH1 0xE0 SHL SUB NOT DUP2 AND PUSH1 0x40 DUP6 ADD MSTORE DUP4 JUMPDEST SWAP5 SWAP4 POP POP POP POP JUMP JUMPDEST PUSH2 0x208A DUP3 PUSH1 0x3 DUP4 MLOAD PUSH2 0x218A JUMP JUMPDEST PUSH2 0x200F DUP3 DUP3 PUSH2 0x2297 JUMP JUMPDEST PUSH1 0x4 SLOAD PUSH1 0x0 SWAP1 PUSH2 0x20A5 DUP2 PUSH1 0x1 PUSH2 0x2D83 JUMP JUMPDEST PUSH1 0x4 SSTORE DUP4 MLOAD PUSH1 0x40 DUP1 DUP7 ADD MLOAD PUSH1 0x80 DUP8 ADD MLOAD MLOAD SWAP2 MLOAD PUSH1 0x0 SWAP4 PUSH4 0x3C6D41B9 PUSH1 0xE0 SHL SWAP4 PUSH2 0x20DB SWAP4 DUP7 SWAP4 DUP5 SWAP4 SWAP3 DUP10 SWAP2 PUSH1 0x2 SWAP2 SWAP1 PUSH1 0x24 ADD PUSH2 0x2D96 JUMP JUMPDEST PUSH1 0x40 DUP1 MLOAD PUSH1 0x1F NOT DUP2 DUP5 SUB ADD DUP2 MSTORE SWAP2 SWAP1 MSTORE PUSH1 0x20 DUP2 ADD DUP1 MLOAD PUSH1 0x1 PUSH1 0x1 PUSH1 0xE0 SHL SUB AND PUSH1 0x1 PUSH1 0x1 PUSH1 0xE0 SHL SUB NOT SWAP1 SWAP4 AND SWAP3 SWAP1 SWAP3 OR SWAP1 SWAP2 MSTORE SWAP1 POP PUSH2 0x211B DUP7 DUP4 DUP7 DUP5 PUSH2 0x22BE JUMP JUMPDEST SWAP7 SWAP6 POP POP POP POP POP POP JUMP JUMPDEST PUSH1 0x40 DUP1 MLOAD DUP1 DUP3 ADD SWAP1 SWAP2 MSTORE PUSH1 0x60 DUP2 MSTORE PUSH1 0x0 PUSH1 0x20 DUP3 ADD MSTORE PUSH2 0x2145 PUSH1 0x20 DUP4 PUSH2 0x2DEB JUMP JUMPDEST ISZERO PUSH2 0x216D JUMPI PUSH2 0x2155 PUSH1 0x20 DUP4 PUSH2 0x2DEB JUMP JUMPDEST PUSH2 0x2160 SWAP1 PUSH1 0x20 PUSH2 0x2E0D JUMP JUMPDEST PUSH2 0x216A SWAP1 DUP4 PUSH2 0x2D83 JUMP JUMPDEST SWAP2 POP JUMPDEST POP PUSH1 0x20 DUP3 DUP2 ADD DUP3 SWAP1 MSTORE PUSH1 0x40 DUP1 MLOAD DUP1 DUP6 MSTORE PUSH1 0x0 DUP2 MSTORE SWAP1 SWAP3 ADD ADD SWAP1 MSTORE SWAP1 JUMP JUMPDEST PUSH1 0x17 DUP2 PUSH1 0x1 PUSH1 0x1 PUSH1 0x40 SHL SUB AND GT PUSH2 0x21B4 JUMPI PUSH2 0x21AE DUP4 PUSH1 0xE0 PUSH1 0x5 DUP6 SWAP1 SHL AND DUP4 OR PUSH2 0x241C JUMP JUMPDEST POP POP POP POP JUMP JUMPDEST PUSH1 0xFF DUP2 PUSH1 0x1 PUSH1 0x1 PUSH1 0x40 SHL SUB AND GT PUSH2 0x21F0 JUMPI PUSH2 0x21DA DUP4 PUSH1 0x18 PUSH2 0x1FE0 PUSH1 0x5 DUP7 SWAP1 SHL AND OR PUSH2 0x241C JUMP JUMPDEST POP PUSH2 0x21AE DUP4 PUSH1 0x1 PUSH1 0x1 PUSH1 0x40 SHL SUB DUP4 AND PUSH1 0x1 PUSH2 0x2441 JUMP JUMPDEST PUSH2 0xFFFF DUP2 PUSH1 0x1 PUSH1 0x1 PUSH1 0x40 SHL SUB AND GT PUSH2 0x222D JUMPI PUSH2 0x2217 DUP4 PUSH1 0x19 PUSH2 0x1FE0 PUSH1 0x5 DUP7 SWAP1 SHL AND OR PUSH2 0x241C JUMP JUMPDEST POP PUSH2 0x21AE DUP4 PUSH1 0x1 PUSH1 0x1 PUSH1 0x40 SHL SUB DUP4 AND PUSH1 0x2 PUSH2 0x2441 JUMP JUMPDEST PUSH4 0xFFFFFFFF DUP2 PUSH1 0x1 PUSH1 0x1 PUSH1 0x40 SHL SUB AND GT PUSH2 0x226C JUMPI PUSH2 0x2256 DUP4 PUSH1 0x1A PUSH2 0x1FE0 PUSH1 0x5 DUP7 SWAP1 SHL AND OR PUSH2 0x241C JUMP JUMPDEST POP PUSH2 0x21AE DUP4 PUSH1 0x1 PUSH1 0x1 PUSH1 0x40 SHL SUB DUP4 AND PUSH1 0x4 PUSH2 0x2441 JUMP JUMPDEST PUSH2 0x2281 DUP4 PUSH1 0x1B PUSH2 0x1FE0 PUSH1 0x5 DUP7 SWAP1 SHL AND OR PUSH2 0x241C JUMP JUMPDEST POP PUSH2 0x21AE DUP4 PUSH1 0x1 PUSH1 0x1 PUSH1 0x40 SHL SUB DUP4 AND PUSH1 0x8 PUSH2 0x2441 JUMP JUMPDEST PUSH1 0x40 DUP1 MLOAD DUP1 DUP3 ADD SWAP1 SWAP2 MSTORE PUSH1 0x60 DUP2 MSTORE PUSH1 0x0 PUSH1 0x20 DUP3 ADD MSTORE PUSH2 0x202E DUP4 DUP5 PUSH1 0x0 ADD MLOAD MLOAD DUP5 DUP6 MLOAD PUSH2 0x2467 JUMP JUMPDEST PUSH1 0x40 MLOAD PUSH12 0xFFFFFFFFFFFFFFFFFFFFFFFF NOT ADDRESS PUSH1 0x60 SHL AND PUSH1 0x20 DUP3 ADD MSTORE PUSH1 0x34 DUP2 ADD DUP5 SWAP1 MSTORE PUSH1 0x0 SWAP1 PUSH1 0x54 ADD PUSH1 0x40 DUP1 MLOAD DUP1 DUP4 SUB PUSH1 0x1F NOT ADD DUP2 MSTORE DUP3 DUP3 MSTORE DUP1 MLOAD PUSH1 0x20 SWAP2 DUP3 ADD KECCAK256 PUSH1 0x0 DUP2 DUP2 MSTORE PUSH1 0x5 SWAP1 SWAP3 MSTORE SWAP2 DUP2 KECCAK256 DUP1 SLOAD PUSH1 0x1 PUSH1 0x1 PUSH1 0xA0 SHL SUB NOT AND PUSH1 0x1 PUSH1 0x1 PUSH1 0xA0 SHL SUB DUP11 AND OR SWAP1 SSTORE SWAP1 SWAP3 POP DUP3 SWAP2 PUSH32 0xB5E6E01E79F91267DC17B4E6314D5D4D03593D2CEEE0FBB452B750BD70EA5AF9 SWAP2 SWAP1 LOG2 PUSH1 0x2 SLOAD PUSH1 0x40 MLOAD PUSH4 0x2000575 PUSH1 0xE5 SHL DUP2 MSTORE PUSH1 0x1 PUSH1 0x1 PUSH1 0xA0 SHL SUB SWAP1 SWAP2 AND SWAP1 PUSH4 0x4000AEA0 SWAP1 PUSH2 0x2381 SWAP1 DUP9 SWAP1 DUP8 SWAP1 DUP8 SWAP1 PUSH1 0x4 ADD PUSH2 0x2E20 JUMP JUMPDEST PUSH1 0x20 PUSH1 0x40 MLOAD DUP1 DUP4 SUB DUP2 PUSH1 0x0 DUP8 GAS CALL ISZERO DUP1 ISZERO PUSH2 0x23A0 JUMPI RETURNDATASIZE PUSH1 0x0 DUP1 RETURNDATACOPY RETURNDATASIZE PUSH1 0x0 REVERT JUMPDEST POP POP POP POP PUSH1 0x40 MLOAD RETURNDATASIZE PUSH1 0x1F NOT PUSH1 0x1F DUP3 ADD AND DUP3 ADD DUP1 PUSH1 0x40 MSTORE POP DUP2 ADD SWAP1 PUSH2 0x23C4 SWAP2 SWAP1 PUSH2 0x2E47 JUMP JUMPDEST PUSH2 0x2075 JUMPI PUSH1 0x40 MLOAD PUSH3 0x461BCD PUSH1 0xE5 SHL DUP2 MSTORE PUSH1 0x20 PUSH1 0x4 DUP3 ADD MSTORE PUSH1 0x23 PUSH1 0x24 DUP3 ADD MSTORE PUSH32 0x756E61626C6520746F207472616E73666572416E6443616C6C20746F206F7261 PUSH1 0x44 DUP3 ADD MSTORE PUSH3 0x636C65 PUSH1 0xE8 SHL PUSH1 0x64 DUP3 ADD MSTORE PUSH1 0x84 ADD PUSH2 0xA11 JUMP JUMPDEST PUSH1 0x40 DUP1 MLOAD DUP1 DUP3 ADD SWAP1 SWAP2 MSTORE PUSH1 0x60 DUP2 MSTORE PUSH1 0x0 PUSH1 0x20 DUP3 ADD MSTORE PUSH2 0x202E DUP4 DUP5 PUSH1 0x0 ADD MLOAD MLOAD DUP5 PUSH2 0x2551 JUMP JUMPDEST PUSH1 0x40 DUP1 MLOAD DUP1 DUP3 ADD SWAP1 SWAP2 MSTORE PUSH1 0x60 DUP2 MSTORE PUSH1 0x0 PUSH1 0x20 DUP3 ADD MSTORE PUSH2 0x2075 DUP5 DUP6 PUSH1 0x0 ADD MLOAD MLOAD DUP6 DUP6 PUSH2 0x25AC JUMP JUMPDEST PUSH1 0x40 DUP1 MLOAD DUP1 DUP3 ADD SWAP1 SWAP2 MSTORE PUSH1 0x60 DUP2 MSTORE PUSH1 0x0 PUSH1 0x20 DUP3 ADD MSTORE DUP3 MLOAD DUP3 GT ISZERO PUSH2 0x248A JUMPI PUSH1 0x0 DUP1 REVERT JUMPDEST PUSH1 0x20 DUP6 ADD MLOAD PUSH2 0x2499 DUP4 DUP7 PUSH2 0x2D83 JUMP JUMPDEST GT ISZERO PUSH2 0x24CC JUMPI PUSH2 0x24CC DUP6 PUSH2 0x24BC DUP8 PUSH1 0x20 ADD MLOAD DUP8 DUP7 PUSH2 0x24B7 SWAP2 SWAP1 PUSH2 0x2D83 JUMP JUMPDEST PUSH2 0x262D JUMP JUMPDEST PUSH2 0x24C7 SWAP1 PUSH1 0x2 PUSH2 0x2D6C JUMP JUMPDEST PUSH2 0x263E JUMP JUMPDEST PUSH1 0x0 DUP1 DUP7 MLOAD DUP1 MLOAD DUP8 PUSH1 0x20 DUP4 ADD ADD SWAP4 POP DUP1 DUP9 DUP8 ADD GT ISZERO PUSH2 0x24EB JUMPI DUP8 DUP7 ADD DUP3 MSTORE JUMPDEST POP POP POP PUSH1 0x20 DUP5 ADD JUMPDEST PUSH1 0x20 DUP5 LT PUSH2 0x252B JUMPI DUP1 MLOAD DUP3 MSTORE PUSH2 0x250A PUSH1 0x20 DUP4 PUSH2 0x2D83 JUMP JUMPDEST SWAP2 POP PUSH2 0x2517 PUSH1 0x20 DUP3 PUSH2 0x2D83 JUMP JUMPDEST SWAP1 POP PUSH2 0x2524 PUSH1 0x20 DUP6 PUSH2 0x2E0D JUMP JUMPDEST SWAP4 POP PUSH2 0x24F3 JUMP JUMPDEST MLOAD DUP2 MLOAD PUSH1 0x0 NOT PUSH1 0x20 DUP7 SWAP1 SUB PUSH2 0x100 EXP ADD SWAP1 DUP2 AND SWAP1 NOT SWAP2 SWAP1 SWAP2 AND OR SWAP1 MSTORE POP DUP4 SWAP5 SWAP4 POP POP POP POP JUMP JUMPDEST PUSH1 0x40 DUP1 MLOAD DUP1 DUP3 ADD SWAP1 SWAP2 MSTORE PUSH1 0x60 DUP2 MSTORE PUSH1 0x0 PUSH1 0x20 DUP3 ADD MSTORE DUP4 PUSH1 0x20 ADD MLOAD DUP4 LT PUSH2 0x2586 JUMPI PUSH2 0x2586 DUP5 DUP6 PUSH1 0x20 ADD MLOAD PUSH1 0x2 PUSH2 0x24C7 SWAP2 SWAP1 PUSH2 0x2D6C JUMP JUMPDEST DUP4 MLOAD DUP1 MLOAD PUSH1 0x20 DUP6 DUP4 ADD ADD DUP5 DUP2 MSTORE8 POP DUP1 DUP6 SUB PUSH2 0x25A2 JUMPI PUSH1 0x1 DUP2 ADD DUP3 MSTORE JUMPDEST POP SWAP4 SWAP5 SWAP4 POP POP POP POP JUMP JUMPDEST PUSH1 0x40 DUP1 MLOAD DUP1 DUP3 ADD SWAP1 SWAP2 MSTORE PUSH1 0x60 DUP2 MSTORE PUSH1 0x0 PUSH1 0x20 DUP3 ADD MSTORE PUSH1 0x20 DUP6 ADD MLOAD PUSH2 0x25D0 DUP6 DUP5 PUSH2 0x2D83 JUMP JUMPDEST GT ISZERO PUSH2 0x25E4 JUMPI PUSH2 0x25E4 DUP6 PUSH2 0x24BC DUP7 DUP6 PUSH2 0x2D83 JUMP JUMPDEST PUSH1 0x0 PUSH1 0x1 PUSH2 0x25F4 DUP5 PUSH2 0x100 PUSH2 0x2F54 JUMP JUMPDEST PUSH2 0x25FE SWAP2 SWAP1 PUSH2 0x2E0D JUMP JUMPDEST SWAP1 POP DUP6 MLOAD DUP4 DUP7 DUP3 ADD ADD DUP6 DUP4 NOT DUP3 MLOAD AND OR DUP2 MSTORE POP DUP1 MLOAD DUP5 DUP8 ADD GT ISZERO PUSH2 0x2622 JUMPI DUP4 DUP7 ADD DUP2 MSTORE JUMPDEST POP SWAP5 SWAP6 SWAP5 POP POP POP POP POP JUMP JUMPDEST PUSH1 0x0 DUP2 DUP4 GT ISZERO PUSH2 0x1A7E JUMPI POP DUP2 PUSH2 0x2031 JUMP JUMPDEST DUP2 MLOAD PUSH2 0x264A DUP4 DUP4 PUSH2 0x2125 JUMP JUMPDEST POP PUSH2 0x21AE DUP4 DUP3 PUSH2 0x2297 JUMP JUMPDEST PUSH1 0x40 MLOAD DUP1 PUSH2 0x1C0 ADD PUSH1 0x40 MSTORE DUP1 PUSH1 0x0 DUP2 MSTORE PUSH1 0x20 ADD PUSH1 0x0 DUP2 MSTORE PUSH1 0x20 ADD PUSH1 0x0 DUP2 MSTORE PUSH1 0x20 ADD PUSH1 0x60 DUP2 MSTORE PUSH1 0x20 ADD PUSH1 0x60 DUP2 MSTORE PUSH1 0x20 ADD PUSH1 0x60 DUP2 MSTORE PUSH1 0x20 ADD PUSH1 0x60 DUP2 MSTORE PUSH1 0x20 ADD PUSH1 0x0 DUP2 MSTORE PUSH1 0x20 ADD PUSH1 0x0 PUSH1 0x1 PUSH1 0x1 PUSH1 0xA0 SHL SUB AND DUP2 MSTORE PUSH1 0x20 ADD PUSH1 0x0 PUSH1 0x1 PUSH1 0x1 PUSH1 0xA0 SHL SUB AND DUP2 MSTORE PUSH1 0x20 ADD PUSH1 0x0 PUSH1 0x1 PUSH1 0x1 PUSH1 0xA0 SHL SUB AND DUP2 MSTORE PUSH1 0x20 ADD PUSH1 0x0 ISZERO ISZERO DUP2 MSTORE PUSH1 0x20 ADD PUSH1 0x0 ISZERO ISZERO DUP2 MSTORE PUSH1 0x20 ADD PUSH1 0x60 DUP2 MSTORE POP SWAP1 JUMP JUMPDEST PUSH1 0x40 DUP1 MLOAD PUSH1 0xA0 DUP2 ADD DUP3 MSTORE PUSH1 0x0 DUP1 DUP3 MSTORE PUSH1 0x20 DUP1 DUP4 ADD DUP3 SWAP1 MSTORE DUP3 DUP5 ADD DUP3 SWAP1 MSTORE PUSH1 0x60 DUP1 DUP5 ADD DUP4 SWAP1 MSTORE DUP5 MLOAD DUP1 DUP7 ADD SWAP1 SWAP6 MSTORE DUP5 MSTORE DUP4 ADD MSTORE SWAP1 PUSH1 0x80 DUP3 ADD MSTORE SWAP1 JUMP JUMPDEST PUSH1 0x0 DUP2 MLOAD DUP1 DUP5 MSTORE PUSH1 0x0 JUMPDEST DUP2 DUP2 LT ISZERO PUSH2 0x2744 JUMPI PUSH1 0x20 DUP2 DUP6 ADD DUP2 ADD MLOAD DUP7 DUP4 ADD DUP3 ADD MSTORE ADD PUSH2 0x2728 JUMP JUMPDEST POP PUSH1 0x0 PUSH1 0x20 DUP3 DUP7 ADD ADD MSTORE PUSH1 0x20 PUSH1 0x1F NOT PUSH1 0x1F DUP4 ADD AND DUP6 ADD ADD SWAP2 POP POP SWAP3 SWAP2 POP POP JUMP JUMPDEST PUSH1 0x0 PUSH1 0x20 DUP1 DUP4 ADD DUP2 DUP5 MSTORE DUP1 DUP6 MLOAD DUP1 DUP4 MSTORE PUSH1 0x40 SWAP3 POP DUP3 DUP7 ADD SWAP2 POP DUP3 DUP2 PUSH1 0x5 SHL DUP8 ADD ADD DUP5 DUP9 ADD PUSH1 0x0 JUMPDEST DUP4 DUP2 LT ISZERO PUSH2 0x28B9 JUMPI PUSH1 0x3F NOT DUP10 DUP5 SUB ADD DUP6 MSTORE DUP2 MLOAD PUSH2 0x1C0 DUP2 MLOAD DUP6 MSTORE DUP9 DUP3 ADD MLOAD DUP10 DUP7 ADD MSTORE DUP8 DUP3 ADD MLOAD DUP9 DUP7 ADD MSTORE PUSH1 0x60 DUP1 DUP4 ADD MLOAD DUP3 DUP3 DUP9 ADD MSTORE PUSH2 0x27CC DUP4 DUP9 ADD DUP3 PUSH2 0x271E JUMP JUMPDEST SWAP3 POP POP POP PUSH1 0x80 DUP1 DUP4 ADD MLOAD DUP7 DUP4 SUB DUP3 DUP9 ADD MSTORE PUSH2 0x27E7 DUP4 DUP3 PUSH2 0x271E JUMP JUMPDEST SWAP3 POP POP POP PUSH1 0xA0 DUP1 DUP4 ADD MLOAD DUP7 DUP4 SUB DUP3 DUP9 ADD MSTORE PUSH2 0x2802 DUP4 DUP3 PUSH2 0x271E JUMP JUMPDEST SWAP3 POP POP POP PUSH1 0xC0 DUP1 DUP4 ADD MLOAD DUP7 DUP4 SUB DUP3 DUP9 ADD MSTORE PUSH2 0x281D DUP4 DUP3 PUSH2 0x271E JUMP JUMPDEST SWAP3 POP POP POP PUSH1 0xE0 DUP1 DUP4 ADD MLOAD DUP2 DUP8 ADD MSTORE POP PUSH2 0x100 DUP1 DUP4 ADD MLOAD PUSH2 0x2847 DUP3 DUP9 ADD DUP3 PUSH1 0x1 PUSH1 0x1 PUSH1 0xA0 SHL SUB AND SWAP1 MSTORE JUMP JUMPDEST POP POP PUSH2 0x120 DUP3 DUP2 ADD MLOAD PUSH1 0x1 PUSH1 0x1 PUSH1 0xA0 SHL SUB SWAP1 DUP2 AND SWAP2 DUP8 ADD SWAP2 SWAP1 SWAP2 MSTORE PUSH2 0x140 DUP1 DUP5 ADD MLOAD SWAP1 SWAP2 AND SWAP1 DUP7 ADD MSTORE PUSH2 0x160 DUP1 DUP4 ADD MLOAD ISZERO ISZERO SWAP1 DUP7 ADD MSTORE PUSH2 0x180 DUP1 DUP4 ADD MLOAD ISZERO ISZERO SWAP1 DUP7 ADD MSTORE PUSH2 0x1A0 SWAP2 DUP3 ADD MLOAD DUP6 DUP3 SUB SWAP3 DUP7 ADD SWAP3 SWAP1 SWAP3 MSTORE PUSH2 0x28A5 DUP2 DUP4 PUSH2 0x271E JUMP JUMPDEST SWAP7 DUP10 ADD SWAP7 SWAP5 POP POP POP SWAP1 DUP7 ADD SWAP1 PUSH1 0x1 ADD PUSH2 0x278B JUMP JUMPDEST POP SWAP1 SWAP9 SWAP8 POP POP POP POP POP POP POP POP JUMP JUMPDEST PUSH1 0x0 PUSH1 0x20 DUP3 DUP5 SUB SLT ISZERO PUSH2 0x28D9 JUMPI PUSH1 0x0 DUP1 REVERT JUMPDEST POP CALLDATALOAD SWAP2 SWAP1 POP JUMP JUMPDEST DUP15 DUP2 MSTORE DUP14 PUSH1 0x20 DUP3 ADD MSTORE DUP13 PUSH1 0x40 DUP3 ADD MSTORE PUSH2 0x1C0 PUSH1 0x60 DUP3 ADD MSTORE PUSH1 0x0 PUSH2 0x2907 PUSH2 0x1C0 DUP4 ADD DUP15 PUSH2 0x271E JUMP JUMPDEST DUP3 DUP2 SUB PUSH1 0x80 DUP5 ADD MSTORE PUSH2 0x2919 DUP2 DUP15 PUSH2 0x271E JUMP JUMPDEST SWAP1 POP DUP3 DUP2 SUB PUSH1 0xA0 DUP5 ADD MSTORE PUSH2 0x292D DUP2 DUP14 PUSH2 0x271E JUMP JUMPDEST SWAP1 POP DUP3 DUP2 SUB PUSH1 0xC0 DUP5 ADD MSTORE PUSH2 0x2941 DUP2 DUP13 PUSH2 0x271E JUMP JUMPDEST SWAP1 POP DUP10 PUSH1 0xE0 DUP5 ADD MSTORE PUSH2 0x295F PUSH2 0x100 DUP5 ADD DUP11 PUSH1 0x1 PUSH1 0x1 PUSH1 0xA0 SHL SUB AND SWAP1 MSTORE JUMP JUMPDEST PUSH1 0x1 PUSH1 0x1 PUSH1 0xA0 SHL SUB DUP9 AND PUSH2 0x120 DUP5 ADD MSTORE PUSH1 0x1 PUSH1 0x1 PUSH1 0xA0 SHL SUB DUP8 AND PUSH2 0x140 DUP5 ADD MSTORE DUP6 ISZERO ISZERO PUSH2 0x160 DUP5 ADD MSTORE DUP5 ISZERO ISZERO PUSH2 0x180 DUP5 ADD MSTORE DUP3 DUP2 SUB PUSH2 0x1A0 DUP5 ADD MSTORE PUSH2 0x29A4 DUP2 DUP6 PUSH2 0x271E JUMP JUMPDEST SWAP2 POP POP SWAP16 SWAP15 POP POP POP POP POP POP POP POP POP POP POP POP POP POP POP JUMP JUMPDEST PUSH4 0x4E487B71 PUSH1 0xE0 SHL PUSH1 0x0 MSTORE PUSH1 0x41 PUSH1 0x4 MSTORE PUSH1 0x24 PUSH1 0x0 REVERT JUMPDEST PUSH1 0x0 DUP3 PUSH1 0x1F DUP4 ADD SLT PUSH2 0x29E1 JUMPI PUSH1 0x0 DUP1 REVERT JUMPDEST DUP2 CALLDATALOAD PUSH1 0x1 PUSH1 0x1 PUSH1 0x40 SHL SUB DUP1 DUP3 GT ISZERO PUSH2 0x29FB JUMPI PUSH2 0x29FB PUSH2 0x29BA JUMP JUMPDEST PUSH1 0x40 MLOAD PUSH1 0x1F DUP4 ADD PUSH1 0x1F NOT SWAP1 DUP2 AND PUSH1 0x3F ADD AND DUP2 ADD SWAP1 DUP3 DUP3 GT DUP2 DUP4 LT OR ISZERO PUSH2 0x2A23 JUMPI PUSH2 0x2A23 PUSH2 0x29BA JUMP JUMPDEST DUP2 PUSH1 0x40 MSTORE DUP4 DUP2 MSTORE DUP7 PUSH1 0x20 DUP6 DUP9 ADD ADD GT ISZERO PUSH2 0x2A3C JUMPI PUSH1 0x0 DUP1 REVERT JUMPDEST DUP4 PUSH1 0x20 DUP8 ADD PUSH1 0x20 DUP4 ADD CALLDATACOPY PUSH1 0x0 PUSH1 0x20 DUP6 DUP4 ADD ADD MSTORE DUP1 SWAP5 POP POP POP POP POP SWAP3 SWAP2 POP POP JUMP JUMPDEST PUSH1 0x0 DUP1 PUSH1 0x0 DUP1 PUSH1 0x0 DUP1 PUSH1 0x0 PUSH1 0xE0 DUP9 DUP11 SUB SLT ISZERO PUSH2 0x2A77 JUMPI PUSH1 0x0 DUP1 REVERT JUMPDEST DUP8 CALLDATALOAD SWAP7 POP PUSH1 0x20 DUP9 ADD CALLDATALOAD SWAP6 POP PUSH1 0x40 DUP9 ADD CALLDATALOAD PUSH1 0x1 PUSH1 0x1 PUSH1 0x40 SHL SUB DUP1 DUP3 GT ISZERO PUSH2 0x2A9C JUMPI PUSH1 0x0 DUP1 REVERT JUMPDEST PUSH2 0x2AA8 DUP12 DUP4 DUP13 ADD PUSH2 0x29D0 JUMP JUMPDEST SWAP7 POP PUSH1 0x60 DUP11 ADD CALLDATALOAD SWAP2 POP DUP1 DUP3 GT ISZERO PUSH2 0x2ABE JUMPI PUSH1 0x0 DUP1 REVERT JUMPDEST PUSH2 0x2ACA DUP12 DUP4 DUP13 ADD PUSH2 0x29D0 JUMP JUMPDEST SWAP6 POP PUSH1 0x80 DUP11 ADD CALLDATALOAD SWAP2 POP DUP1 DUP3 GT ISZERO PUSH2 0x2AE0 JUMPI PUSH1 0x0 DUP1 REVERT JUMPDEST PUSH2 0x2AEC DUP12 DUP4 DUP13 ADD PUSH2 0x29D0 JUMP JUMPDEST SWAP5 POP PUSH1 0xA0 DUP11 ADD CALLDATALOAD SWAP4 POP PUSH1 0xC0 DUP11 ADD CALLDATALOAD SWAP2 POP DUP1 DUP3 GT ISZERO PUSH2 0x2B09 JUMPI PUSH1 0x0 DUP1 REVERT JUMPDEST POP PUSH2 0x2B16 DUP11 DUP3 DUP12 ADD PUSH2 0x29D0 JUMP JUMPDEST SWAP2 POP POP SWAP3 SWAP6 SWAP9 SWAP2 SWAP5 SWAP8 POP SWAP3 SWAP6 POP JUMP JUMPDEST PUSH1 0x0 DUP1 PUSH1 0x0 DUP1 PUSH1 0x0 PUSH1 0xA0 DUP7 DUP9 SUB SLT ISZERO PUSH2 0x2B3D JUMPI PUSH1 0x0 DUP1 REVERT JUMPDEST POP POP DUP4 CALLDATALOAD SWAP6 PUSH1 0x20 DUP6 ADD CALLDATALOAD SWAP6 POP PUSH1 0x40 DUP6 ADD CALLDATALOAD SWAP5 PUSH1 0x60 DUP2 ADD CALLDATALOAD SWAP5 POP PUSH1 0x80 ADD CALLDATALOAD SWAP3 POP SWAP1 POP JUMP JUMPDEST PUSH1 0x20 DUP2 MSTORE PUSH1 0x0 PUSH2 0x202E PUSH1 0x20 DUP4 ADD DUP5 PUSH2 0x271E JUMP JUMPDEST PUSH4 0x4E487B71 PUSH1 0xE0 SHL PUSH1 0x0 MSTORE PUSH1 0x32 PUSH1 0x4 MSTORE PUSH1 0x24 PUSH1 0x0 REVERT JUMPDEST PUSH1 0x1 DUP2 DUP2 SHR SWAP1 DUP3 AND DUP1 PUSH2 0x2B9D JUMPI PUSH1 0x7F DUP3 AND SWAP2 POP JUMPDEST PUSH1 0x20 DUP3 LT DUP2 SUB PUSH2 0x1A7E JUMPI PUSH4 0x4E487B71 PUSH1 0xE0 SHL PUSH1 0x0 MSTORE PUSH1 0x22 PUSH1 0x4 MSTORE PUSH1 0x24 PUSH1 0x0 REVERT JUMPDEST PUSH4 0x4E487B71 PUSH1 0xE0 SHL PUSH1 0x0 MSTORE PUSH1 0x11 PUSH1 0x4 MSTORE PUSH1 0x24 PUSH1 0x0 REVERT JUMPDEST PUSH1 0x0 PUSH1 0x1 DUP3 ADD PUSH2 0x2BE5 JUMPI PUSH2 0x2BE5 PUSH2 0x2BBD JUMP JUMPDEST POP PUSH1 0x1 ADD SWAP1 JUMP JUMPDEST PUSH1 0x20 DUP1 DUP3 MSTORE PUSH1 0x25 SWAP1 DUP3 ADD MSTORE PUSH32 0x596F752073686F756C642070726F76696465207072696365206173206D73672E PUSH1 0x40 DUP3 ADD MSTORE PUSH5 0x76616C7565 PUSH1 0xD8 SHL PUSH1 0x60 DUP3 ADD MSTORE PUSH1 0x80 ADD SWAP1 JUMP JUMPDEST PUSH1 0x1F DUP3 GT ISZERO PUSH2 0x200F JUMPI PUSH1 0x0 DUP2 DUP2 MSTORE PUSH1 0x20 DUP2 KECCAK256 PUSH1 0x1F DUP6 ADD PUSH1 0x5 SHR DUP2 ADD PUSH1 0x20 DUP7 LT ISZERO PUSH2 0x2C58 JUMPI POP DUP1 JUMPDEST PUSH1 0x1F DUP6 ADD PUSH1 0x5 SHR DUP3 ADD SWAP2 POP JUMPDEST DUP2 DUP2 LT ISZERO PUSH2 0x2C77 JUMPI DUP3 DUP2 SSTORE PUSH1 0x1 ADD PUSH2 0x2C64 JUMP JUMPDEST POP POP POP POP POP POP JUMP JUMPDEST DUP2 MLOAD PUSH1 0x1 PUSH1 0x1 PUSH1 0x40 SHL SUB DUP2 GT ISZERO PUSH2 0x2C98 JUMPI PUSH2 0x2C98 PUSH2 0x29BA JUMP JUMPDEST PUSH2 0x2CAC DUP2 PUSH2 0x2CA6 DUP5 SLOAD PUSH2 0x2B89 JUMP JUMPDEST DUP5 PUSH2 0x2C31 JUMP JUMPDEST PUSH1 0x20 DUP1 PUSH1 0x1F DUP4 GT PUSH1 0x1 DUP2 EQ PUSH2 0x2CE1 JUMPI PUSH1 0x0 DUP5 ISZERO PUSH2 0x2CC9 JUMPI POP DUP6 DUP4 ADD MLOAD JUMPDEST PUSH1 0x0 NOT PUSH1 0x3 DUP7 SWAP1 SHL SHR NOT AND PUSH1 0x1 DUP6 SWAP1 SHL OR DUP6 SSTORE PUSH2 0x2C77 JUMP JUMPDEST PUSH1 0x0 DUP6 DUP2 MSTORE PUSH1 0x20 DUP2 KECCAK256 PUSH1 0x1F NOT DUP7 AND SWAP2 JUMPDEST DUP3 DUP2 LT ISZERO PUSH2 0x2D10 JUMPI DUP9 DUP7 ADD MLOAD DUP3 SSTORE SWAP5 DUP5 ADD SWAP5 PUSH1 0x1 SWAP1 SWAP2 ADD SWAP1 DUP5 ADD PUSH2 0x2CF1 JUMP JUMPDEST POP DUP6 DUP3 LT ISZERO PUSH2 0x2D2E JUMPI DUP8 DUP6 ADD MLOAD PUSH1 0x0 NOT PUSH1 0x3 DUP9 SWAP1 SHL PUSH1 0xF8 AND SHR NOT AND DUP2 SSTORE JUMPDEST POP POP POP POP POP PUSH1 0x1 SWAP1 DUP2 SHL ADD SWAP1 SSTORE POP JUMP JUMPDEST PUSH1 0x20 DUP1 DUP3 MSTORE PUSH1 0x14 SWAP1 DUP3 ADD MSTORE PUSH20 0x10995D081A5CC81B9BDD081C1D589B1A5CDA1959 PUSH1 0x62 SHL PUSH1 0x40 DUP3 ADD MSTORE PUSH1 0x60 ADD SWAP1 JUMP JUMPDEST DUP1 DUP3 MUL DUP2 ISZERO DUP3 DUP3 DIV DUP5 EQ OR PUSH2 0x2031 JUMPI PUSH2 0x2031 PUSH2 0x2BBD JUMP JUMPDEST DUP1 DUP3 ADD DUP1 DUP3 GT ISZERO PUSH2 0x2031 JUMPI PUSH2 0x2031 PUSH2 0x2BBD JUMP JUMPDEST PUSH1 0x1 DUP1 PUSH1 0xA0 SHL SUB DUP9 AND DUP2 MSTORE DUP7 PUSH1 0x20 DUP3 ADD MSTORE DUP6 PUSH1 0x40 DUP3 ADD MSTORE PUSH4 0xFFFFFFFF PUSH1 0xE0 SHL DUP6 AND PUSH1 0x60 DUP3 ADD MSTORE DUP4 PUSH1 0x80 DUP3 ADD MSTORE DUP3 PUSH1 0xA0 DUP3 ADD MSTORE PUSH1 0xE0 PUSH1 0xC0 DUP3 ADD MSTORE PUSH1 0x0 PUSH2 0x2DDE PUSH1 0xE0 DUP4 ADD DUP5 PUSH2 0x271E JUMP JUMPDEST SWAP10 SWAP9 POP POP POP POP POP POP POP POP POP JUMP JUMPDEST PUSH1 0x0 DUP3 PUSH2 0x2E08 JUMPI PUSH4 0x4E487B71 PUSH1 0xE0 SHL PUSH1 0x0 MSTORE PUSH1 0x12 PUSH1 0x4 MSTORE PUSH1 0x24 PUSH1 0x0 REVERT JUMPDEST POP MOD SWAP1 JUMP JUMPDEST DUP2 DUP2 SUB DUP2 DUP2 GT ISZERO PUSH2 0x2031 JUMPI PUSH2 0x2031 PUSH2 0x2BBD JUMP JUMPDEST PUSH1 0x1 DUP1 PUSH1 0xA0 SHL SUB DUP5 AND DUP2 MSTORE DUP3 PUSH1 0x20 DUP3 ADD MSTORE PUSH1 0x60 PUSH1 0x40 DUP3 ADD MSTORE PUSH1 0x0 PUSH2 0x1FE8 PUSH1 0x60 DUP4 ADD DUP5 PUSH2 0x271E JUMP JUMPDEST PUSH1 0x0 PUSH1 0x20 DUP3 DUP5 SUB SLT ISZERO PUSH2 0x2E59 JUMPI PUSH1 0x0 DUP1 REVERT JUMPDEST DUP2 MLOAD DUP1 ISZERO ISZERO DUP2 EQ PUSH2 0x2E69 JUMPI PUSH1 0x0 DUP1 REVERT JUMPDEST SWAP4 SWAP3 POP POP POP JUMP JUMPDEST PUSH1 0x1 DUP2 DUP2 JUMPDEST DUP1 DUP6 GT ISZERO PUSH2 0x2EAB JUMPI DUP2 PUSH1 0x0 NOT DIV DUP3 GT ISZERO PUSH2 0x2E91 JUMPI PUSH2 0x2E91 PUSH2 0x2BBD JUMP JUMPDEST DUP1 DUP6 AND ISZERO PUSH2 0x2E9E JUMPI SWAP2 DUP2 MUL SWAP2 JUMPDEST SWAP4 DUP5 SHR SWAP4 SWAP1 DUP1 MUL SWAP1 PUSH2 0x2E75 JUMP JUMPDEST POP SWAP3 POP SWAP3 SWAP1 POP JUMP JUMPDEST PUSH1 0x0 DUP3 PUSH2 0x2EC2 JUMPI POP PUSH1 0x1 PUSH2 0x2031 JUMP JUMPDEST DUP2 PUSH2 0x2ECF JUMPI POP PUSH1 0x0 PUSH2 0x2031 JUMP JUMPDEST DUP2 PUSH1 0x1 DUP2 EQ PUSH2 0x2EE5 JUMPI PUSH1 0x2 DUP2 EQ PUSH2 0x2EEF JUMPI PUSH2 0x2F0B JUMP JUMPDEST PUSH1 0x1 SWAP2 POP POP PUSH2 0x2031 JUMP JUMPDEST PUSH1 0xFF DUP5 GT ISZERO PUSH2 0x2F00 JUMPI PUSH2 0x2F00 PUSH2 0x2BBD JUMP JUMPDEST POP POP PUSH1 0x1 DUP3 SHL PUSH2 0x2031 JUMP JUMPDEST POP PUSH1 0x20 DUP4 LT PUSH2 0x133 DUP4 LT AND PUSH1 0x4E DUP5 LT PUSH1 0xB DUP5 LT AND OR ISZERO PUSH2 0x2F2E JUMPI POP DUP2 DUP2 EXP PUSH2 0x2031 JUMP JUMPDEST PUSH2 0x2F38 DUP4 DUP4 PUSH2 0x2E70 JUMP JUMPDEST DUP1 PUSH1 0x0 NOT DIV DUP3 GT ISZERO PUSH2 0x2F4C JUMPI PUSH2 0x2F4C PUSH2 0x2BBD JUMP JUMPDEST MUL SWAP4 SWAP3 POP POP POP JUMP JUMPDEST PUSH1 0x0 PUSH2 0x202E DUP4 DUP4 PUSH2 0x2EB3 JUMP INVALID PUSH9 0x747470733A2F2F6170 PUSH10 0x2E73706F727473646174 PUSH2 0x2E69 PUSH16 0x2F76332F6E62612F73636F7265732F6A PUSH20 0x6F6E2F5465616D47616D65537461747342795365 PUSH2 0x736F PUSH15 0x2F323032332F31312F313F6B65793D CALLDATACOPY CALLDATASIZE PUSH4 0x32623536 PUSH2 0x6365 ORIGIN CODESIZE CALLVALUE CALLDATALOAD PUSH4 0x35396538 CALLVALUE PUSH7 0x33306238613838 PUSH2 0x6433 CALLDATASIZE LOG2 PUSH5 0x6970667358 0x22 SLT KECCAK256 0xC2 0x2A 0x29 PUSH3 0xAC2046 0x2A 0x2D 0xC7 0xB6 DUP2 SWAP13 0xBE SIGNEXTEND 0xD1 SAR 0xE0 0xE9 0xEB PUSH30 0x3D02C937D43AC8A3E8848564736F6C634300081100330000000000000000 ",
	"sha1": "050ea5f92fffff76e1d7f93e8f2f5c021c9a3afa",
	"source": "// SPDX-License-Identifier: MIT\npragma solidity ^0.8.0;\n\nimport \"@chainlink/contracts/src/v0.8/ChainlinkClient.sol\";\nimport \"@openzeppelin/contracts/security/ReentrancyGuard.sol\";\n\n\n\ncontract BetContract is ChainlinkClient, ReentrancyGuard {\n\n    \n    uint256 private winning;                        // latest match wining result\n    uint256 private losing;                         // latest match losing result\n    uint256 private currentTeamId;                  // latest match team id\n    uint256 public currentGameId;                   // latest match gameId   \n    uint256 public betCounter;                      // number of all bets\n    bytes32 private externalJobId;\n    uint256 private oraclePayment;\n    using Chainlink for Chainlink.Request;\n    mapping (uint => Bet) public bets;              // bet id to bet struct\n    mapping (address => uint[]) AddressToBetId;     // mapping from each user address to list of user bets id\n\n\n\n    struct Bet {\n\n        uint id;\n        uint gameId;\n        uint teamId;\n        string teamName;\n        string HomeTeam;\n        string AwayTeam;\n        string DateTime;\n        uint price;\n        address challenger;\n        address accepter;\n        address winner;\n        bool isActive;\n        bool isAccepted;\n        string status;\n    }\n\n\n    event RequestFulfilled(\n\n        bytes32 indexed requestId,\n        uint256 number1,\n        uint256 number2,\n        uint256 gameId,\n        uint256 teamId\n    );\n\n    event BetPublished(\n\n        uint indexed _id,\n        address indexed _challenger,\n        uint256 indexed _price\n    ); \n\n    event BetAccepted(\n\n        uint indexed _id,\n        address indexed _challenger,\n        address indexed _accepter,\n        uint256  _price\n    );\n\n    event BetClosed(\n\n        uint indexed _id,\n        uint indexed amount,\n        address indexed _winner\n        \n    );\n\n \n\n    constructor() {\n        \n        setChainlinkToken(0x326C977E6efc84E512bB9C30f76E30c160eD06FB);\n        setChainlinkOracle(0x7ca7215c6B8013f249A195cc107F97c4e623e5F5);\n        externalJobId = \"00594814638f41c6a9cd1ae3dfa982d6\";\n        oraclePayment = (1 * LINK_DIVISIBILITY) / 10;\n\n    } \n\n\n    // request to oracle and get the latest match result from the api\n    function requestMultiVariable() internal {\n\n        Chainlink.Request memory req = buildChainlinkRequest(externalJobId, address(this), this.fulfillBytesAndUint.selector);\n        req.add(\"get\", \"https://api.sportsdata.io/v3/nba/scores/json/TeamGameStatsBySeason/2023/11/1?key=76c2b56ace2845c59e84f30b8a88ad36\");\n        req.add(\"path1\", \"0,Name\");\n        req.add(\"path2\", \"0,Wins\");\n        req.add(\"path3\", \"0,Losses\");\n        req.add(\"path4\" , \"0,GameID\");\n        req.add(\"path5\", \"0,TeamID\");\n        sendOperatorRequest(req, oraclePayment);\n    }\n\n\n    function fulfillBytesAndUint(bytes32 requestId, uint256 _number1, uint256 _number2, uint256 _gameId, uint256 _TeamId)\n        public recordChainlinkFulfillment(requestId){\n    \n        emit RequestFulfilled(requestId, _number1, _number2, _gameId, _TeamId);\n        winning = _number1;\n        losing = _number2;\n        currentGameId = _gameId;\n        currentTeamId = _TeamId;\n    }\n \n    \n    // find winners and then close bets. this function uses chainlink upkeep\n    function upkeep_setWinner() public nonReentrant {\n\n        requestMultiVariable();\n\n        for(uint i = 1; i <= betCounter; i++){\n        \n            if (bets[i].gameId == currentGameId) {\n\n                if (currentTeamId == bets[i].teamId){\n                    close_bet(i, bets[i].challenger);\n\n                }\n                else if(currentTeamId != bets[i].teamId){\n                    close_bet(i, bets[i].accepter);\n\n                }\n            }\n        } \n    }\n\n\n\n    // send reward for winner and close bet\n    function close_bet(uint id, address _to) internal nonReentrant {\n        \n        require(bets[id].isActive == true, \"Bet is not Active\");\n        require(bets[id].isAccepted == true, \"Bet is not Accepted\");\n\n        bets[id].winner = _to;\n        bets[id].status = \"Closed\";\n        bets[id].isActive = false;\n        \n        uint256 amount = bets[id].price * 2;\n        address payable to = payable(_to);\n\n        to.transfer(amount);\n        emit BetClosed(id, amount, to);\n\n    }\n    \n\n\n    // Publish a new bet \n    function publishBet( \n        uint256 _price, uint256 _gameId, string memory _homeTeam, string memory _awayTeam, string memory _dataTime, uint _teamId, string memory _teamName) public payable {\n\n        // publisher should send bet price as msg.value and price should be at least 0.01 Matic\n        require(_price >= 0.001 * 1e18, \"Minimum price is 1 Matic\");\n        require(msg.value >= _price, \"You should provide price as msg.value\");\n        \n        betCounter++;\n        bets[betCounter] = Bet(\n\n            betCounter,\n            _gameId,\n            _teamId,\n            _teamName,\n            _homeTeam,\n            _awayTeam,\n            _dataTime,\n            _price, \n            msg.sender,\n            payable(0x0),\n            payable(0x0),        \n            true,\n            false,\n            \"Published\"\n        );\n\n        AddressToBetId[msg.sender].push(betCounter);\n        emit BetPublished(betCounter, msg.sender, _price);\n    }\n\n\n\n    // accept the specific Bet \n    function acceptBet(uint _id ) public payable {\n\n        Bet storage bet = bets[_id];\n        \n        // the bet sould alive and not closed or accepted before\n        // accepter should send the bet price as msg.value\n        require(bet.isActive == true, \"The bet is not activa\");\n        require(betCounter > 0, \"Bet is not published\");\n        require(_id > 0 && _id <= betCounter, \"Bet is not published\");\n        require(msg.sender != bet.challenger, \"Challenger can not accept the bet\");\n        require(msg.value >= bet.price, \"You should provide price as msg.value\");\n        \n        bet.accepter = msg.sender;\n        bet.isAccepted = true;\n        bet.status = \"Accepted\";\n        AddressToBetId[msg.sender].push(_id);\n\n        emit BetAccepted(_id, bet.challenger, bet.accepter, bet.price);\n\n    } \n\n\n\n    // cancel bet from challenger before accept bet\n    function cancelBet(uint _id) public payable {\n\n        Bet storage bet = bets[_id];\n\n        // msg.sender should be challenger\n        require(bet.isActive == true, \"The bet was canceled\");\n        require(betCounter >= _id && _id > 0, \"Bet is not published\");\n        require(msg.sender == bet.challenger, \"Bet challenger can cancel\");\n\n        bet.isActive = false;\n        bet.status = \"Canceled\";\n        uint256 amount = bet.price;\n        address payable to = payable(bet.challenger);\n\n        // send back bet price to challanger\n        bool isSuccess = to.send(amount);\n        require(isSuccess, \"Transaction Failed\");\n        \n    }\n\n\n\n    // return number of all of bets in the contract\n    function getNumberOfBets() public view returns (uint) {\n        return betCounter;\n    }\n\n\n\n    // return number of available Bets\n    function getNumberOfAvailableBets() public view returns(uint) {\n        \n        uint numberOfAvailableBets = 0;\n\n        for(uint i = 1; i <=  betCounter ; i++){\n\n            if(bets[i].isAccepted == false && bets[i].isActive == true) {\n                numberOfAvailableBets++;\n            }\n        }\n\n        return numberOfAvailableBets;\n    }\n\n\n\n    // create the list of available Bets and return it\n    function getAvailableBets() public view returns (Bet[] memory) {\n\n        uint[] memory betIds = new uint[](betCounter);\n        uint numberOfAvailableBets = 0;\n\n        for(uint i = 1; i <=  betCounter ; i++){\n\n            // Keep the ID if the bet is still available\n            if(bets[i].isAccepted == false && bets[i].isActive == true) {\n\n                betIds[numberOfAvailableBets] = bets[i].id;\n                numberOfAvailableBets++;\n            }\n        }\n        \n        Bet[] memory availableBets = new Bet[](numberOfAvailableBets);\n\n        // Copy the betIds array into a smaller availableBets array to get rid of empty indexes\n        for(uint j = 0; j < numberOfAvailableBets; j++) {\n            availableBets[j] = bets[betIds[j]];\n        }\n\n        return availableBets; \n    }   \n\n\n\n    // returns the list of msg.seder bets\n    function getUserBets() public view returns(Bet[] memory) {\n\n        uint size = AddressToBetId[msg.sender].length;\n        Bet[] memory userBets = new Bet[](size);\n\n        for(uint i = 0; i < size; i++) {\n\n            uint index = AddressToBetId[msg.sender][i];\n            userBets[i] = bets[index]; \n        }\n\n        return userBets;\n    }\n\n\n\n    // set and return the winner condition team for accepter\n    function getAcceptWinnerTeamName(uint id) public view returns(string memory) {\n\n        Bet memory betPosition = bets[id];\n        string memory team = betPosition.teamName;\n\n        if (keccak256(bytes(team)) == keccak256(bytes(betPosition.HomeTeam))){\n\n            return betPosition.AwayTeam;\n        }\n\n        else {\n\n            return betPosition.HomeTeam;\n        }\n\n    }\n}\n",
	"sourcePath": "contracts/BetContract.sol",
	"type": "contract"
}