{
  "abi": [
    {
      "inputs": [],
      "stateMutability": "nonpayable",
      "type": "constructor"
    },
    {
      "anonymous": false,
      "inputs": [
        {
          "indexed": true,
          "internalType": "uint256",
          "name": "_id",
          "type": "uint256"
        },
        {
          "indexed": true,
          "internalType": "address",
          "name": "_challenger",
          "type": "address"
        },
        {
          "indexed": true,
          "internalType": "address",
          "name": "_accepter",
          "type": "address"
        },
        {
          "indexed": false,
          "internalType": "uint256",
          "name": "_price",
          "type": "uint256"
        }
      ],
      "name": "BetAccepted",
      "type": "event"
    },
    {
      "anonymous": false,
      "inputs": [
        {
          "indexed": true,
          "internalType": "uint256",
          "name": "_id",
          "type": "uint256"
        },
        {
          "indexed": true,
          "internalType": "uint256",
          "name": "amount",
          "type": "uint256"
        },
        {
          "indexed": true,
          "internalType": "address",
          "name": "_winner",
          "type": "address"
        }
      ],
      "name": "BetClosed",
      "type": "event"
    },
    {
      "anonymous": false,
      "inputs": [
        {
          "indexed": true,
          "internalType": "uint256",
          "name": "_id",
          "type": "uint256"
        },
        {
          "indexed": true,
          "internalType": "address",
          "name": "_challenger",
          "type": "address"
        },
        {
          "indexed": true,
          "internalType": "uint256",
          "name": "_price",
          "type": "uint256"
        }
      ],
      "name": "BetPublished",
      "type": "event"
    },
    {
      "anonymous": false,
      "inputs": [
        {
          "indexed": true,
          "internalType": "bytes32",
          "name": "id",
          "type": "bytes32"
        }
      ],
      "name": "ChainlinkCancelled",
      "type": "event"
    },
    {
      "anonymous": false,
      "inputs": [
        {
          "indexed": true,
          "internalType": "bytes32",
          "name": "id",
          "type": "bytes32"
        }
      ],
      "name": "ChainlinkFulfilled",
      "type": "event"
    },
    {
      "anonymous": false,
      "inputs": [
        {
          "indexed": true,
          "internalType": "bytes32",
          "name": "id",
          "type": "bytes32"
        }
      ],
      "name": "ChainlinkRequested",
      "type": "event"
    },
    {
      "anonymous": false,
      "inputs": [
        {
          "indexed": true,
          "internalType": "bytes32",
          "name": "requestId",
          "type": "bytes32"
        },
        {
          "indexed": false,
          "internalType": "uint256",
          "name": "number1",
          "type": "uint256"
        },
        {
          "indexed": false,
          "internalType": "uint256",
          "name": "number2",
          "type": "uint256"
        },
        {
          "indexed": false,
          "internalType": "uint256",
          "name": "gameId",
          "type": "uint256"
        },
        {
          "indexed": false,
          "internalType": "uint256",
          "name": "teamId",
          "type": "uint256"
        }
      ],
      "name": "RequestFulfilled",
      "type": "event"
    },
    {
      "inputs": [
        {
          "internalType": "uint256",
          "name": "_id",
          "type": "uint256"
        }
      ],
      "name": "acceptBet",
      "outputs": [],
      "stateMutability": "payable",
      "type": "function"
    },
    {
      "inputs": [],
      "name": "betCounter",
      "outputs": [
        {
          "internalType": "uint256",
          "name": "",
          "type": "uint256"
        }
      ],
      "stateMutability": "view",
      "type": "function"
    },
    {
      "inputs": [
        {
          "internalType": "uint256",
          "name": "",
          "type": "uint256"
        }
      ],
      "name": "bets",
      "outputs": [
        {
          "internalType": "uint256",
          "name": "id",
          "type": "uint256"
        },
        {
          "internalType": "uint256",
          "name": "gameId",
          "type": "uint256"
        },
        {
          "internalType": "uint256",
          "name": "teamId",
          "type": "uint256"
        },
        {
          "internalType": "string",
          "name": "teamName",
          "type": "string"
        },
        {
          "internalType": "string",
          "name": "HomeTeam",
          "type": "string"
        },
        {
          "internalType": "string",
          "name": "AwayTeam",
          "type": "string"
        },
        {
          "internalType": "string",
          "name": "DateTime",
          "type": "string"
        },
        {
          "internalType": "uint256",
          "name": "price",
          "type": "uint256"
        },
        {
          "internalType": "address",
          "name": "challenger",
          "type": "address"
        },
        {
          "internalType": "address",
          "name": "accepter",
          "type": "address"
        },
        {
          "internalType": "address",
          "name": "winner",
          "type": "address"
        },
        {
          "internalType": "bool",
          "name": "isActive",
          "type": "bool"
        },
        {
          "internalType": "bool",
          "name": "isAccepted",
          "type": "bool"
        },
        {
          "internalType": "string",
          "name": "status",
          "type": "string"
        }
      ],
      "stateMutability": "view",
      "type": "function"
    },
    {
      "inputs": [
        {
          "internalType": "uint256",
          "name": "_id",
          "type": "uint256"
        }
      ],
      "name": "cancelBet",
      "outputs": [],
      "stateMutability": "payable",
      "type": "function"
    },
    {
      "inputs": [],
      "name": "currentGameId",
      "outputs": [
        {
          "internalType": "uint256",
          "name": "",
          "type": "uint256"
        }
      ],
      "stateMutability": "view",
      "type": "function"
    },
    {
      "inputs": [
        {
          "internalType": "bytes32",
          "name": "requestId",
          "type": "bytes32"
        },
        {
          "internalType": "uint256",
          "name": "_number1",
          "type": "uint256"
        },
        {
          "internalType": "uint256",
          "name": "_number2",
          "type": "uint256"
        },
        {
          "internalType": "uint256",
          "name": "_gameId",
          "type": "uint256"
        },
        {
          "internalType": "uint256",
          "name": "_TeamId",
          "type": "uint256"
        }
      ],
      "name": "fulfillBytesAndUint",
      "outputs": [],
      "stateMutability": "nonpayable",
      "type": "function"
    },
    {
      "inputs": [
        {
          "internalType": "uint256",
          "name": "id",
          "type": "uint256"
        }
      ],
      "name": "getAcceptWinnerTeamName",
      "outputs": [
        {
          "internalType": "string",
          "name": "",
          "type": "string"
        }
      ],
      "stateMutability": "view",
      "type": "function"
    },
    {
      "inputs": [],
      "name": "getAvailableBets",
      "outputs": [
        {
          "components": [
            {
              "internalType": "uint256",
              "name": "id",
              "type": "uint256"
            },
            {
              "internalType": "uint256",
              "name": "gameId",
              "type": "uint256"
            },
            {
              "internalType": "uint256",
              "name": "teamId",
              "type": "uint256"
            },
            {
              "internalType": "string",
              "name": "teamName",
              "type": "string"
            },
            {
              "internalType": "string",
              "name": "HomeTeam",
              "type": "string"
            },
            {
              "internalType": "string",
              "name": "AwayTeam",
              "type": "string"
            },
            {
              "internalType": "string",
              "name": "DateTime",
              "type": "string"
            },
            {
              "internalType": "uint256",
              "name": "price",
              "type": "uint256"
            },
            {
              "internalType": "address",
              "name": "challenger",
              "type": "address"
            },
            {
              "internalType": "address",
              "name": "accepter",
              "type": "address"
            },
            {
              "internalType": "address",
              "name": "winner",
              "type": "address"
            },
            {
              "internalType": "bool",
              "name": "isActive",
              "type": "bool"
            },
            {
              "internalType": "bool",
              "name": "isAccepted",
              "type": "bool"
            },
            {
              "internalType": "string",
              "name": "status",
              "type": "string"
            }
          ],
          "internalType": "struct BetContract.Bet[]",
          "name": "",
          "type": "tuple[]"
        }
      ],
      "stateMutability": "view",
      "type": "function"
    },
    {
      "inputs": [],
      "name": "getNumberOfAvailableBets",
      "outputs": [
        {
          "internalType": "uint256",
          "name": "",
          "type": "uint256"
        }
      ],
      "stateMutability": "view",
      "type": "function"
    },
    {
      "inputs": [],
      "name": "getNumberOfBets",
      "outputs": [
        {
          "internalType": "uint256",
          "name": "",
          "type": "uint256"
        }
      ],
      "stateMutability": "view",
      "type": "function"
    },
    {
      "inputs": [],
      "name": "getUserBets",
      "outputs": [
        {
          "components": [
            {
              "internalType": "uint256",
              "name": "id",
              "type": "uint256"
            },
            {
              "internalType": "uint256",
              "name": "gameId",
              "type": "uint256"
            },
            {
              "internalType": "uint256",
              "name": "teamId",
              "type": "uint256"
            },
            {
              "internalType": "string",
              "name": "teamName",
              "type": "string"
            },
            {
              "internalType": "string",
              "name": "HomeTeam",
              "type": "string"
            },
            {
              "internalType": "string",
              "name": "AwayTeam",
              "type": "string"
            },
            {
              "internalType": "string",
              "name": "DateTime",
              "type": "string"
            },
            {
              "internalType": "uint256",
              "name": "price",
              "type": "uint256"
            },
            {
              "internalType": "address",
              "name": "challenger",
              "type": "address"
            },
            {
              "internalType": "address",
              "name": "accepter",
              "type": "address"
            },
            {
              "internalType": "address",
              "name": "winner",
              "type": "address"
            },
            {
              "internalType": "bool",
              "name": "isActive",
              "type": "bool"
            },
            {
              "internalType": "bool",
              "name": "isAccepted",
              "type": "bool"
            },
            {
              "internalType": "string",
              "name": "status",
              "type": "string"
            }
          ],
          "internalType": "struct BetContract.Bet[]",
          "name": "",
          "type": "tuple[]"
        }
      ],
      "stateMutability": "view",
      "type": "function"
    },
    {
      "inputs": [
        {
          "internalType": "uint256",
          "name": "_price",
          "type": "uint256"
        },
        {
          "internalType": "uint256",
          "name": "_gameId",
          "type": "uint256"
        },
        {
          "internalType": "string",
          "name": "_homeTeam",
          "type": "string"
        },
        {
          "internalType": "string",
          "name": "_awayTeam",
          "type": "string"
        },
        {
          "internalType": "string",
          "name": "_dataTime",
          "type": "string"
        },
        {
          "internalType": "uint256",
          "name": "_teamId",
          "type": "uint256"
        },
        {
          "internalType": "string",
          "name": "_teamName",
          "type": "string"
        }
      ],
      "name": "publishBet",
      "outputs": [],
      "stateMutability": "payable",
      "type": "function"
    },
    {
      "inputs": [],
      "name": "upkeep_setWinner",
      "outputs": [],
      "stateMutability": "payable",
      "type": "function"
    }
  ],
  "bytecode": "608060405260016004553480156200001657600080fd5b506001600655600280546001600160a01b03191673326c977e6efc84e512bb9c30f76e30c160ed06fb179055600380546001600160a01b031916737ca7215c6b8013f249a195cc107f97c4e623e5f51790557f3030353934383134363338663431633661396364316165336466613938326436600c55600a620000a3670de0b6b3a76400006001620000b8565b620000af9190620000e4565b600d5562000107565b8082028115828204841417620000de57634e487b7160e01b600052601160045260246000fd5b92915050565b6000826200010257634e487b7160e01b600052601260045260246000fd5b500490565b6130b080620001176000396000f3fe6080604052600436106100c25760003560e01c80636c0c27e11161007f578063ab75187711610059578063ab751877146101d6578063bc21ca0e14610203578063c738f5e314610218578063f222d0b91461022057600080fd5b80636c0c27e1146101985780639a7b8918146101ab578063a416f5ab146101c057600080fd5b806312074a46146100c757806322af00fa146100f257806334eaa8081461012c578063357401f5146101415780634a02b38414610154578063536a3ddc14610174575b600080fd5b3480156100d357600080fd5b506100dc610235565b6040516100e9919061280d565b60405180910390f35b3480156100fe57600080fd5b5061011261010d366004612970565b610682565b6040516100e99e9d9c9b9a99989796959493929190612989565b61013f61013a366004612b05565b6109b1565b005b61013f61014f366004612970565b610c50565b34801561016057600080fd5b5061013f61016f366004612bce565b610dfc565b34801561018057600080fd5b5061018a600a5481565b6040519081526020016100e9565b61013f6101a6366004612970565b610f18565b3480156101b757600080fd5b506100dc6111a5565b3480156101cc57600080fd5b5061018a600b5481565b3480156101e257600080fd5b506101f66101f1366004612970565b6116be565b6040516100e99190612c09565b34801561020f57600080fd5b5061018a611a71565b61013f611af1565b34801561022c57600080fd5b50600b5461018a565b336000908152600f6020526040812054606091816001600160401b0381111561026057610260612a63565b60405190808252806020026020018201604052801561029957816020015b6102866126fe565b81526020019060019003908161027e5790505b50905060005b8281101561067b57336000908152600f602052604081208054839081106102c8576102c8612c1c565b90600052602060002001549050600e6000828152602001908152602001600020604051806101c001604052908160008201548152602001600182015481526020016002820154815260200160038201805461032290612c32565b80601f016020809104026020016040519081016040528092919081815260200182805461034e90612c32565b801561039b5780601f106103705761010080835404028352916020019161039b565b820191906000526020600020905b81548152906001019060200180831161037e57829003601f168201915b505050505081526020016004820180546103b490612c32565b80601f01602080910402602001604051908101604052809291908181526020018280546103e090612c32565b801561042d5780601f106104025761010080835404028352916020019161042d565b820191906000526020600020905b81548152906001019060200180831161041057829003601f168201915b5050505050815260200160058201805461044690612c32565b80601f016020809104026020016040519081016040528092919081815260200182805461047290612c32565b80156104bf5780601f10610494576101008083540402835291602001916104bf565b820191906000526020600020905b8154815290600101906020018083116104a257829003601f168201915b505050505081526020016006820180546104d890612c32565b80601f016020809104026020016040519081016040528092919081815260200182805461050490612c32565b80156105515780601f1061052657610100808354040283529160200191610551565b820191906000526020600020905b81548152906001019060200180831161053457829003601f168201915b50505091835250506007820154602082015260088201546001600160a01b039081166040830152600983015481166060830152600a830154908116608083015260ff600160a01b82048116151560a0840152600160a81b90910416151560c0820152600b8201805460e0909201916105c890612c32565b80601f01602080910402602001604051908101604052809291908181526020018280546105f490612c32565b80156106415780601f1061061657610100808354040283529160200191610641565b820191906000526020600020905b81548152906001019060200180831161062457829003601f168201915b50505050508152505083838151811061065c5761065c612c1c565b602002602001018190525050808061067390612c7c565b91505061029f565b5092915050565b600e602052600090815260409020805460018201546002830154600384018054939492939192916106b290612c32565b80601f01602080910402602001604051908101604052809291908181526020018280546106de90612c32565b801561072b5780601f106107005761010080835404028352916020019161072b565b820191906000526020600020905b81548152906001019060200180831161070e57829003601f168201915b50505050509080600401805461074090612c32565b80601f016020809104026020016040519081016040528092919081815260200182805461076c90612c32565b80156107b95780601f1061078e576101008083540402835291602001916107b9565b820191906000526020600020905b81548152906001019060200180831161079c57829003601f168201915b5050505050908060050180546107ce90612c32565b80601f01602080910402602001604051908101604052809291908181526020018280546107fa90612c32565b80156108475780601f1061081c57610100808354040283529160200191610847565b820191906000526020600020905b81548152906001019060200180831161082a57829003601f168201915b50505050509080600601805461085c90612c32565b80601f016020809104026020016040519081016040528092919081815260200182805461088890612c32565b80156108d55780601f106108aa576101008083540402835291602001916108d5565b820191906000526020600020905b8154815290600101906020018083116108b857829003601f168201915b505050600784015460088501546009860154600a870154600b88018054979894976001600160a01b03948516975092841695509281169360ff600160a01b8304811694600160a81b909304169290919061092e90612c32565b80601f016020809104026020016040519081016040528092919081815260200182805461095a90612c32565b80156109a75780601f1061097c576101008083540402835291602001916109a7565b820191906000526020600020905b81548152906001019060200180831161098a57829003601f168201915b505050505090508e565b66038d7ea4c68000871015610a0d5760405162461bcd60e51b815260206004820152601860248201527f4d696e696d756d2070726963652069732031204d61746963000000000000000060448201526064015b60405180910390fd5b86341015610a2d5760405162461bcd60e51b8152600401610a0490612c95565b600b8054906000610a3d83612c7c565b9091555050604080516101c081018252600b5480825260208083018a815283850187815260608501878152608086018c905260a086018b905260c086018a905260e086018e9052336101008701526000610120870181905261014087018190526001610160880181905261018088018290528851808a018a526009815268141d589b1a5cda195960ba1b818801526101a0890152958152600e909452959092208451815590519281019290925551600282015591519091906003820190610b049082612d28565b5060808201516004820190610b199082612d28565b5060a08201516005820190610b2e9082612d28565b5060c08201516006820190610b439082612d28565b5060e082015160078201556101008201516008820180546001600160a01b039283166001600160a01b03199182161790915561012084015160098401805491841691909216179055610140830151600a830180546101608601516101808701511515600160a81b0260ff60a81b19911515600160a01b026001600160a81b0319909316949095169390931717919091169190911790556101a0820151600b820190610bee9082612d28565b5050336000818152600f60209081526040808320600b8054825460018101845592865293852090910192909255905490518b945090917f1e8cd9f962f202a3d2de4fe68d64850937ad80c549fef41a9173f48e9464397791a450505050505050565b6000818152600e60205260409020600a810154600160a01b900460ff161515600114610cb55760405162461bcd60e51b8152602060048201526014602482015273151a194818995d081dd85cc818d85b98d95b195960621b6044820152606401610a04565b81600b5410158015610cc75750600082115b610ce35760405162461bcd60e51b8152600401610a0490612de7565b60088101546001600160a01b03163314610d3f5760405162461bcd60e51b815260206004820152601960248201527f426574206368616c6c656e6765722063616e2063616e63656c000000000000006044820152606401610a04565b600a8101805460ff60a01b1916905560408051808201909152600881526710d85b98d95b195960c21b6020820152600b820190610d7c9082612d28565b50600781015460088201546040516001600160a01b0390911690600090829084156108fc0290859084818181858888f19350505050905080610df55760405162461bcd60e51b8152602060048201526012602482015271151c985b9cd858dd1a5bdb8811985a5b195960721b6044820152606401610a04565b5050505050565b60008581526005602052604090205485906001600160a01b03163314610e755760405162461bcd60e51b815260206004820152602860248201527f536f75726365206d75737420626520746865206f7261636c65206f6620746865604482015267081c995c5d595cdd60c21b6064820152608401610a04565b60008181526005602052604080822080546001600160a01b03191690555182917f7cc135e0cebb02c3480ae5d74d377283180a2601f8f644edf7987b009316c63a91a260408051868152602081018690529081018490526060810183905286907f78e6df904d928feb84261a6267619ca16c25bbcb7d6e5062e1dfac3168fb59bc9060800160405180910390a250600793909355600891909155600a5560095550565b600260065403610f6a5760405162461bcd60e51b815260206004820152601f60248201527f5265656e7472616e637947756172643a207265656e7472616e742063616c6c006044820152606401610a04565b60026006556000818152600e60205260409020600a810154600160a01b900460ff161515600114610fd55760405162461bcd60e51b815260206004820152601560248201527454686520626574206973206e6f742061637469766160581b6044820152606401610a04565b6000600b5411610ff75760405162461bcd60e51b8152600401610a0490612de7565b6000821180156110095750600b548211155b6110255760405162461bcd60e51b8152600401610a0490612de7565b60088101546001600160a01b0316330361108b5760405162461bcd60e51b815260206004820152602160248201527f4368616c6c656e6765722063616e206e6f7420616363657074207468652062656044820152601d60fa1b6064820152608401610a04565b80600701543410156110af5760405162461bcd60e51b8152600401610a0490612c95565b6009810180546001600160a01b03191633179055600a8101805460ff60a81b1916600160a81b1790556040805180820190915260088152671058d8d95c1d195960c21b6020820152600b8201906111069082612d28565b50336000908152600f6020908152604080832080546001808201835591855283852001869055848101548452601083528184208054918201815584529282902090920184905560098301546008840154600785015493519384526001600160a01b039182169391169185917fcdac8516359a273bd88d2aafe047de47cfcfb70d6448be9c49a82491cafa0eb7910160405180910390a450506001600655565b60606000600b546001600160401b038111156111c3576111c3612a63565b6040519080825280602002602001820160405280156111ec578160200160208202803683370190505b509050600060015b600b548111611296576000818152600e60205260409020600a0154600160a81b900460ff1615801561124357506000818152600e60205260409020600a0154600160a01b900460ff1615156001145b15611284576000818152600e6020526040902054835184908490811061126b5761126b612c1c565b60209081029190910101528161128081612c7c565b9250505b8061128e81612c7c565b9150506111f4565b506000816001600160401b038111156112b1576112b1612a63565b6040519080825280602002602001820160405280156112ea57816020015b6112d76126fe565b8152602001906001900390816112cf5790505b50905060005b828110156116b657600e600085838151811061130e5761130e612c1c565b60200260200101518152602001908152602001600020604051806101c001604052908160008201548152602001600182015481526020016002820154815260200160038201805461135e90612c32565b80601f016020809104026020016040519081016040528092919081815260200182805461138a90612c32565b80156113d75780601f106113ac576101008083540402835291602001916113d7565b820191906000526020600020905b8154815290600101906020018083116113ba57829003601f168201915b505050505081526020016004820180546113f090612c32565b80601f016020809104026020016040519081016040528092919081815260200182805461141c90612c32565b80156114695780601f1061143e57610100808354040283529160200191611469565b820191906000526020600020905b81548152906001019060200180831161144c57829003601f168201915b5050505050815260200160058201805461148290612c32565b80601f01602080910402602001604051908101604052809291908181526020018280546114ae90612c32565b80156114fb5780601f106114d0576101008083540402835291602001916114fb565b820191906000526020600020905b8154815290600101906020018083116114de57829003601f168201915b5050505050815260200160068201805461151490612c32565b80601f016020809104026020016040519081016040528092919081815260200182805461154090612c32565b801561158d5780601f106115625761010080835404028352916020019161158d565b820191906000526020600020905b81548152906001019060200180831161157057829003601f168201915b50505091835250506007820154602082015260088201546001600160a01b039081166040830152600983015481166060830152600a830154908116608083015260ff600160a01b82048116151560a0840152600160a81b90910416151560c0820152600b8201805460e09092019161160490612c32565b80601f016020809104026020016040519081016040528092919081815260200182805461163090612c32565b801561167d5780601f106116525761010080835404028352916020019161167d565b820191906000526020600020905b81548152906001019060200180831161166057829003601f168201915b50505050508152505082828151811061169857611698612c1c565b602002602001018190525080806116ae90612c7c565b9150506112f0565b509392505050565b60606000600e6000848152602001908152602001600020604051806101c001604052908160008201548152602001600182015481526020016002820154815260200160038201805461170f90612c32565b80601f016020809104026020016040519081016040528092919081815260200182805461173b90612c32565b80156117885780601f1061175d57610100808354040283529160200191611788565b820191906000526020600020905b81548152906001019060200180831161176b57829003601f168201915b505050505081526020016004820180546117a190612c32565b80601f01602080910402602001604051908101604052809291908181526020018280546117cd90612c32565b801561181a5780601f106117ef5761010080835404028352916020019161181a565b820191906000526020600020905b8154815290600101906020018083116117fd57829003601f168201915b5050505050815260200160058201805461183390612c32565b80601f016020809104026020016040519081016040528092919081815260200182805461185f90612c32565b80156118ac5780601f10611881576101008083540402835291602001916118ac565b820191906000526020600020905b81548152906001019060200180831161188f57829003601f168201915b505050505081526020016006820180546118c590612c32565b80601f01602080910402602001604051908101604052809291908181526020018280546118f190612c32565b801561193e5780601f106119135761010080835404028352916020019161193e565b820191906000526020600020905b81548152906001019060200180831161192157829003601f168201915b50505091835250506007820154602082015260088201546001600160a01b039081166040830152600983015481166060830152600a830154908116608083015260ff600160a01b82048116151560a0840152600160a81b90910416151560c0820152600b8201805460e0909201916119b590612c32565b80601f01602080910402602001604051908101604052809291908181526020018280546119e190612c32565b8015611a2e5780601f10611a0357610100808354040283529160200191611a2e565b820191906000526020600020905b815481529060010190602001808311611a1157829003601f168201915b5050505050815250509050600081606001519050816080015180519060200120818051906020012003611a66575060a0015192915050565b506080015192915050565b60008060015b600b548111611aeb576000818152600e60205260409020600a0154600160a81b900460ff16158015611ac657506000818152600e60205260409020600a0154600160a01b900460ff1615156001145b15611ad95781611ad581612c7c565b9250505b80611ae381612c7c565b915050611a77565b50919050565b600260065403611b435760405162461bcd60e51b815260206004820152601f60248201527f5265656e7472616e637947756172643a207265656e7472616e742063616c6c006044820152606401610a04565b6002600655600a54600090815260106020908152604080832080548251818502810185019093528083529192909190830182828015611ba157602002820191906000526020600020905b815481526020019060010190808311611b8d575b505083519394506000925050505b81811015611e65576000838281518110611bcb57611bcb612c1c565b6020908102919091018101516000818152600e9092526040909120600a0154909150600160a01b900460ff161515600103611e52576000818152600e602052604090206002015460095403611d2b576000818152600e602081815260408084206008810154600a820180546001600160a01b0319166001600160a01b0390921691821790558251808401909352600683526510db1bdcd95960d21b838501529486905292909152600b90910190611c829082612d28565b506000828152600e60205260408120600a8101805460ff60a01b1916905560070154611caf906002612e15565b60405190915082906001600160a01b0382169083156108fc029084906000818181858888f19350505050158015611cea573d6000803e3d6000fd5b50806001600160a01b031682857f597a101e271512cbf5aa9ec669ae424aca2c3d863fd79008b760a76b585a059760405160405180910390a4505050611e52565b6000818152600e602052604090206002015460095414611e52576000818152600e602081815260408084206009810154600a820180546001600160a01b0319166001600160a01b0390921691821790558251808401909352600683526510db1bdcd95960d21b838501529486905292909152600b90910190611dad9082612d28565b506000828152600e60205260408120600a8101805460ff60a01b1916905560070154611dda906002612e15565b60405190915082906001600160a01b0382169083156108fc029084906000818181858888f19350505050158015611e15573d6000803e3d6000fd5b50806001600160a01b031682857f597a101e271512cbf5aa9ec669ae424aca2c3d863fd79008b760a76b585a059760405160405180910390a45050505b5080611e5d81612c7c565b915050611baf565b50611e6e611e77565b50506001600655565b6000611e8d600c5430634a02b38460e01b612075565b9050611ecf6040518060400160405280600381526020016219d95d60ea1b8152506040518060a001604052806071815260200161300a6071913983919061209a565b611f1f60405180604001604052806005815260200164706174683160d81b81525060405180604001604052806006815260200165302c4e616d6560d01b8152508361209a9092919063ffffffff16565b611f6f604051806040016040528060058152602001643830ba341960d91b81525060405180604001604052806006815260200165302c57696e7360d01b8152508361209a9092919063ffffffff16565b611fc160405180604001604052806005815260200164706174683360d81b81525060405180604001604052806008815260200167302c4c6f7373657360c01b8152508361209a9092919063ffffffff16565b612013604051806040016040528060058152602001641c185d1a0d60da1b815250604051806040016040528060088152602001670c0b11d85b59525160c21b8152508361209a9092919063ffffffff16565b61206560405180604001604052806005815260200164706174683560d81b815250604051806040016040528060088152602001670c0b1519585b525160c21b8152508361209a9092919063ffffffff16565b61207181600d546120bd565b5050565b61207d61278c565b61208561278c565b612091818686866120e0565b95945050505050565b60808301516120a99083612126565b60808301516120b89082612126565b505050565b6003546000906120d7906001600160a01b0316848461213d565b90505b92915050565b6120e861278c565b6120f885608001516101006121ce565b50508284526001600160a01b03821660208501526001600160e01b031981166040850152835b949350505050565b6121338260038351612233565b6120b88282612340565b60045460009061214e816001612e2c565b60045583516040808601516080870151519151600093633c6d41b960e01b93612184938693849392899160029190602401612e3f565b60408051601f198184030181529190526020810180516001600160e01b03166001600160e01b03199093169290921790915290506121c486838684612367565b9695505050505050565b6040805180820190915260608152600060208201526121ee602083612e94565b15612216576121fe602083612e94565b612209906020612eb6565b6122139083612e2c565b91505b506020828101829052604080518085526000815290920101905290565b6017816001600160401b03161161225d576122578360e0600585901b1683176124c5565b50505050565b60ff816001600160401b03161161229957612283836018611fe0600586901b16176124c5565b50612257836001600160401b03831660016124ea565b61ffff816001600160401b0316116122d6576122c0836019611fe0600586901b16176124c5565b50612257836001600160401b03831660026124ea565b63ffffffff816001600160401b031611612315576122ff83601a611fe0600586901b16176124c5565b50612257836001600160401b03831660046124ea565b61232a83601b611fe0600586901b16176124c5565b50612257836001600160401b03831660086124ea565b6040805180820190915260608152600060208201526120d783846000015151848551612510565b6040516bffffffffffffffffffffffff193060601b1660208201526034810184905260009060540160408051808303601f1901815282825280516020918201206000818152600590925291812080546001600160a01b0319166001600160a01b038a1617905590925082917fb5e6e01e79f91267dc17b4e6314d5d4d03593d2ceee0fbb452b750bd70ea5af99190a2600254604051630200057560e51b81526001600160a01b0390911690634000aea09061242a90889087908790600401612ec9565b6020604051808303816000875af1158015612449573d6000803e3d6000fd5b505050506040513d601f19601f8201168201806040525081019061246d9190612ef0565b61211e5760405162461bcd60e51b815260206004820152602360248201527f756e61626c6520746f207472616e73666572416e6443616c6c20746f206f7261604482015262636c6560e81b6064820152608401610a04565b6040805180820190915260608152600060208201526120d783846000015151846125fa565b60408051808201909152606081526000602082015261211e848560000151518585612655565b604080518082019091526060815260006020820152825182111561253357600080fd5b60208501516125428386612e2c565b11156125755761257585612565876020015187866125609190612e2c565b6126d6565b612570906002612e15565b6126e7565b6000808651805187602083010193508088870111156125945787860182525b505050602084015b602084106125d457805182526125b3602083612e2c565b91506125c0602082612e2c565b90506125cd602085612eb6565b935061259c565b51815160001960208690036101000a019081169019919091161790525083949350505050565b6040805180820190915260608152600060208201528360200151831061262f5761262f84856020015160026125709190612e15565b835180516020858301018481535080850361264b576001810182525b5093949350505050565b60408051808201909152606081526000602082015260208501516126798584612e2c565b111561268d5761268d856125658685612e2c565b6000600161269d84610100612ffd565b6126a79190612eb6565b90508551838682010185831982511617815250805184870111156126cb5783860181525b509495945050505050565b600081831115611aeb5750816120da565b81516126f383836121ce565b506122578382612340565b604051806101c00160405280600081526020016000815260200160008152602001606081526020016060815260200160608152602001606081526020016000815260200160006001600160a01b0316815260200160006001600160a01b0316815260200160006001600160a01b03168152602001600015158152602001600015158152602001606081525090565b6040805160a0810182526000808252602080830182905282840182905260608084018390528451808601909552845283015290608082015290565b6000815180845260005b818110156127ed576020818501810151868301820152016127d1565b506000602082860101526020601f19601f83011685010191505092915050565b60006020808301818452808551808352604092508286019150828160051b87010184880160005b8381101561296257603f1989840301855281516101c081518552888201518986015287820151888601526060808301518282880152612875838801826127c7565b925050506080808301518683038288015261289083826127c7565b9250505060a080830151868303828801526128ab83826127c7565b9250505060c080830151868303828801526128c683826127c7565b9250505060e0808301518187015250610100808301516128f0828801826001600160a01b03169052565b5050610120828101516001600160a01b0390811691870191909152610140808401519091169086015261016080830151151590860152610180808301511515908601526101a0918201518582039286019290925261294e81836127c7565b968901969450505090860190600101612834565b509098975050505050505050565b60006020828403121561298257600080fd5b5035919050565b8e81528d60208201528c60408201526101c0606082015260006129b06101c083018e6127c7565b82810360808401526129c2818e6127c7565b905082810360a08401526129d6818d6127c7565b905082810360c08401526129ea818c6127c7565b90508960e0840152612a0861010084018a6001600160a01b03169052565b6001600160a01b0388166101208401526001600160a01b0387166101408401528515156101608401528415156101808401528281036101a0840152612a4d81856127c7565b9150509f9e505050505050505050505050505050565b634e487b7160e01b600052604160045260246000fd5b600082601f830112612a8a57600080fd5b81356001600160401b0380821115612aa457612aa4612a63565b604051601f8301601f19908116603f01168101908282118183101715612acc57612acc612a63565b81604052838152866020858801011115612ae557600080fd5b836020870160208301376000602085830101528094505050505092915050565b600080600080600080600060e0888a031215612b2057600080fd5b873596506020880135955060408801356001600160401b0380821115612b4557600080fd5b612b518b838c01612a79565b965060608a0135915080821115612b6757600080fd5b612b738b838c01612a79565b955060808a0135915080821115612b8957600080fd5b612b958b838c01612a79565b945060a08a0135935060c08a0135915080821115612bb257600080fd5b50612bbf8a828b01612a79565b91505092959891949750929550565b600080600080600060a08688031215612be657600080fd5b505083359560208501359550604085013594606081013594506080013592509050565b6020815260006120d760208301846127c7565b634e487b7160e01b600052603260045260246000fd5b600181811c90821680612c4657607f821691505b602082108103611aeb57634e487b7160e01b600052602260045260246000fd5b634e487b7160e01b600052601160045260246000fd5b600060018201612c8e57612c8e612c66565b5060010190565b60208082526025908201527f596f752073686f756c642070726f76696465207072696365206173206d73672e60408201526476616c756560d81b606082015260800190565b601f8211156120b857600081815260208120601f850160051c81016020861015612d015750805b601f850160051c820191505b81811015612d2057828155600101612d0d565b505050505050565b81516001600160401b03811115612d4157612d41612a63565b612d5581612d4f8454612c32565b84612cda565b602080601f831160018114612d8a5760008415612d725750858301515b600019600386901b1c1916600185901b178555612d20565b600085815260208120601f198616915b82811015612db957888601518255948401946001909101908401612d9a565b5085821015612dd75787850151600019600388901b60f8161c191681555b5050505050600190811b01905550565b60208082526014908201527310995d081a5cc81b9bdd081c1d589b1a5cda195960621b604082015260600190565b80820281158282048414176120da576120da612c66565b808201808211156120da576120da612c66565b60018060a01b038816815286602082015285604082015263ffffffff60e01b851660608201528360808201528260a082015260e060c08201526000612e8760e08301846127c7565b9998505050505050505050565b600082612eb157634e487b7160e01b600052601260045260246000fd5b500690565b818103818111156120da576120da612c66565b60018060a01b038416815282602082015260606040820152600061209160608301846127c7565b600060208284031215612f0257600080fd5b81518015158114612f1257600080fd5b9392505050565b600181815b80851115612f54578160001904821115612f3a57612f3a612c66565b80851615612f4757918102915b93841c9390800290612f1e565b509250929050565b600082612f6b575060016120da565b81612f78575060006120da565b8160018114612f8e5760028114612f9857612fb4565b60019150506120da565b60ff841115612fa957612fa9612c66565b50506001821b6120da565b5060208310610133831016604e8410600b8410161715612fd7575081810a6120da565b612fe18383612f19565b8060001904821115612ff557612ff5612c66565b029392505050565b60006120d78383612f5c56fe68747470733a2f2f6170692e73706f727473646174612e696f2f76332f6e62612f73636f7265732f6a736f6e2f5465616d47616d6553746174734279536561736f6e2f323032332f31312f313f6b65793d3736633262353661636532383435633539653834663330623861383861643336a2646970667358221220be94bdacc9c7e29e071d8ffeabb5c883a79deb5cf6a0f432ed799ea6d91d62a264736f6c63430008110033",
  "bytecodeSha1": "d309eed45e06b2b71bd21b91b2a0a7337a48b4cc",
  "compiler": {
    "evm_version": "istanbul",
    "optimizer": {
      "enabled": true,
      "runs": 200
    },
    "version": "0.8.17+commit.8df45f5f"
  },
  "contractName": "BetContract",
  "language": "Solidity",
  "natspec": {
    "kind": "dev",
    "methods": {},
    "version": 1
  },
  "opcodes": "PUSH1 0x80 PUSH1 0x40 MSTORE PUSH1 0x4 CALLDATASIZE LT PUSH2 0xC2 JUMPI PUSH1 0x0 CALLDATALOAD PUSH1 0xE0 SHR DUP1 PUSH4 0x6C0C27E1 GT PUSH2 0x7F JUMPI DUP1 PUSH4 0xAB751877 GT PUSH2 0x59 JUMPI DUP1 PUSH4 0xAB751877 EQ PUSH2 0x1D6 JUMPI DUP1 PUSH4 0xBC21CA0E EQ PUSH2 0x203 JUMPI DUP1 PUSH4 0xC738F5E3 EQ PUSH2 0x218 JUMPI DUP1 PUSH4 0xF222D0B9 EQ PUSH2 0x220 JUMPI PUSH1 0x0 DUP1 REVERT JUMPDEST DUP1 PUSH4 0x6C0C27E1 EQ PUSH2 0x198 JUMPI DUP1 PUSH4 0x9A7B8918 EQ PUSH2 0x1AB JUMPI DUP1 PUSH4 0xA416F5AB EQ PUSH2 0x1C0 JUMPI PUSH1 0x0 DUP1 REVERT JUMPDEST DUP1 PUSH4 0x12074A46 EQ PUSH2 0xC7 JUMPI DUP1 PUSH4 0x22AF00FA EQ PUSH2 0xF2 JUMPI DUP1 PUSH4 0x34EAA808 EQ PUSH2 0x12C JUMPI DUP1 PUSH4 0x357401F5 EQ PUSH2 0x141 JUMPI DUP1 PUSH4 0x4A02B384 EQ PUSH2 0x154 JUMPI DUP1 PUSH4 0x536A3DDC EQ PUSH2 0x174 JUMPI JUMPDEST PUSH1 0x0 DUP1 REVERT JUMPDEST CALLVALUE DUP1 ISZERO PUSH2 0xD3 JUMPI PUSH1 0x0 DUP1 REVERT JUMPDEST POP PUSH2 0xDC PUSH2 0x235 JUMP JUMPDEST PUSH1 0x40 MLOAD PUSH2 0xE9 SWAP2 SWAP1 PUSH2 0x280D JUMP JUMPDEST PUSH1 0x40 MLOAD DUP1 SWAP2 SUB SWAP1 RETURN JUMPDEST CALLVALUE DUP1 ISZERO PUSH2 0xFE JUMPI PUSH1 0x0 DUP1 REVERT JUMPDEST POP PUSH2 0x112 PUSH2 0x10D CALLDATASIZE PUSH1 0x4 PUSH2 0x2970 JUMP JUMPDEST PUSH2 0x682 JUMP JUMPDEST PUSH1 0x40 MLOAD PUSH2 0xE9 SWAP15 SWAP14 SWAP13 SWAP12 SWAP11 SWAP10 SWAP9 SWAP8 SWAP7 SWAP6 SWAP5 SWAP4 SWAP3 SWAP2 SWAP1 PUSH2 0x2989 JUMP JUMPDEST PUSH2 0x13F PUSH2 0x13A CALLDATASIZE PUSH1 0x4 PUSH2 0x2B05 JUMP JUMPDEST PUSH2 0x9B1 JUMP JUMPDEST STOP JUMPDEST PUSH2 0x13F PUSH2 0x14F CALLDATASIZE PUSH1 0x4 PUSH2 0x2970 JUMP JUMPDEST PUSH2 0xC50 JUMP JUMPDEST CALLVALUE DUP1 ISZERO PUSH2 0x160 JUMPI PUSH1 0x0 DUP1 REVERT JUMPDEST POP PUSH2 0x13F PUSH2 0x16F CALLDATASIZE PUSH1 0x4 PUSH2 0x2BCE JUMP JUMPDEST PUSH2 0xDFC JUMP JUMPDEST CALLVALUE DUP1 ISZERO PUSH2 0x180 JUMPI PUSH1 0x0 DUP1 REVERT JUMPDEST POP PUSH2 0x18A PUSH1 0xA SLOAD DUP2 JUMP JUMPDEST PUSH1 0x40 MLOAD SWAP1 DUP2 MSTORE PUSH1 0x20 ADD PUSH2 0xE9 JUMP JUMPDEST PUSH2 0x13F PUSH2 0x1A6 CALLDATASIZE PUSH1 0x4 PUSH2 0x2970 JUMP JUMPDEST PUSH2 0xF18 JUMP JUMPDEST CALLVALUE DUP1 ISZERO PUSH2 0x1B7 JUMPI PUSH1 0x0 DUP1 REVERT JUMPDEST POP PUSH2 0xDC PUSH2 0x11A5 JUMP JUMPDEST CALLVALUE DUP1 ISZERO PUSH2 0x1CC JUMPI PUSH1 0x0 DUP1 REVERT JUMPDEST POP PUSH2 0x18A PUSH1 0xB SLOAD DUP2 JUMP JUMPDEST CALLVALUE DUP1 ISZERO PUSH2 0x1E2 JUMPI PUSH1 0x0 DUP1 REVERT JUMPDEST POP PUSH2 0x1F6 PUSH2 0x1F1 CALLDATASIZE PUSH1 0x4 PUSH2 0x2970 JUMP JUMPDEST PUSH2 0x16BE JUMP JUMPDEST PUSH1 0x40 MLOAD PUSH2 0xE9 SWAP2 SWAP1 PUSH2 0x2C09 JUMP JUMPDEST CALLVALUE DUP1 ISZERO PUSH2 0x20F JUMPI PUSH1 0x0 DUP1 REVERT JUMPDEST POP PUSH2 0x18A PUSH2 0x1A71 JUMP JUMPDEST PUSH2 0x13F PUSH2 0x1AF1 JUMP JUMPDEST CALLVALUE DUP1 ISZERO PUSH2 0x22C JUMPI PUSH1 0x0 DUP1 REVERT JUMPDEST POP PUSH1 0xB SLOAD PUSH2 0x18A JUMP JUMPDEST CALLER PUSH1 0x0 SWAP1 DUP2 MSTORE PUSH1 0xF PUSH1 0x20 MSTORE PUSH1 0x40 DUP2 KECCAK256 SLOAD PUSH1 0x60 SWAP2 DUP2 PUSH1 0x1 PUSH1 0x1 PUSH1 0x40 SHL SUB DUP2 GT ISZERO PUSH2 0x260 JUMPI PUSH2 0x260 PUSH2 0x2A63 JUMP JUMPDEST PUSH1 0x40 MLOAD SWAP1 DUP1 DUP3 MSTORE DUP1 PUSH1 0x20 MUL PUSH1 0x20 ADD DUP3 ADD PUSH1 0x40 MSTORE DUP1 ISZERO PUSH2 0x299 JUMPI DUP2 PUSH1 0x20 ADD JUMPDEST PUSH2 0x286 PUSH2 0x26FE JUMP JUMPDEST DUP2 MSTORE PUSH1 0x20 ADD SWAP1 PUSH1 0x1 SWAP1 SUB SWAP1 DUP2 PUSH2 0x27E JUMPI SWAP1 POP JUMPDEST POP SWAP1 POP PUSH1 0x0 JUMPDEST DUP3 DUP2 LT ISZERO PUSH2 0x67B JUMPI CALLER PUSH1 0x0 SWAP1 DUP2 MSTORE PUSH1 0xF PUSH1 0x20 MSTORE PUSH1 0x40 DUP2 KECCAK256 DUP1 SLOAD DUP4 SWAP1 DUP2 LT PUSH2 0x2C8 JUMPI PUSH2 0x2C8 PUSH2 0x2C1C JUMP JUMPDEST SWAP1 PUSH1 0x0 MSTORE PUSH1 0x20 PUSH1 0x0 KECCAK256 ADD SLOAD SWAP1 POP PUSH1 0xE PUSH1 0x0 DUP3 DUP2 MSTORE PUSH1 0x20 ADD SWAP1 DUP2 MSTORE PUSH1 0x20 ADD PUSH1 0x0 KECCAK256 PUSH1 0x40 MLOAD DUP1 PUSH2 0x1C0 ADD PUSH1 0x40 MSTORE SWAP1 DUP2 PUSH1 0x0 DUP3 ADD SLOAD DUP2 MSTORE PUSH1 0x20 ADD PUSH1 0x1 DUP3 ADD SLOAD DUP2 MSTORE PUSH1 0x20 ADD PUSH1 0x2 DUP3 ADD SLOAD DUP2 MSTORE PUSH1 0x20 ADD PUSH1 0x3 DUP3 ADD DUP1 SLOAD PUSH2 0x322 SWAP1 PUSH2 0x2C32 JUMP JUMPDEST DUP1 PUSH1 0x1F ADD PUSH1 0x20 DUP1 SWAP2 DIV MUL PUSH1 0x20 ADD PUSH1 0x40 MLOAD SWAP1 DUP2 ADD PUSH1 0x40 MSTORE DUP1 SWAP3 SWAP2 SWAP1 DUP2 DUP2 MSTORE PUSH1 0x20 ADD DUP3 DUP1 SLOAD PUSH2 0x34E SWAP1 PUSH2 0x2C32 JUMP JUMPDEST DUP1 ISZERO PUSH2 0x39B JUMPI DUP1 PUSH1 0x1F LT PUSH2 0x370 JUMPI PUSH2 0x100 DUP1 DUP4 SLOAD DIV MUL DUP4 MSTORE SWAP2 PUSH1 0x20 ADD SWAP2 PUSH2 0x39B JUMP JUMPDEST DUP3 ADD SWAP2 SWAP1 PUSH1 0x0 MSTORE PUSH1 0x20 PUSH1 0x0 KECCAK256 SWAP1 JUMPDEST DUP2 SLOAD DUP2 MSTORE SWAP1 PUSH1 0x1 ADD SWAP1 PUSH1 0x20 ADD DUP1 DUP4 GT PUSH2 0x37E JUMPI DUP3 SWAP1 SUB PUSH1 0x1F AND DUP3 ADD SWAP2 JUMPDEST POP POP POP POP POP DUP2 MSTORE PUSH1 0x20 ADD PUSH1 0x4 DUP3 ADD DUP1 SLOAD PUSH2 0x3B4 SWAP1 PUSH2 0x2C32 JUMP JUMPDEST DUP1 PUSH1 0x1F ADD PUSH1 0x20 DUP1 SWAP2 DIV MUL PUSH1 0x20 ADD PUSH1 0x40 MLOAD SWAP1 DUP2 ADD PUSH1 0x40 MSTORE DUP1 SWAP3 SWAP2 SWAP1 DUP2 DUP2 MSTORE PUSH1 0x20 ADD DUP3 DUP1 SLOAD PUSH2 0x3E0 SWAP1 PUSH2 0x2C32 JUMP JUMPDEST DUP1 ISZERO PUSH2 0x42D JUMPI DUP1 PUSH1 0x1F LT PUSH2 0x402 JUMPI PUSH2 0x100 DUP1 DUP4 SLOAD DIV MUL DUP4 MSTORE SWAP2 PUSH1 0x20 ADD SWAP2 PUSH2 0x42D JUMP JUMPDEST DUP3 ADD SWAP2 SWAP1 PUSH1 0x0 MSTORE PUSH1 0x20 PUSH1 0x0 KECCAK256 SWAP1 JUMPDEST DUP2 SLOAD DUP2 MSTORE SWAP1 PUSH1 0x1 ADD SWAP1 PUSH1 0x20 ADD DUP1 DUP4 GT PUSH2 0x410 JUMPI DUP3 SWAP1 SUB PUSH1 0x1F AND DUP3 ADD SWAP2 JUMPDEST POP POP POP POP POP DUP2 MSTORE PUSH1 0x20 ADD PUSH1 0x5 DUP3 ADD DUP1 SLOAD PUSH2 0x446 SWAP1 PUSH2 0x2C32 JUMP JUMPDEST DUP1 PUSH1 0x1F ADD PUSH1 0x20 DUP1 SWAP2 DIV MUL PUSH1 0x20 ADD PUSH1 0x40 MLOAD SWAP1 DUP2 ADD PUSH1 0x40 MSTORE DUP1 SWAP3 SWAP2 SWAP1 DUP2 DUP2 MSTORE PUSH1 0x20 ADD DUP3 DUP1 SLOAD PUSH2 0x472 SWAP1 PUSH2 0x2C32 JUMP JUMPDEST DUP1 ISZERO PUSH2 0x4BF JUMPI DUP1 PUSH1 0x1F LT PUSH2 0x494 JUMPI PUSH2 0x100 DUP1 DUP4 SLOAD DIV MUL DUP4 MSTORE SWAP2 PUSH1 0x20 ADD SWAP2 PUSH2 0x4BF JUMP JUMPDEST DUP3 ADD SWAP2 SWAP1 PUSH1 0x0 MSTORE PUSH1 0x20 PUSH1 0x0 KECCAK256 SWAP1 JUMPDEST DUP2 SLOAD DUP2 MSTORE SWAP1 PUSH1 0x1 ADD SWAP1 PUSH1 0x20 ADD DUP1 DUP4 GT PUSH2 0x4A2 JUMPI DUP3 SWAP1 SUB PUSH1 0x1F AND DUP3 ADD SWAP2 JUMPDEST POP POP POP POP POP DUP2 MSTORE PUSH1 0x20 ADD PUSH1 0x6 DUP3 ADD DUP1 SLOAD PUSH2 0x4D8 SWAP1 PUSH2 0x2C32 JUMP JUMPDEST DUP1 PUSH1 0x1F ADD PUSH1 0x20 DUP1 SWAP2 DIV MUL PUSH1 0x20 ADD PUSH1 0x40 MLOAD SWAP1 DUP2 ADD PUSH1 0x40 MSTORE DUP1 SWAP3 SWAP2 SWAP1 DUP2 DUP2 MSTORE PUSH1 0x20 ADD DUP3 DUP1 SLOAD PUSH2 0x504 SWAP1 PUSH2 0x2C32 JUMP JUMPDEST DUP1 ISZERO PUSH2 0x551 JUMPI DUP1 PUSH1 0x1F LT PUSH2 0x526 JUMPI PUSH2 0x100 DUP1 DUP4 SLOAD DIV MUL DUP4 MSTORE SWAP2 PUSH1 0x20 ADD SWAP2 PUSH2 0x551 JUMP JUMPDEST DUP3 ADD SWAP2 SWAP1 PUSH1 0x0 MSTORE PUSH1 0x20 PUSH1 0x0 KECCAK256 SWAP1 JUMPDEST DUP2 SLOAD DUP2 MSTORE SWAP1 PUSH1 0x1 ADD SWAP1 PUSH1 0x20 ADD DUP1 DUP4 GT PUSH2 0x534 JUMPI DUP3 SWAP1 SUB PUSH1 0x1F AND DUP3 ADD SWAP2 JUMPDEST POP POP POP SWAP2 DUP4 MSTORE POP POP PUSH1 0x7 DUP3 ADD SLOAD PUSH1 0x20 DUP3 ADD MSTORE PUSH1 0x8 DUP3 ADD SLOAD PUSH1 0x1 PUSH1 0x1 PUSH1 0xA0 SHL SUB SWAP1 DUP2 AND PUSH1 0x40 DUP4 ADD MSTORE PUSH1 0x9 DUP4 ADD SLOAD DUP2 AND PUSH1 0x60 DUP4 ADD MSTORE PUSH1 0xA DUP4 ADD SLOAD SWAP1 DUP2 AND PUSH1 0x80 DUP4 ADD MSTORE PUSH1 0xFF PUSH1 0x1 PUSH1 0xA0 SHL DUP3 DIV DUP2 AND ISZERO ISZERO PUSH1 0xA0 DUP5 ADD MSTORE PUSH1 0x1 PUSH1 0xA8 SHL SWAP1 SWAP2 DIV AND ISZERO ISZERO PUSH1 0xC0 DUP3 ADD MSTORE PUSH1 0xB DUP3 ADD DUP1 SLOAD PUSH1 0xE0 SWAP1 SWAP3 ADD SWAP2 PUSH2 0x5C8 SWAP1 PUSH2 0x2C32 JUMP JUMPDEST DUP1 PUSH1 0x1F ADD PUSH1 0x20 DUP1 SWAP2 DIV MUL PUSH1 0x20 ADD PUSH1 0x40 MLOAD SWAP1 DUP2 ADD PUSH1 0x40 MSTORE DUP1 SWAP3 SWAP2 SWAP1 DUP2 DUP2 MSTORE PUSH1 0x20 ADD DUP3 DUP1 SLOAD PUSH2 0x5F4 SWAP1 PUSH2 0x2C32 JUMP JUMPDEST DUP1 ISZERO PUSH2 0x641 JUMPI DUP1 PUSH1 0x1F LT PUSH2 0x616 JUMPI PUSH2 0x100 DUP1 DUP4 SLOAD DIV MUL DUP4 MSTORE SWAP2 PUSH1 0x20 ADD SWAP2 PUSH2 0x641 JUMP JUMPDEST DUP3 ADD SWAP2 SWAP1 PUSH1 0x0 MSTORE PUSH1 0x20 PUSH1 0x0 KECCAK256 SWAP1 JUMPDEST DUP2 SLOAD DUP2 MSTORE SWAP1 PUSH1 0x1 ADD SWAP1 PUSH1 0x20 ADD DUP1 DUP4 GT PUSH2 0x624 JUMPI DUP3 SWAP1 SUB PUSH1 0x1F AND DUP3 ADD SWAP2 JUMPDEST POP POP POP POP POP DUP2 MSTORE POP POP DUP4 DUP4 DUP2 MLOAD DUP2 LT PUSH2 0x65C JUMPI PUSH2 0x65C PUSH2 0x2C1C JUMP JUMPDEST PUSH1 0x20 MUL PUSH1 0x20 ADD ADD DUP2 SWAP1 MSTORE POP POP DUP1 DUP1 PUSH2 0x673 SWAP1 PUSH2 0x2C7C JUMP JUMPDEST SWAP2 POP POP PUSH2 0x29F JUMP JUMPDEST POP SWAP3 SWAP2 POP POP JUMP JUMPDEST PUSH1 0xE PUSH1 0x20 MSTORE PUSH1 0x0 SWAP1 DUP2 MSTORE PUSH1 0x40 SWAP1 KECCAK256 DUP1 SLOAD PUSH1 0x1 DUP3 ADD SLOAD PUSH1 0x2 DUP4 ADD SLOAD PUSH1 0x3 DUP5 ADD DUP1 SLOAD SWAP4 SWAP5 SWAP3 SWAP4 SWAP2 SWAP3 SWAP2 PUSH2 0x6B2 SWAP1 PUSH2 0x2C32 JUMP JUMPDEST DUP1 PUSH1 0x1F ADD PUSH1 0x20 DUP1 SWAP2 DIV MUL PUSH1 0x20 ADD PUSH1 0x40 MLOAD SWAP1 DUP2 ADD PUSH1 0x40 MSTORE DUP1 SWAP3 SWAP2 SWAP1 DUP2 DUP2 MSTORE PUSH1 0x20 ADD DUP3 DUP1 SLOAD PUSH2 0x6DE SWAP1 PUSH2 0x2C32 JUMP JUMPDEST DUP1 ISZERO PUSH2 0x72B JUMPI DUP1 PUSH1 0x1F LT PUSH2 0x700 JUMPI PUSH2 0x100 DUP1 DUP4 SLOAD DIV MUL DUP4 MSTORE SWAP2 PUSH1 0x20 ADD SWAP2 PUSH2 0x72B JUMP JUMPDEST DUP3 ADD SWAP2 SWAP1 PUSH1 0x0 MSTORE PUSH1 0x20 PUSH1 0x0 KECCAK256 SWAP1 JUMPDEST DUP2 SLOAD DUP2 MSTORE SWAP1 PUSH1 0x1 ADD SWAP1 PUSH1 0x20 ADD DUP1 DUP4 GT PUSH2 0x70E JUMPI DUP3 SWAP1 SUB PUSH1 0x1F AND DUP3 ADD SWAP2 JUMPDEST POP POP POP POP POP SWAP1 DUP1 PUSH1 0x4 ADD DUP1 SLOAD PUSH2 0x740 SWAP1 PUSH2 0x2C32 JUMP JUMPDEST DUP1 PUSH1 0x1F ADD PUSH1 0x20 DUP1 SWAP2 DIV MUL PUSH1 0x20 ADD PUSH1 0x40 MLOAD SWAP1 DUP2 ADD PUSH1 0x40 MSTORE DUP1 SWAP3 SWAP2 SWAP1 DUP2 DUP2 MSTORE PUSH1 0x20 ADD DUP3 DUP1 SLOAD PUSH2 0x76C SWAP1 PUSH2 0x2C32 JUMP JUMPDEST DUP1 ISZERO PUSH2 0x7B9 JUMPI DUP1 PUSH1 0x1F LT PUSH2 0x78E JUMPI PUSH2 0x100 DUP1 DUP4 SLOAD DIV MUL DUP4 MSTORE SWAP2 PUSH1 0x20 ADD SWAP2 PUSH2 0x7B9 JUMP JUMPDEST DUP3 ADD SWAP2 SWAP1 PUSH1 0x0 MSTORE PUSH1 0x20 PUSH1 0x0 KECCAK256 SWAP1 JUMPDEST DUP2 SLOAD DUP2 MSTORE SWAP1 PUSH1 0x1 ADD SWAP1 PUSH1 0x20 ADD DUP1 DUP4 GT PUSH2 0x79C JUMPI DUP3 SWAP1 SUB PUSH1 0x1F AND DUP3 ADD SWAP2 JUMPDEST POP POP POP POP POP SWAP1 DUP1 PUSH1 0x5 ADD DUP1 SLOAD PUSH2 0x7CE SWAP1 PUSH2 0x2C32 JUMP JUMPDEST DUP1 PUSH1 0x1F ADD PUSH1 0x20 DUP1 SWAP2 DIV MUL PUSH1 0x20 ADD PUSH1 0x40 MLOAD SWAP1 DUP2 ADD PUSH1 0x40 MSTORE DUP1 SWAP3 SWAP2 SWAP1 DUP2 DUP2 MSTORE PUSH1 0x20 ADD DUP3 DUP1 SLOAD PUSH2 0x7FA SWAP1 PUSH2 0x2C32 JUMP JUMPDEST DUP1 ISZERO PUSH2 0x847 JUMPI DUP1 PUSH1 0x1F LT PUSH2 0x81C JUMPI PUSH2 0x100 DUP1 DUP4 SLOAD DIV MUL DUP4 MSTORE SWAP2 PUSH1 0x20 ADD SWAP2 PUSH2 0x847 JUMP JUMPDEST DUP3 ADD SWAP2 SWAP1 PUSH1 0x0 MSTORE PUSH1 0x20 PUSH1 0x0 KECCAK256 SWAP1 JUMPDEST DUP2 SLOAD DUP2 MSTORE SWAP1 PUSH1 0x1 ADD SWAP1 PUSH1 0x20 ADD DUP1 DUP4 GT PUSH2 0x82A JUMPI DUP3 SWAP1 SUB PUSH1 0x1F AND DUP3 ADD SWAP2 JUMPDEST POP POP POP POP POP SWAP1 DUP1 PUSH1 0x6 ADD DUP1 SLOAD PUSH2 0x85C SWAP1 PUSH2 0x2C32 JUMP JUMPDEST DUP1 PUSH1 0x1F ADD PUSH1 0x20 DUP1 SWAP2 DIV MUL PUSH1 0x20 ADD PUSH1 0x40 MLOAD SWAP1 DUP2 ADD PUSH1 0x40 MSTORE DUP1 SWAP3 SWAP2 SWAP1 DUP2 DUP2 MSTORE PUSH1 0x20 ADD DUP3 DUP1 SLOAD PUSH2 0x888 SWAP1 PUSH2 0x2C32 JUMP JUMPDEST DUP1 ISZERO PUSH2 0x8D5 JUMPI DUP1 PUSH1 0x1F LT PUSH2 0x8AA JUMPI PUSH2 0x100 DUP1 DUP4 SLOAD DIV MUL DUP4 MSTORE SWAP2 PUSH1 0x20 ADD SWAP2 PUSH2 0x8D5 JUMP JUMPDEST DUP3 ADD SWAP2 SWAP1 PUSH1 0x0 MSTORE PUSH1 0x20 PUSH1 0x0 KECCAK256 SWAP1 JUMPDEST DUP2 SLOAD DUP2 MSTORE SWAP1 PUSH1 0x1 ADD SWAP1 PUSH1 0x20 ADD DUP1 DUP4 GT PUSH2 0x8B8 JUMPI DUP3 SWAP1 SUB PUSH1 0x1F AND DUP3 ADD SWAP2 JUMPDEST POP POP POP PUSH1 0x7 DUP5 ADD SLOAD PUSH1 0x8 DUP6 ADD SLOAD PUSH1 0x9 DUP7 ADD SLOAD PUSH1 0xA DUP8 ADD SLOAD PUSH1 0xB DUP9 ADD DUP1 SLOAD SWAP8 SWAP9 SWAP5 SWAP8 PUSH1 0x1 PUSH1 0x1 PUSH1 0xA0 SHL SUB SWAP5 DUP6 AND SWAP8 POP SWAP3 DUP5 AND SWAP6 POP SWAP3 DUP2 AND SWAP4 PUSH1 0xFF PUSH1 0x1 PUSH1 0xA0 SHL DUP4 DIV DUP2 AND SWAP5 PUSH1 0x1 PUSH1 0xA8 SHL SWAP1 SWAP4 DIV AND SWAP3 SWAP1 SWAP2 SWAP1 PUSH2 0x92E SWAP1 PUSH2 0x2C32 JUMP JUMPDEST DUP1 PUSH1 0x1F ADD PUSH1 0x20 DUP1 SWAP2 DIV MUL PUSH1 0x20 ADD PUSH1 0x40 MLOAD SWAP1 DUP2 ADD PUSH1 0x40 MSTORE DUP1 SWAP3 SWAP2 SWAP1 DUP2 DUP2 MSTORE PUSH1 0x20 ADD DUP3 DUP1 SLOAD PUSH2 0x95A SWAP1 PUSH2 0x2C32 JUMP JUMPDEST DUP1 ISZERO PUSH2 0x9A7 JUMPI DUP1 PUSH1 0x1F LT PUSH2 0x97C JUMPI PUSH2 0x100 DUP1 DUP4 SLOAD DIV MUL DUP4 MSTORE SWAP2 PUSH1 0x20 ADD SWAP2 PUSH2 0x9A7 JUMP JUMPDEST DUP3 ADD SWAP2 SWAP1 PUSH1 0x0 MSTORE PUSH1 0x20 PUSH1 0x0 KECCAK256 SWAP1 JUMPDEST DUP2 SLOAD DUP2 MSTORE SWAP1 PUSH1 0x1 ADD SWAP1 PUSH1 0x20 ADD DUP1 DUP4 GT PUSH2 0x98A JUMPI DUP3 SWAP1 SUB PUSH1 0x1F AND DUP3 ADD SWAP2 JUMPDEST POP POP POP POP POP SWAP1 POP DUP15 JUMP JUMPDEST PUSH7 0x38D7EA4C68000 DUP8 LT ISZERO PUSH2 0xA0D JUMPI PUSH1 0x40 MLOAD PUSH3 0x461BCD PUSH1 0xE5 SHL DUP2 MSTORE PUSH1 0x20 PUSH1 0x4 DUP3 ADD MSTORE PUSH1 0x18 PUSH1 0x24 DUP3 ADD MSTORE PUSH32 0x4D696E696D756D2070726963652069732031204D617469630000000000000000 PUSH1 0x44 DUP3 ADD MSTORE PUSH1 0x64 ADD JUMPDEST PUSH1 0x40 MLOAD DUP1 SWAP2 SUB SWAP1 REVERT JUMPDEST DUP7 CALLVALUE LT ISZERO PUSH2 0xA2D JUMPI PUSH1 0x40 MLOAD PUSH3 0x461BCD PUSH1 0xE5 SHL DUP2 MSTORE PUSH1 0x4 ADD PUSH2 0xA04 SWAP1 PUSH2 0x2C95 JUMP JUMPDEST PUSH1 0xB DUP1 SLOAD SWAP1 PUSH1 0x0 PUSH2 0xA3D DUP4 PUSH2 0x2C7C JUMP JUMPDEST SWAP1 SWAP2 SSTORE POP POP PUSH1 0x40 DUP1 MLOAD PUSH2 0x1C0 DUP2 ADD DUP3 MSTORE PUSH1 0xB SLOAD DUP1 DUP3 MSTORE PUSH1 0x20 DUP1 DUP4 ADD DUP11 DUP2 MSTORE DUP4 DUP6 ADD DUP8 DUP2 MSTORE PUSH1 0x60 DUP6 ADD DUP8 DUP2 MSTORE PUSH1 0x80 DUP7 ADD DUP13 SWAP1 MSTORE PUSH1 0xA0 DUP7 ADD DUP12 SWAP1 MSTORE PUSH1 0xC0 DUP7 ADD DUP11 SWAP1 MSTORE PUSH1 0xE0 DUP7 ADD DUP15 SWAP1 MSTORE CALLER PUSH2 0x100 DUP8 ADD MSTORE PUSH1 0x0 PUSH2 0x120 DUP8 ADD DUP2 SWAP1 MSTORE PUSH2 0x140 DUP8 ADD DUP2 SWAP1 MSTORE PUSH1 0x1 PUSH2 0x160 DUP9 ADD DUP2 SWAP1 MSTORE PUSH2 0x180 DUP9 ADD DUP3 SWAP1 MSTORE DUP9 MLOAD DUP1 DUP11 ADD DUP11 MSTORE PUSH1 0x9 DUP2 MSTORE PUSH9 0x141D589B1A5CDA1959 PUSH1 0xBA SHL DUP2 DUP9 ADD MSTORE PUSH2 0x1A0 DUP10 ADD MSTORE SWAP6 DUP2 MSTORE PUSH1 0xE SWAP1 SWAP5 MSTORE SWAP6 SWAP1 SWAP3 KECCAK256 DUP5 MLOAD DUP2 SSTORE SWAP1 MLOAD SWAP3 DUP2 ADD SWAP3 SWAP1 SWAP3 SSTORE MLOAD PUSH1 0x2 DUP3 ADD SSTORE SWAP2 MLOAD SWAP1 SWAP2 SWAP1 PUSH1 0x3 DUP3 ADD SWAP1 PUSH2 0xB04 SWAP1 DUP3 PUSH2 0x2D28 JUMP JUMPDEST POP PUSH1 0x80 DUP3 ADD MLOAD PUSH1 0x4 DUP3 ADD SWAP1 PUSH2 0xB19 SWAP1 DUP3 PUSH2 0x2D28 JUMP JUMPDEST POP PUSH1 0xA0 DUP3 ADD MLOAD PUSH1 0x5 DUP3 ADD SWAP1 PUSH2 0xB2E SWAP1 DUP3 PUSH2 0x2D28 JUMP JUMPDEST POP PUSH1 0xC0 DUP3 ADD MLOAD PUSH1 0x6 DUP3 ADD SWAP1 PUSH2 0xB43 SWAP1 DUP3 PUSH2 0x2D28 JUMP JUMPDEST POP PUSH1 0xE0 DUP3 ADD MLOAD PUSH1 0x7 DUP3 ADD SSTORE PUSH2 0x100 DUP3 ADD MLOAD PUSH1 0x8 DUP3 ADD DUP1 SLOAD PUSH1 0x1 PUSH1 0x1 PUSH1 0xA0 SHL SUB SWAP3 DUP4 AND PUSH1 0x1 PUSH1 0x1 PUSH1 0xA0 SHL SUB NOT SWAP2 DUP3 AND OR SWAP1 SWAP2 SSTORE PUSH2 0x120 DUP5 ADD MLOAD PUSH1 0x9 DUP5 ADD DUP1 SLOAD SWAP2 DUP5 AND SWAP2 SWAP1 SWAP3 AND OR SWAP1 SSTORE PUSH2 0x140 DUP4 ADD MLOAD PUSH1 0xA DUP4 ADD DUP1 SLOAD PUSH2 0x160 DUP7 ADD MLOAD PUSH2 0x180 DUP8 ADD MLOAD ISZERO ISZERO PUSH1 0x1 PUSH1 0xA8 SHL MUL PUSH1 0xFF PUSH1 0xA8 SHL NOT SWAP2 ISZERO ISZERO PUSH1 0x1 PUSH1 0xA0 SHL MUL PUSH1 0x1 PUSH1 0x1 PUSH1 0xA8 SHL SUB NOT SWAP1 SWAP4 AND SWAP5 SWAP1 SWAP6 AND SWAP4 SWAP1 SWAP4 OR OR SWAP2 SWAP1 SWAP2 AND SWAP2 SWAP1 SWAP2 OR SWAP1 SSTORE PUSH2 0x1A0 DUP3 ADD MLOAD PUSH1 0xB DUP3 ADD SWAP1 PUSH2 0xBEE SWAP1 DUP3 PUSH2 0x2D28 JUMP JUMPDEST POP POP CALLER PUSH1 0x0 DUP2 DUP2 MSTORE PUSH1 0xF PUSH1 0x20 SWAP1 DUP2 MSTORE PUSH1 0x40 DUP1 DUP4 KECCAK256 PUSH1 0xB DUP1 SLOAD DUP3 SLOAD PUSH1 0x1 DUP2 ADD DUP5 SSTORE SWAP3 DUP7 MSTORE SWAP4 DUP6 KECCAK256 SWAP1 SWAP2 ADD SWAP3 SWAP1 SWAP3 SSTORE SWAP1 SLOAD SWAP1 MLOAD DUP12 SWAP5 POP SWAP1 SWAP2 PUSH32 0x1E8CD9F962F202A3D2DE4FE68D64850937AD80C549FEF41A9173F48E94643977 SWAP2 LOG4 POP POP POP POP POP POP POP JUMP JUMPDEST PUSH1 0x0 DUP2 DUP2 MSTORE PUSH1 0xE PUSH1 0x20 MSTORE PUSH1 0x40 SWAP1 KECCAK256 PUSH1 0xA DUP2 ADD SLOAD PUSH1 0x1 PUSH1 0xA0 SHL SWAP1 DIV PUSH1 0xFF AND ISZERO ISZERO PUSH1 0x1 EQ PUSH2 0xCB5 JUMPI PUSH1 0x40 MLOAD PUSH3 0x461BCD PUSH1 0xE5 SHL DUP2 MSTORE PUSH1 0x20 PUSH1 0x4 DUP3 ADD MSTORE PUSH1 0x14 PUSH1 0x24 DUP3 ADD MSTORE PUSH20 0x151A194818995D081DD85CC818D85B98D95B1959 PUSH1 0x62 SHL PUSH1 0x44 DUP3 ADD MSTORE PUSH1 0x64 ADD PUSH2 0xA04 JUMP JUMPDEST DUP2 PUSH1 0xB SLOAD LT ISZERO DUP1 ISZERO PUSH2 0xCC7 JUMPI POP PUSH1 0x0 DUP3 GT JUMPDEST PUSH2 0xCE3 JUMPI PUSH1 0x40 MLOAD PUSH3 0x461BCD PUSH1 0xE5 SHL DUP2 MSTORE PUSH1 0x4 ADD PUSH2 0xA04 SWAP1 PUSH2 0x2DE7 JUMP JUMPDEST PUSH1 0x8 DUP2 ADD SLOAD PUSH1 0x1 PUSH1 0x1 PUSH1 0xA0 SHL SUB AND CALLER EQ PUSH2 0xD3F JUMPI PUSH1 0x40 MLOAD PUSH3 0x461BCD PUSH1 0xE5 SHL DUP2 MSTORE PUSH1 0x20 PUSH1 0x4 DUP3 ADD MSTORE PUSH1 0x19 PUSH1 0x24 DUP3 ADD MSTORE PUSH32 0x426574206368616C6C656E6765722063616E2063616E63656C00000000000000 PUSH1 0x44 DUP3 ADD MSTORE PUSH1 0x64 ADD PUSH2 0xA04 JUMP JUMPDEST PUSH1 0xA DUP2 ADD DUP1 SLOAD PUSH1 0xFF PUSH1 0xA0 SHL NOT AND SWAP1 SSTORE PUSH1 0x40 DUP1 MLOAD DUP1 DUP3 ADD SWAP1 SWAP2 MSTORE PUSH1 0x8 DUP2 MSTORE PUSH8 0x10D85B98D95B1959 PUSH1 0xC2 SHL PUSH1 0x20 DUP3 ADD MSTORE PUSH1 0xB DUP3 ADD SWAP1 PUSH2 0xD7C SWAP1 DUP3 PUSH2 0x2D28 JUMP JUMPDEST POP PUSH1 0x7 DUP2 ADD SLOAD PUSH1 0x8 DUP3 ADD SLOAD PUSH1 0x40 MLOAD PUSH1 0x1 PUSH1 0x1 PUSH1 0xA0 SHL SUB SWAP1 SWAP2 AND SWAP1 PUSH1 0x0 SWAP1 DUP3 SWAP1 DUP5 ISZERO PUSH2 0x8FC MUL SWAP1 DUP6 SWAP1 DUP5 DUP2 DUP2 DUP2 DUP6 DUP9 DUP9 CALL SWAP4 POP POP POP POP SWAP1 POP DUP1 PUSH2 0xDF5 JUMPI PUSH1 0x40 MLOAD PUSH3 0x461BCD PUSH1 0xE5 SHL DUP2 MSTORE PUSH1 0x20 PUSH1 0x4 DUP3 ADD MSTORE PUSH1 0x12 PUSH1 0x24 DUP3 ADD MSTORE PUSH18 0x151C985B9CD858DD1A5BDB8811985A5B1959 PUSH1 0x72 SHL PUSH1 0x44 DUP3 ADD MSTORE PUSH1 0x64 ADD PUSH2 0xA04 JUMP JUMPDEST POP POP POP POP POP JUMP JUMPDEST PUSH1 0x0 DUP6 DUP2 MSTORE PUSH1 0x5 PUSH1 0x20 MSTORE PUSH1 0x40 SWAP1 KECCAK256 SLOAD DUP6 SWAP1 PUSH1 0x1 PUSH1 0x1 PUSH1 0xA0 SHL SUB AND CALLER EQ PUSH2 0xE75 JUMPI PUSH1 0x40 MLOAD PUSH3 0x461BCD PUSH1 0xE5 SHL DUP2 MSTORE PUSH1 0x20 PUSH1 0x4 DUP3 ADD MSTORE PUSH1 0x28 PUSH1 0x24 DUP3 ADD MSTORE PUSH32 0x536F75726365206D75737420626520746865206F7261636C65206F6620746865 PUSH1 0x44 DUP3 ADD MSTORE PUSH8 0x81C995C5D595CDD PUSH1 0xC2 SHL PUSH1 0x64 DUP3 ADD MSTORE PUSH1 0x84 ADD PUSH2 0xA04 JUMP JUMPDEST PUSH1 0x0 DUP2 DUP2 MSTORE PUSH1 0x5 PUSH1 0x20 MSTORE PUSH1 0x40 DUP1 DUP3 KECCAK256 DUP1 SLOAD PUSH1 0x1 PUSH1 0x1 PUSH1 0xA0 SHL SUB NOT AND SWAP1 SSTORE MLOAD DUP3 SWAP2 PUSH32 0x7CC135E0CEBB02C3480AE5D74D377283180A2601F8F644EDF7987B009316C63A SWAP2 LOG2 PUSH1 0x40 DUP1 MLOAD DUP7 DUP2 MSTORE PUSH1 0x20 DUP2 ADD DUP7 SWAP1 MSTORE SWAP1 DUP2 ADD DUP5 SWAP1 MSTORE PUSH1 0x60 DUP2 ADD DUP4 SWAP1 MSTORE DUP7 SWAP1 PUSH32 0x78E6DF904D928FEB84261A6267619CA16C25BBCB7D6E5062E1DFAC3168FB59BC SWAP1 PUSH1 0x80 ADD PUSH1 0x40 MLOAD DUP1 SWAP2 SUB SWAP1 LOG2 POP PUSH1 0x7 SWAP4 SWAP1 SWAP4 SSTORE PUSH1 0x8 SWAP2 SWAP1 SWAP2 SSTORE PUSH1 0xA SSTORE PUSH1 0x9 SSTORE POP JUMP JUMPDEST PUSH1 0x2 PUSH1 0x6 SLOAD SUB PUSH2 0xF6A JUMPI PUSH1 0x40 MLOAD PUSH3 0x461BCD PUSH1 0xE5 SHL DUP2 MSTORE PUSH1 0x20 PUSH1 0x4 DUP3 ADD MSTORE PUSH1 0x1F PUSH1 0x24 DUP3 ADD MSTORE PUSH32 0x5265656E7472616E637947756172643A207265656E7472616E742063616C6C00 PUSH1 0x44 DUP3 ADD MSTORE PUSH1 0x64 ADD PUSH2 0xA04 JUMP JUMPDEST PUSH1 0x2 PUSH1 0x6 SSTORE PUSH1 0x0 DUP2 DUP2 MSTORE PUSH1 0xE PUSH1 0x20 MSTORE PUSH1 0x40 SWAP1 KECCAK256 PUSH1 0xA DUP2 ADD SLOAD PUSH1 0x1 PUSH1 0xA0 SHL SWAP1 DIV PUSH1 0xFF AND ISZERO ISZERO PUSH1 0x1 EQ PUSH2 0xFD5 JUMPI PUSH1 0x40 MLOAD PUSH3 0x461BCD PUSH1 0xE5 SHL DUP2 MSTORE PUSH1 0x20 PUSH1 0x4 DUP3 ADD MSTORE PUSH1 0x15 PUSH1 0x24 DUP3 ADD MSTORE PUSH21 0x54686520626574206973206E6F7420616374697661 PUSH1 0x58 SHL PUSH1 0x44 DUP3 ADD MSTORE PUSH1 0x64 ADD PUSH2 0xA04 JUMP JUMPDEST PUSH1 0x0 PUSH1 0xB SLOAD GT PUSH2 0xFF7 JUMPI PUSH1 0x40 MLOAD PUSH3 0x461BCD PUSH1 0xE5 SHL DUP2 MSTORE PUSH1 0x4 ADD PUSH2 0xA04 SWAP1 PUSH2 0x2DE7 JUMP JUMPDEST PUSH1 0x0 DUP3 GT DUP1 ISZERO PUSH2 0x1009 JUMPI POP PUSH1 0xB SLOAD DUP3 GT ISZERO JUMPDEST PUSH2 0x1025 JUMPI PUSH1 0x40 MLOAD PUSH3 0x461BCD PUSH1 0xE5 SHL DUP2 MSTORE PUSH1 0x4 ADD PUSH2 0xA04 SWAP1 PUSH2 0x2DE7 JUMP JUMPDEST PUSH1 0x8 DUP2 ADD SLOAD PUSH1 0x1 PUSH1 0x1 PUSH1 0xA0 SHL SUB AND CALLER SUB PUSH2 0x108B JUMPI PUSH1 0x40 MLOAD PUSH3 0x461BCD PUSH1 0xE5 SHL DUP2 MSTORE PUSH1 0x20 PUSH1 0x4 DUP3 ADD MSTORE PUSH1 0x21 PUSH1 0x24 DUP3 ADD MSTORE PUSH32 0x4368616C6C656E6765722063616E206E6F742061636365707420746865206265 PUSH1 0x44 DUP3 ADD MSTORE PUSH1 0x1D PUSH1 0xFA SHL PUSH1 0x64 DUP3 ADD MSTORE PUSH1 0x84 ADD PUSH2 0xA04 JUMP JUMPDEST DUP1 PUSH1 0x7 ADD SLOAD CALLVALUE LT ISZERO PUSH2 0x10AF JUMPI PUSH1 0x40 MLOAD PUSH3 0x461BCD PUSH1 0xE5 SHL DUP2 MSTORE PUSH1 0x4 ADD PUSH2 0xA04 SWAP1 PUSH2 0x2C95 JUMP JUMPDEST PUSH1 0x9 DUP2 ADD DUP1 SLOAD PUSH1 0x1 PUSH1 0x1 PUSH1 0xA0 SHL SUB NOT AND CALLER OR SWAP1 SSTORE PUSH1 0xA DUP2 ADD DUP1 SLOAD PUSH1 0xFF PUSH1 0xA8 SHL NOT AND PUSH1 0x1 PUSH1 0xA8 SHL OR SWAP1 SSTORE PUSH1 0x40 DUP1 MLOAD DUP1 DUP3 ADD SWAP1 SWAP2 MSTORE PUSH1 0x8 DUP2 MSTORE PUSH8 0x1058D8D95C1D1959 PUSH1 0xC2 SHL PUSH1 0x20 DUP3 ADD MSTORE PUSH1 0xB DUP3 ADD SWAP1 PUSH2 0x1106 SWAP1 DUP3 PUSH2 0x2D28 JUMP JUMPDEST POP CALLER PUSH1 0x0 SWAP1 DUP2 MSTORE PUSH1 0xF PUSH1 0x20 SWAP1 DUP2 MSTORE PUSH1 0x40 DUP1 DUP4 KECCAK256 DUP1 SLOAD PUSH1 0x1 DUP1 DUP3 ADD DUP4 SSTORE SWAP2 DUP6 MSTORE DUP4 DUP6 KECCAK256 ADD DUP7 SWAP1 SSTORE DUP5 DUP2 ADD SLOAD DUP5 MSTORE PUSH1 0x10 DUP4 MSTORE DUP2 DUP5 KECCAK256 DUP1 SLOAD SWAP2 DUP3 ADD DUP2 SSTORE DUP5 MSTORE SWAP3 DUP3 SWAP1 KECCAK256 SWAP1 SWAP3 ADD DUP5 SWAP1 SSTORE PUSH1 0x9 DUP4 ADD SLOAD PUSH1 0x8 DUP5 ADD SLOAD PUSH1 0x7 DUP6 ADD SLOAD SWAP4 MLOAD SWAP4 DUP5 MSTORE PUSH1 0x1 PUSH1 0x1 PUSH1 0xA0 SHL SUB SWAP2 DUP3 AND SWAP4 SWAP2 AND SWAP2 DUP6 SWAP2 PUSH32 0xCDAC8516359A273BD88D2AAFE047DE47CFCFB70D6448BE9C49A82491CAFA0EB7 SWAP2 ADD PUSH1 0x40 MLOAD DUP1 SWAP2 SUB SWAP1 LOG4 POP POP PUSH1 0x1 PUSH1 0x6 SSTORE JUMP JUMPDEST PUSH1 0x60 PUSH1 0x0 PUSH1 0xB SLOAD PUSH1 0x1 PUSH1 0x1 PUSH1 0x40 SHL SUB DUP2 GT ISZERO PUSH2 0x11C3 JUMPI PUSH2 0x11C3 PUSH2 0x2A63 JUMP JUMPDEST PUSH1 0x40 MLOAD SWAP1 DUP1 DUP3 MSTORE DUP1 PUSH1 0x20 MUL PUSH1 0x20 ADD DUP3 ADD PUSH1 0x40 MSTORE DUP1 ISZERO PUSH2 0x11EC JUMPI DUP2 PUSH1 0x20 ADD PUSH1 0x20 DUP3 MUL DUP1 CALLDATASIZE DUP4 CALLDATACOPY ADD SWAP1 POP JUMPDEST POP SWAP1 POP PUSH1 0x0 PUSH1 0x1 JUMPDEST PUSH1 0xB SLOAD DUP2 GT PUSH2 0x1296 JUMPI PUSH1 0x0 DUP2 DUP2 MSTORE PUSH1 0xE PUSH1 0x20 MSTORE PUSH1 0x40 SWAP1 KECCAK256 PUSH1 0xA ADD SLOAD PUSH1 0x1 PUSH1 0xA8 SHL SWAP1 DIV PUSH1 0xFF AND ISZERO DUP1 ISZERO PUSH2 0x1243 JUMPI POP PUSH1 0x0 DUP2 DUP2 MSTORE PUSH1 0xE PUSH1 0x20 MSTORE PUSH1 0x40 SWAP1 KECCAK256 PUSH1 0xA ADD SLOAD PUSH1 0x1 PUSH1 0xA0 SHL SWAP1 DIV PUSH1 0xFF AND ISZERO ISZERO PUSH1 0x1 EQ JUMPDEST ISZERO PUSH2 0x1284 JUMPI PUSH1 0x0 DUP2 DUP2 MSTORE PUSH1 0xE PUSH1 0x20 MSTORE PUSH1 0x40 SWAP1 KECCAK256 SLOAD DUP4 MLOAD DUP5 SWAP1 DUP5 SWAP1 DUP2 LT PUSH2 0x126B JUMPI PUSH2 0x126B PUSH2 0x2C1C JUMP JUMPDEST PUSH1 0x20 SWAP1 DUP2 MUL SWAP2 SWAP1 SWAP2 ADD ADD MSTORE DUP2 PUSH2 0x1280 DUP2 PUSH2 0x2C7C JUMP JUMPDEST SWAP3 POP POP JUMPDEST DUP1 PUSH2 0x128E DUP2 PUSH2 0x2C7C JUMP JUMPDEST SWAP2 POP POP PUSH2 0x11F4 JUMP JUMPDEST POP PUSH1 0x0 DUP2 PUSH1 0x1 PUSH1 0x1 PUSH1 0x40 SHL SUB DUP2 GT ISZERO PUSH2 0x12B1 JUMPI PUSH2 0x12B1 PUSH2 0x2A63 JUMP JUMPDEST PUSH1 0x40 MLOAD SWAP1 DUP1 DUP3 MSTORE DUP1 PUSH1 0x20 MUL PUSH1 0x20 ADD DUP3 ADD PUSH1 0x40 MSTORE DUP1 ISZERO PUSH2 0x12EA JUMPI DUP2 PUSH1 0x20 ADD JUMPDEST PUSH2 0x12D7 PUSH2 0x26FE JUMP JUMPDEST DUP2 MSTORE PUSH1 0x20 ADD SWAP1 PUSH1 0x1 SWAP1 SUB SWAP1 DUP2 PUSH2 0x12CF JUMPI SWAP1 POP JUMPDEST POP SWAP1 POP PUSH1 0x0 JUMPDEST DUP3 DUP2 LT ISZERO PUSH2 0x16B6 JUMPI PUSH1 0xE PUSH1 0x0 DUP6 DUP4 DUP2 MLOAD DUP2 LT PUSH2 0x130E JUMPI PUSH2 0x130E PUSH2 0x2C1C JUMP JUMPDEST PUSH1 0x20 MUL PUSH1 0x20 ADD ADD MLOAD DUP2 MSTORE PUSH1 0x20 ADD SWAP1 DUP2 MSTORE PUSH1 0x20 ADD PUSH1 0x0 KECCAK256 PUSH1 0x40 MLOAD DUP1 PUSH2 0x1C0 ADD PUSH1 0x40 MSTORE SWAP1 DUP2 PUSH1 0x0 DUP3 ADD SLOAD DUP2 MSTORE PUSH1 0x20 ADD PUSH1 0x1 DUP3 ADD SLOAD DUP2 MSTORE PUSH1 0x20 ADD PUSH1 0x2 DUP3 ADD SLOAD DUP2 MSTORE PUSH1 0x20 ADD PUSH1 0x3 DUP3 ADD DUP1 SLOAD PUSH2 0x135E SWAP1 PUSH2 0x2C32 JUMP JUMPDEST DUP1 PUSH1 0x1F ADD PUSH1 0x20 DUP1 SWAP2 DIV MUL PUSH1 0x20 ADD PUSH1 0x40 MLOAD SWAP1 DUP2 ADD PUSH1 0x40 MSTORE DUP1 SWAP3 SWAP2 SWAP1 DUP2 DUP2 MSTORE PUSH1 0x20 ADD DUP3 DUP1 SLOAD PUSH2 0x138A SWAP1 PUSH2 0x2C32 JUMP JUMPDEST DUP1 ISZERO PUSH2 0x13D7 JUMPI DUP1 PUSH1 0x1F LT PUSH2 0x13AC JUMPI PUSH2 0x100 DUP1 DUP4 SLOAD DIV MUL DUP4 MSTORE SWAP2 PUSH1 0x20 ADD SWAP2 PUSH2 0x13D7 JUMP JUMPDEST DUP3 ADD SWAP2 SWAP1 PUSH1 0x0 MSTORE PUSH1 0x20 PUSH1 0x0 KECCAK256 SWAP1 JUMPDEST DUP2 SLOAD DUP2 MSTORE SWAP1 PUSH1 0x1 ADD SWAP1 PUSH1 0x20 ADD DUP1 DUP4 GT PUSH2 0x13BA JUMPI DUP3 SWAP1 SUB PUSH1 0x1F AND DUP3 ADD SWAP2 JUMPDEST POP POP POP POP POP DUP2 MSTORE PUSH1 0x20 ADD PUSH1 0x4 DUP3 ADD DUP1 SLOAD PUSH2 0x13F0 SWAP1 PUSH2 0x2C32 JUMP JUMPDEST DUP1 PUSH1 0x1F ADD PUSH1 0x20 DUP1 SWAP2 DIV MUL PUSH1 0x20 ADD PUSH1 0x40 MLOAD SWAP1 DUP2 ADD PUSH1 0x40 MSTORE DUP1 SWAP3 SWAP2 SWAP1 DUP2 DUP2 MSTORE PUSH1 0x20 ADD DUP3 DUP1 SLOAD PUSH2 0x141C SWAP1 PUSH2 0x2C32 JUMP JUMPDEST DUP1 ISZERO PUSH2 0x1469 JUMPI DUP1 PUSH1 0x1F LT PUSH2 0x143E JUMPI PUSH2 0x100 DUP1 DUP4 SLOAD DIV MUL DUP4 MSTORE SWAP2 PUSH1 0x20 ADD SWAP2 PUSH2 0x1469 JUMP JUMPDEST DUP3 ADD SWAP2 SWAP1 PUSH1 0x0 MSTORE PUSH1 0x20 PUSH1 0x0 KECCAK256 SWAP1 JUMPDEST DUP2 SLOAD DUP2 MSTORE SWAP1 PUSH1 0x1 ADD SWAP1 PUSH1 0x20 ADD DUP1 DUP4 GT PUSH2 0x144C JUMPI DUP3 SWAP1 SUB PUSH1 0x1F AND DUP3 ADD SWAP2 JUMPDEST POP POP POP POP POP DUP2 MSTORE PUSH1 0x20 ADD PUSH1 0x5 DUP3 ADD DUP1 SLOAD PUSH2 0x1482 SWAP1 PUSH2 0x2C32 JUMP JUMPDEST DUP1 PUSH1 0x1F ADD PUSH1 0x20 DUP1 SWAP2 DIV MUL PUSH1 0x20 ADD PUSH1 0x40 MLOAD SWAP1 DUP2 ADD PUSH1 0x40 MSTORE DUP1 SWAP3 SWAP2 SWAP1 DUP2 DUP2 MSTORE PUSH1 0x20 ADD DUP3 DUP1 SLOAD PUSH2 0x14AE SWAP1 PUSH2 0x2C32 JUMP JUMPDEST DUP1 ISZERO PUSH2 0x14FB JUMPI DUP1 PUSH1 0x1F LT PUSH2 0x14D0 JUMPI PUSH2 0x100 DUP1 DUP4 SLOAD DIV MUL DUP4 MSTORE SWAP2 PUSH1 0x20 ADD SWAP2 PUSH2 0x14FB JUMP JUMPDEST DUP3 ADD SWAP2 SWAP1 PUSH1 0x0 MSTORE PUSH1 0x20 PUSH1 0x0 KECCAK256 SWAP1 JUMPDEST DUP2 SLOAD DUP2 MSTORE SWAP1 PUSH1 0x1 ADD SWAP1 PUSH1 0x20 ADD DUP1 DUP4 GT PUSH2 0x14DE JUMPI DUP3 SWAP1 SUB PUSH1 0x1F AND DUP3 ADD SWAP2 JUMPDEST POP POP POP POP POP DUP2 MSTORE PUSH1 0x20 ADD PUSH1 0x6 DUP3 ADD DUP1 SLOAD PUSH2 0x1514 SWAP1 PUSH2 0x2C32 JUMP JUMPDEST DUP1 PUSH1 0x1F ADD PUSH1 0x20 DUP1 SWAP2 DIV MUL PUSH1 0x20 ADD PUSH1 0x40 MLOAD SWAP1 DUP2 ADD PUSH1 0x40 MSTORE DUP1 SWAP3 SWAP2 SWAP1 DUP2 DUP2 MSTORE PUSH1 0x20 ADD DUP3 DUP1 SLOAD PUSH2 0x1540 SWAP1 PUSH2 0x2C32 JUMP JUMPDEST DUP1 ISZERO PUSH2 0x158D JUMPI DUP1 PUSH1 0x1F LT PUSH2 0x1562 JUMPI PUSH2 0x100 DUP1 DUP4 SLOAD DIV MUL DUP4 MSTORE SWAP2 PUSH1 0x20 ADD SWAP2 PUSH2 0x158D JUMP JUMPDEST DUP3 ADD SWAP2 SWAP1 PUSH1 0x0 MSTORE PUSH1 0x20 PUSH1 0x0 KECCAK256 SWAP1 JUMPDEST DUP2 SLOAD DUP2 MSTORE SWAP1 PUSH1 0x1 ADD SWAP1 PUSH1 0x20 ADD DUP1 DUP4 GT PUSH2 0x1570 JUMPI DUP3 SWAP1 SUB PUSH1 0x1F AND DUP3 ADD SWAP2 JUMPDEST POP POP POP SWAP2 DUP4 MSTORE POP POP PUSH1 0x7 DUP3 ADD SLOAD PUSH1 0x20 DUP3 ADD MSTORE PUSH1 0x8 DUP3 ADD SLOAD PUSH1 0x1 PUSH1 0x1 PUSH1 0xA0 SHL SUB SWAP1 DUP2 AND PUSH1 0x40 DUP4 ADD MSTORE PUSH1 0x9 DUP4 ADD SLOAD DUP2 AND PUSH1 0x60 DUP4 ADD MSTORE PUSH1 0xA DUP4 ADD SLOAD SWAP1 DUP2 AND PUSH1 0x80 DUP4 ADD MSTORE PUSH1 0xFF PUSH1 0x1 PUSH1 0xA0 SHL DUP3 DIV DUP2 AND ISZERO ISZERO PUSH1 0xA0 DUP5 ADD MSTORE PUSH1 0x1 PUSH1 0xA8 SHL SWAP1 SWAP2 DIV AND ISZERO ISZERO PUSH1 0xC0 DUP3 ADD MSTORE PUSH1 0xB DUP3 ADD DUP1 SLOAD PUSH1 0xE0 SWAP1 SWAP3 ADD SWAP2 PUSH2 0x1604 SWAP1 PUSH2 0x2C32 JUMP JUMPDEST DUP1 PUSH1 0x1F ADD PUSH1 0x20 DUP1 SWAP2 DIV MUL PUSH1 0x20 ADD PUSH1 0x40 MLOAD SWAP1 DUP2 ADD PUSH1 0x40 MSTORE DUP1 SWAP3 SWAP2 SWAP1 DUP2 DUP2 MSTORE PUSH1 0x20 ADD DUP3 DUP1 SLOAD PUSH2 0x1630 SWAP1 PUSH2 0x2C32 JUMP JUMPDEST DUP1 ISZERO PUSH2 0x167D JUMPI DUP1 PUSH1 0x1F LT PUSH2 0x1652 JUMPI PUSH2 0x100 DUP1 DUP4 SLOAD DIV MUL DUP4 MSTORE SWAP2 PUSH1 0x20 ADD SWAP2 PUSH2 0x167D JUMP JUMPDEST DUP3 ADD SWAP2 SWAP1 PUSH1 0x0 MSTORE PUSH1 0x20 PUSH1 0x0 KECCAK256 SWAP1 JUMPDEST DUP2 SLOAD DUP2 MSTORE SWAP1 PUSH1 0x1 ADD SWAP1 PUSH1 0x20 ADD DUP1 DUP4 GT PUSH2 0x1660 JUMPI DUP3 SWAP1 SUB PUSH1 0x1F AND DUP3 ADD SWAP2 JUMPDEST POP POP POP POP POP DUP2 MSTORE POP POP DUP3 DUP3 DUP2 MLOAD DUP2 LT PUSH2 0x1698 JUMPI PUSH2 0x1698 PUSH2 0x2C1C JUMP JUMPDEST PUSH1 0x20 MUL PUSH1 0x20 ADD ADD DUP2 SWAP1 MSTORE POP DUP1 DUP1 PUSH2 0x16AE SWAP1 PUSH2 0x2C7C JUMP JUMPDEST SWAP2 POP POP PUSH2 0x12F0 JUMP JUMPDEST POP SWAP4 SWAP3 POP POP POP JUMP JUMPDEST PUSH1 0x60 PUSH1 0x0 PUSH1 0xE PUSH1 0x0 DUP5 DUP2 MSTORE PUSH1 0x20 ADD SWAP1 DUP2 MSTORE PUSH1 0x20 ADD PUSH1 0x0 KECCAK256 PUSH1 0x40 MLOAD DUP1 PUSH2 0x1C0 ADD PUSH1 0x40 MSTORE SWAP1 DUP2 PUSH1 0x0 DUP3 ADD SLOAD DUP2 MSTORE PUSH1 0x20 ADD PUSH1 0x1 DUP3 ADD SLOAD DUP2 MSTORE PUSH1 0x20 ADD PUSH1 0x2 DUP3 ADD SLOAD DUP2 MSTORE PUSH1 0x20 ADD PUSH1 0x3 DUP3 ADD DUP1 SLOAD PUSH2 0x170F SWAP1 PUSH2 0x2C32 JUMP JUMPDEST DUP1 PUSH1 0x1F ADD PUSH1 0x20 DUP1 SWAP2 DIV MUL PUSH1 0x20 ADD PUSH1 0x40 MLOAD SWAP1 DUP2 ADD PUSH1 0x40 MSTORE DUP1 SWAP3 SWAP2 SWAP1 DUP2 DUP2 MSTORE PUSH1 0x20 ADD DUP3 DUP1 SLOAD PUSH2 0x173B SWAP1 PUSH2 0x2C32 JUMP JUMPDEST DUP1 ISZERO PUSH2 0x1788 JUMPI DUP1 PUSH1 0x1F LT PUSH2 0x175D JUMPI PUSH2 0x100 DUP1 DUP4 SLOAD DIV MUL DUP4 MSTORE SWAP2 PUSH1 0x20 ADD SWAP2 PUSH2 0x1788 JUMP JUMPDEST DUP3 ADD SWAP2 SWAP1 PUSH1 0x0 MSTORE PUSH1 0x20 PUSH1 0x0 KECCAK256 SWAP1 JUMPDEST DUP2 SLOAD DUP2 MSTORE SWAP1 PUSH1 0x1 ADD SWAP1 PUSH1 0x20 ADD DUP1 DUP4 GT PUSH2 0x176B JUMPI DUP3 SWAP1 SUB PUSH1 0x1F AND DUP3 ADD SWAP2 JUMPDEST POP POP POP POP POP DUP2 MSTORE PUSH1 0x20 ADD PUSH1 0x4 DUP3 ADD DUP1 SLOAD PUSH2 0x17A1 SWAP1 PUSH2 0x2C32 JUMP JUMPDEST DUP1 PUSH1 0x1F ADD PUSH1 0x20 DUP1 SWAP2 DIV MUL PUSH1 0x20 ADD PUSH1 0x40 MLOAD SWAP1 DUP2 ADD PUSH1 0x40 MSTORE DUP1 SWAP3 SWAP2 SWAP1 DUP2 DUP2 MSTORE PUSH1 0x20 ADD DUP3 DUP1 SLOAD PUSH2 0x17CD SWAP1 PUSH2 0x2C32 JUMP JUMPDEST DUP1 ISZERO PUSH2 0x181A JUMPI DUP1 PUSH1 0x1F LT PUSH2 0x17EF JUMPI PUSH2 0x100 DUP1 DUP4 SLOAD DIV MUL DUP4 MSTORE SWAP2 PUSH1 0x20 ADD SWAP2 PUSH2 0x181A JUMP JUMPDEST DUP3 ADD SWAP2 SWAP1 PUSH1 0x0 MSTORE PUSH1 0x20 PUSH1 0x0 KECCAK256 SWAP1 JUMPDEST DUP2 SLOAD DUP2 MSTORE SWAP1 PUSH1 0x1 ADD SWAP1 PUSH1 0x20 ADD DUP1 DUP4 GT PUSH2 0x17FD JUMPI DUP3 SWAP1 SUB PUSH1 0x1F AND DUP3 ADD SWAP2 JUMPDEST POP POP POP POP POP DUP2 MSTORE PUSH1 0x20 ADD PUSH1 0x5 DUP3 ADD DUP1 SLOAD PUSH2 0x1833 SWAP1 PUSH2 0x2C32 JUMP JUMPDEST DUP1 PUSH1 0x1F ADD PUSH1 0x20 DUP1 SWAP2 DIV MUL PUSH1 0x20 ADD PUSH1 0x40 MLOAD SWAP1 DUP2 ADD PUSH1 0x40 MSTORE DUP1 SWAP3 SWAP2 SWAP1 DUP2 DUP2 MSTORE PUSH1 0x20 ADD DUP3 DUP1 SLOAD PUSH2 0x185F SWAP1 PUSH2 0x2C32 JUMP JUMPDEST DUP1 ISZERO PUSH2 0x18AC JUMPI DUP1 PUSH1 0x1F LT PUSH2 0x1881 JUMPI PUSH2 0x100 DUP1 DUP4 SLOAD DIV MUL DUP4 MSTORE SWAP2 PUSH1 0x20 ADD SWAP2 PUSH2 0x18AC JUMP JUMPDEST DUP3 ADD SWAP2 SWAP1 PUSH1 0x0 MSTORE PUSH1 0x20 PUSH1 0x0 KECCAK256 SWAP1 JUMPDEST DUP2 SLOAD DUP2 MSTORE SWAP1 PUSH1 0x1 ADD SWAP1 PUSH1 0x20 ADD DUP1 DUP4 GT PUSH2 0x188F JUMPI DUP3 SWAP1 SUB PUSH1 0x1F AND DUP3 ADD SWAP2 JUMPDEST POP POP POP POP POP DUP2 MSTORE PUSH1 0x20 ADD PUSH1 0x6 DUP3 ADD DUP1 SLOAD PUSH2 0x18C5 SWAP1 PUSH2 0x2C32 JUMP JUMPDEST DUP1 PUSH1 0x1F ADD PUSH1 0x20 DUP1 SWAP2 DIV MUL PUSH1 0x20 ADD PUSH1 0x40 MLOAD SWAP1 DUP2 ADD PUSH1 0x40 MSTORE DUP1 SWAP3 SWAP2 SWAP1 DUP2 DUP2 MSTORE PUSH1 0x20 ADD DUP3 DUP1 SLOAD PUSH2 0x18F1 SWAP1 PUSH2 0x2C32 JUMP JUMPDEST DUP1 ISZERO PUSH2 0x193E JUMPI DUP1 PUSH1 0x1F LT PUSH2 0x1913 JUMPI PUSH2 0x100 DUP1 DUP4 SLOAD DIV MUL DUP4 MSTORE SWAP2 PUSH1 0x20 ADD SWAP2 PUSH2 0x193E JUMP JUMPDEST DUP3 ADD SWAP2 SWAP1 PUSH1 0x0 MSTORE PUSH1 0x20 PUSH1 0x0 KECCAK256 SWAP1 JUMPDEST DUP2 SLOAD DUP2 MSTORE SWAP1 PUSH1 0x1 ADD SWAP1 PUSH1 0x20 ADD DUP1 DUP4 GT PUSH2 0x1921 JUMPI DUP3 SWAP1 SUB PUSH1 0x1F AND DUP3 ADD SWAP2 JUMPDEST POP POP POP SWAP2 DUP4 MSTORE POP POP PUSH1 0x7 DUP3 ADD SLOAD PUSH1 0x20 DUP3 ADD MSTORE PUSH1 0x8 DUP3 ADD SLOAD PUSH1 0x1 PUSH1 0x1 PUSH1 0xA0 SHL SUB SWAP1 DUP2 AND PUSH1 0x40 DUP4 ADD MSTORE PUSH1 0x9 DUP4 ADD SLOAD DUP2 AND PUSH1 0x60 DUP4 ADD MSTORE PUSH1 0xA DUP4 ADD SLOAD SWAP1 DUP2 AND PUSH1 0x80 DUP4 ADD MSTORE PUSH1 0xFF PUSH1 0x1 PUSH1 0xA0 SHL DUP3 DIV DUP2 AND ISZERO ISZERO PUSH1 0xA0 DUP5 ADD MSTORE PUSH1 0x1 PUSH1 0xA8 SHL SWAP1 SWAP2 DIV AND ISZERO ISZERO PUSH1 0xC0 DUP3 ADD MSTORE PUSH1 0xB DUP3 ADD DUP1 SLOAD PUSH1 0xE0 SWAP1 SWAP3 ADD SWAP2 PUSH2 0x19B5 SWAP1 PUSH2 0x2C32 JUMP JUMPDEST DUP1 PUSH1 0x1F ADD PUSH1 0x20 DUP1 SWAP2 DIV MUL PUSH1 0x20 ADD PUSH1 0x40 MLOAD SWAP1 DUP2 ADD PUSH1 0x40 MSTORE DUP1 SWAP3 SWAP2 SWAP1 DUP2 DUP2 MSTORE PUSH1 0x20 ADD DUP3 DUP1 SLOAD PUSH2 0x19E1 SWAP1 PUSH2 0x2C32 JUMP JUMPDEST DUP1 ISZERO PUSH2 0x1A2E JUMPI DUP1 PUSH1 0x1F LT PUSH2 0x1A03 JUMPI PUSH2 0x100 DUP1 DUP4 SLOAD DIV MUL DUP4 MSTORE SWAP2 PUSH1 0x20 ADD SWAP2 PUSH2 0x1A2E JUMP JUMPDEST DUP3 ADD SWAP2 SWAP1 PUSH1 0x0 MSTORE PUSH1 0x20 PUSH1 0x0 KECCAK256 SWAP1 JUMPDEST DUP2 SLOAD DUP2 MSTORE SWAP1 PUSH1 0x1 ADD SWAP1 PUSH1 0x20 ADD DUP1 DUP4 GT PUSH2 0x1A11 JUMPI DUP3 SWAP1 SUB PUSH1 0x1F AND DUP3 ADD SWAP2 JUMPDEST POP POP POP POP POP DUP2 MSTORE POP POP SWAP1 POP PUSH1 0x0 DUP2 PUSH1 0x60 ADD MLOAD SWAP1 POP DUP2 PUSH1 0x80 ADD MLOAD DUP1 MLOAD SWAP1 PUSH1 0x20 ADD KECCAK256 DUP2 DUP1 MLOAD SWAP1 PUSH1 0x20 ADD KECCAK256 SUB PUSH2 0x1A66 JUMPI POP PUSH1 0xA0 ADD MLOAD SWAP3 SWAP2 POP POP JUMP JUMPDEST POP PUSH1 0x80 ADD MLOAD SWAP3 SWAP2 POP POP JUMP JUMPDEST PUSH1 0x0 DUP1 PUSH1 0x1 JUMPDEST PUSH1 0xB SLOAD DUP2 GT PUSH2 0x1AEB JUMPI PUSH1 0x0 DUP2 DUP2 MSTORE PUSH1 0xE PUSH1 0x20 MSTORE PUSH1 0x40 SWAP1 KECCAK256 PUSH1 0xA ADD SLOAD PUSH1 0x1 PUSH1 0xA8 SHL SWAP1 DIV PUSH1 0xFF AND ISZERO DUP1 ISZERO PUSH2 0x1AC6 JUMPI POP PUSH1 0x0 DUP2 DUP2 MSTORE PUSH1 0xE PUSH1 0x20 MSTORE PUSH1 0x40 SWAP1 KECCAK256 PUSH1 0xA ADD SLOAD PUSH1 0x1 PUSH1 0xA0 SHL SWAP1 DIV PUSH1 0xFF AND ISZERO ISZERO PUSH1 0x1 EQ JUMPDEST ISZERO PUSH2 0x1AD9 JUMPI DUP2 PUSH2 0x1AD5 DUP2 PUSH2 0x2C7C JUMP JUMPDEST SWAP3 POP POP JUMPDEST DUP1 PUSH2 0x1AE3 DUP2 PUSH2 0x2C7C JUMP JUMPDEST SWAP2 POP POP PUSH2 0x1A77 JUMP JUMPDEST POP SWAP2 SWAP1 POP JUMP JUMPDEST PUSH1 0x2 PUSH1 0x6 SLOAD SUB PUSH2 0x1B43 JUMPI PUSH1 0x40 MLOAD PUSH3 0x461BCD PUSH1 0xE5 SHL DUP2 MSTORE PUSH1 0x20 PUSH1 0x4 DUP3 ADD MSTORE PUSH1 0x1F PUSH1 0x24 DUP3 ADD MSTORE PUSH32 0x5265656E7472616E637947756172643A207265656E7472616E742063616C6C00 PUSH1 0x44 DUP3 ADD MSTORE PUSH1 0x64 ADD PUSH2 0xA04 JUMP JUMPDEST PUSH1 0x2 PUSH1 0x6 SSTORE PUSH1 0xA SLOAD PUSH1 0x0 SWAP1 DUP2 MSTORE PUSH1 0x10 PUSH1 0x20 SWAP1 DUP2 MSTORE PUSH1 0x40 DUP1 DUP4 KECCAK256 DUP1 SLOAD DUP3 MLOAD DUP2 DUP6 MUL DUP2 ADD DUP6 ADD SWAP1 SWAP4 MSTORE DUP1 DUP4 MSTORE SWAP2 SWAP3 SWAP1 SWAP2 SWAP1 DUP4 ADD DUP3 DUP3 DUP1 ISZERO PUSH2 0x1BA1 JUMPI PUSH1 0x20 MUL DUP3 ADD SWAP2 SWAP1 PUSH1 0x0 MSTORE PUSH1 0x20 PUSH1 0x0 KECCAK256 SWAP1 JUMPDEST DUP2 SLOAD DUP2 MSTORE PUSH1 0x20 ADD SWAP1 PUSH1 0x1 ADD SWAP1 DUP1 DUP4 GT PUSH2 0x1B8D JUMPI JUMPDEST POP POP DUP4 MLOAD SWAP4 SWAP5 POP PUSH1 0x0 SWAP3 POP POP POP JUMPDEST DUP2 DUP2 LT ISZERO PUSH2 0x1E65 JUMPI PUSH1 0x0 DUP4 DUP3 DUP2 MLOAD DUP2 LT PUSH2 0x1BCB JUMPI PUSH2 0x1BCB PUSH2 0x2C1C JUMP JUMPDEST PUSH1 0x20 SWAP1 DUP2 MUL SWAP2 SWAP1 SWAP2 ADD DUP2 ADD MLOAD PUSH1 0x0 DUP2 DUP2 MSTORE PUSH1 0xE SWAP1 SWAP3 MSTORE PUSH1 0x40 SWAP1 SWAP2 KECCAK256 PUSH1 0xA ADD SLOAD SWAP1 SWAP2 POP PUSH1 0x1 PUSH1 0xA0 SHL SWAP1 DIV PUSH1 0xFF AND ISZERO ISZERO PUSH1 0x1 SUB PUSH2 0x1E52 JUMPI PUSH1 0x0 DUP2 DUP2 MSTORE PUSH1 0xE PUSH1 0x20 MSTORE PUSH1 0x40 SWAP1 KECCAK256 PUSH1 0x2 ADD SLOAD PUSH1 0x9 SLOAD SUB PUSH2 0x1D2B JUMPI PUSH1 0x0 DUP2 DUP2 MSTORE PUSH1 0xE PUSH1 0x20 DUP2 DUP2 MSTORE PUSH1 0x40 DUP1 DUP5 KECCAK256 PUSH1 0x8 DUP2 ADD SLOAD PUSH1 0xA DUP3 ADD DUP1 SLOAD PUSH1 0x1 PUSH1 0x1 PUSH1 0xA0 SHL SUB NOT AND PUSH1 0x1 PUSH1 0x1 PUSH1 0xA0 SHL SUB SWAP1 SWAP3 AND SWAP2 DUP3 OR SWAP1 SSTORE DUP3 MLOAD DUP1 DUP5 ADD SWAP1 SWAP4 MSTORE PUSH1 0x6 DUP4 MSTORE PUSH6 0x10DB1BDCD959 PUSH1 0xD2 SHL DUP4 DUP6 ADD MSTORE SWAP5 DUP7 SWAP1 MSTORE SWAP3 SWAP1 SWAP2 MSTORE PUSH1 0xB SWAP1 SWAP2 ADD SWAP1 PUSH2 0x1C82 SWAP1 DUP3 PUSH2 0x2D28 JUMP JUMPDEST POP PUSH1 0x0 DUP3 DUP2 MSTORE PUSH1 0xE PUSH1 0x20 MSTORE PUSH1 0x40 DUP2 KECCAK256 PUSH1 0xA DUP2 ADD DUP1 SLOAD PUSH1 0xFF PUSH1 0xA0 SHL NOT AND SWAP1 SSTORE PUSH1 0x7 ADD SLOAD PUSH2 0x1CAF SWAP1 PUSH1 0x2 PUSH2 0x2E15 JUMP JUMPDEST PUSH1 0x40 MLOAD SWAP1 SWAP2 POP DUP3 SWAP1 PUSH1 0x1 PUSH1 0x1 PUSH1 0xA0 SHL SUB DUP3 AND SWAP1 DUP4 ISZERO PUSH2 0x8FC MUL SWAP1 DUP5 SWAP1 PUSH1 0x0 DUP2 DUP2 DUP2 DUP6 DUP9 DUP9 CALL SWAP4 POP POP POP POP ISZERO DUP1 ISZERO PUSH2 0x1CEA JUMPI RETURNDATASIZE PUSH1 0x0 DUP1 RETURNDATACOPY RETURNDATASIZE PUSH1 0x0 REVERT JUMPDEST POP DUP1 PUSH1 0x1 PUSH1 0x1 PUSH1 0xA0 SHL SUB AND DUP3 DUP6 PUSH32 0x597A101E271512CBF5AA9EC669AE424ACA2C3D863FD79008B760A76B585A0597 PUSH1 0x40 MLOAD PUSH1 0x40 MLOAD DUP1 SWAP2 SUB SWAP1 LOG4 POP POP POP PUSH2 0x1E52 JUMP JUMPDEST PUSH1 0x0 DUP2 DUP2 MSTORE PUSH1 0xE PUSH1 0x20 MSTORE PUSH1 0x40 SWAP1 KECCAK256 PUSH1 0x2 ADD SLOAD PUSH1 0x9 SLOAD EQ PUSH2 0x1E52 JUMPI PUSH1 0x0 DUP2 DUP2 MSTORE PUSH1 0xE PUSH1 0x20 DUP2 DUP2 MSTORE PUSH1 0x40 DUP1 DUP5 KECCAK256 PUSH1 0x9 DUP2 ADD SLOAD PUSH1 0xA DUP3 ADD DUP1 SLOAD PUSH1 0x1 PUSH1 0x1 PUSH1 0xA0 SHL SUB NOT AND PUSH1 0x1 PUSH1 0x1 PUSH1 0xA0 SHL SUB SWAP1 SWAP3 AND SWAP2 DUP3 OR SWAP1 SSTORE DUP3 MLOAD DUP1 DUP5 ADD SWAP1 SWAP4 MSTORE PUSH1 0x6 DUP4 MSTORE PUSH6 0x10DB1BDCD959 PUSH1 0xD2 SHL DUP4 DUP6 ADD MSTORE SWAP5 DUP7 SWAP1 MSTORE SWAP3 SWAP1 SWAP2 MSTORE PUSH1 0xB SWAP1 SWAP2 ADD SWAP1 PUSH2 0x1DAD SWAP1 DUP3 PUSH2 0x2D28 JUMP JUMPDEST POP PUSH1 0x0 DUP3 DUP2 MSTORE PUSH1 0xE PUSH1 0x20 MSTORE PUSH1 0x40 DUP2 KECCAK256 PUSH1 0xA DUP2 ADD DUP1 SLOAD PUSH1 0xFF PUSH1 0xA0 SHL NOT AND SWAP1 SSTORE PUSH1 0x7 ADD SLOAD PUSH2 0x1DDA SWAP1 PUSH1 0x2 PUSH2 0x2E15 JUMP JUMPDEST PUSH1 0x40 MLOAD SWAP1 SWAP2 POP DUP3 SWAP1 PUSH1 0x1 PUSH1 0x1 PUSH1 0xA0 SHL SUB DUP3 AND SWAP1 DUP4 ISZERO PUSH2 0x8FC MUL SWAP1 DUP5 SWAP1 PUSH1 0x0 DUP2 DUP2 DUP2 DUP6 DUP9 DUP9 CALL SWAP4 POP POP POP POP ISZERO DUP1 ISZERO PUSH2 0x1E15 JUMPI RETURNDATASIZE PUSH1 0x0 DUP1 RETURNDATACOPY RETURNDATASIZE PUSH1 0x0 REVERT JUMPDEST POP DUP1 PUSH1 0x1 PUSH1 0x1 PUSH1 0xA0 SHL SUB AND DUP3 DUP6 PUSH32 0x597A101E271512CBF5AA9EC669AE424ACA2C3D863FD79008B760A76B585A0597 PUSH1 0x40 MLOAD PUSH1 0x40 MLOAD DUP1 SWAP2 SUB SWAP1 LOG4 POP POP POP JUMPDEST POP DUP1 PUSH2 0x1E5D DUP2 PUSH2 0x2C7C JUMP JUMPDEST SWAP2 POP POP PUSH2 0x1BAF JUMP JUMPDEST POP PUSH2 0x1E6E PUSH2 0x1E77 JUMP JUMPDEST POP POP PUSH1 0x1 PUSH1 0x6 SSTORE JUMP JUMPDEST PUSH1 0x0 PUSH2 0x1E8D PUSH1 0xC SLOAD ADDRESS PUSH4 0x4A02B384 PUSH1 0xE0 SHL PUSH2 0x2075 JUMP JUMPDEST SWAP1 POP PUSH2 0x1ECF PUSH1 0x40 MLOAD DUP1 PUSH1 0x40 ADD PUSH1 0x40 MSTORE DUP1 PUSH1 0x3 DUP2 MSTORE PUSH1 0x20 ADD PUSH3 0x19D95D PUSH1 0xEA SHL DUP2 MSTORE POP PUSH1 0x40 MLOAD DUP1 PUSH1 0xA0 ADD PUSH1 0x40 MSTORE DUP1 PUSH1 0x71 DUP2 MSTORE PUSH1 0x20 ADD PUSH2 0x300A PUSH1 0x71 SWAP2 CODECOPY DUP4 SWAP2 SWAP1 PUSH2 0x209A JUMP JUMPDEST PUSH2 0x1F1F PUSH1 0x40 MLOAD DUP1 PUSH1 0x40 ADD PUSH1 0x40 MSTORE DUP1 PUSH1 0x5 DUP2 MSTORE PUSH1 0x20 ADD PUSH5 0x7061746831 PUSH1 0xD8 SHL DUP2 MSTORE POP PUSH1 0x40 MLOAD DUP1 PUSH1 0x40 ADD PUSH1 0x40 MSTORE DUP1 PUSH1 0x6 DUP2 MSTORE PUSH1 0x20 ADD PUSH6 0x302C4E616D65 PUSH1 0xD0 SHL DUP2 MSTORE POP DUP4 PUSH2 0x209A SWAP1 SWAP3 SWAP2 SWAP1 PUSH4 0xFFFFFFFF AND JUMP JUMPDEST PUSH2 0x1F6F PUSH1 0x40 MLOAD DUP1 PUSH1 0x40 ADD PUSH1 0x40 MSTORE DUP1 PUSH1 0x5 DUP2 MSTORE PUSH1 0x20 ADD PUSH5 0x3830BA3419 PUSH1 0xD9 SHL DUP2 MSTORE POP PUSH1 0x40 MLOAD DUP1 PUSH1 0x40 ADD PUSH1 0x40 MSTORE DUP1 PUSH1 0x6 DUP2 MSTORE PUSH1 0x20 ADD PUSH6 0x302C57696E73 PUSH1 0xD0 SHL DUP2 MSTORE POP DUP4 PUSH2 0x209A SWAP1 SWAP3 SWAP2 SWAP1 PUSH4 0xFFFFFFFF AND JUMP JUMPDEST PUSH2 0x1FC1 PUSH1 0x40 MLOAD DUP1 PUSH1 0x40 ADD PUSH1 0x40 MSTORE DUP1 PUSH1 0x5 DUP2 MSTORE PUSH1 0x20 ADD PUSH5 0x7061746833 PUSH1 0xD8 SHL DUP2 MSTORE POP PUSH1 0x40 MLOAD DUP1 PUSH1 0x40 ADD PUSH1 0x40 MSTORE DUP1 PUSH1 0x8 DUP2 MSTORE PUSH1 0x20 ADD PUSH8 0x302C4C6F73736573 PUSH1 0xC0 SHL DUP2 MSTORE POP DUP4 PUSH2 0x209A SWAP1 SWAP3 SWAP2 SWAP1 PUSH4 0xFFFFFFFF AND JUMP JUMPDEST PUSH2 0x2013 PUSH1 0x40 MLOAD DUP1 PUSH1 0x40 ADD PUSH1 0x40 MSTORE DUP1 PUSH1 0x5 DUP2 MSTORE PUSH1 0x20 ADD PUSH5 0x1C185D1A0D PUSH1 0xDA SHL DUP2 MSTORE POP PUSH1 0x40 MLOAD DUP1 PUSH1 0x40 ADD PUSH1 0x40 MSTORE DUP1 PUSH1 0x8 DUP2 MSTORE PUSH1 0x20 ADD PUSH8 0xC0B11D85B595251 PUSH1 0xC2 SHL DUP2 MSTORE POP DUP4 PUSH2 0x209A SWAP1 SWAP3 SWAP2 SWAP1 PUSH4 0xFFFFFFFF AND JUMP JUMPDEST PUSH2 0x2065 PUSH1 0x40 MLOAD DUP1 PUSH1 0x40 ADD PUSH1 0x40 MSTORE DUP1 PUSH1 0x5 DUP2 MSTORE PUSH1 0x20 ADD PUSH5 0x7061746835 PUSH1 0xD8 SHL DUP2 MSTORE POP PUSH1 0x40 MLOAD DUP1 PUSH1 0x40 ADD PUSH1 0x40 MSTORE DUP1 PUSH1 0x8 DUP2 MSTORE PUSH1 0x20 ADD PUSH8 0xC0B1519585B5251 PUSH1 0xC2 SHL DUP2 MSTORE POP DUP4 PUSH2 0x209A SWAP1 SWAP3 SWAP2 SWAP1 PUSH4 0xFFFFFFFF AND JUMP JUMPDEST PUSH2 0x2071 DUP2 PUSH1 0xD SLOAD PUSH2 0x20BD JUMP JUMPDEST POP POP JUMP JUMPDEST PUSH2 0x207D PUSH2 0x278C JUMP JUMPDEST PUSH2 0x2085 PUSH2 0x278C JUMP JUMPDEST PUSH2 0x2091 DUP2 DUP7 DUP7 DUP7 PUSH2 0x20E0 JUMP JUMPDEST SWAP6 SWAP5 POP POP POP POP POP JUMP JUMPDEST PUSH1 0x80 DUP4 ADD MLOAD PUSH2 0x20A9 SWAP1 DUP4 PUSH2 0x2126 JUMP JUMPDEST PUSH1 0x80 DUP4 ADD MLOAD PUSH2 0x20B8 SWAP1 DUP3 PUSH2 0x2126 JUMP JUMPDEST POP POP POP JUMP JUMPDEST PUSH1 0x3 SLOAD PUSH1 0x0 SWAP1 PUSH2 0x20D7 SWAP1 PUSH1 0x1 PUSH1 0x1 PUSH1 0xA0 SHL SUB AND DUP5 DUP5 PUSH2 0x213D JUMP JUMPDEST SWAP1 POP JUMPDEST SWAP3 SWAP2 POP POP JUMP JUMPDEST PUSH2 0x20E8 PUSH2 0x278C JUMP JUMPDEST PUSH2 0x20F8 DUP6 PUSH1 0x80 ADD MLOAD PUSH2 0x100 PUSH2 0x21CE JUMP JUMPDEST POP POP DUP3 DUP5 MSTORE PUSH1 0x1 PUSH1 0x1 PUSH1 0xA0 SHL SUB DUP3 AND PUSH1 0x20 DUP6 ADD MSTORE PUSH1 0x1 PUSH1 0x1 PUSH1 0xE0 SHL SUB NOT DUP2 AND PUSH1 0x40 DUP6 ADD MSTORE DUP4 JUMPDEST SWAP5 SWAP4 POP POP POP POP JUMP JUMPDEST PUSH2 0x2133 DUP3 PUSH1 0x3 DUP4 MLOAD PUSH2 0x2233 JUMP JUMPDEST PUSH2 0x20B8 DUP3 DUP3 PUSH2 0x2340 JUMP JUMPDEST PUSH1 0x4 SLOAD PUSH1 0x0 SWAP1 PUSH2 0x214E DUP2 PUSH1 0x1 PUSH2 0x2E2C JUMP JUMPDEST PUSH1 0x4 SSTORE DUP4 MLOAD PUSH1 0x40 DUP1 DUP7 ADD MLOAD PUSH1 0x80 DUP8 ADD MLOAD MLOAD SWAP2 MLOAD PUSH1 0x0 SWAP4 PUSH4 0x3C6D41B9 PUSH1 0xE0 SHL SWAP4 PUSH2 0x2184 SWAP4 DUP7 SWAP4 DUP5 SWAP4 SWAP3 DUP10 SWAP2 PUSH1 0x2 SWAP2 SWAP1 PUSH1 0x24 ADD PUSH2 0x2E3F JUMP JUMPDEST PUSH1 0x40 DUP1 MLOAD PUSH1 0x1F NOT DUP2 DUP5 SUB ADD DUP2 MSTORE SWAP2 SWAP1 MSTORE PUSH1 0x20 DUP2 ADD DUP1 MLOAD PUSH1 0x1 PUSH1 0x1 PUSH1 0xE0 SHL SUB AND PUSH1 0x1 PUSH1 0x1 PUSH1 0xE0 SHL SUB NOT SWAP1 SWAP4 AND SWAP3 SWAP1 SWAP3 OR SWAP1 SWAP2 MSTORE SWAP1 POP PUSH2 0x21C4 DUP7 DUP4 DUP7 DUP5 PUSH2 0x2367 JUMP JUMPDEST SWAP7 SWAP6 POP POP POP POP POP POP JUMP JUMPDEST PUSH1 0x40 DUP1 MLOAD DUP1 DUP3 ADD SWAP1 SWAP2 MSTORE PUSH1 0x60 DUP2 MSTORE PUSH1 0x0 PUSH1 0x20 DUP3 ADD MSTORE PUSH2 0x21EE PUSH1 0x20 DUP4 PUSH2 0x2E94 JUMP JUMPDEST ISZERO PUSH2 0x2216 JUMPI PUSH2 0x21FE PUSH1 0x20 DUP4 PUSH2 0x2E94 JUMP JUMPDEST PUSH2 0x2209 SWAP1 PUSH1 0x20 PUSH2 0x2EB6 JUMP JUMPDEST PUSH2 0x2213 SWAP1 DUP4 PUSH2 0x2E2C JUMP JUMPDEST SWAP2 POP JUMPDEST POP PUSH1 0x20 DUP3 DUP2 ADD DUP3 SWAP1 MSTORE PUSH1 0x40 DUP1 MLOAD DUP1 DUP6 MSTORE PUSH1 0x0 DUP2 MSTORE SWAP1 SWAP3 ADD ADD SWAP1 MSTORE SWAP1 JUMP JUMPDEST PUSH1 0x17 DUP2 PUSH1 0x1 PUSH1 0x1 PUSH1 0x40 SHL SUB AND GT PUSH2 0x225D JUMPI PUSH2 0x2257 DUP4 PUSH1 0xE0 PUSH1 0x5 DUP6 SWAP1 SHL AND DUP4 OR PUSH2 0x24C5 JUMP JUMPDEST POP POP POP POP JUMP JUMPDEST PUSH1 0xFF DUP2 PUSH1 0x1 PUSH1 0x1 PUSH1 0x40 SHL SUB AND GT PUSH2 0x2299 JUMPI PUSH2 0x2283 DUP4 PUSH1 0x18 PUSH2 0x1FE0 PUSH1 0x5 DUP7 SWAP1 SHL AND OR PUSH2 0x24C5 JUMP JUMPDEST POP PUSH2 0x2257 DUP4 PUSH1 0x1 PUSH1 0x1 PUSH1 0x40 SHL SUB DUP4 AND PUSH1 0x1 PUSH2 0x24EA JUMP JUMPDEST PUSH2 0xFFFF DUP2 PUSH1 0x1 PUSH1 0x1 PUSH1 0x40 SHL SUB AND GT PUSH2 0x22D6 JUMPI PUSH2 0x22C0 DUP4 PUSH1 0x19 PUSH2 0x1FE0 PUSH1 0x5 DUP7 SWAP1 SHL AND OR PUSH2 0x24C5 JUMP JUMPDEST POP PUSH2 0x2257 DUP4 PUSH1 0x1 PUSH1 0x1 PUSH1 0x40 SHL SUB DUP4 AND PUSH1 0x2 PUSH2 0x24EA JUMP JUMPDEST PUSH4 0xFFFFFFFF DUP2 PUSH1 0x1 PUSH1 0x1 PUSH1 0x40 SHL SUB AND GT PUSH2 0x2315 JUMPI PUSH2 0x22FF DUP4 PUSH1 0x1A PUSH2 0x1FE0 PUSH1 0x5 DUP7 SWAP1 SHL AND OR PUSH2 0x24C5 JUMP JUMPDEST POP PUSH2 0x2257 DUP4 PUSH1 0x1 PUSH1 0x1 PUSH1 0x40 SHL SUB DUP4 AND PUSH1 0x4 PUSH2 0x24EA JUMP JUMPDEST PUSH2 0x232A DUP4 PUSH1 0x1B PUSH2 0x1FE0 PUSH1 0x5 DUP7 SWAP1 SHL AND OR PUSH2 0x24C5 JUMP JUMPDEST POP PUSH2 0x2257 DUP4 PUSH1 0x1 PUSH1 0x1 PUSH1 0x40 SHL SUB DUP4 AND PUSH1 0x8 PUSH2 0x24EA JUMP JUMPDEST PUSH1 0x40 DUP1 MLOAD DUP1 DUP3 ADD SWAP1 SWAP2 MSTORE PUSH1 0x60 DUP2 MSTORE PUSH1 0x0 PUSH1 0x20 DUP3 ADD MSTORE PUSH2 0x20D7 DUP4 DUP5 PUSH1 0x0 ADD MLOAD MLOAD DUP5 DUP6 MLOAD PUSH2 0x2510 JUMP JUMPDEST PUSH1 0x40 MLOAD PUSH12 0xFFFFFFFFFFFFFFFFFFFFFFFF NOT ADDRESS PUSH1 0x60 SHL AND PUSH1 0x20 DUP3 ADD MSTORE PUSH1 0x34 DUP2 ADD DUP5 SWAP1 MSTORE PUSH1 0x0 SWAP1 PUSH1 0x54 ADD PUSH1 0x40 DUP1 MLOAD DUP1 DUP4 SUB PUSH1 0x1F NOT ADD DUP2 MSTORE DUP3 DUP3 MSTORE DUP1 MLOAD PUSH1 0x20 SWAP2 DUP3 ADD KECCAK256 PUSH1 0x0 DUP2 DUP2 MSTORE PUSH1 0x5 SWAP1 SWAP3 MSTORE SWAP2 DUP2 KECCAK256 DUP1 SLOAD PUSH1 0x1 PUSH1 0x1 PUSH1 0xA0 SHL SUB NOT AND PUSH1 0x1 PUSH1 0x1 PUSH1 0xA0 SHL SUB DUP11 AND OR SWAP1 SSTORE SWAP1 SWAP3 POP DUP3 SWAP2 PUSH32 0xB5E6E01E79F91267DC17B4E6314D5D4D03593D2CEEE0FBB452B750BD70EA5AF9 SWAP2 SWAP1 LOG2 PUSH1 0x2 SLOAD PUSH1 0x40 MLOAD PUSH4 0x2000575 PUSH1 0xE5 SHL DUP2 MSTORE PUSH1 0x1 PUSH1 0x1 PUSH1 0xA0 SHL SUB SWAP1 SWAP2 AND SWAP1 PUSH4 0x4000AEA0 SWAP1 PUSH2 0x242A SWAP1 DUP9 SWAP1 DUP8 SWAP1 DUP8 SWAP1 PUSH1 0x4 ADD PUSH2 0x2EC9 JUMP JUMPDEST PUSH1 0x20 PUSH1 0x40 MLOAD DUP1 DUP4 SUB DUP2 PUSH1 0x0 DUP8 GAS CALL ISZERO DUP1 ISZERO PUSH2 0x2449 JUMPI RETURNDATASIZE PUSH1 0x0 DUP1 RETURNDATACOPY RETURNDATASIZE PUSH1 0x0 REVERT JUMPDEST POP POP POP POP PUSH1 0x40 MLOAD RETURNDATASIZE PUSH1 0x1F NOT PUSH1 0x1F DUP3 ADD AND DUP3 ADD DUP1 PUSH1 0x40 MSTORE POP DUP2 ADD SWAP1 PUSH2 0x246D SWAP2 SWAP1 PUSH2 0x2EF0 JUMP JUMPDEST PUSH2 0x211E JUMPI PUSH1 0x40 MLOAD PUSH3 0x461BCD PUSH1 0xE5 SHL DUP2 MSTORE PUSH1 0x20 PUSH1 0x4 DUP3 ADD MSTORE PUSH1 0x23 PUSH1 0x24 DUP3 ADD MSTORE PUSH32 0x756E61626C6520746F207472616E73666572416E6443616C6C20746F206F7261 PUSH1 0x44 DUP3 ADD MSTORE PUSH3 0x636C65 PUSH1 0xE8 SHL PUSH1 0x64 DUP3 ADD MSTORE PUSH1 0x84 ADD PUSH2 0xA04 JUMP JUMPDEST PUSH1 0x40 DUP1 MLOAD DUP1 DUP3 ADD SWAP1 SWAP2 MSTORE PUSH1 0x60 DUP2 MSTORE PUSH1 0x0 PUSH1 0x20 DUP3 ADD MSTORE PUSH2 0x20D7 DUP4 DUP5 PUSH1 0x0 ADD MLOAD MLOAD DUP5 PUSH2 0x25FA JUMP JUMPDEST PUSH1 0x40 DUP1 MLOAD DUP1 DUP3 ADD SWAP1 SWAP2 MSTORE PUSH1 0x60 DUP2 MSTORE PUSH1 0x0 PUSH1 0x20 DUP3 ADD MSTORE PUSH2 0x211E DUP5 DUP6 PUSH1 0x0 ADD MLOAD MLOAD DUP6 DUP6 PUSH2 0x2655 JUMP JUMPDEST PUSH1 0x40 DUP1 MLOAD DUP1 DUP3 ADD SWAP1 SWAP2 MSTORE PUSH1 0x60 DUP2 MSTORE PUSH1 0x0 PUSH1 0x20 DUP3 ADD MSTORE DUP3 MLOAD DUP3 GT ISZERO PUSH2 0x2533 JUMPI PUSH1 0x0 DUP1 REVERT JUMPDEST PUSH1 0x20 DUP6 ADD MLOAD PUSH2 0x2542 DUP4 DUP7 PUSH2 0x2E2C JUMP JUMPDEST GT ISZERO PUSH2 0x2575 JUMPI PUSH2 0x2575 DUP6 PUSH2 0x2565 DUP8 PUSH1 0x20 ADD MLOAD DUP8 DUP7 PUSH2 0x2560 SWAP2 SWAP1 PUSH2 0x2E2C JUMP JUMPDEST PUSH2 0x26D6 JUMP JUMPDEST PUSH2 0x2570 SWAP1 PUSH1 0x2 PUSH2 0x2E15 JUMP JUMPDEST PUSH2 0x26E7 JUMP JUMPDEST PUSH1 0x0 DUP1 DUP7 MLOAD DUP1 MLOAD DUP8 PUSH1 0x20 DUP4 ADD ADD SWAP4 POP DUP1 DUP9 DUP8 ADD GT ISZERO PUSH2 0x2594 JUMPI DUP8 DUP7 ADD DUP3 MSTORE JUMPDEST POP POP POP PUSH1 0x20 DUP5 ADD JUMPDEST PUSH1 0x20 DUP5 LT PUSH2 0x25D4 JUMPI DUP1 MLOAD DUP3 MSTORE PUSH2 0x25B3 PUSH1 0x20 DUP4 PUSH2 0x2E2C JUMP JUMPDEST SWAP2 POP PUSH2 0x25C0 PUSH1 0x20 DUP3 PUSH2 0x2E2C JUMP JUMPDEST SWAP1 POP PUSH2 0x25CD PUSH1 0x20 DUP6 PUSH2 0x2EB6 JUMP JUMPDEST SWAP4 POP PUSH2 0x259C JUMP JUMPDEST MLOAD DUP2 MLOAD PUSH1 0x0 NOT PUSH1 0x20 DUP7 SWAP1 SUB PUSH2 0x100 EXP ADD SWAP1 DUP2 AND SWAP1 NOT SWAP2 SWAP1 SWAP2 AND OR SWAP1 MSTORE POP DUP4 SWAP5 SWAP4 POP POP POP POP JUMP JUMPDEST PUSH1 0x40 DUP1 MLOAD DUP1 DUP3 ADD SWAP1 SWAP2 MSTORE PUSH1 0x60 DUP2 MSTORE PUSH1 0x0 PUSH1 0x20 DUP3 ADD MSTORE DUP4 PUSH1 0x20 ADD MLOAD DUP4 LT PUSH2 0x262F JUMPI PUSH2 0x262F DUP5 DUP6 PUSH1 0x20 ADD MLOAD PUSH1 0x2 PUSH2 0x2570 SWAP2 SWAP1 PUSH2 0x2E15 JUMP JUMPDEST DUP4 MLOAD DUP1 MLOAD PUSH1 0x20 DUP6 DUP4 ADD ADD DUP5 DUP2 MSTORE8 POP DUP1 DUP6 SUB PUSH2 0x264B JUMPI PUSH1 0x1 DUP2 ADD DUP3 MSTORE JUMPDEST POP SWAP4 SWAP5 SWAP4 POP POP POP POP JUMP JUMPDEST PUSH1 0x40 DUP1 MLOAD DUP1 DUP3 ADD SWAP1 SWAP2 MSTORE PUSH1 0x60 DUP2 MSTORE PUSH1 0x0 PUSH1 0x20 DUP3 ADD MSTORE PUSH1 0x20 DUP6 ADD MLOAD PUSH2 0x2679 DUP6 DUP5 PUSH2 0x2E2C JUMP JUMPDEST GT ISZERO PUSH2 0x268D JUMPI PUSH2 0x268D DUP6 PUSH2 0x2565 DUP7 DUP6 PUSH2 0x2E2C JUMP JUMPDEST PUSH1 0x0 PUSH1 0x1 PUSH2 0x269D DUP5 PUSH2 0x100 PUSH2 0x2FFD JUMP JUMPDEST PUSH2 0x26A7 SWAP2 SWAP1 PUSH2 0x2EB6 JUMP JUMPDEST SWAP1 POP DUP6 MLOAD DUP4 DUP7 DUP3 ADD ADD DUP6 DUP4 NOT DUP3 MLOAD AND OR DUP2 MSTORE POP DUP1 MLOAD DUP5 DUP8 ADD GT ISZERO PUSH2 0x26CB JUMPI DUP4 DUP7 ADD DUP2 MSTORE JUMPDEST POP SWAP5 SWAP6 SWAP5 POP POP POP POP POP JUMP JUMPDEST PUSH1 0x0 DUP2 DUP4 GT ISZERO PUSH2 0x1AEB JUMPI POP DUP2 PUSH2 0x20DA JUMP JUMPDEST DUP2 MLOAD PUSH2 0x26F3 DUP4 DUP4 PUSH2 0x21CE JUMP JUMPDEST POP PUSH2 0x2257 DUP4 DUP3 PUSH2 0x2340 JUMP JUMPDEST PUSH1 0x40 MLOAD DUP1 PUSH2 0x1C0 ADD PUSH1 0x40 MSTORE DUP1 PUSH1 0x0 DUP2 MSTORE PUSH1 0x20 ADD PUSH1 0x0 DUP2 MSTORE PUSH1 0x20 ADD PUSH1 0x0 DUP2 MSTORE PUSH1 0x20 ADD PUSH1 0x60 DUP2 MSTORE PUSH1 0x20 ADD PUSH1 0x60 DUP2 MSTORE PUSH1 0x20 ADD PUSH1 0x60 DUP2 MSTORE PUSH1 0x20 ADD PUSH1 0x60 DUP2 MSTORE PUSH1 0x20 ADD PUSH1 0x0 DUP2 MSTORE PUSH1 0x20 ADD PUSH1 0x0 PUSH1 0x1 PUSH1 0x1 PUSH1 0xA0 SHL SUB AND DUP2 MSTORE PUSH1 0x20 ADD PUSH1 0x0 PUSH1 0x1 PUSH1 0x1 PUSH1 0xA0 SHL SUB AND DUP2 MSTORE PUSH1 0x20 ADD PUSH1 0x0 PUSH1 0x1 PUSH1 0x1 PUSH1 0xA0 SHL SUB AND DUP2 MSTORE PUSH1 0x20 ADD PUSH1 0x0 ISZERO ISZERO DUP2 MSTORE PUSH1 0x20 ADD PUSH1 0x0 ISZERO ISZERO DUP2 MSTORE PUSH1 0x20 ADD PUSH1 0x60 DUP2 MSTORE POP SWAP1 JUMP JUMPDEST PUSH1 0x40 DUP1 MLOAD PUSH1 0xA0 DUP2 ADD DUP3 MSTORE PUSH1 0x0 DUP1 DUP3 MSTORE PUSH1 0x20 DUP1 DUP4 ADD DUP3 SWAP1 MSTORE DUP3 DUP5 ADD DUP3 SWAP1 MSTORE PUSH1 0x60 DUP1 DUP5 ADD DUP4 SWAP1 MSTORE DUP5 MLOAD DUP1 DUP7 ADD SWAP1 SWAP6 MSTORE DUP5 MSTORE DUP4 ADD MSTORE SWAP1 PUSH1 0x80 DUP3 ADD MSTORE SWAP1 JUMP JUMPDEST PUSH1 0x0 DUP2 MLOAD DUP1 DUP5 MSTORE PUSH1 0x0 JUMPDEST DUP2 DUP2 LT ISZERO PUSH2 0x27ED JUMPI PUSH1 0x20 DUP2 DUP6 ADD DUP2 ADD MLOAD DUP7 DUP4 ADD DUP3 ADD MSTORE ADD PUSH2 0x27D1 JUMP JUMPDEST POP PUSH1 0x0 PUSH1 0x20 DUP3 DUP7 ADD ADD MSTORE PUSH1 0x20 PUSH1 0x1F NOT PUSH1 0x1F DUP4 ADD AND DUP6 ADD ADD SWAP2 POP POP SWAP3 SWAP2 POP POP JUMP JUMPDEST PUSH1 0x0 PUSH1 0x20 DUP1 DUP4 ADD DUP2 DUP5 MSTORE DUP1 DUP6 MLOAD DUP1 DUP4 MSTORE PUSH1 0x40 SWAP3 POP DUP3 DUP7 ADD SWAP2 POP DUP3 DUP2 PUSH1 0x5 SHL DUP8 ADD ADD DUP5 DUP9 ADD PUSH1 0x0 JUMPDEST DUP4 DUP2 LT ISZERO PUSH2 0x2962 JUMPI PUSH1 0x3F NOT DUP10 DUP5 SUB ADD DUP6 MSTORE DUP2 MLOAD PUSH2 0x1C0 DUP2 MLOAD DUP6 MSTORE DUP9 DUP3 ADD MLOAD DUP10 DUP7 ADD MSTORE DUP8 DUP3 ADD MLOAD DUP9 DUP7 ADD MSTORE PUSH1 0x60 DUP1 DUP4 ADD MLOAD DUP3 DUP3 DUP9 ADD MSTORE PUSH2 0x2875 DUP4 DUP9 ADD DUP3 PUSH2 0x27C7 JUMP JUMPDEST SWAP3 POP POP POP PUSH1 0x80 DUP1 DUP4 ADD MLOAD DUP7 DUP4 SUB DUP3 DUP9 ADD MSTORE PUSH2 0x2890 DUP4 DUP3 PUSH2 0x27C7 JUMP JUMPDEST SWAP3 POP POP POP PUSH1 0xA0 DUP1 DUP4 ADD MLOAD DUP7 DUP4 SUB DUP3 DUP9 ADD MSTORE PUSH2 0x28AB DUP4 DUP3 PUSH2 0x27C7 JUMP JUMPDEST SWAP3 POP POP POP PUSH1 0xC0 DUP1 DUP4 ADD MLOAD DUP7 DUP4 SUB DUP3 DUP9 ADD MSTORE PUSH2 0x28C6 DUP4 DUP3 PUSH2 0x27C7 JUMP JUMPDEST SWAP3 POP POP POP PUSH1 0xE0 DUP1 DUP4 ADD MLOAD DUP2 DUP8 ADD MSTORE POP PUSH2 0x100 DUP1 DUP4 ADD MLOAD PUSH2 0x28F0 DUP3 DUP9 ADD DUP3 PUSH1 0x1 PUSH1 0x1 PUSH1 0xA0 SHL SUB AND SWAP1 MSTORE JUMP JUMPDEST POP POP PUSH2 0x120 DUP3 DUP2 ADD MLOAD PUSH1 0x1 PUSH1 0x1 PUSH1 0xA0 SHL SUB SWAP1 DUP2 AND SWAP2 DUP8 ADD SWAP2 SWAP1 SWAP2 MSTORE PUSH2 0x140 DUP1 DUP5 ADD MLOAD SWAP1 SWAP2 AND SWAP1 DUP7 ADD MSTORE PUSH2 0x160 DUP1 DUP4 ADD MLOAD ISZERO ISZERO SWAP1 DUP7 ADD MSTORE PUSH2 0x180 DUP1 DUP4 ADD MLOAD ISZERO ISZERO SWAP1 DUP7 ADD MSTORE PUSH2 0x1A0 SWAP2 DUP3 ADD MLOAD DUP6 DUP3 SUB SWAP3 DUP7 ADD SWAP3 SWAP1 SWAP3 MSTORE PUSH2 0x294E DUP2 DUP4 PUSH2 0x27C7 JUMP JUMPDEST SWAP7 DUP10 ADD SWAP7 SWAP5 POP POP POP SWAP1 DUP7 ADD SWAP1 PUSH1 0x1 ADD PUSH2 0x2834 JUMP JUMPDEST POP SWAP1 SWAP9 SWAP8 POP POP POP POP POP POP POP POP JUMP JUMPDEST PUSH1 0x0 PUSH1 0x20 DUP3 DUP5 SUB SLT ISZERO PUSH2 0x2982 JUMPI PUSH1 0x0 DUP1 REVERT JUMPDEST POP CALLDATALOAD SWAP2 SWAP1 POP JUMP JUMPDEST DUP15 DUP2 MSTORE DUP14 PUSH1 0x20 DUP3 ADD MSTORE DUP13 PUSH1 0x40 DUP3 ADD MSTORE PUSH2 0x1C0 PUSH1 0x60 DUP3 ADD MSTORE PUSH1 0x0 PUSH2 0x29B0 PUSH2 0x1C0 DUP4 ADD DUP15 PUSH2 0x27C7 JUMP JUMPDEST DUP3 DUP2 SUB PUSH1 0x80 DUP5 ADD MSTORE PUSH2 0x29C2 DUP2 DUP15 PUSH2 0x27C7 JUMP JUMPDEST SWAP1 POP DUP3 DUP2 SUB PUSH1 0xA0 DUP5 ADD MSTORE PUSH2 0x29D6 DUP2 DUP14 PUSH2 0x27C7 JUMP JUMPDEST SWAP1 POP DUP3 DUP2 SUB PUSH1 0xC0 DUP5 ADD MSTORE PUSH2 0x29EA DUP2 DUP13 PUSH2 0x27C7 JUMP JUMPDEST SWAP1 POP DUP10 PUSH1 0xE0 DUP5 ADD MSTORE PUSH2 0x2A08 PUSH2 0x100 DUP5 ADD DUP11 PUSH1 0x1 PUSH1 0x1 PUSH1 0xA0 SHL SUB AND SWAP1 MSTORE JUMP JUMPDEST PUSH1 0x1 PUSH1 0x1 PUSH1 0xA0 SHL SUB DUP9 AND PUSH2 0x120 DUP5 ADD MSTORE PUSH1 0x1 PUSH1 0x1 PUSH1 0xA0 SHL SUB DUP8 AND PUSH2 0x140 DUP5 ADD MSTORE DUP6 ISZERO ISZERO PUSH2 0x160 DUP5 ADD MSTORE DUP5 ISZERO ISZERO PUSH2 0x180 DUP5 ADD MSTORE DUP3 DUP2 SUB PUSH2 0x1A0 DUP5 ADD MSTORE PUSH2 0x2A4D DUP2 DUP6 PUSH2 0x27C7 JUMP JUMPDEST SWAP2 POP POP SWAP16 SWAP15 POP POP POP POP POP POP POP POP POP POP POP POP POP POP POP JUMP JUMPDEST PUSH4 0x4E487B71 PUSH1 0xE0 SHL PUSH1 0x0 MSTORE PUSH1 0x41 PUSH1 0x4 MSTORE PUSH1 0x24 PUSH1 0x0 REVERT JUMPDEST PUSH1 0x0 DUP3 PUSH1 0x1F DUP4 ADD SLT PUSH2 0x2A8A JUMPI PUSH1 0x0 DUP1 REVERT JUMPDEST DUP2 CALLDATALOAD PUSH1 0x1 PUSH1 0x1 PUSH1 0x40 SHL SUB DUP1 DUP3 GT ISZERO PUSH2 0x2AA4 JUMPI PUSH2 0x2AA4 PUSH2 0x2A63 JUMP JUMPDEST PUSH1 0x40 MLOAD PUSH1 0x1F DUP4 ADD PUSH1 0x1F NOT SWAP1 DUP2 AND PUSH1 0x3F ADD AND DUP2 ADD SWAP1 DUP3 DUP3 GT DUP2 DUP4 LT OR ISZERO PUSH2 0x2ACC JUMPI PUSH2 0x2ACC PUSH2 0x2A63 JUMP JUMPDEST DUP2 PUSH1 0x40 MSTORE DUP4 DUP2 MSTORE DUP7 PUSH1 0x20 DUP6 DUP9 ADD ADD GT ISZERO PUSH2 0x2AE5 JUMPI PUSH1 0x0 DUP1 REVERT JUMPDEST DUP4 PUSH1 0x20 DUP8 ADD PUSH1 0x20 DUP4 ADD CALLDATACOPY PUSH1 0x0 PUSH1 0x20 DUP6 DUP4 ADD ADD MSTORE DUP1 SWAP5 POP POP POP POP POP SWAP3 SWAP2 POP POP JUMP JUMPDEST PUSH1 0x0 DUP1 PUSH1 0x0 DUP1 PUSH1 0x0 DUP1 PUSH1 0x0 PUSH1 0xE0 DUP9 DUP11 SUB SLT ISZERO PUSH2 0x2B20 JUMPI PUSH1 0x0 DUP1 REVERT JUMPDEST DUP8 CALLDATALOAD SWAP7 POP PUSH1 0x20 DUP9 ADD CALLDATALOAD SWAP6 POP PUSH1 0x40 DUP9 ADD CALLDATALOAD PUSH1 0x1 PUSH1 0x1 PUSH1 0x40 SHL SUB DUP1 DUP3 GT ISZERO PUSH2 0x2B45 JUMPI PUSH1 0x0 DUP1 REVERT JUMPDEST PUSH2 0x2B51 DUP12 DUP4 DUP13 ADD PUSH2 0x2A79 JUMP JUMPDEST SWAP7 POP PUSH1 0x60 DUP11 ADD CALLDATALOAD SWAP2 POP DUP1 DUP3 GT ISZERO PUSH2 0x2B67 JUMPI PUSH1 0x0 DUP1 REVERT JUMPDEST PUSH2 0x2B73 DUP12 DUP4 DUP13 ADD PUSH2 0x2A79 JUMP JUMPDEST SWAP6 POP PUSH1 0x80 DUP11 ADD CALLDATALOAD SWAP2 POP DUP1 DUP3 GT ISZERO PUSH2 0x2B89 JUMPI PUSH1 0x0 DUP1 REVERT JUMPDEST PUSH2 0x2B95 DUP12 DUP4 DUP13 ADD PUSH2 0x2A79 JUMP JUMPDEST SWAP5 POP PUSH1 0xA0 DUP11 ADD CALLDATALOAD SWAP4 POP PUSH1 0xC0 DUP11 ADD CALLDATALOAD SWAP2 POP DUP1 DUP3 GT ISZERO PUSH2 0x2BB2 JUMPI PUSH1 0x0 DUP1 REVERT JUMPDEST POP PUSH2 0x2BBF DUP11 DUP3 DUP12 ADD PUSH2 0x2A79 JUMP JUMPDEST SWAP2 POP POP SWAP3 SWAP6 SWAP9 SWAP2 SWAP5 SWAP8 POP SWAP3 SWAP6 POP JUMP JUMPDEST PUSH1 0x0 DUP1 PUSH1 0x0 DUP1 PUSH1 0x0 PUSH1 0xA0 DUP7 DUP9 SUB SLT ISZERO PUSH2 0x2BE6 JUMPI PUSH1 0x0 DUP1 REVERT JUMPDEST POP POP DUP4 CALLDATALOAD SWAP6 PUSH1 0x20 DUP6 ADD CALLDATALOAD SWAP6 POP PUSH1 0x40 DUP6 ADD CALLDATALOAD SWAP5 PUSH1 0x60 DUP2 ADD CALLDATALOAD SWAP5 POP PUSH1 0x80 ADD CALLDATALOAD SWAP3 POP SWAP1 POP JUMP JUMPDEST PUSH1 0x20 DUP2 MSTORE PUSH1 0x0 PUSH2 0x20D7 PUSH1 0x20 DUP4 ADD DUP5 PUSH2 0x27C7 JUMP JUMPDEST PUSH4 0x4E487B71 PUSH1 0xE0 SHL PUSH1 0x0 MSTORE PUSH1 0x32 PUSH1 0x4 MSTORE PUSH1 0x24 PUSH1 0x0 REVERT JUMPDEST PUSH1 0x1 DUP2 DUP2 SHR SWAP1 DUP3 AND DUP1 PUSH2 0x2C46 JUMPI PUSH1 0x7F DUP3 AND SWAP2 POP JUMPDEST PUSH1 0x20 DUP3 LT DUP2 SUB PUSH2 0x1AEB JUMPI PUSH4 0x4E487B71 PUSH1 0xE0 SHL PUSH1 0x0 MSTORE PUSH1 0x22 PUSH1 0x4 MSTORE PUSH1 0x24 PUSH1 0x0 REVERT JUMPDEST PUSH4 0x4E487B71 PUSH1 0xE0 SHL PUSH1 0x0 MSTORE PUSH1 0x11 PUSH1 0x4 MSTORE PUSH1 0x24 PUSH1 0x0 REVERT JUMPDEST PUSH1 0x0 PUSH1 0x1 DUP3 ADD PUSH2 0x2C8E JUMPI PUSH2 0x2C8E PUSH2 0x2C66 JUMP JUMPDEST POP PUSH1 0x1 ADD SWAP1 JUMP JUMPDEST PUSH1 0x20 DUP1 DUP3 MSTORE PUSH1 0x25 SWAP1 DUP3 ADD MSTORE PUSH32 0x596F752073686F756C642070726F76696465207072696365206173206D73672E PUSH1 0x40 DUP3 ADD MSTORE PUSH5 0x76616C7565 PUSH1 0xD8 SHL PUSH1 0x60 DUP3 ADD MSTORE PUSH1 0x80 ADD SWAP1 JUMP JUMPDEST PUSH1 0x1F DUP3 GT ISZERO PUSH2 0x20B8 JUMPI PUSH1 0x0 DUP2 DUP2 MSTORE PUSH1 0x20 DUP2 KECCAK256 PUSH1 0x1F DUP6 ADD PUSH1 0x5 SHR DUP2 ADD PUSH1 0x20 DUP7 LT ISZERO PUSH2 0x2D01 JUMPI POP DUP1 JUMPDEST PUSH1 0x1F DUP6 ADD PUSH1 0x5 SHR DUP3 ADD SWAP2 POP JUMPDEST DUP2 DUP2 LT ISZERO PUSH2 0x2D20 JUMPI DUP3 DUP2 SSTORE PUSH1 0x1 ADD PUSH2 0x2D0D JUMP JUMPDEST POP POP POP POP POP POP JUMP JUMPDEST DUP2 MLOAD PUSH1 0x1 PUSH1 0x1 PUSH1 0x40 SHL SUB DUP2 GT ISZERO PUSH2 0x2D41 JUMPI PUSH2 0x2D41 PUSH2 0x2A63 JUMP JUMPDEST PUSH2 0x2D55 DUP2 PUSH2 0x2D4F DUP5 SLOAD PUSH2 0x2C32 JUMP JUMPDEST DUP5 PUSH2 0x2CDA JUMP JUMPDEST PUSH1 0x20 DUP1 PUSH1 0x1F DUP4 GT PUSH1 0x1 DUP2 EQ PUSH2 0x2D8A JUMPI PUSH1 0x0 DUP5 ISZERO PUSH2 0x2D72 JUMPI POP DUP6 DUP4 ADD MLOAD JUMPDEST PUSH1 0x0 NOT PUSH1 0x3 DUP7 SWAP1 SHL SHR NOT AND PUSH1 0x1 DUP6 SWAP1 SHL OR DUP6 SSTORE PUSH2 0x2D20 JUMP JUMPDEST PUSH1 0x0 DUP6 DUP2 MSTORE PUSH1 0x20 DUP2 KECCAK256 PUSH1 0x1F NOT DUP7 AND SWAP2 JUMPDEST DUP3 DUP2 LT ISZERO PUSH2 0x2DB9 JUMPI DUP9 DUP7 ADD MLOAD DUP3 SSTORE SWAP5 DUP5 ADD SWAP5 PUSH1 0x1 SWAP1 SWAP2 ADD SWAP1 DUP5 ADD PUSH2 0x2D9A JUMP JUMPDEST POP DUP6 DUP3 LT ISZERO PUSH2 0x2DD7 JUMPI DUP8 DUP6 ADD MLOAD PUSH1 0x0 NOT PUSH1 0x3 DUP9 SWAP1 SHL PUSH1 0xF8 AND SHR NOT AND DUP2 SSTORE JUMPDEST POP POP POP POP POP PUSH1 0x1 SWAP1 DUP2 SHL ADD SWAP1 SSTORE POP JUMP JUMPDEST PUSH1 0x20 DUP1 DUP3 MSTORE PUSH1 0x14 SWAP1 DUP3 ADD MSTORE PUSH20 0x10995D081A5CC81B9BDD081C1D589B1A5CDA1959 PUSH1 0x62 SHL PUSH1 0x40 DUP3 ADD MSTORE PUSH1 0x60 ADD SWAP1 JUMP JUMPDEST DUP1 DUP3 MUL DUP2 ISZERO DUP3 DUP3 DIV DUP5 EQ OR PUSH2 0x20DA JUMPI PUSH2 0x20DA PUSH2 0x2C66 JUMP JUMPDEST DUP1 DUP3 ADD DUP1 DUP3 GT ISZERO PUSH2 0x20DA JUMPI PUSH2 0x20DA PUSH2 0x2C66 JUMP JUMPDEST PUSH1 0x1 DUP1 PUSH1 0xA0 SHL SUB DUP9 AND DUP2 MSTORE DUP7 PUSH1 0x20 DUP3 ADD MSTORE DUP6 PUSH1 0x40 DUP3 ADD MSTORE PUSH4 0xFFFFFFFF PUSH1 0xE0 SHL DUP6 AND PUSH1 0x60 DUP3 ADD MSTORE DUP4 PUSH1 0x80 DUP3 ADD MSTORE DUP3 PUSH1 0xA0 DUP3 ADD MSTORE PUSH1 0xE0 PUSH1 0xC0 DUP3 ADD MSTORE PUSH1 0x0 PUSH2 0x2E87 PUSH1 0xE0 DUP4 ADD DUP5 PUSH2 0x27C7 JUMP JUMPDEST SWAP10 SWAP9 POP POP POP POP POP POP POP POP POP JUMP JUMPDEST PUSH1 0x0 DUP3 PUSH2 0x2EB1 JUMPI PUSH4 0x4E487B71 PUSH1 0xE0 SHL PUSH1 0x0 MSTORE PUSH1 0x12 PUSH1 0x4 MSTORE PUSH1 0x24 PUSH1 0x0 REVERT JUMPDEST POP MOD SWAP1 JUMP JUMPDEST DUP2 DUP2 SUB DUP2 DUP2 GT ISZERO PUSH2 0x20DA JUMPI PUSH2 0x20DA PUSH2 0x2C66 JUMP JUMPDEST PUSH1 0x1 DUP1 PUSH1 0xA0 SHL SUB DUP5 AND DUP2 MSTORE DUP3 PUSH1 0x20 DUP3 ADD MSTORE PUSH1 0x60 PUSH1 0x40 DUP3 ADD MSTORE PUSH1 0x0 PUSH2 0x2091 PUSH1 0x60 DUP4 ADD DUP5 PUSH2 0x27C7 JUMP JUMPDEST PUSH1 0x0 PUSH1 0x20 DUP3 DUP5 SUB SLT ISZERO PUSH2 0x2F02 JUMPI PUSH1 0x0 DUP1 REVERT JUMPDEST DUP2 MLOAD DUP1 ISZERO ISZERO DUP2 EQ PUSH2 0x2F12 JUMPI PUSH1 0x0 DUP1 REVERT JUMPDEST SWAP4 SWAP3 POP POP POP JUMP JUMPDEST PUSH1 0x1 DUP2 DUP2 JUMPDEST DUP1 DUP6 GT ISZERO PUSH2 0x2F54 JUMPI DUP2 PUSH1 0x0 NOT DIV DUP3 GT ISZERO PUSH2 0x2F3A JUMPI PUSH2 0x2F3A PUSH2 0x2C66 JUMP JUMPDEST DUP1 DUP6 AND ISZERO PUSH2 0x2F47 JUMPI SWAP2 DUP2 MUL SWAP2 JUMPDEST SWAP4 DUP5 SHR SWAP4 SWAP1 DUP1 MUL SWAP1 PUSH2 0x2F1E JUMP JUMPDEST POP SWAP3 POP SWAP3 SWAP1 POP JUMP JUMPDEST PUSH1 0x0 DUP3 PUSH2 0x2F6B JUMPI POP PUSH1 0x1 PUSH2 0x20DA JUMP JUMPDEST DUP2 PUSH2 0x2F78 JUMPI POP PUSH1 0x0 PUSH2 0x20DA JUMP JUMPDEST DUP2 PUSH1 0x1 DUP2 EQ PUSH2 0x2F8E JUMPI PUSH1 0x2 DUP2 EQ PUSH2 0x2F98 JUMPI PUSH2 0x2FB4 JUMP JUMPDEST PUSH1 0x1 SWAP2 POP POP PUSH2 0x20DA JUMP JUMPDEST PUSH1 0xFF DUP5 GT ISZERO PUSH2 0x2FA9 JUMPI PUSH2 0x2FA9 PUSH2 0x2C66 JUMP JUMPDEST POP POP PUSH1 0x1 DUP3 SHL PUSH2 0x20DA JUMP JUMPDEST POP PUSH1 0x20 DUP4 LT PUSH2 0x133 DUP4 LT AND PUSH1 0x4E DUP5 LT PUSH1 0xB DUP5 LT AND OR ISZERO PUSH2 0x2FD7 JUMPI POP DUP2 DUP2 EXP PUSH2 0x20DA JUMP JUMPDEST PUSH2 0x2FE1 DUP4 DUP4 PUSH2 0x2F19 JUMP JUMPDEST DUP1 PUSH1 0x0 NOT DIV DUP3 GT ISZERO PUSH2 0x2FF5 JUMPI PUSH2 0x2FF5 PUSH2 0x2C66 JUMP JUMPDEST MUL SWAP4 SWAP3 POP POP POP JUMP JUMPDEST PUSH1 0x0 PUSH2 0x20D7 DUP4 DUP4 PUSH2 0x2F5C JUMP INVALID PUSH9 0x747470733A2F2F6170 PUSH10 0x2E73706F727473646174 PUSH2 0x2E69 PUSH16 0x2F76332F6E62612F73636F7265732F6A PUSH20 0x6F6E2F5465616D47616D65537461747342795365 PUSH2 0x736F PUSH15 0x2F323032332F31312F313F6B65793D CALLDATACOPY CALLDATASIZE PUSH4 0x32623536 PUSH2 0x6365 ORIGIN CODESIZE CALLVALUE CALLDATALOAD PUSH4 0x35396538 CALLVALUE PUSH7 0x33306238613838 PUSH2 0x6433 CALLDATASIZE LOG2 PUSH5 0x6970667358 0x22 SLT KECCAK256 0xBE SWAP5 0xBD 0xAC 0xC9 0xC7 0xE2 SWAP15 SMOD SAR DUP16 INVALID 0xAB 0xB5 0xC8 DUP4 0xA7 SWAP14 0xEB 0x5C 0xF6 LOG0 DELEGATECALL ORIGIN 0xED PUSH26 0x9EA6D91D62A264736F6C63430008110033000000000000000000 ",
  "sha1": "f2bd58d91e6cdda49434ae21ad629e78ce58b9d0",
  "source": "// SPDX-License-Identifier: MIT\npragma solidity ^0.8.0;\n\nimport \"@chainlink/contracts/src/v0.8/ChainlinkClient.sol\";\nimport \"@openzeppelin/contracts/security/ReentrancyGuard.sol\";\n\n\ncontract BetContract is ChainlinkClient, ReentrancyGuard {\n\n    \n    uint256 private winning;                        // latest match wining result\n    uint256 private losing;                         // latest match losing result\n    uint256 private currentTeamId;                  // latest match team id\n    uint256 public currentGameId;                   // latest match gameId   \n    uint256 public betCounter;                      // number of all bets\n    bytes32 private externalJobId;\n    uint256 private oraclePayment;\n    using Chainlink for Chainlink.Request;\n\n\n    mapping (uint => Bet) public bets;              // bet id to bet struct\n    mapping (address => uint[]) AddressToBetId;     // mapping from each user address to list of user bets id\n    mapping (uint256 => uint[]) GameIdToBets;          \n\n\n    struct Bet {\n\n        uint id;\n        uint gameId;\n        uint teamId;\n        string teamName;\n        string HomeTeam;\n        string AwayTeam;\n        string DateTime;\n        uint price;\n        address challenger;\n        address accepter;\n        address winner;\n        bool isActive;\n        bool isAccepted;\n        string status;\n    }\n\n\n    event RequestFulfilled(\n\n        bytes32 indexed requestId,\n        uint256 number1,\n        uint256 number2,\n        uint256 gameId,\n        uint256 teamId\n    );\n\n    event BetPublished(\n\n        uint indexed _id,\n        address indexed _challenger,\n        uint256 indexed _price\n    ); \n\n    event BetAccepted(\n\n        uint indexed _id,\n        address indexed _challenger,\n        address indexed _accepter,\n        uint256  _price\n    );\n\n    event BetClosed(\n\n        uint indexed _id,\n        uint indexed amount,\n        address indexed _winner\n        \n    );\n\n \n\n    constructor() {\n        \n        setChainlinkToken(0x326C977E6efc84E512bB9C30f76E30c160eD06FB);\n        setChainlinkOracle(0x7ca7215c6B8013f249A195cc107F97c4e623e5F5);\n        externalJobId = \"00594814638f41c6a9cd1ae3dfa982d6\";\n        oraclePayment = (1 * LINK_DIVISIBILITY) / 10;\n\n    } \n\n\n    // request to oracle and get the latest match result from the api\n    function requestMultiVariable() internal {\n\n        Chainlink.Request memory req = buildChainlinkRequest(externalJobId, address(this), this.fulfillBytesAndUint.selector);\n        req.add(\"get\", \"https://api.sportsdata.io/v3/nba/scores/json/TeamGameStatsBySeason/2023/11/1?key=76c2b56ace2845c59e84f30b8a88ad36\");\n        req.add(\"path1\", \"0,Name\");\n        req.add(\"path2\", \"0,Wins\");\n        req.add(\"path3\", \"0,Losses\");\n        req.add(\"path4\" , \"0,GameID\");\n        req.add(\"path5\", \"0,TeamID\");\n        sendOperatorRequest(req, oraclePayment);\n    }\n\n\n    function fulfillBytesAndUint(bytes32 requestId, uint256 _number1, uint256 _number2, uint256 _gameId, uint256 _TeamId)\n        public recordChainlinkFulfillment(requestId){\n    \n        emit RequestFulfilled(requestId, _number1, _number2, _gameId, _TeamId);\n        winning = _number1;\n        losing = _number2;\n        currentGameId = _gameId;\n        currentTeamId = _TeamId;\n    }\n \n    \n    // find winners and then close bets. this function uses chainlink upkeep\n    function upkeep_setWinner() public payable nonReentrant {\n\n\n        uint256[] memory _betsID = GameIdToBets[currentGameId];\n        uint256 length = _betsID.length;\n\n\n        for(uint i = 0; i < length; i++){\n            \n            uint256 id = _betsID[i];\n            if (bets[id].isActive == true) {\n\n                if (currentTeamId == bets[id].teamId){\n                    \n                    address _to = bets[id].challenger;\n                    bets[id].winner = _to;\n                    bets[id].status = \"Closed\";\n                    bets[id].isActive = false;\n                    \n                    uint256 amount = bets[id].price * 2;\n                    address payable to = payable(_to);\n\n                    to.transfer(amount);\n                    emit BetClosed(id, amount, to);\n\n\n\n                }\n\n                else if(currentTeamId != bets[id].teamId){\n                    \n                    address _to = bets[id].accepter;\n                    bets[id].winner = _to;\n                    bets[id].status = \"Closed\";\n                    bets[id].isActive = false;\n                    \n                    uint256 amount = bets[id].price * 2;\n                    address payable to = payable(_to);\n\n                    to.transfer(amount);\n                    emit BetClosed(id, amount, to);\n\n\n                }\n            }\n        } \n\n        requestMultiVariable();\n    }\n\n\n    // Publish a new bet \n    function publishBet( \n        uint256 _price, uint256 _gameId, string memory _homeTeam, string memory _awayTeam, string memory _dataTime, uint _teamId, string memory _teamName) public payable {\n\n        // publisher should send bet price as msg.value and price should be at least 0.01 Matic\n        require(_price >= 0.001 * 1e18, \"Minimum price is 1 Matic\");\n        require(msg.value >= _price, \"You should provide price as msg.value\");\n        \n        betCounter++;\n        bets[betCounter] = Bet(\n\n            betCounter,\n            _gameId,\n            _teamId,\n            _teamName,\n            _homeTeam,\n            _awayTeam,\n            _dataTime,\n            _price, \n            msg.sender,\n            payable(0x0),\n            payable(0x0),        \n            true,\n            false,\n            \"Published\"\n        );\n\n        AddressToBetId[msg.sender].push(betCounter);\n        emit BetPublished(betCounter, msg.sender, _price);\n    }\n\n\n\n    // accept the specific Bet \n    function acceptBet(uint _id ) public payable nonReentrant {\n\n        Bet storage bet = bets[_id];\n        \n        // the bet sould alive and not closed or accepted before\n        // accepter should send the bet price as msg.value\n        require(bet.isActive == true, \"The bet is not activa\");\n        require(betCounter > 0, \"Bet is not published\");\n        require(_id > 0 && _id <= betCounter, \"Bet is not published\");\n        require(msg.sender != bet.challenger, \"Challenger can not accept the bet\");\n        require(msg.value >= bet.price, \"You should provide price as msg.value\");\n        \n        bet.accepter = msg.sender;\n        bet.isAccepted = true;\n        bet.status = \"Accepted\";\n        AddressToBetId[msg.sender].push(_id);\n        GameIdToBets[bet.gameId].push(_id);\n\n        emit BetAccepted(_id, bet.challenger, bet.accepter, bet.price);\n\n    } \n\n\n\n    // cancel bet from challenger before accept bet\n    function cancelBet(uint _id) public payable {\n\n        Bet storage bet = bets[_id];\n\n        // msg.sender should be challenger\n        require(bet.isActive == true, \"The bet was canceled\");\n        require(betCounter >= _id && _id > 0, \"Bet is not published\");\n        require(msg.sender == bet.challenger, \"Bet challenger can cancel\");\n\n        bet.isActive = false;\n        bet.status = \"Canceled\";\n        uint256 amount = bet.price;\n        address payable to = payable(bet.challenger);\n\n        // send back bet price to challanger\n        bool isSuccess = to.send(amount);\n        require(isSuccess, \"Transaction Failed\");\n        \n    }\n\n\n\n    // return number of all of bets in the contract\n    function getNumberOfBets() public view returns (uint) {\n        return betCounter;\n    }\n\n\n\n    // return number of available Bets\n    function getNumberOfAvailableBets() public view returns(uint) {\n        \n        uint numberOfAvailableBets = 0;\n\n        for(uint i = 1; i <=  betCounter ; i++){\n\n            if(bets[i].isAccepted == false && bets[i].isActive == true) {\n                numberOfAvailableBets++;\n            }\n        }\n\n        return numberOfAvailableBets;\n    }\n\n\n\n    // create the list of available Bets and return it\n    function getAvailableBets() public view returns (Bet[] memory) {\n\n        uint[] memory betIds = new uint[](betCounter);\n        uint numberOfAvailableBets = 0;\n\n        for(uint i = 1; i <=  betCounter ; i++){\n\n            // Keep the ID if the bet is still available\n            if(bets[i].isAccepted == false && bets[i].isActive == true) {\n\n                betIds[numberOfAvailableBets] = bets[i].id;\n                numberOfAvailableBets++;\n            }\n        }\n        \n        Bet[] memory availableBets = new Bet[](numberOfAvailableBets);\n\n        // Copy the betIds array into a smaller availableBets array to get rid of empty indexes\n        for(uint j = 0; j < numberOfAvailableBets; j++) {\n            availableBets[j] = bets[betIds[j]];\n        }\n\n        return availableBets; \n    }   \n\n\n\n    // returns the list of msg.seder bets\n    function getUserBets() public view returns(Bet[] memory) {\n\n        uint size = AddressToBetId[msg.sender].length;\n        Bet[] memory userBets = new Bet[](size);\n\n        for(uint i = 0; i < size; i++) {\n\n            uint index = AddressToBetId[msg.sender][i];\n            userBets[i] = bets[index]; \n        }\n\n        return userBets;\n    }\n\n\n\n    // set and return the winner condition team for accepter\n    function getAcceptWinnerTeamName(uint id) public view returns(string memory) {\n\n        Bet memory betPosition = bets[id];\n        string memory team = betPosition.teamName;\n\n        if (keccak256(bytes(team)) == keccak256(bytes(betPosition.HomeTeam))){\n\n            return betPosition.AwayTeam;\n        }\n\n        else {\n\n            return betPosition.HomeTeam;\n        }\n\n    }\n\n\n\n}",
  "sourcePath": "contracts/BetContract.sol",
  "type": "contract"
}