{
	"abi": [
		{
			"inputs": [],
			"stateMutability": "nonpayable",
			"type": "constructor"
		},
		{
			"anonymous": false,
			"inputs": [
				{
					"indexed": true,
					"internalType": "bytes32",
					"name": "id",
					"type": "bytes32"
				}
			],
			"name": "ChainlinkCancelled",
			"type": "event"
		},
		{
			"anonymous": false,
			"inputs": [
				{
					"indexed": true,
					"internalType": "bytes32",
					"name": "id",
					"type": "bytes32"
				}
			],
			"name": "ChainlinkFulfilled",
			"type": "event"
		},
		{
			"anonymous": false,
			"inputs": [
				{
					"indexed": true,
					"internalType": "bytes32",
					"name": "id",
					"type": "bytes32"
				}
			],
			"name": "ChainlinkRequested",
			"type": "event"
		},
		{
			"anonymous": false,
			"inputs": [
				{
					"indexed": true,
					"internalType": "uint256",
					"name": "_id",
					"type": "uint256"
				},
				{
					"indexed": true,
					"internalType": "address",
					"name": "_challenger",
					"type": "address"
				},
				{
					"indexed": true,
					"internalType": "address",
					"name": "_accepter",
					"type": "address"
				},
				{
					"indexed": false,
					"internalType": "uint256",
					"name": "_price",
					"type": "uint256"
				}
			],
			"name": "LogAcceptBet",
			"type": "event"
		},
		{
			"anonymous": false,
			"inputs": [
				{
					"indexed": true,
					"internalType": "uint256",
					"name": "_id",
					"type": "uint256"
				},
				{
					"indexed": true,
					"internalType": "address",
					"name": "_challenger",
					"type": "address"
				},
				{
					"indexed": true,
					"internalType": "uint256",
					"name": "_price",
					"type": "uint256"
				}
			],
			"name": "LogPublishBet",
			"type": "event"
		},
		{
			"anonymous": false,
			"inputs": [
				{
					"indexed": true,
					"internalType": "uint256",
					"name": "_id",
					"type": "uint256"
				},
				{
					"indexed": true,
					"internalType": "address",
					"name": "_challenger",
					"type": "address"
				},
				{
					"indexed": true,
					"internalType": "address",
					"name": "_accepter",
					"type": "address"
				},
				{
					"indexed": false,
					"internalType": "uint256",
					"name": "_payout",
					"type": "uint256"
				}
			],
			"name": "LogResolveBet",
			"type": "event"
		},
		{
			"anonymous": false,
			"inputs": [
				{
					"indexed": true,
					"internalType": "bytes32",
					"name": "requestId",
					"type": "bytes32"
				},
				{
					"indexed": false,
					"internalType": "uint256",
					"name": "number1",
					"type": "uint256"
				},
				{
					"indexed": false,
					"internalType": "uint256",
					"name": "number2",
					"type": "uint256"
				},
				{
					"indexed": false,
					"internalType": "uint256",
					"name": "gameId",
					"type": "uint256"
				},
				{
					"indexed": false,
					"internalType": "uint256",
					"name": "teamId",
					"type": "uint256"
				}
			],
			"name": "RequestFulfilled",
			"type": "event"
		},
		{
			"anonymous": false,
			"inputs": [
				{
					"indexed": false,
					"internalType": "uint256",
					"name": "number1",
					"type": "uint256"
				},
				{
					"indexed": false,
					"internalType": "uint256",
					"name": "number2",
					"type": "uint256"
				}
			],
			"name": "logNumber",
			"type": "event"
		},
		{
			"inputs": [
				{
					"internalType": "uint256",
					"name": "_id",
					"type": "uint256"
				}
			],
			"name": "acceptBet",
			"outputs": [],
			"stateMutability": "payable",
			"type": "function"
		},
		{
			"inputs": [],
			"name": "betCounter",
			"outputs": [
				{
					"internalType": "uint256",
					"name": "",
					"type": "uint256"
				}
			],
			"stateMutability": "view",
			"type": "function"
		},
		{
			"inputs": [
				{
					"internalType": "uint256",
					"name": "",
					"type": "uint256"
				}
			],
			"name": "bets",
			"outputs": [
				{
					"internalType": "uint256",
					"name": "id",
					"type": "uint256"
				},
				{
					"internalType": "uint256",
					"name": "gameId",
					"type": "uint256"
				},
				{
					"internalType": "uint256",
					"name": "teamId",
					"type": "uint256"
				},
				{
					"internalType": "string",
					"name": "teamName",
					"type": "string"
				},
				{
					"internalType": "string",
					"name": "HomeTeam",
					"type": "string"
				},
				{
					"internalType": "string",
					"name": "AwayTeam",
					"type": "string"
				},
				{
					"internalType": "string",
					"name": "DateTime",
					"type": "string"
				},
				{
					"internalType": "uint256",
					"name": "price",
					"type": "uint256"
				},
				{
					"internalType": "address",
					"name": "challenger",
					"type": "address"
				},
				{
					"internalType": "address",
					"name": "accepter",
					"type": "address"
				},
				{
					"internalType": "address",
					"name": "winner",
					"type": "address"
				},
				{
					"internalType": "bool",
					"name": "isAlive",
					"type": "bool"
				},
				{
					"internalType": "bool",
					"name": "isAccepted",
					"type": "bool"
				},
				{
					"internalType": "string",
					"name": "status",
					"type": "string"
				}
			],
			"stateMutability": "view",
			"type": "function"
		},
		{
			"inputs": [
				{
					"internalType": "uint256",
					"name": "_id",
					"type": "uint256"
				}
			],
			"name": "cancelBet",
			"outputs": [],
			"stateMutability": "payable",
			"type": "function"
		},
		{
			"inputs": [],
			"name": "currentGameId",
			"outputs": [
				{
					"internalType": "uint256",
					"name": "",
					"type": "uint256"
				}
			],
			"stateMutability": "view",
			"type": "function"
		},
		{
			"inputs": [],
			"name": "currentTeamId",
			"outputs": [
				{
					"internalType": "uint256",
					"name": "",
					"type": "uint256"
				}
			],
			"stateMutability": "view",
			"type": "function"
		},
		{
			"inputs": [
				{
					"internalType": "bytes32",
					"name": "requestId",
					"type": "bytes32"
				},
				{
					"internalType": "uint256",
					"name": "_number1",
					"type": "uint256"
				},
				{
					"internalType": "uint256",
					"name": "_number2",
					"type": "uint256"
				},
				{
					"internalType": "uint256",
					"name": "_gameId",
					"type": "uint256"
				},
				{
					"internalType": "uint256",
					"name": "_TeamId",
					"type": "uint256"
				}
			],
			"name": "fulfillBytesAndUint",
			"outputs": [],
			"stateMutability": "nonpayable",
			"type": "function"
		},
		{
			"inputs": [
				{
					"internalType": "uint256",
					"name": "id",
					"type": "uint256"
				}
			],
			"name": "getAcceptWinnerTeamName",
			"outputs": [
				{
					"internalType": "string",
					"name": "",
					"type": "string"
				}
			],
			"stateMutability": "view",
			"type": "function"
		},
		{
			"inputs": [],
			"name": "getAvailableBets",
			"outputs": [
				{
					"components": [
						{
							"internalType": "uint256",
							"name": "id",
							"type": "uint256"
						},
						{
							"internalType": "uint256",
							"name": "gameId",
							"type": "uint256"
						},
						{
							"internalType": "uint256",
							"name": "teamId",
							"type": "uint256"
						},
						{
							"internalType": "string",
							"name": "teamName",
							"type": "string"
						},
						{
							"internalType": "string",
							"name": "HomeTeam",
							"type": "string"
						},
						{
							"internalType": "string",
							"name": "AwayTeam",
							"type": "string"
						},
						{
							"internalType": "string",
							"name": "DateTime",
							"type": "string"
						},
						{
							"internalType": "uint256",
							"name": "price",
							"type": "uint256"
						},
						{
							"internalType": "address",
							"name": "challenger",
							"type": "address"
						},
						{
							"internalType": "address",
							"name": "accepter",
							"type": "address"
						},
						{
							"internalType": "address",
							"name": "winner",
							"type": "address"
						},
						{
							"internalType": "bool",
							"name": "isAlive",
							"type": "bool"
						},
						{
							"internalType": "bool",
							"name": "isAccepted",
							"type": "bool"
						},
						{
							"internalType": "string",
							"name": "status",
							"type": "string"
						}
					],
					"internalType": "struct BetContract.Bet[]",
					"name": "",
					"type": "tuple[]"
				}
			],
			"stateMutability": "view",
			"type": "function"
		},
		{
			"inputs": [],
			"name": "getNumberOfAvailableBets",
			"outputs": [
				{
					"internalType": "uint256",
					"name": "",
					"type": "uint256"
				}
			],
			"stateMutability": "view",
			"type": "function"
		},
		{
			"inputs": [],
			"name": "getNumberOfBets",
			"outputs": [
				{
					"internalType": "uint256",
					"name": "",
					"type": "uint256"
				}
			],
			"stateMutability": "view",
			"type": "function"
		},
		{
			"inputs": [],
			"name": "getUserBets",
			"outputs": [
				{
					"components": [
						{
							"internalType": "uint256",
							"name": "id",
							"type": "uint256"
						},
						{
							"internalType": "uint256",
							"name": "gameId",
							"type": "uint256"
						},
						{
							"internalType": "uint256",
							"name": "teamId",
							"type": "uint256"
						},
						{
							"internalType": "string",
							"name": "teamName",
							"type": "string"
						},
						{
							"internalType": "string",
							"name": "HomeTeam",
							"type": "string"
						},
						{
							"internalType": "string",
							"name": "AwayTeam",
							"type": "string"
						},
						{
							"internalType": "string",
							"name": "DateTime",
							"type": "string"
						},
						{
							"internalType": "uint256",
							"name": "price",
							"type": "uint256"
						},
						{
							"internalType": "address",
							"name": "challenger",
							"type": "address"
						},
						{
							"internalType": "address",
							"name": "accepter",
							"type": "address"
						},
						{
							"internalType": "address",
							"name": "winner",
							"type": "address"
						},
						{
							"internalType": "bool",
							"name": "isAlive",
							"type": "bool"
						},
						{
							"internalType": "bool",
							"name": "isAccepted",
							"type": "bool"
						},
						{
							"internalType": "string",
							"name": "status",
							"type": "string"
						}
					],
					"internalType": "struct BetContract.Bet[]",
					"name": "",
					"type": "tuple[]"
				}
			],
			"stateMutability": "view",
			"type": "function"
		},
		{
			"inputs": [],
			"name": "losing",
			"outputs": [
				{
					"internalType": "uint256",
					"name": "",
					"type": "uint256"
				}
			],
			"stateMutability": "view",
			"type": "function"
		},
		{
			"inputs": [
				{
					"internalType": "uint256",
					"name": "_price",
					"type": "uint256"
				},
				{
					"internalType": "uint256",
					"name": "_gameId",
					"type": "uint256"
				},
				{
					"internalType": "string",
					"name": "_homeTeam",
					"type": "string"
				},
				{
					"internalType": "string",
					"name": "_awayTeam",
					"type": "string"
				},
				{
					"internalType": "string",
					"name": "_dataTime",
					"type": "string"
				},
				{
					"internalType": "uint256",
					"name": "_teamId",
					"type": "uint256"
				},
				{
					"internalType": "string",
					"name": "_teamName",
					"type": "string"
				}
			],
			"name": "publishBet",
			"outputs": [],
			"stateMutability": "payable",
			"type": "function"
		},
		{
			"inputs": [],
			"name": "requestMultiVariable",
			"outputs": [],
			"stateMutability": "nonpayable",
			"type": "function"
		},
		{
			"inputs": [],
			"name": "upkeep_setWinner",
			"outputs": [],
			"stateMutability": "nonpayable",
			"type": "function"
		},
		{
			"inputs": [],
			"name": "winning",
			"outputs": [
				{
					"internalType": "uint256",
					"name": "",
					"type": "uint256"
				}
			],
			"stateMutability": "view",
			"type": "function"
		}
	],
	"bytecode": "608060405260016004553480156200001657600080fd5b50600280546001600160a01b03191673326c977e6efc84e512bb9c30f76e30c160ed06fb179055600380546001600160a01b031916737ca7215c6b8013f249a195cc107f97c4e623e5f51790557f3030353934383134363338663431633661396364316165336466613938326436600b55600a6200009e670de0b6b3a76400006001620000b3565b620000aa9190620000df565b600c5562000102565b8082028115828204841417620000d957634e487b7160e01b600052601160045260246000fd5b92915050565b600082620000fd57634e487b7160e01b600052601260045260246000fd5b500490565b612f5f80620001126000396000f3fe6080604052600436106100fe5760003560e01c806384038c7c11610095578063ab75187711610064578063ab75187714610254578063bc21ca0e14610281578063c738f5e314610296578063d220a842146102ab578063f222d0b9146102c057600080fd5b806384038c7c146101fd578063853a1b90146102135780639a7b891814610229578063a416f5ab1461023e57600080fd5b8063405b5757116100d1578063405b5757146101905780634a02b384146101b4578063536a3ddc146101d45780636c0c27e1146101ea57600080fd5b806312074a461461010357806322af00fa1461012e57806334eaa80814610168578063357401f51461017d575b600080fd5b34801561010f57600080fd5b506101186102d5565b60405161012591906126bc565b60405180910390f35b34801561013a57600080fd5b5061014e61014936600461281f565b610722565b6040516101259e9d9c9b9a99989796959493929190612838565b61017b6101763660046129b4565b610a51565b005b61017b61018b36600461281f565b610cf0565b34801561019c57600080fd5b506101a660075481565b604051908152602001610125565b3480156101c057600080fd5b5061017b6101cf366004612a7d565b610e9c565b3480156101e057600080fd5b506101a660095481565b61017b6101f836600461281f565b610fb8565b34801561020957600080fd5b506101a660085481565b34801561021f57600080fd5b506101a660065481565b34801561023557600080fd5b506101186111cc565b34801561024a57600080fd5b506101a6600a5481565b34801561026057600080fd5b5061027461026f36600461281f565b6116e5565b6040516101259190612ab8565b34801561028d57600080fd5b506101a6611a98565b3480156102a257600080fd5b5061017b611b18565b3480156102b757600080fd5b5061017b611be0565b3480156102cc57600080fd5b50600a546101a6565b336000908152600e6020526040812054606091816001600160401b0381111561030057610300612912565b60405190808252806020026020018201604052801561033957816020015b6103266125ad565b81526020019060019003908161031e5790505b50905060005b8281101561071b57336000908152600e6020526040812080548390811061036857610368612acb565b90600052602060002001549050600d6000828152602001908152602001600020604051806101c00160405290816000820154815260200160018201548152602001600282015481526020016003820180546103c290612ae1565b80601f01602080910402602001604051908101604052809291908181526020018280546103ee90612ae1565b801561043b5780601f106104105761010080835404028352916020019161043b565b820191906000526020600020905b81548152906001019060200180831161041e57829003601f168201915b5050505050815260200160048201805461045490612ae1565b80601f016020809104026020016040519081016040528092919081815260200182805461048090612ae1565b80156104cd5780601f106104a2576101008083540402835291602001916104cd565b820191906000526020600020905b8154815290600101906020018083116104b057829003601f168201915b505050505081526020016005820180546104e690612ae1565b80601f016020809104026020016040519081016040528092919081815260200182805461051290612ae1565b801561055f5780601f106105345761010080835404028352916020019161055f565b820191906000526020600020905b81548152906001019060200180831161054257829003601f168201915b5050505050815260200160068201805461057890612ae1565b80601f01602080910402602001604051908101604052809291908181526020018280546105a490612ae1565b80156105f15780601f106105c6576101008083540402835291602001916105f1565b820191906000526020600020905b8154815290600101906020018083116105d457829003601f168201915b50505091835250506007820154602082015260088201546001600160a01b039081166040830152600983015481166060830152600a830154908116608083015260ff600160a01b82048116151560a0840152600160a81b90910416151560c0820152600b8201805460e09092019161066890612ae1565b80601f016020809104026020016040519081016040528092919081815260200182805461069490612ae1565b80156106e15780601f106106b6576101008083540402835291602001916106e1565b820191906000526020600020905b8154815290600101906020018083116106c457829003601f168201915b5050505050815250508383815181106106fc576106fc612acb565b602002602001018190525050808061071390612b2b565b91505061033f565b5092915050565b600d6020526000908152604090208054600182015460028301546003840180549394929391929161075290612ae1565b80601f016020809104026020016040519081016040528092919081815260200182805461077e90612ae1565b80156107cb5780601f106107a0576101008083540402835291602001916107cb565b820191906000526020600020905b8154815290600101906020018083116107ae57829003601f168201915b5050505050908060040180546107e090612ae1565b80601f016020809104026020016040519081016040528092919081815260200182805461080c90612ae1565b80156108595780601f1061082e57610100808354040283529160200191610859565b820191906000526020600020905b81548152906001019060200180831161083c57829003601f168201915b50505050509080600501805461086e90612ae1565b80601f016020809104026020016040519081016040528092919081815260200182805461089a90612ae1565b80156108e75780601f106108bc576101008083540402835291602001916108e7565b820191906000526020600020905b8154815290600101906020018083116108ca57829003601f168201915b5050505050908060060180546108fc90612ae1565b80601f016020809104026020016040519081016040528092919081815260200182805461092890612ae1565b80156109755780601f1061094a57610100808354040283529160200191610975565b820191906000526020600020905b81548152906001019060200180831161095857829003601f168201915b505050600784015460088501546009860154600a870154600b88018054979894976001600160a01b03948516975092841695509281169360ff600160a01b8304811694600160a81b90930416929091906109ce90612ae1565b80601f01602080910402602001604051908101604052809291908181526020018280546109fa90612ae1565b8015610a475780601f10610a1c57610100808354040283529160200191610a47565b820191906000526020600020905b815481529060010190602001808311610a2a57829003601f168201915b505050505090508e565b66038d7ea4c68000871015610aad5760405162461bcd60e51b815260206004820152601860248201527f4d696e696d756d2070726963652069732031204d61746963000000000000000060448201526064015b60405180910390fd5b86341015610acd5760405162461bcd60e51b8152600401610aa490612b44565b600a8054906000610add83612b2b565b9091555050604080516101c081018252600a5480825260208083018a815283850187815260608501878152608086018c905260a086018b905260c086018a905260e086018e9052336101008701526000610120870181905261014087018190526001610160880181905261018088018290528851808a018a526009815268141d589b1a5cda195960ba1b818801526101a0890152958152600d909452959092208451815590519281019290925551600282015591519091906003820190610ba49082612bd7565b5060808201516004820190610bb99082612bd7565b5060a08201516005820190610bce9082612bd7565b5060c08201516006820190610be39082612bd7565b5060e082015160078201556101008201516008820180546001600160a01b039283166001600160a01b03199182161790915561012084015160098401805491841691909216179055610140830151600a830180546101608601516101808701511515600160a81b0260ff60a81b19911515600160a01b026001600160a81b0319909316949095169390931717919091169190911790556101a0820151600b820190610c8e9082612bd7565b5050336000818152600e60209081526040808320600a8054825460018101845592865293852090910192909255905490518b945090917f8ac3a030abe983d724dc055182198435d38e966970592f8ab4015e6b0eacb62a91a450505050505050565b6000818152600d60205260409020600a810154600160a01b900460ff161515600114610d555760405162461bcd60e51b8152602060048201526014602482015273151a194818995d081dd85cc818d85b98d95b195960621b6044820152606401610aa4565b81600a5410158015610d675750600082115b610d835760405162461bcd60e51b8152600401610aa490612c96565b60088101546001600160a01b03163314610ddf5760405162461bcd60e51b815260206004820152601960248201527f426574206368616c6c656e6765722063616e2063616e63656c000000000000006044820152606401610aa4565b600a8101805460ff60a01b1916905560408051808201909152600881526710d85b98d95b195960c21b6020820152600b820190610e1c9082612bd7565b50600781015460088201546040516001600160a01b0390911690600090829084156108fc0290859084818181858888f19350505050905080610e955760405162461bcd60e51b8152602060048201526012602482015271151c985b9cd858dd1a5bdb8811985a5b195960721b6044820152606401610aa4565b5050505050565b60008581526005602052604090205485906001600160a01b03163314610f155760405162461bcd60e51b815260206004820152602860248201527f536f75726365206d75737420626520746865206f7261636c65206f6620746865604482015267081c995c5d595cdd60c21b6064820152608401610aa4565b60008181526005602052604080822080546001600160a01b03191690555182917f7cc135e0cebb02c3480ae5d74d377283180a2601f8f644edf7987b009316c63a91a260408051868152602081018690529081018490526060810183905286907f78e6df904d928feb84261a6267619ca16c25bbcb7d6e5062e1dfac3168fb59bc9060800160405180910390a25060069390935560079190915560095560085550565b6000818152600d60205260409020600a810154600160a01b900460ff16151560011461101d5760405162461bcd60e51b8152602060048201526014602482015273151a194818995d081dd85cc818d85b98d95b195960621b6044820152606401610aa4565b6000600a541161103f5760405162461bcd60e51b8152600401610aa490612c96565b6000821180156110515750600a548211155b61106d5760405162461bcd60e51b8152600401610aa490612c96565b60088101546001600160a01b031633036110d35760405162461bcd60e51b815260206004820152602160248201527f4368616c6c656e6765722063616e206e6f7420616363657074207468652062656044820152601d60fa1b6064820152608401610aa4565b80600701543410156110f75760405162461bcd60e51b8152600401610aa490612b44565b6009810180546001600160a01b03191633179055600a8101805460ff60a81b1916600160a81b1790556040805180820190915260088152671058d8d95c1d195960c21b6020820152600b82019061114e9082612bd7565b50336000908152600e60209081526040808320600a54815460018101835591855293839020019290925560098301546008840154600785015493519384526001600160a01b039182169391169185917f05394edf3dc91f34510ad8b3c082c8a370ad8ee677a618697d8605ceeb76957b910160405180910390a45050565b60606000600a546001600160401b038111156111ea576111ea612912565b604051908082528060200260200182016040528015611213578160200160208202803683370190505b509050600060015b600a5481116112bd576000818152600d60205260409020600a0154600160a81b900460ff1615801561126a57506000818152600d60205260409020600a0154600160a01b900460ff1615156001145b156112ab576000818152600d6020526040902054835184908490811061129257611292612acb565b6020908102919091010152816112a781612b2b565b9250505b806112b581612b2b565b91505061121b565b506000816001600160401b038111156112d8576112d8612912565b60405190808252806020026020018201604052801561131157816020015b6112fe6125ad565b8152602001906001900390816112f65790505b50905060005b828110156116dd57600d600085838151811061133557611335612acb565b60200260200101518152602001908152602001600020604051806101c001604052908160008201548152602001600182015481526020016002820154815260200160038201805461138590612ae1565b80601f01602080910402602001604051908101604052809291908181526020018280546113b190612ae1565b80156113fe5780601f106113d3576101008083540402835291602001916113fe565b820191906000526020600020905b8154815290600101906020018083116113e157829003601f168201915b5050505050815260200160048201805461141790612ae1565b80601f016020809104026020016040519081016040528092919081815260200182805461144390612ae1565b80156114905780601f1061146557610100808354040283529160200191611490565b820191906000526020600020905b81548152906001019060200180831161147357829003601f168201915b505050505081526020016005820180546114a990612ae1565b80601f01602080910402602001604051908101604052809291908181526020018280546114d590612ae1565b80156115225780601f106114f757610100808354040283529160200191611522565b820191906000526020600020905b81548152906001019060200180831161150557829003601f168201915b5050505050815260200160068201805461153b90612ae1565b80601f016020809104026020016040519081016040528092919081815260200182805461156790612ae1565b80156115b45780601f10611589576101008083540402835291602001916115b4565b820191906000526020600020905b81548152906001019060200180831161159757829003601f168201915b50505091835250506007820154602082015260088201546001600160a01b039081166040830152600983015481166060830152600a830154908116608083015260ff600160a01b82048116151560a0840152600160a81b90910416151560c0820152600b8201805460e09092019161162b90612ae1565b80601f016020809104026020016040519081016040528092919081815260200182805461165790612ae1565b80156116a45780601f10611679576101008083540402835291602001916116a4565b820191906000526020600020905b81548152906001019060200180831161168757829003601f168201915b5050505050815250508282815181106116bf576116bf612acb565b602002602001018190525080806116d590612b2b565b915050611317565b509392505050565b60606000600d6000848152602001908152602001600020604051806101c001604052908160008201548152602001600182015481526020016002820154815260200160038201805461173690612ae1565b80601f016020809104026020016040519081016040528092919081815260200182805461176290612ae1565b80156117af5780601f10611784576101008083540402835291602001916117af565b820191906000526020600020905b81548152906001019060200180831161179257829003601f168201915b505050505081526020016004820180546117c890612ae1565b80601f01602080910402602001604051908101604052809291908181526020018280546117f490612ae1565b80156118415780601f1061181657610100808354040283529160200191611841565b820191906000526020600020905b81548152906001019060200180831161182457829003601f168201915b5050505050815260200160058201805461185a90612ae1565b80601f016020809104026020016040519081016040528092919081815260200182805461188690612ae1565b80156118d35780601f106118a8576101008083540402835291602001916118d3565b820191906000526020600020905b8154815290600101906020018083116118b657829003601f168201915b505050505081526020016006820180546118ec90612ae1565b80601f016020809104026020016040519081016040528092919081815260200182805461191890612ae1565b80156119655780601f1061193a57610100808354040283529160200191611965565b820191906000526020600020905b81548152906001019060200180831161194857829003601f168201915b50505091835250506007820154602082015260088201546001600160a01b039081166040830152600983015481166060830152600a830154908116608083015260ff600160a01b82048116151560a0840152600160a81b90910416151560c0820152600b8201805460e0909201916119dc90612ae1565b80601f0160208091040260200160405190810160405280929190818152602001828054611a0890612ae1565b8015611a555780601f10611a2a57610100808354040283529160200191611a55565b820191906000526020600020905b815481529060010190602001808311611a3857829003601f168201915b5050505050815250509050600081606001519050816080015180519060200120818051906020012003611a8d575060a0015192915050565b506080015192915050565b60008060015b600a548111611b12576000818152600d60205260409020600a0154600160a81b900460ff16158015611aed57506000818152600d60205260409020600a0154600160a01b900460ff1615156001145b15611b005781611afc81612b2b565b9250505b80611b0a81612b2b565b915050611a9e565b50919050565b611b20611be0565b60015b600a548111611bdd576009546000828152600d602052604090206001015403611bcb576000818152600d602052604090206002015460085403611b8b576000818152600d6020526040902060080154611b869082906001600160a01b0316611dde565b611bcb565b6000818152600d602052604090206002015460085414611bcb576000818152600d6020526040902060090154611bcb9082906001600160a01b0316611dde565b80611bd581612b2b565b915050611b23565b50565b6000611bf6600b5430634a02b38460e01b611f24565b9050611c386040518060400160405280600381526020016219d95d60ea1b8152506040518060a0016040528060718152602001612eb960719139839190611f49565b611c8860405180604001604052806005815260200164706174683160d81b81525060405180604001604052806006815260200165302c4e616d6560d01b81525083611f499092919063ffffffff16565b611cd8604051806040016040528060058152602001643830ba341960d91b81525060405180604001604052806006815260200165302c57696e7360d01b81525083611f499092919063ffffffff16565b611d2a60405180604001604052806005815260200164706174683360d81b81525060405180604001604052806008815260200167302c4c6f7373657360c01b81525083611f499092919063ffffffff16565b611d7c604051806040016040528060058152602001641c185d1a0d60da1b815250604051806040016040528060088152602001670c0b11d85b59525160c21b81525083611f499092919063ffffffff16565b611dce60405180604001604052806005815260200164706174683560d81b815250604051806040016040528060088152602001670c0b1519585b525160c21b81525083611f499092919063ffffffff16565b611dda81600c54611f6c565b5050565b6000828152600d60205260409020600a0154600160a01b900460ff161580611e1f57506000828152600d60205260409020600a0154600160a81b900460ff16155b15611e28575050565b6000828152600d60208181526040808420600a810180546001600160a01b0319166001600160a01b0388161790558151808301909252600682526510db1bdcd95960d21b8284015293869052919052600b90910190611e879082612bd7565b506000828152600d60205260408120600a8101805460ff60a01b1916905560070154611eb4906002612cc4565b60405190915082906000906001600160a01b0383169084156108fc0290859084818181858888f19350505050905080610e955760405162461bcd60e51b8152602060048201526012602482015271151c985b9cd858dd1a5bdb8811985a5b195960721b6044820152606401610aa4565b611f2c61263b565b611f3461263b565b611f4081868686611f8f565b95945050505050565b6080830151611f589083611fd5565b6080830151611f679082611fd5565b505050565b600354600090611f86906001600160a01b03168484611fec565b90505b92915050565b611f9761263b565b611fa7856080015161010061207d565b50508284526001600160a01b03821660208501526001600160e01b031981166040850152835b949350505050565b611fe282600383516120e2565b611f6782826121ef565b600454600090611ffd816001612cdb565b60045583516040808601516080870151519151600093633c6d41b960e01b93612033938693849392899160029190602401612cee565b60408051601f198184030181529190526020810180516001600160e01b03166001600160e01b031990931692909217909152905061207386838684612216565b9695505050505050565b60408051808201909152606081526000602082015261209d602083612d43565b156120c5576120ad602083612d43565b6120b8906020612d65565b6120c29083612cdb565b91505b506020828101829052604080518085526000815290920101905290565b6017816001600160401b03161161210c576121068360e0600585901b168317612374565b50505050565b60ff816001600160401b03161161214857612132836018611fe0600586901b1617612374565b50612106836001600160401b0383166001612399565b61ffff816001600160401b0316116121855761216f836019611fe0600586901b1617612374565b50612106836001600160401b0383166002612399565b63ffffffff816001600160401b0316116121c4576121ae83601a611fe0600586901b1617612374565b50612106836001600160401b0383166004612399565b6121d983601b611fe0600586901b1617612374565b50612106836001600160401b0383166008612399565b604080518082019091526060815260006020820152611f86838460000151518485516123bf565b6040516bffffffffffffffffffffffff193060601b1660208201526034810184905260009060540160408051808303601f1901815282825280516020918201206000818152600590925291812080546001600160a01b0319166001600160a01b038a1617905590925082917fb5e6e01e79f91267dc17b4e6314d5d4d03593d2ceee0fbb452b750bd70ea5af99190a2600254604051630200057560e51b81526001600160a01b0390911690634000aea0906122d990889087908790600401612d78565b6020604051808303816000875af11580156122f8573d6000803e3d6000fd5b505050506040513d601f19601f8201168201806040525081019061231c9190612d9f565b611fcd5760405162461bcd60e51b815260206004820152602360248201527f756e61626c6520746f207472616e73666572416e6443616c6c20746f206f7261604482015262636c6560e81b6064820152608401610aa4565b604080518082019091526060815260006020820152611f8683846000015151846124a9565b604080518082019091526060815260006020820152611fcd848560000151518585612504565b60408051808201909152606081526000602082015282518211156123e257600080fd5b60208501516123f18386612cdb565b111561242457612424856124148760200151878661240f9190612cdb565b612585565b61241f906002612cc4565b612596565b6000808651805187602083010193508088870111156124435787860182525b505050602084015b602084106124835780518252612462602083612cdb565b915061246f602082612cdb565b905061247c602085612d65565b935061244b565b51815160001960208690036101000a019081169019919091161790525083949350505050565b604080518082019091526060815260006020820152836020015183106124de576124de848560200151600261241f9190612cc4565b83518051602085830101848153508085036124fa576001810182525b5093949350505050565b60408051808201909152606081526000602082015260208501516125288584612cdb565b111561253c5761253c856124148685612cdb565b6000600161254c84610100612eac565b6125569190612d65565b905085518386820101858319825116178152508051848701111561257a5783860181525b509495945050505050565b600081831115611b12575081611f89565b81516125a2838361207d565b5061210683826121ef565b604051806101c00160405280600081526020016000815260200160008152602001606081526020016060815260200160608152602001606081526020016000815260200160006001600160a01b0316815260200160006001600160a01b0316815260200160006001600160a01b03168152602001600015158152602001600015158152602001606081525090565b6040805160a0810182526000808252602080830182905282840182905260608084018390528451808601909552845283015290608082015290565b6000815180845260005b8181101561269c57602081850181015186830182015201612680565b506000602082860101526020601f19601f83011685010191505092915050565b60006020808301818452808551808352604092508286019150828160051b87010184880160005b8381101561281157603f1989840301855281516101c08151855288820151898601528782015188860152606080830151828288015261272483880182612676565b925050506080808301518683038288015261273f8382612676565b9250505060a0808301518683038288015261275a8382612676565b9250505060c080830151868303828801526127758382612676565b9250505060e08083015181870152506101008083015161279f828801826001600160a01b03169052565b5050610120828101516001600160a01b0390811691870191909152610140808401519091169086015261016080830151151590860152610180808301511515908601526101a091820151858203928601929092526127fd8183612676565b9689019694505050908601906001016126e3565b509098975050505050505050565b60006020828403121561283157600080fd5b5035919050565b8e81528d60208201528c60408201526101c06060820152600061285f6101c083018e612676565b8281036080840152612871818e612676565b905082810360a0840152612885818d612676565b905082810360c0840152612899818c612676565b90508960e08401526128b761010084018a6001600160a01b03169052565b6001600160a01b0388166101208401526001600160a01b0387166101408401528515156101608401528415156101808401528281036101a08401526128fc8185612676565b9150509f9e505050505050505050505050505050565b634e487b7160e01b600052604160045260246000fd5b600082601f83011261293957600080fd5b81356001600160401b038082111561295357612953612912565b604051601f8301601f19908116603f0116810190828211818310171561297b5761297b612912565b8160405283815286602085880101111561299457600080fd5b836020870160208301376000602085830101528094505050505092915050565b600080600080600080600060e0888a0312156129cf57600080fd5b873596506020880135955060408801356001600160401b03808211156129f457600080fd5b612a008b838c01612928565b965060608a0135915080821115612a1657600080fd5b612a228b838c01612928565b955060808a0135915080821115612a3857600080fd5b612a448b838c01612928565b945060a08a0135935060c08a0135915080821115612a6157600080fd5b50612a6e8a828b01612928565b91505092959891949750929550565b600080600080600060a08688031215612a9557600080fd5b505083359560208501359550604085013594606081013594506080013592509050565b602081526000611f866020830184612676565b634e487b7160e01b600052603260045260246000fd5b600181811c90821680612af557607f821691505b602082108103611b1257634e487b7160e01b600052602260045260246000fd5b634e487b7160e01b600052601160045260246000fd5b600060018201612b3d57612b3d612b15565b5060010190565b60208082526025908201527f596f752073686f756c642070726f76696465207072696365206173206d73672e60408201526476616c756560d81b606082015260800190565b601f821115611f6757600081815260208120601f850160051c81016020861015612bb05750805b601f850160051c820191505b81811015612bcf57828155600101612bbc565b505050505050565b81516001600160401b03811115612bf057612bf0612912565b612c0481612bfe8454612ae1565b84612b89565b602080601f831160018114612c395760008415612c215750858301515b600019600386901b1c1916600185901b178555612bcf565b600085815260208120601f198616915b82811015612c6857888601518255948401946001909101908401612c49565b5085821015612c865787850151600019600388901b60f8161c191681555b5050505050600190811b01905550565b60208082526014908201527310995d081a5cc81b9bdd081c1d589b1a5cda195960621b604082015260600190565b8082028115828204841417611f8957611f89612b15565b80820180821115611f8957611f89612b15565b60018060a01b038816815286602082015285604082015263ffffffff60e01b851660608201528360808201528260a082015260e060c08201526000612d3660e0830184612676565b9998505050505050505050565b600082612d6057634e487b7160e01b600052601260045260246000fd5b500690565b81810381811115611f8957611f89612b15565b60018060a01b0384168152826020820152606060408201526000611f406060830184612676565b600060208284031215612db157600080fd5b81518015158114612dc157600080fd5b9392505050565b600181815b80851115612e03578160001904821115612de957612de9612b15565b80851615612df657918102915b93841c9390800290612dcd565b509250929050565b600082612e1a57506001611f89565b81612e2757506000611f89565b8160018114612e3d5760028114612e4757612e63565b6001915050611f89565b60ff841115612e5857612e58612b15565b50506001821b611f89565b5060208310610133831016604e8410600b8410161715612e86575081810a611f89565b612e908383612dc8565b8060001904821115612ea457612ea4612b15565b029392505050565b6000611f868383612e0b56fe68747470733a2f2f6170692e73706f727473646174612e696f2f76332f6e62612f73636f7265732f6a736f6e2f5465616d47616d6553746174734279536561736f6e2f323032332f31312f313f6b65793d3736633262353661636532383435633539653834663330623861383861643336a26469706673582212209e8f0e16da21a8252ead1237d7230c264938b2f4135fad832e0ccf5b6527b7b064736f6c63430008110033",
	"bytecodeSha1": "dbacae64f00332e5ba4dea32837e0fd9502c7bab",
	"compiler": {
		"evm_version": "istanbul",
		"optimizer": {
			"enabled": true,
			"runs": 200
		},
		"version": "0.8.17+commit.8df45f5f"
	},
	"contractName": "BetContract",
	"language": "Solidity",
	"natspec": {
		"kind": "dev",
		"methods": {},
		"version": 1
	},
	"opcodes": "PUSH1 0x80 PUSH1 0x40 MSTORE PUSH1 0x4 CALLDATASIZE LT PUSH2 0xFE JUMPI PUSH1 0x0 CALLDATALOAD PUSH1 0xE0 SHR DUP1 PUSH4 0x84038C7C GT PUSH2 0x95 JUMPI DUP1 PUSH4 0xAB751877 GT PUSH2 0x64 JUMPI DUP1 PUSH4 0xAB751877 EQ PUSH2 0x254 JUMPI DUP1 PUSH4 0xBC21CA0E EQ PUSH2 0x281 JUMPI DUP1 PUSH4 0xC738F5E3 EQ PUSH2 0x296 JUMPI DUP1 PUSH4 0xD220A842 EQ PUSH2 0x2AB JUMPI DUP1 PUSH4 0xF222D0B9 EQ PUSH2 0x2C0 JUMPI PUSH1 0x0 DUP1 REVERT JUMPDEST DUP1 PUSH4 0x84038C7C EQ PUSH2 0x1FD JUMPI DUP1 PUSH4 0x853A1B90 EQ PUSH2 0x213 JUMPI DUP1 PUSH4 0x9A7B8918 EQ PUSH2 0x229 JUMPI DUP1 PUSH4 0xA416F5AB EQ PUSH2 0x23E JUMPI PUSH1 0x0 DUP1 REVERT JUMPDEST DUP1 PUSH4 0x405B5757 GT PUSH2 0xD1 JUMPI DUP1 PUSH4 0x405B5757 EQ PUSH2 0x190 JUMPI DUP1 PUSH4 0x4A02B384 EQ PUSH2 0x1B4 JUMPI DUP1 PUSH4 0x536A3DDC EQ PUSH2 0x1D4 JUMPI DUP1 PUSH4 0x6C0C27E1 EQ PUSH2 0x1EA JUMPI PUSH1 0x0 DUP1 REVERT JUMPDEST DUP1 PUSH4 0x12074A46 EQ PUSH2 0x103 JUMPI DUP1 PUSH4 0x22AF00FA EQ PUSH2 0x12E JUMPI DUP1 PUSH4 0x34EAA808 EQ PUSH2 0x168 JUMPI DUP1 PUSH4 0x357401F5 EQ PUSH2 0x17D JUMPI JUMPDEST PUSH1 0x0 DUP1 REVERT JUMPDEST CALLVALUE DUP1 ISZERO PUSH2 0x10F JUMPI PUSH1 0x0 DUP1 REVERT JUMPDEST POP PUSH2 0x118 PUSH2 0x2D5 JUMP JUMPDEST PUSH1 0x40 MLOAD PUSH2 0x125 SWAP2 SWAP1 PUSH2 0x26BC JUMP JUMPDEST PUSH1 0x40 MLOAD DUP1 SWAP2 SUB SWAP1 RETURN JUMPDEST CALLVALUE DUP1 ISZERO PUSH2 0x13A JUMPI PUSH1 0x0 DUP1 REVERT JUMPDEST POP PUSH2 0x14E PUSH2 0x149 CALLDATASIZE PUSH1 0x4 PUSH2 0x281F JUMP JUMPDEST PUSH2 0x722 JUMP JUMPDEST PUSH1 0x40 MLOAD PUSH2 0x125 SWAP15 SWAP14 SWAP13 SWAP12 SWAP11 SWAP10 SWAP9 SWAP8 SWAP7 SWAP6 SWAP5 SWAP4 SWAP3 SWAP2 SWAP1 PUSH2 0x2838 JUMP JUMPDEST PUSH2 0x17B PUSH2 0x176 CALLDATASIZE PUSH1 0x4 PUSH2 0x29B4 JUMP JUMPDEST PUSH2 0xA51 JUMP JUMPDEST STOP JUMPDEST PUSH2 0x17B PUSH2 0x18B CALLDATASIZE PUSH1 0x4 PUSH2 0x281F JUMP JUMPDEST PUSH2 0xCF0 JUMP JUMPDEST CALLVALUE DUP1 ISZERO PUSH2 0x19C JUMPI PUSH1 0x0 DUP1 REVERT JUMPDEST POP PUSH2 0x1A6 PUSH1 0x7 SLOAD DUP2 JUMP JUMPDEST PUSH1 0x40 MLOAD SWAP1 DUP2 MSTORE PUSH1 0x20 ADD PUSH2 0x125 JUMP JUMPDEST CALLVALUE DUP1 ISZERO PUSH2 0x1C0 JUMPI PUSH1 0x0 DUP1 REVERT JUMPDEST POP PUSH2 0x17B PUSH2 0x1CF CALLDATASIZE PUSH1 0x4 PUSH2 0x2A7D JUMP JUMPDEST PUSH2 0xE9C JUMP JUMPDEST CALLVALUE DUP1 ISZERO PUSH2 0x1E0 JUMPI PUSH1 0x0 DUP1 REVERT JUMPDEST POP PUSH2 0x1A6 PUSH1 0x9 SLOAD DUP2 JUMP JUMPDEST PUSH2 0x17B PUSH2 0x1F8 CALLDATASIZE PUSH1 0x4 PUSH2 0x281F JUMP JUMPDEST PUSH2 0xFB8 JUMP JUMPDEST CALLVALUE DUP1 ISZERO PUSH2 0x209 JUMPI PUSH1 0x0 DUP1 REVERT JUMPDEST POP PUSH2 0x1A6 PUSH1 0x8 SLOAD DUP2 JUMP JUMPDEST CALLVALUE DUP1 ISZERO PUSH2 0x21F JUMPI PUSH1 0x0 DUP1 REVERT JUMPDEST POP PUSH2 0x1A6 PUSH1 0x6 SLOAD DUP2 JUMP JUMPDEST CALLVALUE DUP1 ISZERO PUSH2 0x235 JUMPI PUSH1 0x0 DUP1 REVERT JUMPDEST POP PUSH2 0x118 PUSH2 0x11CC JUMP JUMPDEST CALLVALUE DUP1 ISZERO PUSH2 0x24A JUMPI PUSH1 0x0 DUP1 REVERT JUMPDEST POP PUSH2 0x1A6 PUSH1 0xA SLOAD DUP2 JUMP JUMPDEST CALLVALUE DUP1 ISZERO PUSH2 0x260 JUMPI PUSH1 0x0 DUP1 REVERT JUMPDEST POP PUSH2 0x274 PUSH2 0x26F CALLDATASIZE PUSH1 0x4 PUSH2 0x281F JUMP JUMPDEST PUSH2 0x16E5 JUMP JUMPDEST PUSH1 0x40 MLOAD PUSH2 0x125 SWAP2 SWAP1 PUSH2 0x2AB8 JUMP JUMPDEST CALLVALUE DUP1 ISZERO PUSH2 0x28D JUMPI PUSH1 0x0 DUP1 REVERT JUMPDEST POP PUSH2 0x1A6 PUSH2 0x1A98 JUMP JUMPDEST CALLVALUE DUP1 ISZERO PUSH2 0x2A2 JUMPI PUSH1 0x0 DUP1 REVERT JUMPDEST POP PUSH2 0x17B PUSH2 0x1B18 JUMP JUMPDEST CALLVALUE DUP1 ISZERO PUSH2 0x2B7 JUMPI PUSH1 0x0 DUP1 REVERT JUMPDEST POP PUSH2 0x17B PUSH2 0x1BE0 JUMP JUMPDEST CALLVALUE DUP1 ISZERO PUSH2 0x2CC JUMPI PUSH1 0x0 DUP1 REVERT JUMPDEST POP PUSH1 0xA SLOAD PUSH2 0x1A6 JUMP JUMPDEST CALLER PUSH1 0x0 SWAP1 DUP2 MSTORE PUSH1 0xE PUSH1 0x20 MSTORE PUSH1 0x40 DUP2 KECCAK256 SLOAD PUSH1 0x60 SWAP2 DUP2 PUSH1 0x1 PUSH1 0x1 PUSH1 0x40 SHL SUB DUP2 GT ISZERO PUSH2 0x300 JUMPI PUSH2 0x300 PUSH2 0x2912 JUMP JUMPDEST PUSH1 0x40 MLOAD SWAP1 DUP1 DUP3 MSTORE DUP1 PUSH1 0x20 MUL PUSH1 0x20 ADD DUP3 ADD PUSH1 0x40 MSTORE DUP1 ISZERO PUSH2 0x339 JUMPI DUP2 PUSH1 0x20 ADD JUMPDEST PUSH2 0x326 PUSH2 0x25AD JUMP JUMPDEST DUP2 MSTORE PUSH1 0x20 ADD SWAP1 PUSH1 0x1 SWAP1 SUB SWAP1 DUP2 PUSH2 0x31E JUMPI SWAP1 POP JUMPDEST POP SWAP1 POP PUSH1 0x0 JUMPDEST DUP3 DUP2 LT ISZERO PUSH2 0x71B JUMPI CALLER PUSH1 0x0 SWAP1 DUP2 MSTORE PUSH1 0xE PUSH1 0x20 MSTORE PUSH1 0x40 DUP2 KECCAK256 DUP1 SLOAD DUP4 SWAP1 DUP2 LT PUSH2 0x368 JUMPI PUSH2 0x368 PUSH2 0x2ACB JUMP JUMPDEST SWAP1 PUSH1 0x0 MSTORE PUSH1 0x20 PUSH1 0x0 KECCAK256 ADD SLOAD SWAP1 POP PUSH1 0xD PUSH1 0x0 DUP3 DUP2 MSTORE PUSH1 0x20 ADD SWAP1 DUP2 MSTORE PUSH1 0x20 ADD PUSH1 0x0 KECCAK256 PUSH1 0x40 MLOAD DUP1 PUSH2 0x1C0 ADD PUSH1 0x40 MSTORE SWAP1 DUP2 PUSH1 0x0 DUP3 ADD SLOAD DUP2 MSTORE PUSH1 0x20 ADD PUSH1 0x1 DUP3 ADD SLOAD DUP2 MSTORE PUSH1 0x20 ADD PUSH1 0x2 DUP3 ADD SLOAD DUP2 MSTORE PUSH1 0x20 ADD PUSH1 0x3 DUP3 ADD DUP1 SLOAD PUSH2 0x3C2 SWAP1 PUSH2 0x2AE1 JUMP JUMPDEST DUP1 PUSH1 0x1F ADD PUSH1 0x20 DUP1 SWAP2 DIV MUL PUSH1 0x20 ADD PUSH1 0x40 MLOAD SWAP1 DUP2 ADD PUSH1 0x40 MSTORE DUP1 SWAP3 SWAP2 SWAP1 DUP2 DUP2 MSTORE PUSH1 0x20 ADD DUP3 DUP1 SLOAD PUSH2 0x3EE SWAP1 PUSH2 0x2AE1 JUMP JUMPDEST DUP1 ISZERO PUSH2 0x43B JUMPI DUP1 PUSH1 0x1F LT PUSH2 0x410 JUMPI PUSH2 0x100 DUP1 DUP4 SLOAD DIV MUL DUP4 MSTORE SWAP2 PUSH1 0x20 ADD SWAP2 PUSH2 0x43B JUMP JUMPDEST DUP3 ADD SWAP2 SWAP1 PUSH1 0x0 MSTORE PUSH1 0x20 PUSH1 0x0 KECCAK256 SWAP1 JUMPDEST DUP2 SLOAD DUP2 MSTORE SWAP1 PUSH1 0x1 ADD SWAP1 PUSH1 0x20 ADD DUP1 DUP4 GT PUSH2 0x41E JUMPI DUP3 SWAP1 SUB PUSH1 0x1F AND DUP3 ADD SWAP2 JUMPDEST POP POP POP POP POP DUP2 MSTORE PUSH1 0x20 ADD PUSH1 0x4 DUP3 ADD DUP1 SLOAD PUSH2 0x454 SWAP1 PUSH2 0x2AE1 JUMP JUMPDEST DUP1 PUSH1 0x1F ADD PUSH1 0x20 DUP1 SWAP2 DIV MUL PUSH1 0x20 ADD PUSH1 0x40 MLOAD SWAP1 DUP2 ADD PUSH1 0x40 MSTORE DUP1 SWAP3 SWAP2 SWAP1 DUP2 DUP2 MSTORE PUSH1 0x20 ADD DUP3 DUP1 SLOAD PUSH2 0x480 SWAP1 PUSH2 0x2AE1 JUMP JUMPDEST DUP1 ISZERO PUSH2 0x4CD JUMPI DUP1 PUSH1 0x1F LT PUSH2 0x4A2 JUMPI PUSH2 0x100 DUP1 DUP4 SLOAD DIV MUL DUP4 MSTORE SWAP2 PUSH1 0x20 ADD SWAP2 PUSH2 0x4CD JUMP JUMPDEST DUP3 ADD SWAP2 SWAP1 PUSH1 0x0 MSTORE PUSH1 0x20 PUSH1 0x0 KECCAK256 SWAP1 JUMPDEST DUP2 SLOAD DUP2 MSTORE SWAP1 PUSH1 0x1 ADD SWAP1 PUSH1 0x20 ADD DUP1 DUP4 GT PUSH2 0x4B0 JUMPI DUP3 SWAP1 SUB PUSH1 0x1F AND DUP3 ADD SWAP2 JUMPDEST POP POP POP POP POP DUP2 MSTORE PUSH1 0x20 ADD PUSH1 0x5 DUP3 ADD DUP1 SLOAD PUSH2 0x4E6 SWAP1 PUSH2 0x2AE1 JUMP JUMPDEST DUP1 PUSH1 0x1F ADD PUSH1 0x20 DUP1 SWAP2 DIV MUL PUSH1 0x20 ADD PUSH1 0x40 MLOAD SWAP1 DUP2 ADD PUSH1 0x40 MSTORE DUP1 SWAP3 SWAP2 SWAP1 DUP2 DUP2 MSTORE PUSH1 0x20 ADD DUP3 DUP1 SLOAD PUSH2 0x512 SWAP1 PUSH2 0x2AE1 JUMP JUMPDEST DUP1 ISZERO PUSH2 0x55F JUMPI DUP1 PUSH1 0x1F LT PUSH2 0x534 JUMPI PUSH2 0x100 DUP1 DUP4 SLOAD DIV MUL DUP4 MSTORE SWAP2 PUSH1 0x20 ADD SWAP2 PUSH2 0x55F JUMP JUMPDEST DUP3 ADD SWAP2 SWAP1 PUSH1 0x0 MSTORE PUSH1 0x20 PUSH1 0x0 KECCAK256 SWAP1 JUMPDEST DUP2 SLOAD DUP2 MSTORE SWAP1 PUSH1 0x1 ADD SWAP1 PUSH1 0x20 ADD DUP1 DUP4 GT PUSH2 0x542 JUMPI DUP3 SWAP1 SUB PUSH1 0x1F AND DUP3 ADD SWAP2 JUMPDEST POP POP POP POP POP DUP2 MSTORE PUSH1 0x20 ADD PUSH1 0x6 DUP3 ADD DUP1 SLOAD PUSH2 0x578 SWAP1 PUSH2 0x2AE1 JUMP JUMPDEST DUP1 PUSH1 0x1F ADD PUSH1 0x20 DUP1 SWAP2 DIV MUL PUSH1 0x20 ADD PUSH1 0x40 MLOAD SWAP1 DUP2 ADD PUSH1 0x40 MSTORE DUP1 SWAP3 SWAP2 SWAP1 DUP2 DUP2 MSTORE PUSH1 0x20 ADD DUP3 DUP1 SLOAD PUSH2 0x5A4 SWAP1 PUSH2 0x2AE1 JUMP JUMPDEST DUP1 ISZERO PUSH2 0x5F1 JUMPI DUP1 PUSH1 0x1F LT PUSH2 0x5C6 JUMPI PUSH2 0x100 DUP1 DUP4 SLOAD DIV MUL DUP4 MSTORE SWAP2 PUSH1 0x20 ADD SWAP2 PUSH2 0x5F1 JUMP JUMPDEST DUP3 ADD SWAP2 SWAP1 PUSH1 0x0 MSTORE PUSH1 0x20 PUSH1 0x0 KECCAK256 SWAP1 JUMPDEST DUP2 SLOAD DUP2 MSTORE SWAP1 PUSH1 0x1 ADD SWAP1 PUSH1 0x20 ADD DUP1 DUP4 GT PUSH2 0x5D4 JUMPI DUP3 SWAP1 SUB PUSH1 0x1F AND DUP3 ADD SWAP2 JUMPDEST POP POP POP SWAP2 DUP4 MSTORE POP POP PUSH1 0x7 DUP3 ADD SLOAD PUSH1 0x20 DUP3 ADD MSTORE PUSH1 0x8 DUP3 ADD SLOAD PUSH1 0x1 PUSH1 0x1 PUSH1 0xA0 SHL SUB SWAP1 DUP2 AND PUSH1 0x40 DUP4 ADD MSTORE PUSH1 0x9 DUP4 ADD SLOAD DUP2 AND PUSH1 0x60 DUP4 ADD MSTORE PUSH1 0xA DUP4 ADD SLOAD SWAP1 DUP2 AND PUSH1 0x80 DUP4 ADD MSTORE PUSH1 0xFF PUSH1 0x1 PUSH1 0xA0 SHL DUP3 DIV DUP2 AND ISZERO ISZERO PUSH1 0xA0 DUP5 ADD MSTORE PUSH1 0x1 PUSH1 0xA8 SHL SWAP1 SWAP2 DIV AND ISZERO ISZERO PUSH1 0xC0 DUP3 ADD MSTORE PUSH1 0xB DUP3 ADD DUP1 SLOAD PUSH1 0xE0 SWAP1 SWAP3 ADD SWAP2 PUSH2 0x668 SWAP1 PUSH2 0x2AE1 JUMP JUMPDEST DUP1 PUSH1 0x1F ADD PUSH1 0x20 DUP1 SWAP2 DIV MUL PUSH1 0x20 ADD PUSH1 0x40 MLOAD SWAP1 DUP2 ADD PUSH1 0x40 MSTORE DUP1 SWAP3 SWAP2 SWAP1 DUP2 DUP2 MSTORE PUSH1 0x20 ADD DUP3 DUP1 SLOAD PUSH2 0x694 SWAP1 PUSH2 0x2AE1 JUMP JUMPDEST DUP1 ISZERO PUSH2 0x6E1 JUMPI DUP1 PUSH1 0x1F LT PUSH2 0x6B6 JUMPI PUSH2 0x100 DUP1 DUP4 SLOAD DIV MUL DUP4 MSTORE SWAP2 PUSH1 0x20 ADD SWAP2 PUSH2 0x6E1 JUMP JUMPDEST DUP3 ADD SWAP2 SWAP1 PUSH1 0x0 MSTORE PUSH1 0x20 PUSH1 0x0 KECCAK256 SWAP1 JUMPDEST DUP2 SLOAD DUP2 MSTORE SWAP1 PUSH1 0x1 ADD SWAP1 PUSH1 0x20 ADD DUP1 DUP4 GT PUSH2 0x6C4 JUMPI DUP3 SWAP1 SUB PUSH1 0x1F AND DUP3 ADD SWAP2 JUMPDEST POP POP POP POP POP DUP2 MSTORE POP POP DUP4 DUP4 DUP2 MLOAD DUP2 LT PUSH2 0x6FC JUMPI PUSH2 0x6FC PUSH2 0x2ACB JUMP JUMPDEST PUSH1 0x20 MUL PUSH1 0x20 ADD ADD DUP2 SWAP1 MSTORE POP POP DUP1 DUP1 PUSH2 0x713 SWAP1 PUSH2 0x2B2B JUMP JUMPDEST SWAP2 POP POP PUSH2 0x33F JUMP JUMPDEST POP SWAP3 SWAP2 POP POP JUMP JUMPDEST PUSH1 0xD PUSH1 0x20 MSTORE PUSH1 0x0 SWAP1 DUP2 MSTORE PUSH1 0x40 SWAP1 KECCAK256 DUP1 SLOAD PUSH1 0x1 DUP3 ADD SLOAD PUSH1 0x2 DUP4 ADD SLOAD PUSH1 0x3 DUP5 ADD DUP1 SLOAD SWAP4 SWAP5 SWAP3 SWAP4 SWAP2 SWAP3 SWAP2 PUSH2 0x752 SWAP1 PUSH2 0x2AE1 JUMP JUMPDEST DUP1 PUSH1 0x1F ADD PUSH1 0x20 DUP1 SWAP2 DIV MUL PUSH1 0x20 ADD PUSH1 0x40 MLOAD SWAP1 DUP2 ADD PUSH1 0x40 MSTORE DUP1 SWAP3 SWAP2 SWAP1 DUP2 DUP2 MSTORE PUSH1 0x20 ADD DUP3 DUP1 SLOAD PUSH2 0x77E SWAP1 PUSH2 0x2AE1 JUMP JUMPDEST DUP1 ISZERO PUSH2 0x7CB JUMPI DUP1 PUSH1 0x1F LT PUSH2 0x7A0 JUMPI PUSH2 0x100 DUP1 DUP4 SLOAD DIV MUL DUP4 MSTORE SWAP2 PUSH1 0x20 ADD SWAP2 PUSH2 0x7CB JUMP JUMPDEST DUP3 ADD SWAP2 SWAP1 PUSH1 0x0 MSTORE PUSH1 0x20 PUSH1 0x0 KECCAK256 SWAP1 JUMPDEST DUP2 SLOAD DUP2 MSTORE SWAP1 PUSH1 0x1 ADD SWAP1 PUSH1 0x20 ADD DUP1 DUP4 GT PUSH2 0x7AE JUMPI DUP3 SWAP1 SUB PUSH1 0x1F AND DUP3 ADD SWAP2 JUMPDEST POP POP POP POP POP SWAP1 DUP1 PUSH1 0x4 ADD DUP1 SLOAD PUSH2 0x7E0 SWAP1 PUSH2 0x2AE1 JUMP JUMPDEST DUP1 PUSH1 0x1F ADD PUSH1 0x20 DUP1 SWAP2 DIV MUL PUSH1 0x20 ADD PUSH1 0x40 MLOAD SWAP1 DUP2 ADD PUSH1 0x40 MSTORE DUP1 SWAP3 SWAP2 SWAP1 DUP2 DUP2 MSTORE PUSH1 0x20 ADD DUP3 DUP1 SLOAD PUSH2 0x80C SWAP1 PUSH2 0x2AE1 JUMP JUMPDEST DUP1 ISZERO PUSH2 0x859 JUMPI DUP1 PUSH1 0x1F LT PUSH2 0x82E JUMPI PUSH2 0x100 DUP1 DUP4 SLOAD DIV MUL DUP4 MSTORE SWAP2 PUSH1 0x20 ADD SWAP2 PUSH2 0x859 JUMP JUMPDEST DUP3 ADD SWAP2 SWAP1 PUSH1 0x0 MSTORE PUSH1 0x20 PUSH1 0x0 KECCAK256 SWAP1 JUMPDEST DUP2 SLOAD DUP2 MSTORE SWAP1 PUSH1 0x1 ADD SWAP1 PUSH1 0x20 ADD DUP1 DUP4 GT PUSH2 0x83C JUMPI DUP3 SWAP1 SUB PUSH1 0x1F AND DUP3 ADD SWAP2 JUMPDEST POP POP POP POP POP SWAP1 DUP1 PUSH1 0x5 ADD DUP1 SLOAD PUSH2 0x86E SWAP1 PUSH2 0x2AE1 JUMP JUMPDEST DUP1 PUSH1 0x1F ADD PUSH1 0x20 DUP1 SWAP2 DIV MUL PUSH1 0x20 ADD PUSH1 0x40 MLOAD SWAP1 DUP2 ADD PUSH1 0x40 MSTORE DUP1 SWAP3 SWAP2 SWAP1 DUP2 DUP2 MSTORE PUSH1 0x20 ADD DUP3 DUP1 SLOAD PUSH2 0x89A SWAP1 PUSH2 0x2AE1 JUMP JUMPDEST DUP1 ISZERO PUSH2 0x8E7 JUMPI DUP1 PUSH1 0x1F LT PUSH2 0x8BC JUMPI PUSH2 0x100 DUP1 DUP4 SLOAD DIV MUL DUP4 MSTORE SWAP2 PUSH1 0x20 ADD SWAP2 PUSH2 0x8E7 JUMP JUMPDEST DUP3 ADD SWAP2 SWAP1 PUSH1 0x0 MSTORE PUSH1 0x20 PUSH1 0x0 KECCAK256 SWAP1 JUMPDEST DUP2 SLOAD DUP2 MSTORE SWAP1 PUSH1 0x1 ADD SWAP1 PUSH1 0x20 ADD DUP1 DUP4 GT PUSH2 0x8CA JUMPI DUP3 SWAP1 SUB PUSH1 0x1F AND DUP3 ADD SWAP2 JUMPDEST POP POP POP POP POP SWAP1 DUP1 PUSH1 0x6 ADD DUP1 SLOAD PUSH2 0x8FC SWAP1 PUSH2 0x2AE1 JUMP JUMPDEST DUP1 PUSH1 0x1F ADD PUSH1 0x20 DUP1 SWAP2 DIV MUL PUSH1 0x20 ADD PUSH1 0x40 MLOAD SWAP1 DUP2 ADD PUSH1 0x40 MSTORE DUP1 SWAP3 SWAP2 SWAP1 DUP2 DUP2 MSTORE PUSH1 0x20 ADD DUP3 DUP1 SLOAD PUSH2 0x928 SWAP1 PUSH2 0x2AE1 JUMP JUMPDEST DUP1 ISZERO PUSH2 0x975 JUMPI DUP1 PUSH1 0x1F LT PUSH2 0x94A JUMPI PUSH2 0x100 DUP1 DUP4 SLOAD DIV MUL DUP4 MSTORE SWAP2 PUSH1 0x20 ADD SWAP2 PUSH2 0x975 JUMP JUMPDEST DUP3 ADD SWAP2 SWAP1 PUSH1 0x0 MSTORE PUSH1 0x20 PUSH1 0x0 KECCAK256 SWAP1 JUMPDEST DUP2 SLOAD DUP2 MSTORE SWAP1 PUSH1 0x1 ADD SWAP1 PUSH1 0x20 ADD DUP1 DUP4 GT PUSH2 0x958 JUMPI DUP3 SWAP1 SUB PUSH1 0x1F AND DUP3 ADD SWAP2 JUMPDEST POP POP POP PUSH1 0x7 DUP5 ADD SLOAD PUSH1 0x8 DUP6 ADD SLOAD PUSH1 0x9 DUP7 ADD SLOAD PUSH1 0xA DUP8 ADD SLOAD PUSH1 0xB DUP9 ADD DUP1 SLOAD SWAP8 SWAP9 SWAP5 SWAP8 PUSH1 0x1 PUSH1 0x1 PUSH1 0xA0 SHL SUB SWAP5 DUP6 AND SWAP8 POP SWAP3 DUP5 AND SWAP6 POP SWAP3 DUP2 AND SWAP4 PUSH1 0xFF PUSH1 0x1 PUSH1 0xA0 SHL DUP4 DIV DUP2 AND SWAP5 PUSH1 0x1 PUSH1 0xA8 SHL SWAP1 SWAP4 DIV AND SWAP3 SWAP1 SWAP2 SWAP1 PUSH2 0x9CE SWAP1 PUSH2 0x2AE1 JUMP JUMPDEST DUP1 PUSH1 0x1F ADD PUSH1 0x20 DUP1 SWAP2 DIV MUL PUSH1 0x20 ADD PUSH1 0x40 MLOAD SWAP1 DUP2 ADD PUSH1 0x40 MSTORE DUP1 SWAP3 SWAP2 SWAP1 DUP2 DUP2 MSTORE PUSH1 0x20 ADD DUP3 DUP1 SLOAD PUSH2 0x9FA SWAP1 PUSH2 0x2AE1 JUMP JUMPDEST DUP1 ISZERO PUSH2 0xA47 JUMPI DUP1 PUSH1 0x1F LT PUSH2 0xA1C JUMPI PUSH2 0x100 DUP1 DUP4 SLOAD DIV MUL DUP4 MSTORE SWAP2 PUSH1 0x20 ADD SWAP2 PUSH2 0xA47 JUMP JUMPDEST DUP3 ADD SWAP2 SWAP1 PUSH1 0x0 MSTORE PUSH1 0x20 PUSH1 0x0 KECCAK256 SWAP1 JUMPDEST DUP2 SLOAD DUP2 MSTORE SWAP1 PUSH1 0x1 ADD SWAP1 PUSH1 0x20 ADD DUP1 DUP4 GT PUSH2 0xA2A JUMPI DUP3 SWAP1 SUB PUSH1 0x1F AND DUP3 ADD SWAP2 JUMPDEST POP POP POP POP POP SWAP1 POP DUP15 JUMP JUMPDEST PUSH7 0x38D7EA4C68000 DUP8 LT ISZERO PUSH2 0xAAD JUMPI PUSH1 0x40 MLOAD PUSH3 0x461BCD PUSH1 0xE5 SHL DUP2 MSTORE PUSH1 0x20 PUSH1 0x4 DUP3 ADD MSTORE PUSH1 0x18 PUSH1 0x24 DUP3 ADD MSTORE PUSH32 0x4D696E696D756D2070726963652069732031204D617469630000000000000000 PUSH1 0x44 DUP3 ADD MSTORE PUSH1 0x64 ADD JUMPDEST PUSH1 0x40 MLOAD DUP1 SWAP2 SUB SWAP1 REVERT JUMPDEST DUP7 CALLVALUE LT ISZERO PUSH2 0xACD JUMPI PUSH1 0x40 MLOAD PUSH3 0x461BCD PUSH1 0xE5 SHL DUP2 MSTORE PUSH1 0x4 ADD PUSH2 0xAA4 SWAP1 PUSH2 0x2B44 JUMP JUMPDEST PUSH1 0xA DUP1 SLOAD SWAP1 PUSH1 0x0 PUSH2 0xADD DUP4 PUSH2 0x2B2B JUMP JUMPDEST SWAP1 SWAP2 SSTORE POP POP PUSH1 0x40 DUP1 MLOAD PUSH2 0x1C0 DUP2 ADD DUP3 MSTORE PUSH1 0xA SLOAD DUP1 DUP3 MSTORE PUSH1 0x20 DUP1 DUP4 ADD DUP11 DUP2 MSTORE DUP4 DUP6 ADD DUP8 DUP2 MSTORE PUSH1 0x60 DUP6 ADD DUP8 DUP2 MSTORE PUSH1 0x80 DUP7 ADD DUP13 SWAP1 MSTORE PUSH1 0xA0 DUP7 ADD DUP12 SWAP1 MSTORE PUSH1 0xC0 DUP7 ADD DUP11 SWAP1 MSTORE PUSH1 0xE0 DUP7 ADD DUP15 SWAP1 MSTORE CALLER PUSH2 0x100 DUP8 ADD MSTORE PUSH1 0x0 PUSH2 0x120 DUP8 ADD DUP2 SWAP1 MSTORE PUSH2 0x140 DUP8 ADD DUP2 SWAP1 MSTORE PUSH1 0x1 PUSH2 0x160 DUP9 ADD DUP2 SWAP1 MSTORE PUSH2 0x180 DUP9 ADD DUP3 SWAP1 MSTORE DUP9 MLOAD DUP1 DUP11 ADD DUP11 MSTORE PUSH1 0x9 DUP2 MSTORE PUSH9 0x141D589B1A5CDA1959 PUSH1 0xBA SHL DUP2 DUP9 ADD MSTORE PUSH2 0x1A0 DUP10 ADD MSTORE SWAP6 DUP2 MSTORE PUSH1 0xD SWAP1 SWAP5 MSTORE SWAP6 SWAP1 SWAP3 KECCAK256 DUP5 MLOAD DUP2 SSTORE SWAP1 MLOAD SWAP3 DUP2 ADD SWAP3 SWAP1 SWAP3 SSTORE MLOAD PUSH1 0x2 DUP3 ADD SSTORE SWAP2 MLOAD SWAP1 SWAP2 SWAP1 PUSH1 0x3 DUP3 ADD SWAP1 PUSH2 0xBA4 SWAP1 DUP3 PUSH2 0x2BD7 JUMP JUMPDEST POP PUSH1 0x80 DUP3 ADD MLOAD PUSH1 0x4 DUP3 ADD SWAP1 PUSH2 0xBB9 SWAP1 DUP3 PUSH2 0x2BD7 JUMP JUMPDEST POP PUSH1 0xA0 DUP3 ADD MLOAD PUSH1 0x5 DUP3 ADD SWAP1 PUSH2 0xBCE SWAP1 DUP3 PUSH2 0x2BD7 JUMP JUMPDEST POP PUSH1 0xC0 DUP3 ADD MLOAD PUSH1 0x6 DUP3 ADD SWAP1 PUSH2 0xBE3 SWAP1 DUP3 PUSH2 0x2BD7 JUMP JUMPDEST POP PUSH1 0xE0 DUP3 ADD MLOAD PUSH1 0x7 DUP3 ADD SSTORE PUSH2 0x100 DUP3 ADD MLOAD PUSH1 0x8 DUP3 ADD DUP1 SLOAD PUSH1 0x1 PUSH1 0x1 PUSH1 0xA0 SHL SUB SWAP3 DUP4 AND PUSH1 0x1 PUSH1 0x1 PUSH1 0xA0 SHL SUB NOT SWAP2 DUP3 AND OR SWAP1 SWAP2 SSTORE PUSH2 0x120 DUP5 ADD MLOAD PUSH1 0x9 DUP5 ADD DUP1 SLOAD SWAP2 DUP5 AND SWAP2 SWAP1 SWAP3 AND OR SWAP1 SSTORE PUSH2 0x140 DUP4 ADD MLOAD PUSH1 0xA DUP4 ADD DUP1 SLOAD PUSH2 0x160 DUP7 ADD MLOAD PUSH2 0x180 DUP8 ADD MLOAD ISZERO ISZERO PUSH1 0x1 PUSH1 0xA8 SHL MUL PUSH1 0xFF PUSH1 0xA8 SHL NOT SWAP2 ISZERO ISZERO PUSH1 0x1 PUSH1 0xA0 SHL MUL PUSH1 0x1 PUSH1 0x1 PUSH1 0xA8 SHL SUB NOT SWAP1 SWAP4 AND SWAP5 SWAP1 SWAP6 AND SWAP4 SWAP1 SWAP4 OR OR SWAP2 SWAP1 SWAP2 AND SWAP2 SWAP1 SWAP2 OR SWAP1 SSTORE PUSH2 0x1A0 DUP3 ADD MLOAD PUSH1 0xB DUP3 ADD SWAP1 PUSH2 0xC8E SWAP1 DUP3 PUSH2 0x2BD7 JUMP JUMPDEST POP POP CALLER PUSH1 0x0 DUP2 DUP2 MSTORE PUSH1 0xE PUSH1 0x20 SWAP1 DUP2 MSTORE PUSH1 0x40 DUP1 DUP4 KECCAK256 PUSH1 0xA DUP1 SLOAD DUP3 SLOAD PUSH1 0x1 DUP2 ADD DUP5 SSTORE SWAP3 DUP7 MSTORE SWAP4 DUP6 KECCAK256 SWAP1 SWAP2 ADD SWAP3 SWAP1 SWAP3 SSTORE SWAP1 SLOAD SWAP1 MLOAD DUP12 SWAP5 POP SWAP1 SWAP2 PUSH32 0x8AC3A030ABE983D724DC055182198435D38E966970592F8AB4015E6B0EACB62A SWAP2 LOG4 POP POP POP POP POP POP POP JUMP JUMPDEST PUSH1 0x0 DUP2 DUP2 MSTORE PUSH1 0xD PUSH1 0x20 MSTORE PUSH1 0x40 SWAP1 KECCAK256 PUSH1 0xA DUP2 ADD SLOAD PUSH1 0x1 PUSH1 0xA0 SHL SWAP1 DIV PUSH1 0xFF AND ISZERO ISZERO PUSH1 0x1 EQ PUSH2 0xD55 JUMPI PUSH1 0x40 MLOAD PUSH3 0x461BCD PUSH1 0xE5 SHL DUP2 MSTORE PUSH1 0x20 PUSH1 0x4 DUP3 ADD MSTORE PUSH1 0x14 PUSH1 0x24 DUP3 ADD MSTORE PUSH20 0x151A194818995D081DD85CC818D85B98D95B1959 PUSH1 0x62 SHL PUSH1 0x44 DUP3 ADD MSTORE PUSH1 0x64 ADD PUSH2 0xAA4 JUMP JUMPDEST DUP2 PUSH1 0xA SLOAD LT ISZERO DUP1 ISZERO PUSH2 0xD67 JUMPI POP PUSH1 0x0 DUP3 GT JUMPDEST PUSH2 0xD83 JUMPI PUSH1 0x40 MLOAD PUSH3 0x461BCD PUSH1 0xE5 SHL DUP2 MSTORE PUSH1 0x4 ADD PUSH2 0xAA4 SWAP1 PUSH2 0x2C96 JUMP JUMPDEST PUSH1 0x8 DUP2 ADD SLOAD PUSH1 0x1 PUSH1 0x1 PUSH1 0xA0 SHL SUB AND CALLER EQ PUSH2 0xDDF JUMPI PUSH1 0x40 MLOAD PUSH3 0x461BCD PUSH1 0xE5 SHL DUP2 MSTORE PUSH1 0x20 PUSH1 0x4 DUP3 ADD MSTORE PUSH1 0x19 PUSH1 0x24 DUP3 ADD MSTORE PUSH32 0x426574206368616C6C656E6765722063616E2063616E63656C00000000000000 PUSH1 0x44 DUP3 ADD MSTORE PUSH1 0x64 ADD PUSH2 0xAA4 JUMP JUMPDEST PUSH1 0xA DUP2 ADD DUP1 SLOAD PUSH1 0xFF PUSH1 0xA0 SHL NOT AND SWAP1 SSTORE PUSH1 0x40 DUP1 MLOAD DUP1 DUP3 ADD SWAP1 SWAP2 MSTORE PUSH1 0x8 DUP2 MSTORE PUSH8 0x10D85B98D95B1959 PUSH1 0xC2 SHL PUSH1 0x20 DUP3 ADD MSTORE PUSH1 0xB DUP3 ADD SWAP1 PUSH2 0xE1C SWAP1 DUP3 PUSH2 0x2BD7 JUMP JUMPDEST POP PUSH1 0x7 DUP2 ADD SLOAD PUSH1 0x8 DUP3 ADD SLOAD PUSH1 0x40 MLOAD PUSH1 0x1 PUSH1 0x1 PUSH1 0xA0 SHL SUB SWAP1 SWAP2 AND SWAP1 PUSH1 0x0 SWAP1 DUP3 SWAP1 DUP5 ISZERO PUSH2 0x8FC MUL SWAP1 DUP6 SWAP1 DUP5 DUP2 DUP2 DUP2 DUP6 DUP9 DUP9 CALL SWAP4 POP POP POP POP SWAP1 POP DUP1 PUSH2 0xE95 JUMPI PUSH1 0x40 MLOAD PUSH3 0x461BCD PUSH1 0xE5 SHL DUP2 MSTORE PUSH1 0x20 PUSH1 0x4 DUP3 ADD MSTORE PUSH1 0x12 PUSH1 0x24 DUP3 ADD MSTORE PUSH18 0x151C985B9CD858DD1A5BDB8811985A5B1959 PUSH1 0x72 SHL PUSH1 0x44 DUP3 ADD MSTORE PUSH1 0x64 ADD PUSH2 0xAA4 JUMP JUMPDEST POP POP POP POP POP JUMP JUMPDEST PUSH1 0x0 DUP6 DUP2 MSTORE PUSH1 0x5 PUSH1 0x20 MSTORE PUSH1 0x40 SWAP1 KECCAK256 SLOAD DUP6 SWAP1 PUSH1 0x1 PUSH1 0x1 PUSH1 0xA0 SHL SUB AND CALLER EQ PUSH2 0xF15 JUMPI PUSH1 0x40 MLOAD PUSH3 0x461BCD PUSH1 0xE5 SHL DUP2 MSTORE PUSH1 0x20 PUSH1 0x4 DUP3 ADD MSTORE PUSH1 0x28 PUSH1 0x24 DUP3 ADD MSTORE PUSH32 0x536F75726365206D75737420626520746865206F7261636C65206F6620746865 PUSH1 0x44 DUP3 ADD MSTORE PUSH8 0x81C995C5D595CDD PUSH1 0xC2 SHL PUSH1 0x64 DUP3 ADD MSTORE PUSH1 0x84 ADD PUSH2 0xAA4 JUMP JUMPDEST PUSH1 0x0 DUP2 DUP2 MSTORE PUSH1 0x5 PUSH1 0x20 MSTORE PUSH1 0x40 DUP1 DUP3 KECCAK256 DUP1 SLOAD PUSH1 0x1 PUSH1 0x1 PUSH1 0xA0 SHL SUB NOT AND SWAP1 SSTORE MLOAD DUP3 SWAP2 PUSH32 0x7CC135E0CEBB02C3480AE5D74D377283180A2601F8F644EDF7987B009316C63A SWAP2 LOG2 PUSH1 0x40 DUP1 MLOAD DUP7 DUP2 MSTORE PUSH1 0x20 DUP2 ADD DUP7 SWAP1 MSTORE SWAP1 DUP2 ADD DUP5 SWAP1 MSTORE PUSH1 0x60 DUP2 ADD DUP4 SWAP1 MSTORE DUP7 SWAP1 PUSH32 0x78E6DF904D928FEB84261A6267619CA16C25BBCB7D6E5062E1DFAC3168FB59BC SWAP1 PUSH1 0x80 ADD PUSH1 0x40 MLOAD DUP1 SWAP2 SUB SWAP1 LOG2 POP PUSH1 0x6 SWAP4 SWAP1 SWAP4 SSTORE PUSH1 0x7 SWAP2 SWAP1 SWAP2 SSTORE PUSH1 0x9 SSTORE PUSH1 0x8 SSTORE POP JUMP JUMPDEST PUSH1 0x0 DUP2 DUP2 MSTORE PUSH1 0xD PUSH1 0x20 MSTORE PUSH1 0x40 SWAP1 KECCAK256 PUSH1 0xA DUP2 ADD SLOAD PUSH1 0x1 PUSH1 0xA0 SHL SWAP1 DIV PUSH1 0xFF AND ISZERO ISZERO PUSH1 0x1 EQ PUSH2 0x101D JUMPI PUSH1 0x40 MLOAD PUSH3 0x461BCD PUSH1 0xE5 SHL DUP2 MSTORE PUSH1 0x20 PUSH1 0x4 DUP3 ADD MSTORE PUSH1 0x14 PUSH1 0x24 DUP3 ADD MSTORE PUSH20 0x151A194818995D081DD85CC818D85B98D95B1959 PUSH1 0x62 SHL PUSH1 0x44 DUP3 ADD MSTORE PUSH1 0x64 ADD PUSH2 0xAA4 JUMP JUMPDEST PUSH1 0x0 PUSH1 0xA SLOAD GT PUSH2 0x103F JUMPI PUSH1 0x40 MLOAD PUSH3 0x461BCD PUSH1 0xE5 SHL DUP2 MSTORE PUSH1 0x4 ADD PUSH2 0xAA4 SWAP1 PUSH2 0x2C96 JUMP JUMPDEST PUSH1 0x0 DUP3 GT DUP1 ISZERO PUSH2 0x1051 JUMPI POP PUSH1 0xA SLOAD DUP3 GT ISZERO JUMPDEST PUSH2 0x106D JUMPI PUSH1 0x40 MLOAD PUSH3 0x461BCD PUSH1 0xE5 SHL DUP2 MSTORE PUSH1 0x4 ADD PUSH2 0xAA4 SWAP1 PUSH2 0x2C96 JUMP JUMPDEST PUSH1 0x8 DUP2 ADD SLOAD PUSH1 0x1 PUSH1 0x1 PUSH1 0xA0 SHL SUB AND CALLER SUB PUSH2 0x10D3 JUMPI PUSH1 0x40 MLOAD PUSH3 0x461BCD PUSH1 0xE5 SHL DUP2 MSTORE PUSH1 0x20 PUSH1 0x4 DUP3 ADD MSTORE PUSH1 0x21 PUSH1 0x24 DUP3 ADD MSTORE PUSH32 0x4368616C6C656E6765722063616E206E6F742061636365707420746865206265 PUSH1 0x44 DUP3 ADD MSTORE PUSH1 0x1D PUSH1 0xFA SHL PUSH1 0x64 DUP3 ADD MSTORE PUSH1 0x84 ADD PUSH2 0xAA4 JUMP JUMPDEST DUP1 PUSH1 0x7 ADD SLOAD CALLVALUE LT ISZERO PUSH2 0x10F7 JUMPI PUSH1 0x40 MLOAD PUSH3 0x461BCD PUSH1 0xE5 SHL DUP2 MSTORE PUSH1 0x4 ADD PUSH2 0xAA4 SWAP1 PUSH2 0x2B44 JUMP JUMPDEST PUSH1 0x9 DUP2 ADD DUP1 SLOAD PUSH1 0x1 PUSH1 0x1 PUSH1 0xA0 SHL SUB NOT AND CALLER OR SWAP1 SSTORE PUSH1 0xA DUP2 ADD DUP1 SLOAD PUSH1 0xFF PUSH1 0xA8 SHL NOT AND PUSH1 0x1 PUSH1 0xA8 SHL OR SWAP1 SSTORE PUSH1 0x40 DUP1 MLOAD DUP1 DUP3 ADD SWAP1 SWAP2 MSTORE PUSH1 0x8 DUP2 MSTORE PUSH8 0x1058D8D95C1D1959 PUSH1 0xC2 SHL PUSH1 0x20 DUP3 ADD MSTORE PUSH1 0xB DUP3 ADD SWAP1 PUSH2 0x114E SWAP1 DUP3 PUSH2 0x2BD7 JUMP JUMPDEST POP CALLER PUSH1 0x0 SWAP1 DUP2 MSTORE PUSH1 0xE PUSH1 0x20 SWAP1 DUP2 MSTORE PUSH1 0x40 DUP1 DUP4 KECCAK256 PUSH1 0xA SLOAD DUP2 SLOAD PUSH1 0x1 DUP2 ADD DUP4 SSTORE SWAP2 DUP6 MSTORE SWAP4 DUP4 SWAP1 KECCAK256 ADD SWAP3 SWAP1 SWAP3 SSTORE PUSH1 0x9 DUP4 ADD SLOAD PUSH1 0x8 DUP5 ADD SLOAD PUSH1 0x7 DUP6 ADD SLOAD SWAP4 MLOAD SWAP4 DUP5 MSTORE PUSH1 0x1 PUSH1 0x1 PUSH1 0xA0 SHL SUB SWAP2 DUP3 AND SWAP4 SWAP2 AND SWAP2 DUP6 SWAP2 PUSH32 0x5394EDF3DC91F34510AD8B3C082C8A370AD8EE677A618697D8605CEEB76957B SWAP2 ADD PUSH1 0x40 MLOAD DUP1 SWAP2 SUB SWAP1 LOG4 POP POP JUMP JUMPDEST PUSH1 0x60 PUSH1 0x0 PUSH1 0xA SLOAD PUSH1 0x1 PUSH1 0x1 PUSH1 0x40 SHL SUB DUP2 GT ISZERO PUSH2 0x11EA JUMPI PUSH2 0x11EA PUSH2 0x2912 JUMP JUMPDEST PUSH1 0x40 MLOAD SWAP1 DUP1 DUP3 MSTORE DUP1 PUSH1 0x20 MUL PUSH1 0x20 ADD DUP3 ADD PUSH1 0x40 MSTORE DUP1 ISZERO PUSH2 0x1213 JUMPI DUP2 PUSH1 0x20 ADD PUSH1 0x20 DUP3 MUL DUP1 CALLDATASIZE DUP4 CALLDATACOPY ADD SWAP1 POP JUMPDEST POP SWAP1 POP PUSH1 0x0 PUSH1 0x1 JUMPDEST PUSH1 0xA SLOAD DUP2 GT PUSH2 0x12BD JUMPI PUSH1 0x0 DUP2 DUP2 MSTORE PUSH1 0xD PUSH1 0x20 MSTORE PUSH1 0x40 SWAP1 KECCAK256 PUSH1 0xA ADD SLOAD PUSH1 0x1 PUSH1 0xA8 SHL SWAP1 DIV PUSH1 0xFF AND ISZERO DUP1 ISZERO PUSH2 0x126A JUMPI POP PUSH1 0x0 DUP2 DUP2 MSTORE PUSH1 0xD PUSH1 0x20 MSTORE PUSH1 0x40 SWAP1 KECCAK256 PUSH1 0xA ADD SLOAD PUSH1 0x1 PUSH1 0xA0 SHL SWAP1 DIV PUSH1 0xFF AND ISZERO ISZERO PUSH1 0x1 EQ JUMPDEST ISZERO PUSH2 0x12AB JUMPI PUSH1 0x0 DUP2 DUP2 MSTORE PUSH1 0xD PUSH1 0x20 MSTORE PUSH1 0x40 SWAP1 KECCAK256 SLOAD DUP4 MLOAD DUP5 SWAP1 DUP5 SWAP1 DUP2 LT PUSH2 0x1292 JUMPI PUSH2 0x1292 PUSH2 0x2ACB JUMP JUMPDEST PUSH1 0x20 SWAP1 DUP2 MUL SWAP2 SWAP1 SWAP2 ADD ADD MSTORE DUP2 PUSH2 0x12A7 DUP2 PUSH2 0x2B2B JUMP JUMPDEST SWAP3 POP POP JUMPDEST DUP1 PUSH2 0x12B5 DUP2 PUSH2 0x2B2B JUMP JUMPDEST SWAP2 POP POP PUSH2 0x121B JUMP JUMPDEST POP PUSH1 0x0 DUP2 PUSH1 0x1 PUSH1 0x1 PUSH1 0x40 SHL SUB DUP2 GT ISZERO PUSH2 0x12D8 JUMPI PUSH2 0x12D8 PUSH2 0x2912 JUMP JUMPDEST PUSH1 0x40 MLOAD SWAP1 DUP1 DUP3 MSTORE DUP1 PUSH1 0x20 MUL PUSH1 0x20 ADD DUP3 ADD PUSH1 0x40 MSTORE DUP1 ISZERO PUSH2 0x1311 JUMPI DUP2 PUSH1 0x20 ADD JUMPDEST PUSH2 0x12FE PUSH2 0x25AD JUMP JUMPDEST DUP2 MSTORE PUSH1 0x20 ADD SWAP1 PUSH1 0x1 SWAP1 SUB SWAP1 DUP2 PUSH2 0x12F6 JUMPI SWAP1 POP JUMPDEST POP SWAP1 POP PUSH1 0x0 JUMPDEST DUP3 DUP2 LT ISZERO PUSH2 0x16DD JUMPI PUSH1 0xD PUSH1 0x0 DUP6 DUP4 DUP2 MLOAD DUP2 LT PUSH2 0x1335 JUMPI PUSH2 0x1335 PUSH2 0x2ACB JUMP JUMPDEST PUSH1 0x20 MUL PUSH1 0x20 ADD ADD MLOAD DUP2 MSTORE PUSH1 0x20 ADD SWAP1 DUP2 MSTORE PUSH1 0x20 ADD PUSH1 0x0 KECCAK256 PUSH1 0x40 MLOAD DUP1 PUSH2 0x1C0 ADD PUSH1 0x40 MSTORE SWAP1 DUP2 PUSH1 0x0 DUP3 ADD SLOAD DUP2 MSTORE PUSH1 0x20 ADD PUSH1 0x1 DUP3 ADD SLOAD DUP2 MSTORE PUSH1 0x20 ADD PUSH1 0x2 DUP3 ADD SLOAD DUP2 MSTORE PUSH1 0x20 ADD PUSH1 0x3 DUP3 ADD DUP1 SLOAD PUSH2 0x1385 SWAP1 PUSH2 0x2AE1 JUMP JUMPDEST DUP1 PUSH1 0x1F ADD PUSH1 0x20 DUP1 SWAP2 DIV MUL PUSH1 0x20 ADD PUSH1 0x40 MLOAD SWAP1 DUP2 ADD PUSH1 0x40 MSTORE DUP1 SWAP3 SWAP2 SWAP1 DUP2 DUP2 MSTORE PUSH1 0x20 ADD DUP3 DUP1 SLOAD PUSH2 0x13B1 SWAP1 PUSH2 0x2AE1 JUMP JUMPDEST DUP1 ISZERO PUSH2 0x13FE JUMPI DUP1 PUSH1 0x1F LT PUSH2 0x13D3 JUMPI PUSH2 0x100 DUP1 DUP4 SLOAD DIV MUL DUP4 MSTORE SWAP2 PUSH1 0x20 ADD SWAP2 PUSH2 0x13FE JUMP JUMPDEST DUP3 ADD SWAP2 SWAP1 PUSH1 0x0 MSTORE PUSH1 0x20 PUSH1 0x0 KECCAK256 SWAP1 JUMPDEST DUP2 SLOAD DUP2 MSTORE SWAP1 PUSH1 0x1 ADD SWAP1 PUSH1 0x20 ADD DUP1 DUP4 GT PUSH2 0x13E1 JUMPI DUP3 SWAP1 SUB PUSH1 0x1F AND DUP3 ADD SWAP2 JUMPDEST POP POP POP POP POP DUP2 MSTORE PUSH1 0x20 ADD PUSH1 0x4 DUP3 ADD DUP1 SLOAD PUSH2 0x1417 SWAP1 PUSH2 0x2AE1 JUMP JUMPDEST DUP1 PUSH1 0x1F ADD PUSH1 0x20 DUP1 SWAP2 DIV MUL PUSH1 0x20 ADD PUSH1 0x40 MLOAD SWAP1 DUP2 ADD PUSH1 0x40 MSTORE DUP1 SWAP3 SWAP2 SWAP1 DUP2 DUP2 MSTORE PUSH1 0x20 ADD DUP3 DUP1 SLOAD PUSH2 0x1443 SWAP1 PUSH2 0x2AE1 JUMP JUMPDEST DUP1 ISZERO PUSH2 0x1490 JUMPI DUP1 PUSH1 0x1F LT PUSH2 0x1465 JUMPI PUSH2 0x100 DUP1 DUP4 SLOAD DIV MUL DUP4 MSTORE SWAP2 PUSH1 0x20 ADD SWAP2 PUSH2 0x1490 JUMP JUMPDEST DUP3 ADD SWAP2 SWAP1 PUSH1 0x0 MSTORE PUSH1 0x20 PUSH1 0x0 KECCAK256 SWAP1 JUMPDEST DUP2 SLOAD DUP2 MSTORE SWAP1 PUSH1 0x1 ADD SWAP1 PUSH1 0x20 ADD DUP1 DUP4 GT PUSH2 0x1473 JUMPI DUP3 SWAP1 SUB PUSH1 0x1F AND DUP3 ADD SWAP2 JUMPDEST POP POP POP POP POP DUP2 MSTORE PUSH1 0x20 ADD PUSH1 0x5 DUP3 ADD DUP1 SLOAD PUSH2 0x14A9 SWAP1 PUSH2 0x2AE1 JUMP JUMPDEST DUP1 PUSH1 0x1F ADD PUSH1 0x20 DUP1 SWAP2 DIV MUL PUSH1 0x20 ADD PUSH1 0x40 MLOAD SWAP1 DUP2 ADD PUSH1 0x40 MSTORE DUP1 SWAP3 SWAP2 SWAP1 DUP2 DUP2 MSTORE PUSH1 0x20 ADD DUP3 DUP1 SLOAD PUSH2 0x14D5 SWAP1 PUSH2 0x2AE1 JUMP JUMPDEST DUP1 ISZERO PUSH2 0x1522 JUMPI DUP1 PUSH1 0x1F LT PUSH2 0x14F7 JUMPI PUSH2 0x100 DUP1 DUP4 SLOAD DIV MUL DUP4 MSTORE SWAP2 PUSH1 0x20 ADD SWAP2 PUSH2 0x1522 JUMP JUMPDEST DUP3 ADD SWAP2 SWAP1 PUSH1 0x0 MSTORE PUSH1 0x20 PUSH1 0x0 KECCAK256 SWAP1 JUMPDEST DUP2 SLOAD DUP2 MSTORE SWAP1 PUSH1 0x1 ADD SWAP1 PUSH1 0x20 ADD DUP1 DUP4 GT PUSH2 0x1505 JUMPI DUP3 SWAP1 SUB PUSH1 0x1F AND DUP3 ADD SWAP2 JUMPDEST POP POP POP POP POP DUP2 MSTORE PUSH1 0x20 ADD PUSH1 0x6 DUP3 ADD DUP1 SLOAD PUSH2 0x153B SWAP1 PUSH2 0x2AE1 JUMP JUMPDEST DUP1 PUSH1 0x1F ADD PUSH1 0x20 DUP1 SWAP2 DIV MUL PUSH1 0x20 ADD PUSH1 0x40 MLOAD SWAP1 DUP2 ADD PUSH1 0x40 MSTORE DUP1 SWAP3 SWAP2 SWAP1 DUP2 DUP2 MSTORE PUSH1 0x20 ADD DUP3 DUP1 SLOAD PUSH2 0x1567 SWAP1 PUSH2 0x2AE1 JUMP JUMPDEST DUP1 ISZERO PUSH2 0x15B4 JUMPI DUP1 PUSH1 0x1F LT PUSH2 0x1589 JUMPI PUSH2 0x100 DUP1 DUP4 SLOAD DIV MUL DUP4 MSTORE SWAP2 PUSH1 0x20 ADD SWAP2 PUSH2 0x15B4 JUMP JUMPDEST DUP3 ADD SWAP2 SWAP1 PUSH1 0x0 MSTORE PUSH1 0x20 PUSH1 0x0 KECCAK256 SWAP1 JUMPDEST DUP2 SLOAD DUP2 MSTORE SWAP1 PUSH1 0x1 ADD SWAP1 PUSH1 0x20 ADD DUP1 DUP4 GT PUSH2 0x1597 JUMPI DUP3 SWAP1 SUB PUSH1 0x1F AND DUP3 ADD SWAP2 JUMPDEST POP POP POP SWAP2 DUP4 MSTORE POP POP PUSH1 0x7 DUP3 ADD SLOAD PUSH1 0x20 DUP3 ADD MSTORE PUSH1 0x8 DUP3 ADD SLOAD PUSH1 0x1 PUSH1 0x1 PUSH1 0xA0 SHL SUB SWAP1 DUP2 AND PUSH1 0x40 DUP4 ADD MSTORE PUSH1 0x9 DUP4 ADD SLOAD DUP2 AND PUSH1 0x60 DUP4 ADD MSTORE PUSH1 0xA DUP4 ADD SLOAD SWAP1 DUP2 AND PUSH1 0x80 DUP4 ADD MSTORE PUSH1 0xFF PUSH1 0x1 PUSH1 0xA0 SHL DUP3 DIV DUP2 AND ISZERO ISZERO PUSH1 0xA0 DUP5 ADD MSTORE PUSH1 0x1 PUSH1 0xA8 SHL SWAP1 SWAP2 DIV AND ISZERO ISZERO PUSH1 0xC0 DUP3 ADD MSTORE PUSH1 0xB DUP3 ADD DUP1 SLOAD PUSH1 0xE0 SWAP1 SWAP3 ADD SWAP2 PUSH2 0x162B SWAP1 PUSH2 0x2AE1 JUMP JUMPDEST DUP1 PUSH1 0x1F ADD PUSH1 0x20 DUP1 SWAP2 DIV MUL PUSH1 0x20 ADD PUSH1 0x40 MLOAD SWAP1 DUP2 ADD PUSH1 0x40 MSTORE DUP1 SWAP3 SWAP2 SWAP1 DUP2 DUP2 MSTORE PUSH1 0x20 ADD DUP3 DUP1 SLOAD PUSH2 0x1657 SWAP1 PUSH2 0x2AE1 JUMP JUMPDEST DUP1 ISZERO PUSH2 0x16A4 JUMPI DUP1 PUSH1 0x1F LT PUSH2 0x1679 JUMPI PUSH2 0x100 DUP1 DUP4 SLOAD DIV MUL DUP4 MSTORE SWAP2 PUSH1 0x20 ADD SWAP2 PUSH2 0x16A4 JUMP JUMPDEST DUP3 ADD SWAP2 SWAP1 PUSH1 0x0 MSTORE PUSH1 0x20 PUSH1 0x0 KECCAK256 SWAP1 JUMPDEST DUP2 SLOAD DUP2 MSTORE SWAP1 PUSH1 0x1 ADD SWAP1 PUSH1 0x20 ADD DUP1 DUP4 GT PUSH2 0x1687 JUMPI DUP3 SWAP1 SUB PUSH1 0x1F AND DUP3 ADD SWAP2 JUMPDEST POP POP POP POP POP DUP2 MSTORE POP POP DUP3 DUP3 DUP2 MLOAD DUP2 LT PUSH2 0x16BF JUMPI PUSH2 0x16BF PUSH2 0x2ACB JUMP JUMPDEST PUSH1 0x20 MUL PUSH1 0x20 ADD ADD DUP2 SWAP1 MSTORE POP DUP1 DUP1 PUSH2 0x16D5 SWAP1 PUSH2 0x2B2B JUMP JUMPDEST SWAP2 POP POP PUSH2 0x1317 JUMP JUMPDEST POP SWAP4 SWAP3 POP POP POP JUMP JUMPDEST PUSH1 0x60 PUSH1 0x0 PUSH1 0xD PUSH1 0x0 DUP5 DUP2 MSTORE PUSH1 0x20 ADD SWAP1 DUP2 MSTORE PUSH1 0x20 ADD PUSH1 0x0 KECCAK256 PUSH1 0x40 MLOAD DUP1 PUSH2 0x1C0 ADD PUSH1 0x40 MSTORE SWAP1 DUP2 PUSH1 0x0 DUP3 ADD SLOAD DUP2 MSTORE PUSH1 0x20 ADD PUSH1 0x1 DUP3 ADD SLOAD DUP2 MSTORE PUSH1 0x20 ADD PUSH1 0x2 DUP3 ADD SLOAD DUP2 MSTORE PUSH1 0x20 ADD PUSH1 0x3 DUP3 ADD DUP1 SLOAD PUSH2 0x1736 SWAP1 PUSH2 0x2AE1 JUMP JUMPDEST DUP1 PUSH1 0x1F ADD PUSH1 0x20 DUP1 SWAP2 DIV MUL PUSH1 0x20 ADD PUSH1 0x40 MLOAD SWAP1 DUP2 ADD PUSH1 0x40 MSTORE DUP1 SWAP3 SWAP2 SWAP1 DUP2 DUP2 MSTORE PUSH1 0x20 ADD DUP3 DUP1 SLOAD PUSH2 0x1762 SWAP1 PUSH2 0x2AE1 JUMP JUMPDEST DUP1 ISZERO PUSH2 0x17AF JUMPI DUP1 PUSH1 0x1F LT PUSH2 0x1784 JUMPI PUSH2 0x100 DUP1 DUP4 SLOAD DIV MUL DUP4 MSTORE SWAP2 PUSH1 0x20 ADD SWAP2 PUSH2 0x17AF JUMP JUMPDEST DUP3 ADD SWAP2 SWAP1 PUSH1 0x0 MSTORE PUSH1 0x20 PUSH1 0x0 KECCAK256 SWAP1 JUMPDEST DUP2 SLOAD DUP2 MSTORE SWAP1 PUSH1 0x1 ADD SWAP1 PUSH1 0x20 ADD DUP1 DUP4 GT PUSH2 0x1792 JUMPI DUP3 SWAP1 SUB PUSH1 0x1F AND DUP3 ADD SWAP2 JUMPDEST POP POP POP POP POP DUP2 MSTORE PUSH1 0x20 ADD PUSH1 0x4 DUP3 ADD DUP1 SLOAD PUSH2 0x17C8 SWAP1 PUSH2 0x2AE1 JUMP JUMPDEST DUP1 PUSH1 0x1F ADD PUSH1 0x20 DUP1 SWAP2 DIV MUL PUSH1 0x20 ADD PUSH1 0x40 MLOAD SWAP1 DUP2 ADD PUSH1 0x40 MSTORE DUP1 SWAP3 SWAP2 SWAP1 DUP2 DUP2 MSTORE PUSH1 0x20 ADD DUP3 DUP1 SLOAD PUSH2 0x17F4 SWAP1 PUSH2 0x2AE1 JUMP JUMPDEST DUP1 ISZERO PUSH2 0x1841 JUMPI DUP1 PUSH1 0x1F LT PUSH2 0x1816 JUMPI PUSH2 0x100 DUP1 DUP4 SLOAD DIV MUL DUP4 MSTORE SWAP2 PUSH1 0x20 ADD SWAP2 PUSH2 0x1841 JUMP JUMPDEST DUP3 ADD SWAP2 SWAP1 PUSH1 0x0 MSTORE PUSH1 0x20 PUSH1 0x0 KECCAK256 SWAP1 JUMPDEST DUP2 SLOAD DUP2 MSTORE SWAP1 PUSH1 0x1 ADD SWAP1 PUSH1 0x20 ADD DUP1 DUP4 GT PUSH2 0x1824 JUMPI DUP3 SWAP1 SUB PUSH1 0x1F AND DUP3 ADD SWAP2 JUMPDEST POP POP POP POP POP DUP2 MSTORE PUSH1 0x20 ADD PUSH1 0x5 DUP3 ADD DUP1 SLOAD PUSH2 0x185A SWAP1 PUSH2 0x2AE1 JUMP JUMPDEST DUP1 PUSH1 0x1F ADD PUSH1 0x20 DUP1 SWAP2 DIV MUL PUSH1 0x20 ADD PUSH1 0x40 MLOAD SWAP1 DUP2 ADD PUSH1 0x40 MSTORE DUP1 SWAP3 SWAP2 SWAP1 DUP2 DUP2 MSTORE PUSH1 0x20 ADD DUP3 DUP1 SLOAD PUSH2 0x1886 SWAP1 PUSH2 0x2AE1 JUMP JUMPDEST DUP1 ISZERO PUSH2 0x18D3 JUMPI DUP1 PUSH1 0x1F LT PUSH2 0x18A8 JUMPI PUSH2 0x100 DUP1 DUP4 SLOAD DIV MUL DUP4 MSTORE SWAP2 PUSH1 0x20 ADD SWAP2 PUSH2 0x18D3 JUMP JUMPDEST DUP3 ADD SWAP2 SWAP1 PUSH1 0x0 MSTORE PUSH1 0x20 PUSH1 0x0 KECCAK256 SWAP1 JUMPDEST DUP2 SLOAD DUP2 MSTORE SWAP1 PUSH1 0x1 ADD SWAP1 PUSH1 0x20 ADD DUP1 DUP4 GT PUSH2 0x18B6 JUMPI DUP3 SWAP1 SUB PUSH1 0x1F AND DUP3 ADD SWAP2 JUMPDEST POP POP POP POP POP DUP2 MSTORE PUSH1 0x20 ADD PUSH1 0x6 DUP3 ADD DUP1 SLOAD PUSH2 0x18EC SWAP1 PUSH2 0x2AE1 JUMP JUMPDEST DUP1 PUSH1 0x1F ADD PUSH1 0x20 DUP1 SWAP2 DIV MUL PUSH1 0x20 ADD PUSH1 0x40 MLOAD SWAP1 DUP2 ADD PUSH1 0x40 MSTORE DUP1 SWAP3 SWAP2 SWAP1 DUP2 DUP2 MSTORE PUSH1 0x20 ADD DUP3 DUP1 SLOAD PUSH2 0x1918 SWAP1 PUSH2 0x2AE1 JUMP JUMPDEST DUP1 ISZERO PUSH2 0x1965 JUMPI DUP1 PUSH1 0x1F LT PUSH2 0x193A JUMPI PUSH2 0x100 DUP1 DUP4 SLOAD DIV MUL DUP4 MSTORE SWAP2 PUSH1 0x20 ADD SWAP2 PUSH2 0x1965 JUMP JUMPDEST DUP3 ADD SWAP2 SWAP1 PUSH1 0x0 MSTORE PUSH1 0x20 PUSH1 0x0 KECCAK256 SWAP1 JUMPDEST DUP2 SLOAD DUP2 MSTORE SWAP1 PUSH1 0x1 ADD SWAP1 PUSH1 0x20 ADD DUP1 DUP4 GT PUSH2 0x1948 JUMPI DUP3 SWAP1 SUB PUSH1 0x1F AND DUP3 ADD SWAP2 JUMPDEST POP POP POP SWAP2 DUP4 MSTORE POP POP PUSH1 0x7 DUP3 ADD SLOAD PUSH1 0x20 DUP3 ADD MSTORE PUSH1 0x8 DUP3 ADD SLOAD PUSH1 0x1 PUSH1 0x1 PUSH1 0xA0 SHL SUB SWAP1 DUP2 AND PUSH1 0x40 DUP4 ADD MSTORE PUSH1 0x9 DUP4 ADD SLOAD DUP2 AND PUSH1 0x60 DUP4 ADD MSTORE PUSH1 0xA DUP4 ADD SLOAD SWAP1 DUP2 AND PUSH1 0x80 DUP4 ADD MSTORE PUSH1 0xFF PUSH1 0x1 PUSH1 0xA0 SHL DUP3 DIV DUP2 AND ISZERO ISZERO PUSH1 0xA0 DUP5 ADD MSTORE PUSH1 0x1 PUSH1 0xA8 SHL SWAP1 SWAP2 DIV AND ISZERO ISZERO PUSH1 0xC0 DUP3 ADD MSTORE PUSH1 0xB DUP3 ADD DUP1 SLOAD PUSH1 0xE0 SWAP1 SWAP3 ADD SWAP2 PUSH2 0x19DC SWAP1 PUSH2 0x2AE1 JUMP JUMPDEST DUP1 PUSH1 0x1F ADD PUSH1 0x20 DUP1 SWAP2 DIV MUL PUSH1 0x20 ADD PUSH1 0x40 MLOAD SWAP1 DUP2 ADD PUSH1 0x40 MSTORE DUP1 SWAP3 SWAP2 SWAP1 DUP2 DUP2 MSTORE PUSH1 0x20 ADD DUP3 DUP1 SLOAD PUSH2 0x1A08 SWAP1 PUSH2 0x2AE1 JUMP JUMPDEST DUP1 ISZERO PUSH2 0x1A55 JUMPI DUP1 PUSH1 0x1F LT PUSH2 0x1A2A JUMPI PUSH2 0x100 DUP1 DUP4 SLOAD DIV MUL DUP4 MSTORE SWAP2 PUSH1 0x20 ADD SWAP2 PUSH2 0x1A55 JUMP JUMPDEST DUP3 ADD SWAP2 SWAP1 PUSH1 0x0 MSTORE PUSH1 0x20 PUSH1 0x0 KECCAK256 SWAP1 JUMPDEST DUP2 SLOAD DUP2 MSTORE SWAP1 PUSH1 0x1 ADD SWAP1 PUSH1 0x20 ADD DUP1 DUP4 GT PUSH2 0x1A38 JUMPI DUP3 SWAP1 SUB PUSH1 0x1F AND DUP3 ADD SWAP2 JUMPDEST POP POP POP POP POP DUP2 MSTORE POP POP SWAP1 POP PUSH1 0x0 DUP2 PUSH1 0x60 ADD MLOAD SWAP1 POP DUP2 PUSH1 0x80 ADD MLOAD DUP1 MLOAD SWAP1 PUSH1 0x20 ADD KECCAK256 DUP2 DUP1 MLOAD SWAP1 PUSH1 0x20 ADD KECCAK256 SUB PUSH2 0x1A8D JUMPI POP PUSH1 0xA0 ADD MLOAD SWAP3 SWAP2 POP POP JUMP JUMPDEST POP PUSH1 0x80 ADD MLOAD SWAP3 SWAP2 POP POP JUMP JUMPDEST PUSH1 0x0 DUP1 PUSH1 0x1 JUMPDEST PUSH1 0xA SLOAD DUP2 GT PUSH2 0x1B12 JUMPI PUSH1 0x0 DUP2 DUP2 MSTORE PUSH1 0xD PUSH1 0x20 MSTORE PUSH1 0x40 SWAP1 KECCAK256 PUSH1 0xA ADD SLOAD PUSH1 0x1 PUSH1 0xA8 SHL SWAP1 DIV PUSH1 0xFF AND ISZERO DUP1 ISZERO PUSH2 0x1AED JUMPI POP PUSH1 0x0 DUP2 DUP2 MSTORE PUSH1 0xD PUSH1 0x20 MSTORE PUSH1 0x40 SWAP1 KECCAK256 PUSH1 0xA ADD SLOAD PUSH1 0x1 PUSH1 0xA0 SHL SWAP1 DIV PUSH1 0xFF AND ISZERO ISZERO PUSH1 0x1 EQ JUMPDEST ISZERO PUSH2 0x1B00 JUMPI DUP2 PUSH2 0x1AFC DUP2 PUSH2 0x2B2B JUMP JUMPDEST SWAP3 POP POP JUMPDEST DUP1 PUSH2 0x1B0A DUP2 PUSH2 0x2B2B JUMP JUMPDEST SWAP2 POP POP PUSH2 0x1A9E JUMP JUMPDEST POP SWAP2 SWAP1 POP JUMP JUMPDEST PUSH2 0x1B20 PUSH2 0x1BE0 JUMP JUMPDEST PUSH1 0x1 JUMPDEST PUSH1 0xA SLOAD DUP2 GT PUSH2 0x1BDD JUMPI PUSH1 0x9 SLOAD PUSH1 0x0 DUP3 DUP2 MSTORE PUSH1 0xD PUSH1 0x20 MSTORE PUSH1 0x40 SWAP1 KECCAK256 PUSH1 0x1 ADD SLOAD SUB PUSH2 0x1BCB JUMPI PUSH1 0x0 DUP2 DUP2 MSTORE PUSH1 0xD PUSH1 0x20 MSTORE PUSH1 0x40 SWAP1 KECCAK256 PUSH1 0x2 ADD SLOAD PUSH1 0x8 SLOAD SUB PUSH2 0x1B8B JUMPI PUSH1 0x0 DUP2 DUP2 MSTORE PUSH1 0xD PUSH1 0x20 MSTORE PUSH1 0x40 SWAP1 KECCAK256 PUSH1 0x8 ADD SLOAD PUSH2 0x1B86 SWAP1 DUP3 SWAP1 PUSH1 0x1 PUSH1 0x1 PUSH1 0xA0 SHL SUB AND PUSH2 0x1DDE JUMP JUMPDEST PUSH2 0x1BCB JUMP JUMPDEST PUSH1 0x0 DUP2 DUP2 MSTORE PUSH1 0xD PUSH1 0x20 MSTORE PUSH1 0x40 SWAP1 KECCAK256 PUSH1 0x2 ADD SLOAD PUSH1 0x8 SLOAD EQ PUSH2 0x1BCB JUMPI PUSH1 0x0 DUP2 DUP2 MSTORE PUSH1 0xD PUSH1 0x20 MSTORE PUSH1 0x40 SWAP1 KECCAK256 PUSH1 0x9 ADD SLOAD PUSH2 0x1BCB SWAP1 DUP3 SWAP1 PUSH1 0x1 PUSH1 0x1 PUSH1 0xA0 SHL SUB AND PUSH2 0x1DDE JUMP JUMPDEST DUP1 PUSH2 0x1BD5 DUP2 PUSH2 0x2B2B JUMP JUMPDEST SWAP2 POP POP PUSH2 0x1B23 JUMP JUMPDEST POP JUMP JUMPDEST PUSH1 0x0 PUSH2 0x1BF6 PUSH1 0xB SLOAD ADDRESS PUSH4 0x4A02B384 PUSH1 0xE0 SHL PUSH2 0x1F24 JUMP JUMPDEST SWAP1 POP PUSH2 0x1C38 PUSH1 0x40 MLOAD DUP1 PUSH1 0x40 ADD PUSH1 0x40 MSTORE DUP1 PUSH1 0x3 DUP2 MSTORE PUSH1 0x20 ADD PUSH3 0x19D95D PUSH1 0xEA SHL DUP2 MSTORE POP PUSH1 0x40 MLOAD DUP1 PUSH1 0xA0 ADD PUSH1 0x40 MSTORE DUP1 PUSH1 0x71 DUP2 MSTORE PUSH1 0x20 ADD PUSH2 0x2EB9 PUSH1 0x71 SWAP2 CODECOPY DUP4 SWAP2 SWAP1 PUSH2 0x1F49 JUMP JUMPDEST PUSH2 0x1C88 PUSH1 0x40 MLOAD DUP1 PUSH1 0x40 ADD PUSH1 0x40 MSTORE DUP1 PUSH1 0x5 DUP2 MSTORE PUSH1 0x20 ADD PUSH5 0x7061746831 PUSH1 0xD8 SHL DUP2 MSTORE POP PUSH1 0x40 MLOAD DUP1 PUSH1 0x40 ADD PUSH1 0x40 MSTORE DUP1 PUSH1 0x6 DUP2 MSTORE PUSH1 0x20 ADD PUSH6 0x302C4E616D65 PUSH1 0xD0 SHL DUP2 MSTORE POP DUP4 PUSH2 0x1F49 SWAP1 SWAP3 SWAP2 SWAP1 PUSH4 0xFFFFFFFF AND JUMP JUMPDEST PUSH2 0x1CD8 PUSH1 0x40 MLOAD DUP1 PUSH1 0x40 ADD PUSH1 0x40 MSTORE DUP1 PUSH1 0x5 DUP2 MSTORE PUSH1 0x20 ADD PUSH5 0x3830BA3419 PUSH1 0xD9 SHL DUP2 MSTORE POP PUSH1 0x40 MLOAD DUP1 PUSH1 0x40 ADD PUSH1 0x40 MSTORE DUP1 PUSH1 0x6 DUP2 MSTORE PUSH1 0x20 ADD PUSH6 0x302C57696E73 PUSH1 0xD0 SHL DUP2 MSTORE POP DUP4 PUSH2 0x1F49 SWAP1 SWAP3 SWAP2 SWAP1 PUSH4 0xFFFFFFFF AND JUMP JUMPDEST PUSH2 0x1D2A PUSH1 0x40 MLOAD DUP1 PUSH1 0x40 ADD PUSH1 0x40 MSTORE DUP1 PUSH1 0x5 DUP2 MSTORE PUSH1 0x20 ADD PUSH5 0x7061746833 PUSH1 0xD8 SHL DUP2 MSTORE POP PUSH1 0x40 MLOAD DUP1 PUSH1 0x40 ADD PUSH1 0x40 MSTORE DUP1 PUSH1 0x8 DUP2 MSTORE PUSH1 0x20 ADD PUSH8 0x302C4C6F73736573 PUSH1 0xC0 SHL DUP2 MSTORE POP DUP4 PUSH2 0x1F49 SWAP1 SWAP3 SWAP2 SWAP1 PUSH4 0xFFFFFFFF AND JUMP JUMPDEST PUSH2 0x1D7C PUSH1 0x40 MLOAD DUP1 PUSH1 0x40 ADD PUSH1 0x40 MSTORE DUP1 PUSH1 0x5 DUP2 MSTORE PUSH1 0x20 ADD PUSH5 0x1C185D1A0D PUSH1 0xDA SHL DUP2 MSTORE POP PUSH1 0x40 MLOAD DUP1 PUSH1 0x40 ADD PUSH1 0x40 MSTORE DUP1 PUSH1 0x8 DUP2 MSTORE PUSH1 0x20 ADD PUSH8 0xC0B11D85B595251 PUSH1 0xC2 SHL DUP2 MSTORE POP DUP4 PUSH2 0x1F49 SWAP1 SWAP3 SWAP2 SWAP1 PUSH4 0xFFFFFFFF AND JUMP JUMPDEST PUSH2 0x1DCE PUSH1 0x40 MLOAD DUP1 PUSH1 0x40 ADD PUSH1 0x40 MSTORE DUP1 PUSH1 0x5 DUP2 MSTORE PUSH1 0x20 ADD PUSH5 0x7061746835 PUSH1 0xD8 SHL DUP2 MSTORE POP PUSH1 0x40 MLOAD DUP1 PUSH1 0x40 ADD PUSH1 0x40 MSTORE DUP1 PUSH1 0x8 DUP2 MSTORE PUSH1 0x20 ADD PUSH8 0xC0B1519585B5251 PUSH1 0xC2 SHL DUP2 MSTORE POP DUP4 PUSH2 0x1F49 SWAP1 SWAP3 SWAP2 SWAP1 PUSH4 0xFFFFFFFF AND JUMP JUMPDEST PUSH2 0x1DDA DUP2 PUSH1 0xC SLOAD PUSH2 0x1F6C JUMP JUMPDEST POP POP JUMP JUMPDEST PUSH1 0x0 DUP3 DUP2 MSTORE PUSH1 0xD PUSH1 0x20 MSTORE PUSH1 0x40 SWAP1 KECCAK256 PUSH1 0xA ADD SLOAD PUSH1 0x1 PUSH1 0xA0 SHL SWAP1 DIV PUSH1 0xFF AND ISZERO DUP1 PUSH2 0x1E1F JUMPI POP PUSH1 0x0 DUP3 DUP2 MSTORE PUSH1 0xD PUSH1 0x20 MSTORE PUSH1 0x40 SWAP1 KECCAK256 PUSH1 0xA ADD SLOAD PUSH1 0x1 PUSH1 0xA8 SHL SWAP1 DIV PUSH1 0xFF AND ISZERO JUMPDEST ISZERO PUSH2 0x1E28 JUMPI POP POP JUMP JUMPDEST PUSH1 0x0 DUP3 DUP2 MSTORE PUSH1 0xD PUSH1 0x20 DUP2 DUP2 MSTORE PUSH1 0x40 DUP1 DUP5 KECCAK256 PUSH1 0xA DUP2 ADD DUP1 SLOAD PUSH1 0x1 PUSH1 0x1 PUSH1 0xA0 SHL SUB NOT AND PUSH1 0x1 PUSH1 0x1 PUSH1 0xA0 SHL SUB DUP9 AND OR SWAP1 SSTORE DUP2 MLOAD DUP1 DUP4 ADD SWAP1 SWAP3 MSTORE PUSH1 0x6 DUP3 MSTORE PUSH6 0x10DB1BDCD959 PUSH1 0xD2 SHL DUP3 DUP5 ADD MSTORE SWAP4 DUP7 SWAP1 MSTORE SWAP2 SWAP1 MSTORE PUSH1 0xB SWAP1 SWAP2 ADD SWAP1 PUSH2 0x1E87 SWAP1 DUP3 PUSH2 0x2BD7 JUMP JUMPDEST POP PUSH1 0x0 DUP3 DUP2 MSTORE PUSH1 0xD PUSH1 0x20 MSTORE PUSH1 0x40 DUP2 KECCAK256 PUSH1 0xA DUP2 ADD DUP1 SLOAD PUSH1 0xFF PUSH1 0xA0 SHL NOT AND SWAP1 SSTORE PUSH1 0x7 ADD SLOAD PUSH2 0x1EB4 SWAP1 PUSH1 0x2 PUSH2 0x2CC4 JUMP JUMPDEST PUSH1 0x40 MLOAD SWAP1 SWAP2 POP DUP3 SWAP1 PUSH1 0x0 SWAP1 PUSH1 0x1 PUSH1 0x1 PUSH1 0xA0 SHL SUB DUP4 AND SWAP1 DUP5 ISZERO PUSH2 0x8FC MUL SWAP1 DUP6 SWAP1 DUP5 DUP2 DUP2 DUP2 DUP6 DUP9 DUP9 CALL SWAP4 POP POP POP POP SWAP1 POP DUP1 PUSH2 0xE95 JUMPI PUSH1 0x40 MLOAD PUSH3 0x461BCD PUSH1 0xE5 SHL DUP2 MSTORE PUSH1 0x20 PUSH1 0x4 DUP3 ADD MSTORE PUSH1 0x12 PUSH1 0x24 DUP3 ADD MSTORE PUSH18 0x151C985B9CD858DD1A5BDB8811985A5B1959 PUSH1 0x72 SHL PUSH1 0x44 DUP3 ADD MSTORE PUSH1 0x64 ADD PUSH2 0xAA4 JUMP JUMPDEST PUSH2 0x1F2C PUSH2 0x263B JUMP JUMPDEST PUSH2 0x1F34 PUSH2 0x263B JUMP JUMPDEST PUSH2 0x1F40 DUP2 DUP7 DUP7 DUP7 PUSH2 0x1F8F JUMP JUMPDEST SWAP6 SWAP5 POP POP POP POP POP JUMP JUMPDEST PUSH1 0x80 DUP4 ADD MLOAD PUSH2 0x1F58 SWAP1 DUP4 PUSH2 0x1FD5 JUMP JUMPDEST PUSH1 0x80 DUP4 ADD MLOAD PUSH2 0x1F67 SWAP1 DUP3 PUSH2 0x1FD5 JUMP JUMPDEST POP POP POP JUMP JUMPDEST PUSH1 0x3 SLOAD PUSH1 0x0 SWAP1 PUSH2 0x1F86 SWAP1 PUSH1 0x1 PUSH1 0x1 PUSH1 0xA0 SHL SUB AND DUP5 DUP5 PUSH2 0x1FEC JUMP JUMPDEST SWAP1 POP JUMPDEST SWAP3 SWAP2 POP POP JUMP JUMPDEST PUSH2 0x1F97 PUSH2 0x263B JUMP JUMPDEST PUSH2 0x1FA7 DUP6 PUSH1 0x80 ADD MLOAD PUSH2 0x100 PUSH2 0x207D JUMP JUMPDEST POP POP DUP3 DUP5 MSTORE PUSH1 0x1 PUSH1 0x1 PUSH1 0xA0 SHL SUB DUP3 AND PUSH1 0x20 DUP6 ADD MSTORE PUSH1 0x1 PUSH1 0x1 PUSH1 0xE0 SHL SUB NOT DUP2 AND PUSH1 0x40 DUP6 ADD MSTORE DUP4 JUMPDEST SWAP5 SWAP4 POP POP POP POP JUMP JUMPDEST PUSH2 0x1FE2 DUP3 PUSH1 0x3 DUP4 MLOAD PUSH2 0x20E2 JUMP JUMPDEST PUSH2 0x1F67 DUP3 DUP3 PUSH2 0x21EF JUMP JUMPDEST PUSH1 0x4 SLOAD PUSH1 0x0 SWAP1 PUSH2 0x1FFD DUP2 PUSH1 0x1 PUSH2 0x2CDB JUMP JUMPDEST PUSH1 0x4 SSTORE DUP4 MLOAD PUSH1 0x40 DUP1 DUP7 ADD MLOAD PUSH1 0x80 DUP8 ADD MLOAD MLOAD SWAP2 MLOAD PUSH1 0x0 SWAP4 PUSH4 0x3C6D41B9 PUSH1 0xE0 SHL SWAP4 PUSH2 0x2033 SWAP4 DUP7 SWAP4 DUP5 SWAP4 SWAP3 DUP10 SWAP2 PUSH1 0x2 SWAP2 SWAP1 PUSH1 0x24 ADD PUSH2 0x2CEE JUMP JUMPDEST PUSH1 0x40 DUP1 MLOAD PUSH1 0x1F NOT DUP2 DUP5 SUB ADD DUP2 MSTORE SWAP2 SWAP1 MSTORE PUSH1 0x20 DUP2 ADD DUP1 MLOAD PUSH1 0x1 PUSH1 0x1 PUSH1 0xE0 SHL SUB AND PUSH1 0x1 PUSH1 0x1 PUSH1 0xE0 SHL SUB NOT SWAP1 SWAP4 AND SWAP3 SWAP1 SWAP3 OR SWAP1 SWAP2 MSTORE SWAP1 POP PUSH2 0x2073 DUP7 DUP4 DUP7 DUP5 PUSH2 0x2216 JUMP JUMPDEST SWAP7 SWAP6 POP POP POP POP POP POP JUMP JUMPDEST PUSH1 0x40 DUP1 MLOAD DUP1 DUP3 ADD SWAP1 SWAP2 MSTORE PUSH1 0x60 DUP2 MSTORE PUSH1 0x0 PUSH1 0x20 DUP3 ADD MSTORE PUSH2 0x209D PUSH1 0x20 DUP4 PUSH2 0x2D43 JUMP JUMPDEST ISZERO PUSH2 0x20C5 JUMPI PUSH2 0x20AD PUSH1 0x20 DUP4 PUSH2 0x2D43 JUMP JUMPDEST PUSH2 0x20B8 SWAP1 PUSH1 0x20 PUSH2 0x2D65 JUMP JUMPDEST PUSH2 0x20C2 SWAP1 DUP4 PUSH2 0x2CDB JUMP JUMPDEST SWAP2 POP JUMPDEST POP PUSH1 0x20 DUP3 DUP2 ADD DUP3 SWAP1 MSTORE PUSH1 0x40 DUP1 MLOAD DUP1 DUP6 MSTORE PUSH1 0x0 DUP2 MSTORE SWAP1 SWAP3 ADD ADD SWAP1 MSTORE SWAP1 JUMP JUMPDEST PUSH1 0x17 DUP2 PUSH1 0x1 PUSH1 0x1 PUSH1 0x40 SHL SUB AND GT PUSH2 0x210C JUMPI PUSH2 0x2106 DUP4 PUSH1 0xE0 PUSH1 0x5 DUP6 SWAP1 SHL AND DUP4 OR PUSH2 0x2374 JUMP JUMPDEST POP POP POP POP JUMP JUMPDEST PUSH1 0xFF DUP2 PUSH1 0x1 PUSH1 0x1 PUSH1 0x40 SHL SUB AND GT PUSH2 0x2148 JUMPI PUSH2 0x2132 DUP4 PUSH1 0x18 PUSH2 0x1FE0 PUSH1 0x5 DUP7 SWAP1 SHL AND OR PUSH2 0x2374 JUMP JUMPDEST POP PUSH2 0x2106 DUP4 PUSH1 0x1 PUSH1 0x1 PUSH1 0x40 SHL SUB DUP4 AND PUSH1 0x1 PUSH2 0x2399 JUMP JUMPDEST PUSH2 0xFFFF DUP2 PUSH1 0x1 PUSH1 0x1 PUSH1 0x40 SHL SUB AND GT PUSH2 0x2185 JUMPI PUSH2 0x216F DUP4 PUSH1 0x19 PUSH2 0x1FE0 PUSH1 0x5 DUP7 SWAP1 SHL AND OR PUSH2 0x2374 JUMP JUMPDEST POP PUSH2 0x2106 DUP4 PUSH1 0x1 PUSH1 0x1 PUSH1 0x40 SHL SUB DUP4 AND PUSH1 0x2 PUSH2 0x2399 JUMP JUMPDEST PUSH4 0xFFFFFFFF DUP2 PUSH1 0x1 PUSH1 0x1 PUSH1 0x40 SHL SUB AND GT PUSH2 0x21C4 JUMPI PUSH2 0x21AE DUP4 PUSH1 0x1A PUSH2 0x1FE0 PUSH1 0x5 DUP7 SWAP1 SHL AND OR PUSH2 0x2374 JUMP JUMPDEST POP PUSH2 0x2106 DUP4 PUSH1 0x1 PUSH1 0x1 PUSH1 0x40 SHL SUB DUP4 AND PUSH1 0x4 PUSH2 0x2399 JUMP JUMPDEST PUSH2 0x21D9 DUP4 PUSH1 0x1B PUSH2 0x1FE0 PUSH1 0x5 DUP7 SWAP1 SHL AND OR PUSH2 0x2374 JUMP JUMPDEST POP PUSH2 0x2106 DUP4 PUSH1 0x1 PUSH1 0x1 PUSH1 0x40 SHL SUB DUP4 AND PUSH1 0x8 PUSH2 0x2399 JUMP JUMPDEST PUSH1 0x40 DUP1 MLOAD DUP1 DUP3 ADD SWAP1 SWAP2 MSTORE PUSH1 0x60 DUP2 MSTORE PUSH1 0x0 PUSH1 0x20 DUP3 ADD MSTORE PUSH2 0x1F86 DUP4 DUP5 PUSH1 0x0 ADD MLOAD MLOAD DUP5 DUP6 MLOAD PUSH2 0x23BF JUMP JUMPDEST PUSH1 0x40 MLOAD PUSH12 0xFFFFFFFFFFFFFFFFFFFFFFFF NOT ADDRESS PUSH1 0x60 SHL AND PUSH1 0x20 DUP3 ADD MSTORE PUSH1 0x34 DUP2 ADD DUP5 SWAP1 MSTORE PUSH1 0x0 SWAP1 PUSH1 0x54 ADD PUSH1 0x40 DUP1 MLOAD DUP1 DUP4 SUB PUSH1 0x1F NOT ADD DUP2 MSTORE DUP3 DUP3 MSTORE DUP1 MLOAD PUSH1 0x20 SWAP2 DUP3 ADD KECCAK256 PUSH1 0x0 DUP2 DUP2 MSTORE PUSH1 0x5 SWAP1 SWAP3 MSTORE SWAP2 DUP2 KECCAK256 DUP1 SLOAD PUSH1 0x1 PUSH1 0x1 PUSH1 0xA0 SHL SUB NOT AND PUSH1 0x1 PUSH1 0x1 PUSH1 0xA0 SHL SUB DUP11 AND OR SWAP1 SSTORE SWAP1 SWAP3 POP DUP3 SWAP2 PUSH32 0xB5E6E01E79F91267DC17B4E6314D5D4D03593D2CEEE0FBB452B750BD70EA5AF9 SWAP2 SWAP1 LOG2 PUSH1 0x2 SLOAD PUSH1 0x40 MLOAD PUSH4 0x2000575 PUSH1 0xE5 SHL DUP2 MSTORE PUSH1 0x1 PUSH1 0x1 PUSH1 0xA0 SHL SUB SWAP1 SWAP2 AND SWAP1 PUSH4 0x4000AEA0 SWAP1 PUSH2 0x22D9 SWAP1 DUP9 SWAP1 DUP8 SWAP1 DUP8 SWAP1 PUSH1 0x4 ADD PUSH2 0x2D78 JUMP JUMPDEST PUSH1 0x20 PUSH1 0x40 MLOAD DUP1 DUP4 SUB DUP2 PUSH1 0x0 DUP8 GAS CALL ISZERO DUP1 ISZERO PUSH2 0x22F8 JUMPI RETURNDATASIZE PUSH1 0x0 DUP1 RETURNDATACOPY RETURNDATASIZE PUSH1 0x0 REVERT JUMPDEST POP POP POP POP PUSH1 0x40 MLOAD RETURNDATASIZE PUSH1 0x1F NOT PUSH1 0x1F DUP3 ADD AND DUP3 ADD DUP1 PUSH1 0x40 MSTORE POP DUP2 ADD SWAP1 PUSH2 0x231C SWAP2 SWAP1 PUSH2 0x2D9F JUMP JUMPDEST PUSH2 0x1FCD JUMPI PUSH1 0x40 MLOAD PUSH3 0x461BCD PUSH1 0xE5 SHL DUP2 MSTORE PUSH1 0x20 PUSH1 0x4 DUP3 ADD MSTORE PUSH1 0x23 PUSH1 0x24 DUP3 ADD MSTORE PUSH32 0x756E61626C6520746F207472616E73666572416E6443616C6C20746F206F7261 PUSH1 0x44 DUP3 ADD MSTORE PUSH3 0x636C65 PUSH1 0xE8 SHL PUSH1 0x64 DUP3 ADD MSTORE PUSH1 0x84 ADD PUSH2 0xAA4 JUMP JUMPDEST PUSH1 0x40 DUP1 MLOAD DUP1 DUP3 ADD SWAP1 SWAP2 MSTORE PUSH1 0x60 DUP2 MSTORE PUSH1 0x0 PUSH1 0x20 DUP3 ADD MSTORE PUSH2 0x1F86 DUP4 DUP5 PUSH1 0x0 ADD MLOAD MLOAD DUP5 PUSH2 0x24A9 JUMP JUMPDEST PUSH1 0x40 DUP1 MLOAD DUP1 DUP3 ADD SWAP1 SWAP2 MSTORE PUSH1 0x60 DUP2 MSTORE PUSH1 0x0 PUSH1 0x20 DUP3 ADD MSTORE PUSH2 0x1FCD DUP5 DUP6 PUSH1 0x0 ADD MLOAD MLOAD DUP6 DUP6 PUSH2 0x2504 JUMP JUMPDEST PUSH1 0x40 DUP1 MLOAD DUP1 DUP3 ADD SWAP1 SWAP2 MSTORE PUSH1 0x60 DUP2 MSTORE PUSH1 0x0 PUSH1 0x20 DUP3 ADD MSTORE DUP3 MLOAD DUP3 GT ISZERO PUSH2 0x23E2 JUMPI PUSH1 0x0 DUP1 REVERT JUMPDEST PUSH1 0x20 DUP6 ADD MLOAD PUSH2 0x23F1 DUP4 DUP7 PUSH2 0x2CDB JUMP JUMPDEST GT ISZERO PUSH2 0x2424 JUMPI PUSH2 0x2424 DUP6 PUSH2 0x2414 DUP8 PUSH1 0x20 ADD MLOAD DUP8 DUP7 PUSH2 0x240F SWAP2 SWAP1 PUSH2 0x2CDB JUMP JUMPDEST PUSH2 0x2585 JUMP JUMPDEST PUSH2 0x241F SWAP1 PUSH1 0x2 PUSH2 0x2CC4 JUMP JUMPDEST PUSH2 0x2596 JUMP JUMPDEST PUSH1 0x0 DUP1 DUP7 MLOAD DUP1 MLOAD DUP8 PUSH1 0x20 DUP4 ADD ADD SWAP4 POP DUP1 DUP9 DUP8 ADD GT ISZERO PUSH2 0x2443 JUMPI DUP8 DUP7 ADD DUP3 MSTORE JUMPDEST POP POP POP PUSH1 0x20 DUP5 ADD JUMPDEST PUSH1 0x20 DUP5 LT PUSH2 0x2483 JUMPI DUP1 MLOAD DUP3 MSTORE PUSH2 0x2462 PUSH1 0x20 DUP4 PUSH2 0x2CDB JUMP JUMPDEST SWAP2 POP PUSH2 0x246F PUSH1 0x20 DUP3 PUSH2 0x2CDB JUMP JUMPDEST SWAP1 POP PUSH2 0x247C PUSH1 0x20 DUP6 PUSH2 0x2D65 JUMP JUMPDEST SWAP4 POP PUSH2 0x244B JUMP JUMPDEST MLOAD DUP2 MLOAD PUSH1 0x0 NOT PUSH1 0x20 DUP7 SWAP1 SUB PUSH2 0x100 EXP ADD SWAP1 DUP2 AND SWAP1 NOT SWAP2 SWAP1 SWAP2 AND OR SWAP1 MSTORE POP DUP4 SWAP5 SWAP4 POP POP POP POP JUMP JUMPDEST PUSH1 0x40 DUP1 MLOAD DUP1 DUP3 ADD SWAP1 SWAP2 MSTORE PUSH1 0x60 DUP2 MSTORE PUSH1 0x0 PUSH1 0x20 DUP3 ADD MSTORE DUP4 PUSH1 0x20 ADD MLOAD DUP4 LT PUSH2 0x24DE JUMPI PUSH2 0x24DE DUP5 DUP6 PUSH1 0x20 ADD MLOAD PUSH1 0x2 PUSH2 0x241F SWAP2 SWAP1 PUSH2 0x2CC4 JUMP JUMPDEST DUP4 MLOAD DUP1 MLOAD PUSH1 0x20 DUP6 DUP4 ADD ADD DUP5 DUP2 MSTORE8 POP DUP1 DUP6 SUB PUSH2 0x24FA JUMPI PUSH1 0x1 DUP2 ADD DUP3 MSTORE JUMPDEST POP SWAP4 SWAP5 SWAP4 POP POP POP POP JUMP JUMPDEST PUSH1 0x40 DUP1 MLOAD DUP1 DUP3 ADD SWAP1 SWAP2 MSTORE PUSH1 0x60 DUP2 MSTORE PUSH1 0x0 PUSH1 0x20 DUP3 ADD MSTORE PUSH1 0x20 DUP6 ADD MLOAD PUSH2 0x2528 DUP6 DUP5 PUSH2 0x2CDB JUMP JUMPDEST GT ISZERO PUSH2 0x253C JUMPI PUSH2 0x253C DUP6 PUSH2 0x2414 DUP7 DUP6 PUSH2 0x2CDB JUMP JUMPDEST PUSH1 0x0 PUSH1 0x1 PUSH2 0x254C DUP5 PUSH2 0x100 PUSH2 0x2EAC JUMP JUMPDEST PUSH2 0x2556 SWAP2 SWAP1 PUSH2 0x2D65 JUMP JUMPDEST SWAP1 POP DUP6 MLOAD DUP4 DUP7 DUP3 ADD ADD DUP6 DUP4 NOT DUP3 MLOAD AND OR DUP2 MSTORE POP DUP1 MLOAD DUP5 DUP8 ADD GT ISZERO PUSH2 0x257A JUMPI DUP4 DUP7 ADD DUP2 MSTORE JUMPDEST POP SWAP5 SWAP6 SWAP5 POP POP POP POP POP JUMP JUMPDEST PUSH1 0x0 DUP2 DUP4 GT ISZERO PUSH2 0x1B12 JUMPI POP DUP2 PUSH2 0x1F89 JUMP JUMPDEST DUP2 MLOAD PUSH2 0x25A2 DUP4 DUP4 PUSH2 0x207D JUMP JUMPDEST POP PUSH2 0x2106 DUP4 DUP3 PUSH2 0x21EF JUMP JUMPDEST PUSH1 0x40 MLOAD DUP1 PUSH2 0x1C0 ADD PUSH1 0x40 MSTORE DUP1 PUSH1 0x0 DUP2 MSTORE PUSH1 0x20 ADD PUSH1 0x0 DUP2 MSTORE PUSH1 0x20 ADD PUSH1 0x0 DUP2 MSTORE PUSH1 0x20 ADD PUSH1 0x60 DUP2 MSTORE PUSH1 0x20 ADD PUSH1 0x60 DUP2 MSTORE PUSH1 0x20 ADD PUSH1 0x60 DUP2 MSTORE PUSH1 0x20 ADD PUSH1 0x60 DUP2 MSTORE PUSH1 0x20 ADD PUSH1 0x0 DUP2 MSTORE PUSH1 0x20 ADD PUSH1 0x0 PUSH1 0x1 PUSH1 0x1 PUSH1 0xA0 SHL SUB AND DUP2 MSTORE PUSH1 0x20 ADD PUSH1 0x0 PUSH1 0x1 PUSH1 0x1 PUSH1 0xA0 SHL SUB AND DUP2 MSTORE PUSH1 0x20 ADD PUSH1 0x0 PUSH1 0x1 PUSH1 0x1 PUSH1 0xA0 SHL SUB AND DUP2 MSTORE PUSH1 0x20 ADD PUSH1 0x0 ISZERO ISZERO DUP2 MSTORE PUSH1 0x20 ADD PUSH1 0x0 ISZERO ISZERO DUP2 MSTORE PUSH1 0x20 ADD PUSH1 0x60 DUP2 MSTORE POP SWAP1 JUMP JUMPDEST PUSH1 0x40 DUP1 MLOAD PUSH1 0xA0 DUP2 ADD DUP3 MSTORE PUSH1 0x0 DUP1 DUP3 MSTORE PUSH1 0x20 DUP1 DUP4 ADD DUP3 SWAP1 MSTORE DUP3 DUP5 ADD DUP3 SWAP1 MSTORE PUSH1 0x60 DUP1 DUP5 ADD DUP4 SWAP1 MSTORE DUP5 MLOAD DUP1 DUP7 ADD SWAP1 SWAP6 MSTORE DUP5 MSTORE DUP4 ADD MSTORE SWAP1 PUSH1 0x80 DUP3 ADD MSTORE SWAP1 JUMP JUMPDEST PUSH1 0x0 DUP2 MLOAD DUP1 DUP5 MSTORE PUSH1 0x0 JUMPDEST DUP2 DUP2 LT ISZERO PUSH2 0x269C JUMPI PUSH1 0x20 DUP2 DUP6 ADD DUP2 ADD MLOAD DUP7 DUP4 ADD DUP3 ADD MSTORE ADD PUSH2 0x2680 JUMP JUMPDEST POP PUSH1 0x0 PUSH1 0x20 DUP3 DUP7 ADD ADD MSTORE PUSH1 0x20 PUSH1 0x1F NOT PUSH1 0x1F DUP4 ADD AND DUP6 ADD ADD SWAP2 POP POP SWAP3 SWAP2 POP POP JUMP JUMPDEST PUSH1 0x0 PUSH1 0x20 DUP1 DUP4 ADD DUP2 DUP5 MSTORE DUP1 DUP6 MLOAD DUP1 DUP4 MSTORE PUSH1 0x40 SWAP3 POP DUP3 DUP7 ADD SWAP2 POP DUP3 DUP2 PUSH1 0x5 SHL DUP8 ADD ADD DUP5 DUP9 ADD PUSH1 0x0 JUMPDEST DUP4 DUP2 LT ISZERO PUSH2 0x2811 JUMPI PUSH1 0x3F NOT DUP10 DUP5 SUB ADD DUP6 MSTORE DUP2 MLOAD PUSH2 0x1C0 DUP2 MLOAD DUP6 MSTORE DUP9 DUP3 ADD MLOAD DUP10 DUP7 ADD MSTORE DUP8 DUP3 ADD MLOAD DUP9 DUP7 ADD MSTORE PUSH1 0x60 DUP1 DUP4 ADD MLOAD DUP3 DUP3 DUP9 ADD MSTORE PUSH2 0x2724 DUP4 DUP9 ADD DUP3 PUSH2 0x2676 JUMP JUMPDEST SWAP3 POP POP POP PUSH1 0x80 DUP1 DUP4 ADD MLOAD DUP7 DUP4 SUB DUP3 DUP9 ADD MSTORE PUSH2 0x273F DUP4 DUP3 PUSH2 0x2676 JUMP JUMPDEST SWAP3 POP POP POP PUSH1 0xA0 DUP1 DUP4 ADD MLOAD DUP7 DUP4 SUB DUP3 DUP9 ADD MSTORE PUSH2 0x275A DUP4 DUP3 PUSH2 0x2676 JUMP JUMPDEST SWAP3 POP POP POP PUSH1 0xC0 DUP1 DUP4 ADD MLOAD DUP7 DUP4 SUB DUP3 DUP9 ADD MSTORE PUSH2 0x2775 DUP4 DUP3 PUSH2 0x2676 JUMP JUMPDEST SWAP3 POP POP POP PUSH1 0xE0 DUP1 DUP4 ADD MLOAD DUP2 DUP8 ADD MSTORE POP PUSH2 0x100 DUP1 DUP4 ADD MLOAD PUSH2 0x279F DUP3 DUP9 ADD DUP3 PUSH1 0x1 PUSH1 0x1 PUSH1 0xA0 SHL SUB AND SWAP1 MSTORE JUMP JUMPDEST POP POP PUSH2 0x120 DUP3 DUP2 ADD MLOAD PUSH1 0x1 PUSH1 0x1 PUSH1 0xA0 SHL SUB SWAP1 DUP2 AND SWAP2 DUP8 ADD SWAP2 SWAP1 SWAP2 MSTORE PUSH2 0x140 DUP1 DUP5 ADD MLOAD SWAP1 SWAP2 AND SWAP1 DUP7 ADD MSTORE PUSH2 0x160 DUP1 DUP4 ADD MLOAD ISZERO ISZERO SWAP1 DUP7 ADD MSTORE PUSH2 0x180 DUP1 DUP4 ADD MLOAD ISZERO ISZERO SWAP1 DUP7 ADD MSTORE PUSH2 0x1A0 SWAP2 DUP3 ADD MLOAD DUP6 DUP3 SUB SWAP3 DUP7 ADD SWAP3 SWAP1 SWAP3 MSTORE PUSH2 0x27FD DUP2 DUP4 PUSH2 0x2676 JUMP JUMPDEST SWAP7 DUP10 ADD SWAP7 SWAP5 POP POP POP SWAP1 DUP7 ADD SWAP1 PUSH1 0x1 ADD PUSH2 0x26E3 JUMP JUMPDEST POP SWAP1 SWAP9 SWAP8 POP POP POP POP POP POP POP POP JUMP JUMPDEST PUSH1 0x0 PUSH1 0x20 DUP3 DUP5 SUB SLT ISZERO PUSH2 0x2831 JUMPI PUSH1 0x0 DUP1 REVERT JUMPDEST POP CALLDATALOAD SWAP2 SWAP1 POP JUMP JUMPDEST DUP15 DUP2 MSTORE DUP14 PUSH1 0x20 DUP3 ADD MSTORE DUP13 PUSH1 0x40 DUP3 ADD MSTORE PUSH2 0x1C0 PUSH1 0x60 DUP3 ADD MSTORE PUSH1 0x0 PUSH2 0x285F PUSH2 0x1C0 DUP4 ADD DUP15 PUSH2 0x2676 JUMP JUMPDEST DUP3 DUP2 SUB PUSH1 0x80 DUP5 ADD MSTORE PUSH2 0x2871 DUP2 DUP15 PUSH2 0x2676 JUMP JUMPDEST SWAP1 POP DUP3 DUP2 SUB PUSH1 0xA0 DUP5 ADD MSTORE PUSH2 0x2885 DUP2 DUP14 PUSH2 0x2676 JUMP JUMPDEST SWAP1 POP DUP3 DUP2 SUB PUSH1 0xC0 DUP5 ADD MSTORE PUSH2 0x2899 DUP2 DUP13 PUSH2 0x2676 JUMP JUMPDEST SWAP1 POP DUP10 PUSH1 0xE0 DUP5 ADD MSTORE PUSH2 0x28B7 PUSH2 0x100 DUP5 ADD DUP11 PUSH1 0x1 PUSH1 0x1 PUSH1 0xA0 SHL SUB AND SWAP1 MSTORE JUMP JUMPDEST PUSH1 0x1 PUSH1 0x1 PUSH1 0xA0 SHL SUB DUP9 AND PUSH2 0x120 DUP5 ADD MSTORE PUSH1 0x1 PUSH1 0x1 PUSH1 0xA0 SHL SUB DUP8 AND PUSH2 0x140 DUP5 ADD MSTORE DUP6 ISZERO ISZERO PUSH2 0x160 DUP5 ADD MSTORE DUP5 ISZERO ISZERO PUSH2 0x180 DUP5 ADD MSTORE DUP3 DUP2 SUB PUSH2 0x1A0 DUP5 ADD MSTORE PUSH2 0x28FC DUP2 DUP6 PUSH2 0x2676 JUMP JUMPDEST SWAP2 POP POP SWAP16 SWAP15 POP POP POP POP POP POP POP POP POP POP POP POP POP POP POP JUMP JUMPDEST PUSH4 0x4E487B71 PUSH1 0xE0 SHL PUSH1 0x0 MSTORE PUSH1 0x41 PUSH1 0x4 MSTORE PUSH1 0x24 PUSH1 0x0 REVERT JUMPDEST PUSH1 0x0 DUP3 PUSH1 0x1F DUP4 ADD SLT PUSH2 0x2939 JUMPI PUSH1 0x0 DUP1 REVERT JUMPDEST DUP2 CALLDATALOAD PUSH1 0x1 PUSH1 0x1 PUSH1 0x40 SHL SUB DUP1 DUP3 GT ISZERO PUSH2 0x2953 JUMPI PUSH2 0x2953 PUSH2 0x2912 JUMP JUMPDEST PUSH1 0x40 MLOAD PUSH1 0x1F DUP4 ADD PUSH1 0x1F NOT SWAP1 DUP2 AND PUSH1 0x3F ADD AND DUP2 ADD SWAP1 DUP3 DUP3 GT DUP2 DUP4 LT OR ISZERO PUSH2 0x297B JUMPI PUSH2 0x297B PUSH2 0x2912 JUMP JUMPDEST DUP2 PUSH1 0x40 MSTORE DUP4 DUP2 MSTORE DUP7 PUSH1 0x20 DUP6 DUP9 ADD ADD GT ISZERO PUSH2 0x2994 JUMPI PUSH1 0x0 DUP1 REVERT JUMPDEST DUP4 PUSH1 0x20 DUP8 ADD PUSH1 0x20 DUP4 ADD CALLDATACOPY PUSH1 0x0 PUSH1 0x20 DUP6 DUP4 ADD ADD MSTORE DUP1 SWAP5 POP POP POP POP POP SWAP3 SWAP2 POP POP JUMP JUMPDEST PUSH1 0x0 DUP1 PUSH1 0x0 DUP1 PUSH1 0x0 DUP1 PUSH1 0x0 PUSH1 0xE0 DUP9 DUP11 SUB SLT ISZERO PUSH2 0x29CF JUMPI PUSH1 0x0 DUP1 REVERT JUMPDEST DUP8 CALLDATALOAD SWAP7 POP PUSH1 0x20 DUP9 ADD CALLDATALOAD SWAP6 POP PUSH1 0x40 DUP9 ADD CALLDATALOAD PUSH1 0x1 PUSH1 0x1 PUSH1 0x40 SHL SUB DUP1 DUP3 GT ISZERO PUSH2 0x29F4 JUMPI PUSH1 0x0 DUP1 REVERT JUMPDEST PUSH2 0x2A00 DUP12 DUP4 DUP13 ADD PUSH2 0x2928 JUMP JUMPDEST SWAP7 POP PUSH1 0x60 DUP11 ADD CALLDATALOAD SWAP2 POP DUP1 DUP3 GT ISZERO PUSH2 0x2A16 JUMPI PUSH1 0x0 DUP1 REVERT JUMPDEST PUSH2 0x2A22 DUP12 DUP4 DUP13 ADD PUSH2 0x2928 JUMP JUMPDEST SWAP6 POP PUSH1 0x80 DUP11 ADD CALLDATALOAD SWAP2 POP DUP1 DUP3 GT ISZERO PUSH2 0x2A38 JUMPI PUSH1 0x0 DUP1 REVERT JUMPDEST PUSH2 0x2A44 DUP12 DUP4 DUP13 ADD PUSH2 0x2928 JUMP JUMPDEST SWAP5 POP PUSH1 0xA0 DUP11 ADD CALLDATALOAD SWAP4 POP PUSH1 0xC0 DUP11 ADD CALLDATALOAD SWAP2 POP DUP1 DUP3 GT ISZERO PUSH2 0x2A61 JUMPI PUSH1 0x0 DUP1 REVERT JUMPDEST POP PUSH2 0x2A6E DUP11 DUP3 DUP12 ADD PUSH2 0x2928 JUMP JUMPDEST SWAP2 POP POP SWAP3 SWAP6 SWAP9 SWAP2 SWAP5 SWAP8 POP SWAP3 SWAP6 POP JUMP JUMPDEST PUSH1 0x0 DUP1 PUSH1 0x0 DUP1 PUSH1 0x0 PUSH1 0xA0 DUP7 DUP9 SUB SLT ISZERO PUSH2 0x2A95 JUMPI PUSH1 0x0 DUP1 REVERT JUMPDEST POP POP DUP4 CALLDATALOAD SWAP6 PUSH1 0x20 DUP6 ADD CALLDATALOAD SWAP6 POP PUSH1 0x40 DUP6 ADD CALLDATALOAD SWAP5 PUSH1 0x60 DUP2 ADD CALLDATALOAD SWAP5 POP PUSH1 0x80 ADD CALLDATALOAD SWAP3 POP SWAP1 POP JUMP JUMPDEST PUSH1 0x20 DUP2 MSTORE PUSH1 0x0 PUSH2 0x1F86 PUSH1 0x20 DUP4 ADD DUP5 PUSH2 0x2676 JUMP JUMPDEST PUSH4 0x4E487B71 PUSH1 0xE0 SHL PUSH1 0x0 MSTORE PUSH1 0x32 PUSH1 0x4 MSTORE PUSH1 0x24 PUSH1 0x0 REVERT JUMPDEST PUSH1 0x1 DUP2 DUP2 SHR SWAP1 DUP3 AND DUP1 PUSH2 0x2AF5 JUMPI PUSH1 0x7F DUP3 AND SWAP2 POP JUMPDEST PUSH1 0x20 DUP3 LT DUP2 SUB PUSH2 0x1B12 JUMPI PUSH4 0x4E487B71 PUSH1 0xE0 SHL PUSH1 0x0 MSTORE PUSH1 0x22 PUSH1 0x4 MSTORE PUSH1 0x24 PUSH1 0x0 REVERT JUMPDEST PUSH4 0x4E487B71 PUSH1 0xE0 SHL PUSH1 0x0 MSTORE PUSH1 0x11 PUSH1 0x4 MSTORE PUSH1 0x24 PUSH1 0x0 REVERT JUMPDEST PUSH1 0x0 PUSH1 0x1 DUP3 ADD PUSH2 0x2B3D JUMPI PUSH2 0x2B3D PUSH2 0x2B15 JUMP JUMPDEST POP PUSH1 0x1 ADD SWAP1 JUMP JUMPDEST PUSH1 0x20 DUP1 DUP3 MSTORE PUSH1 0x25 SWAP1 DUP3 ADD MSTORE PUSH32 0x596F752073686F756C642070726F76696465207072696365206173206D73672E PUSH1 0x40 DUP3 ADD MSTORE PUSH5 0x76616C7565 PUSH1 0xD8 SHL PUSH1 0x60 DUP3 ADD MSTORE PUSH1 0x80 ADD SWAP1 JUMP JUMPDEST PUSH1 0x1F DUP3 GT ISZERO PUSH2 0x1F67 JUMPI PUSH1 0x0 DUP2 DUP2 MSTORE PUSH1 0x20 DUP2 KECCAK256 PUSH1 0x1F DUP6 ADD PUSH1 0x5 SHR DUP2 ADD PUSH1 0x20 DUP7 LT ISZERO PUSH2 0x2BB0 JUMPI POP DUP1 JUMPDEST PUSH1 0x1F DUP6 ADD PUSH1 0x5 SHR DUP3 ADD SWAP2 POP JUMPDEST DUP2 DUP2 LT ISZERO PUSH2 0x2BCF JUMPI DUP3 DUP2 SSTORE PUSH1 0x1 ADD PUSH2 0x2BBC JUMP JUMPDEST POP POP POP POP POP POP JUMP JUMPDEST DUP2 MLOAD PUSH1 0x1 PUSH1 0x1 PUSH1 0x40 SHL SUB DUP2 GT ISZERO PUSH2 0x2BF0 JUMPI PUSH2 0x2BF0 PUSH2 0x2912 JUMP JUMPDEST PUSH2 0x2C04 DUP2 PUSH2 0x2BFE DUP5 SLOAD PUSH2 0x2AE1 JUMP JUMPDEST DUP5 PUSH2 0x2B89 JUMP JUMPDEST PUSH1 0x20 DUP1 PUSH1 0x1F DUP4 GT PUSH1 0x1 DUP2 EQ PUSH2 0x2C39 JUMPI PUSH1 0x0 DUP5 ISZERO PUSH2 0x2C21 JUMPI POP DUP6 DUP4 ADD MLOAD JUMPDEST PUSH1 0x0 NOT PUSH1 0x3 DUP7 SWAP1 SHL SHR NOT AND PUSH1 0x1 DUP6 SWAP1 SHL OR DUP6 SSTORE PUSH2 0x2BCF JUMP JUMPDEST PUSH1 0x0 DUP6 DUP2 MSTORE PUSH1 0x20 DUP2 KECCAK256 PUSH1 0x1F NOT DUP7 AND SWAP2 JUMPDEST DUP3 DUP2 LT ISZERO PUSH2 0x2C68 JUMPI DUP9 DUP7 ADD MLOAD DUP3 SSTORE SWAP5 DUP5 ADD SWAP5 PUSH1 0x1 SWAP1 SWAP2 ADD SWAP1 DUP5 ADD PUSH2 0x2C49 JUMP JUMPDEST POP DUP6 DUP3 LT ISZERO PUSH2 0x2C86 JUMPI DUP8 DUP6 ADD MLOAD PUSH1 0x0 NOT PUSH1 0x3 DUP9 SWAP1 SHL PUSH1 0xF8 AND SHR NOT AND DUP2 SSTORE JUMPDEST POP POP POP POP POP PUSH1 0x1 SWAP1 DUP2 SHL ADD SWAP1 SSTORE POP JUMP JUMPDEST PUSH1 0x20 DUP1 DUP3 MSTORE PUSH1 0x14 SWAP1 DUP3 ADD MSTORE PUSH20 0x10995D081A5CC81B9BDD081C1D589B1A5CDA1959 PUSH1 0x62 SHL PUSH1 0x40 DUP3 ADD MSTORE PUSH1 0x60 ADD SWAP1 JUMP JUMPDEST DUP1 DUP3 MUL DUP2 ISZERO DUP3 DUP3 DIV DUP5 EQ OR PUSH2 0x1F89 JUMPI PUSH2 0x1F89 PUSH2 0x2B15 JUMP JUMPDEST DUP1 DUP3 ADD DUP1 DUP3 GT ISZERO PUSH2 0x1F89 JUMPI PUSH2 0x1F89 PUSH2 0x2B15 JUMP JUMPDEST PUSH1 0x1 DUP1 PUSH1 0xA0 SHL SUB DUP9 AND DUP2 MSTORE DUP7 PUSH1 0x20 DUP3 ADD MSTORE DUP6 PUSH1 0x40 DUP3 ADD MSTORE PUSH4 0xFFFFFFFF PUSH1 0xE0 SHL DUP6 AND PUSH1 0x60 DUP3 ADD MSTORE DUP4 PUSH1 0x80 DUP3 ADD MSTORE DUP3 PUSH1 0xA0 DUP3 ADD MSTORE PUSH1 0xE0 PUSH1 0xC0 DUP3 ADD MSTORE PUSH1 0x0 PUSH2 0x2D36 PUSH1 0xE0 DUP4 ADD DUP5 PUSH2 0x2676 JUMP JUMPDEST SWAP10 SWAP9 POP POP POP POP POP POP POP POP POP JUMP JUMPDEST PUSH1 0x0 DUP3 PUSH2 0x2D60 JUMPI PUSH4 0x4E487B71 PUSH1 0xE0 SHL PUSH1 0x0 MSTORE PUSH1 0x12 PUSH1 0x4 MSTORE PUSH1 0x24 PUSH1 0x0 REVERT JUMPDEST POP MOD SWAP1 JUMP JUMPDEST DUP2 DUP2 SUB DUP2 DUP2 GT ISZERO PUSH2 0x1F89 JUMPI PUSH2 0x1F89 PUSH2 0x2B15 JUMP JUMPDEST PUSH1 0x1 DUP1 PUSH1 0xA0 SHL SUB DUP5 AND DUP2 MSTORE DUP3 PUSH1 0x20 DUP3 ADD MSTORE PUSH1 0x60 PUSH1 0x40 DUP3 ADD MSTORE PUSH1 0x0 PUSH2 0x1F40 PUSH1 0x60 DUP4 ADD DUP5 PUSH2 0x2676 JUMP JUMPDEST PUSH1 0x0 PUSH1 0x20 DUP3 DUP5 SUB SLT ISZERO PUSH2 0x2DB1 JUMPI PUSH1 0x0 DUP1 REVERT JUMPDEST DUP2 MLOAD DUP1 ISZERO ISZERO DUP2 EQ PUSH2 0x2DC1 JUMPI PUSH1 0x0 DUP1 REVERT JUMPDEST SWAP4 SWAP3 POP POP POP JUMP JUMPDEST PUSH1 0x1 DUP2 DUP2 JUMPDEST DUP1 DUP6 GT ISZERO PUSH2 0x2E03 JUMPI DUP2 PUSH1 0x0 NOT DIV DUP3 GT ISZERO PUSH2 0x2DE9 JUMPI PUSH2 0x2DE9 PUSH2 0x2B15 JUMP JUMPDEST DUP1 DUP6 AND ISZERO PUSH2 0x2DF6 JUMPI SWAP2 DUP2 MUL SWAP2 JUMPDEST SWAP4 DUP5 SHR SWAP4 SWAP1 DUP1 MUL SWAP1 PUSH2 0x2DCD JUMP JUMPDEST POP SWAP3 POP SWAP3 SWAP1 POP JUMP JUMPDEST PUSH1 0x0 DUP3 PUSH2 0x2E1A JUMPI POP PUSH1 0x1 PUSH2 0x1F89 JUMP JUMPDEST DUP2 PUSH2 0x2E27 JUMPI POP PUSH1 0x0 PUSH2 0x1F89 JUMP JUMPDEST DUP2 PUSH1 0x1 DUP2 EQ PUSH2 0x2E3D JUMPI PUSH1 0x2 DUP2 EQ PUSH2 0x2E47 JUMPI PUSH2 0x2E63 JUMP JUMPDEST PUSH1 0x1 SWAP2 POP POP PUSH2 0x1F89 JUMP JUMPDEST PUSH1 0xFF DUP5 GT ISZERO PUSH2 0x2E58 JUMPI PUSH2 0x2E58 PUSH2 0x2B15 JUMP JUMPDEST POP POP PUSH1 0x1 DUP3 SHL PUSH2 0x1F89 JUMP JUMPDEST POP PUSH1 0x20 DUP4 LT PUSH2 0x133 DUP4 LT AND PUSH1 0x4E DUP5 LT PUSH1 0xB DUP5 LT AND OR ISZERO PUSH2 0x2E86 JUMPI POP DUP2 DUP2 EXP PUSH2 0x1F89 JUMP JUMPDEST PUSH2 0x2E90 DUP4 DUP4 PUSH2 0x2DC8 JUMP JUMPDEST DUP1 PUSH1 0x0 NOT DIV DUP3 GT ISZERO PUSH2 0x2EA4 JUMPI PUSH2 0x2EA4 PUSH2 0x2B15 JUMP JUMPDEST MUL SWAP4 SWAP3 POP POP POP JUMP JUMPDEST PUSH1 0x0 PUSH2 0x1F86 DUP4 DUP4 PUSH2 0x2E0B JUMP INVALID PUSH9 0x747470733A2F2F6170 PUSH10 0x2E73706F727473646174 PUSH2 0x2E69 PUSH16 0x2F76332F6E62612F73636F7265732F6A PUSH20 0x6F6E2F5465616D47616D65537461747342795365 PUSH2 0x736F PUSH15 0x2F323032332F31312F313F6B65793D CALLDATACOPY CALLDATASIZE PUSH4 0x32623536 PUSH2 0x6365 ORIGIN CODESIZE CALLVALUE CALLDATALOAD PUSH4 0x35396538 CALLVALUE PUSH7 0x33306238613838 PUSH2 0x6433 CALLDATASIZE LOG2 PUSH5 0x6970667358 0x22 SLT KECCAK256 SWAP15 DUP16 0xE AND 0xDA 0x21 0xA8 0x25 0x2E 0xAD SLT CALLDATACOPY 0xD7 0x23 0xC 0x26 0x49 CODESIZE 0xB2 DELEGATECALL SGT 0x5F 0xAD DUP4 0x2E 0xC 0xCF JUMPDEST PUSH6 0x27B7B064736F PUSH13 0x63430008110033000000000000 ",
	"sha1": "8ee393cfe3c3ddded9a033fc71d32ea67f456757",
	"source": "// SPDX-License-Identifier: MIT\npragma solidity ^0.8.0;\n\nimport \"@chainlink/contracts/src/v0.8/ChainlinkClient.sol\";\n\n\ncontract BetContract is ChainlinkClient {\n\n    \n    uint256 public winning;         // latest match wining result\n    uint256 public losing;          // latest match losing result\n    uint256 public currentTeamId;   // latest match team id\n    uint256 public currentGameId;   // latest match gameId   \n    uint256 public betCounter;      // number of all bets\n\n    bytes32 private externalJobId;\n    uint256 private oraclePayment;\n    using Chainlink for Chainlink.Request;\n\n    mapping (uint => Bet) public bets; // bet id to bet struct\n    mapping (address => uint[]) AddressToBetId; // mapping from each user address to list of user bets id\n\n\n\n    struct Bet {\n\n        uint id;\n        uint gameId;\n        uint teamId;\n        string teamName;\n        string HomeTeam;\n        string AwayTeam;\n        string DateTime;\n        uint price;\n        address challenger;\n        address accepter;\n        address winner;\n        bool isAlive;\n        bool isAccepted;\n        string status;\n    }\n\n\n    event RequestFulfilled(\n\n        bytes32 indexed requestId,\n        uint256 number1,\n        uint256 number2,\n        uint256 gameId,\n        uint256 teamId\n    );\n\n\n\n    event LogPublishBet(\n\n        uint indexed _id,\n        address indexed _challenger,\n        uint256 indexed _price\n    ); \n\n    event LogAcceptBet(\n\n        uint indexed _id,\n        address indexed _challenger,\n        address indexed _accepter,\n        uint256  _price\n    );\n\n    event LogResolveBet(\n\n        uint indexed _id,\n        address indexed _challenger,\n        address indexed _accepter,\n        uint256 _payout\n    );\n\n    event logNumber (\n        uint number1,\n        uint number2\n    );\n\n\n    constructor() {\n        \n        setChainlinkToken(0x326C977E6efc84E512bB9C30f76E30c160eD06FB);\n        setChainlinkOracle(0x7ca7215c6B8013f249A195cc107F97c4e623e5F5);\n        externalJobId = \"00594814638f41c6a9cd1ae3dfa982d6\";\n        oraclePayment = (1 * LINK_DIVISIBILITY) / 10;\n\n    } \n\n    // request to oracle and get the latest match result from the api\n    function requestMultiVariable() public {\n\n        Chainlink.Request memory req = buildChainlinkRequest(externalJobId, address(this), this.fulfillBytesAndUint.selector);\n        req.add(\"get\", \"https://api.sportsdata.io/v3/nba/scores/json/TeamGameStatsBySeason/2023/11/1?key=76c2b56ace2845c59e84f30b8a88ad36\");\n        req.add(\"path1\", \"0,Name\");\n        req.add(\"path2\", \"0,Wins\");\n        req.add(\"path3\", \"0,Losses\");\n        req.add(\"path4\" , \"0,GameID\");\n        req.add(\"path5\", \"0,TeamID\");\n        sendOperatorRequest(req, oraclePayment);\n    }\n\n\n    function fulfillBytesAndUint(bytes32 requestId, uint256 _number1, uint256 _number2, uint256 _gameId, uint256 _TeamId)\n        public recordChainlinkFulfillment(requestId){\n    \n        emit RequestFulfilled(requestId, _number1, _number2, _gameId, _TeamId);\n        winning = _number1;\n        losing = _number2;\n        currentGameId = _gameId;\n        currentTeamId = _TeamId;\n    }\n \n    \n    // find winners and then close bets\n    // this function uses chainlink upkeep\n    function upkeep_setWinner() public {\n\n        requestMultiVariable();\n\n        for(uint i = 1; i <= betCounter; i++){\n        \n            if (bets[i].gameId == currentGameId) {\n\n                if (currentTeamId == bets[i].teamId){\n                    close_bet(i, bets[i].challenger);\n\n                }\n\n                else if(currentTeamId != bets[i].teamId){\n                    close_bet(i, bets[i].accepter);\n\n                }\n            }\n        } \n    }\n\n\n    // send reward for winner and close bet\n    function close_bet(uint id, address _to) internal  {\n\n        if (bets[id].isAlive == false || bets[id].isAccepted == false) {\n            return;\n        }\n        \n        bets[id].winner = _to;\n        bets[id].status = \"Closed\";\n        bets[id].isAlive = false;\n        \n        uint256 amount = bets[id].price * 2;\n        address payable to = payable(_to);\n\n        bool isSuccess = to.send(amount);\n        require(isSuccess, \"Transaction Failed\");\n\n\n    }\n    \n\n    // Publish a new bet \n    function publishBet( \n        uint256 _price, uint256 _gameId, string memory _homeTeam, string memory _awayTeam, string memory _dataTime, uint _teamId, string memory _teamName) public payable {\n\n        // publisher should send bet price as msg.value and price should be at least 0.01 Matic\n        require(_price >= 0.001 * 1e18, \"Minimum price is 1 Matic\");\n        require(msg.value >= _price, \"You should provide price as msg.value\");\n        \n        betCounter++;\n        bets[betCounter] = Bet(\n\n            betCounter,\n            _gameId,\n            _teamId,\n            _teamName,\n            _homeTeam,\n            _awayTeam,\n            _dataTime,\n            _price, \n            msg.sender,\n            payable(0x0),\n            payable(0x0),        \n            true,\n            false,\n            \"Published\"\n        );\n\n        AddressToBetId[msg.sender].push(betCounter);\n        emit LogPublishBet(betCounter, msg.sender, _price);\n    }\n\n\n    // accept the specific Bet \n    function acceptBet(uint _id ) public payable {\n\n        Bet storage bet = bets[_id];\n        \n        // the bet sould alive and not closed or accepted before\n        // accepter should send the bet price as msg.value\n        require(bet.isAlive == true, \"The bet was canceled\");\n        require(betCounter > 0, \"Bet is not published\");\n        require(_id > 0 && _id <= betCounter, \"Bet is not published\");\n        require(msg.sender != bet.challenger, \"Challenger can not accept the bet\");\n        require(msg.value >= bet.price, \"You should provide price as msg.value\");\n        \n        bet.accepter = msg.sender;\n        bet.isAccepted = true;\n        bet.status = \"Accepted\";\n        AddressToBetId[msg.sender].push(betCounter);\n\n        emit LogAcceptBet(_id, bet.challenger, bet.accepter, bet.price);\n\n    } \n\n    // cancel bet from challenger before accept bet\n    function cancelBet(uint _id) public payable {\n\n        Bet storage bet = bets[_id];\n\n        // msg.sender should be challenger\n        require(bet.isAlive == true, \"The bet was canceled\");\n        require(betCounter >= _id && _id > 0, \"Bet is not published\");\n        require(msg.sender == bet.challenger, \"Bet challenger can cancel\");\n\n        bet.isAlive = false;\n        bet.status = \"Canceled\";\n        uint256 amount = bet.price;\n        address payable to = payable(bet.challenger);\n\n        // send back bet price to challanger\n        bool isSuccess = to.send(amount);\n        require(isSuccess, \"Transaction Failed\");\n        \n    }\n\n    // return number of all of bets in the contract\n    function getNumberOfBets() public view returns (uint) {\n        return betCounter;\n    }\n\n\n    // return number of available Bets\n    function getNumberOfAvailableBets() public view returns(uint) {\n        \n        uint numberOfAvailableBets = 0;\n\n        for(uint i = 1; i <=  betCounter ; i++){\n\n            if(bets[i].isAccepted == false && bets[i].isAlive == true) {\n                numberOfAvailableBets++;\n            }\n        }\n\n        return numberOfAvailableBets;\n    }\n\n\n    // create the list of available Bets and return it\n    function getAvailableBets() public view returns (Bet[] memory) {\n\n        uint[] memory betIds = new uint[](betCounter);\n        uint numberOfAvailableBets = 0;\n\n        for(uint i = 1; i <=  betCounter ; i++){\n\n            // Keep the ID if the bet is still available\n            if(bets[i].isAccepted == false && bets[i].isAlive == true) {\n\n                betIds[numberOfAvailableBets] = bets[i].id;\n                numberOfAvailableBets++;\n            }\n        }\n        \n        Bet[] memory availableBets = new Bet[](numberOfAvailableBets);\n\n        // Copy the betIds array into a smaller availableBets array to get rid of empty indexes\n        for(uint j = 0; j < numberOfAvailableBets; j++) {\n            availableBets[j] = bets[betIds[j]];\n        }\n\n        return availableBets; \n    }   \n\n    // returns the list of msg.seder bets\n    function getUserBets() public view returns(Bet[] memory) {\n\n        uint size = AddressToBetId[msg.sender].length;\n        Bet[] memory userBets = new Bet[](size);\n\n        for(uint i = 0; i < size; i++) {\n\n            uint index = AddressToBetId[msg.sender][i];\n            userBets[i] = bets[index]; \n        }\n\n        return userBets;\n    }\n\n\n    // set and return the winner condition team for accepter\n    function getAcceptWinnerTeamName(uint id) public view returns(string memory) {\n\n        Bet memory betPosition = bets[id];\n        string memory team = betPosition.teamName;\n\n        if (keccak256(bytes(team)) == keccak256(bytes(betPosition.HomeTeam))){\n\n            return betPosition.AwayTeam;\n        }\n\n        else {\n\n            return betPosition.HomeTeam;\n        }\n\n    }\n\n\n\n}\n",
	"sourcePath": "contracts/BetContract.sol",
	"type": "contract"
}