{
	"abi": [
		{
			"inputs": [],
			"stateMutability": "nonpayable",
			"type": "constructor"
		},
		{
			"anonymous": false,
			"inputs": [
				{
					"indexed": true,
					"internalType": "bytes32",
					"name": "id",
					"type": "bytes32"
				}
			],
			"name": "ChainlinkCancelled",
			"type": "event"
		},
		{
			"anonymous": false,
			"inputs": [
				{
					"indexed": true,
					"internalType": "bytes32",
					"name": "id",
					"type": "bytes32"
				}
			],
			"name": "ChainlinkFulfilled",
			"type": "event"
		},
		{
			"anonymous": false,
			"inputs": [
				{
					"indexed": true,
					"internalType": "bytes32",
					"name": "id",
					"type": "bytes32"
				}
			],
			"name": "ChainlinkRequested",
			"type": "event"
		},
		{
			"anonymous": false,
			"inputs": [
				{
					"indexed": true,
					"internalType": "uint256",
					"name": "_id",
					"type": "uint256"
				},
				{
					"indexed": true,
					"internalType": "address",
					"name": "_challenger",
					"type": "address"
				},
				{
					"indexed": true,
					"internalType": "address",
					"name": "_accepter",
					"type": "address"
				},
				{
					"indexed": false,
					"internalType": "string",
					"name": "_name",
					"type": "string"
				},
				{
					"indexed": false,
					"internalType": "uint256",
					"name": "_price",
					"type": "uint256"
				}
			],
			"name": "LogAcceptBet",
			"type": "event"
		},
		{
			"anonymous": false,
			"inputs": [
				{
					"indexed": true,
					"internalType": "uint256",
					"name": "_id",
					"type": "uint256"
				},
				{
					"indexed": true,
					"internalType": "address",
					"name": "_challenger",
					"type": "address"
				},
				{
					"indexed": false,
					"internalType": "string",
					"name": "_name",
					"type": "string"
				},
				{
					"indexed": true,
					"internalType": "uint256",
					"name": "_price",
					"type": "uint256"
				}
			],
			"name": "LogPublishBet",
			"type": "event"
		},
		{
			"anonymous": false,
			"inputs": [
				{
					"indexed": true,
					"internalType": "uint256",
					"name": "_id",
					"type": "uint256"
				},
				{
					"indexed": true,
					"internalType": "address",
					"name": "_challenger",
					"type": "address"
				},
				{
					"indexed": true,
					"internalType": "address",
					"name": "_accepter",
					"type": "address"
				},
				{
					"indexed": false,
					"internalType": "string",
					"name": "_name",
					"type": "string"
				},
				{
					"indexed": false,
					"internalType": "uint256",
					"name": "_payout",
					"type": "uint256"
				}
			],
			"name": "LogResolveBet",
			"type": "event"
		},
		{
			"anonymous": false,
			"inputs": [
				{
					"indexed": true,
					"internalType": "bytes32",
					"name": "requestId",
					"type": "bytes32"
				},
				{
					"indexed": false,
					"internalType": "uint256",
					"name": "number1",
					"type": "uint256"
				},
				{
					"indexed": false,
					"internalType": "uint256",
					"name": "number2",
					"type": "uint256"
				}
			],
			"name": "RequestFulfilled",
			"type": "event"
		},
		{
			"anonymous": false,
			"inputs": [
				{
					"indexed": false,
					"internalType": "uint256",
					"name": "number1",
					"type": "uint256"
				},
				{
					"indexed": false,
					"internalType": "uint256",
					"name": "number2",
					"type": "uint256"
				}
			],
			"name": "logNumber",
			"type": "event"
		},
		{
			"inputs": [
				{
					"internalType": "uint256",
					"name": "_id",
					"type": "uint256"
				}
			],
			"name": "acceptBet",
			"outputs": [],
			"stateMutability": "payable",
			"type": "function"
		},
		{
			"inputs": [
				{
					"internalType": "uint256",
					"name": "",
					"type": "uint256"
				}
			],
			"name": "bets",
			"outputs": [
				{
					"internalType": "uint256",
					"name": "id",
					"type": "uint256"
				},
				{
					"internalType": "address",
					"name": "challenger",
					"type": "address"
				},
				{
					"internalType": "address",
					"name": "accepter",
					"type": "address"
				},
				{
					"internalType": "string",
					"name": "name",
					"type": "string"
				},
				{
					"internalType": "uint256",
					"name": "conditions",
					"type": "uint256"
				},
				{
					"internalType": "uint256",
					"name": "price",
					"type": "uint256"
				},
				{
					"internalType": "address",
					"name": "winner",
					"type": "address"
				},
				{
					"internalType": "bool",
					"name": "isAlive",
					"type": "bool"
				},
				{
					"internalType": "bool",
					"name": "isAccepted",
					"type": "bool"
				}
			],
			"stateMutability": "view",
			"type": "function"
		},
		{
			"inputs": [
				{
					"internalType": "uint256",
					"name": "_id",
					"type": "uint256"
				}
			],
			"name": "cancelBet",
			"outputs": [],
			"stateMutability": "payable",
			"type": "function"
		},
		{
			"inputs": [
				{
					"internalType": "bytes32",
					"name": "requestId",
					"type": "bytes32"
				},
				{
					"internalType": "uint256",
					"name": "_number1",
					"type": "uint256"
				},
				{
					"internalType": "uint256",
					"name": "_number2",
					"type": "uint256"
				}
			],
			"name": "fulfillBytesAndUint",
			"outputs": [],
			"stateMutability": "nonpayable",
			"type": "function"
		},
		{
			"inputs": [],
			"name": "getAvailableBets",
			"outputs": [
				{
					"internalType": "uint256[]",
					"name": "",
					"type": "uint256[]"
				}
			],
			"stateMutability": "view",
			"type": "function"
		},
		{
			"inputs": [],
			"name": "getNumberOfAvailableBets",
			"outputs": [
				{
					"internalType": "uint256",
					"name": "",
					"type": "uint256"
				}
			],
			"stateMutability": "view",
			"type": "function"
		},
		{
			"inputs": [],
			"name": "getNumberOfBets",
			"outputs": [
				{
					"internalType": "uint256",
					"name": "",
					"type": "uint256"
				}
			],
			"stateMutability": "view",
			"type": "function"
		},
		{
			"inputs": [],
			"name": "number1",
			"outputs": [
				{
					"internalType": "uint256",
					"name": "",
					"type": "uint256"
				}
			],
			"stateMutability": "view",
			"type": "function"
		},
		{
			"inputs": [],
			"name": "number2",
			"outputs": [
				{
					"internalType": "uint256",
					"name": "",
					"type": "uint256"
				}
			],
			"stateMutability": "view",
			"type": "function"
		},
		{
			"inputs": [
				{
					"internalType": "string",
					"name": "_name",
					"type": "string"
				},
				{
					"internalType": "uint256",
					"name": "_conditions",
					"type": "uint256"
				},
				{
					"internalType": "uint256",
					"name": "_price",
					"type": "uint256"
				}
			],
			"name": "publishBet",
			"outputs": [],
			"stateMutability": "payable",
			"type": "function"
		},
		{
			"inputs": [],
			"name": "upkeep_setWinner",
			"outputs": [],
			"stateMutability": "nonpayable",
			"type": "function"
		}
	],
	"bytecode": "608060405260016004556000600a5534801561001a57600080fd5b50600280546001600160a01b03191673326c977e6efc84e512bb9c30f76e30c160ed06fb179055600380546001600160a01b031916737ca7215c6b8013f249a195cc107f97c4e623e5f51790557f3238643533353536386237383438616462323336396531383530616134653163600855600a6100a0670de0b6b3a764000060016100b2565b6100aa91906100dd565b6009556100ff565b80820281158282048414176100d757634e487b7160e01b600052601160045260246000fd5b92915050565b6000826100fa57634e487b7160e01b600052601260045260246000fd5b500490565b611b95806200010f6000396000f3fe60806040526004361061009c5760003560e01c806390c524431161006457806390c524431461013a5780639a7b89181461015e578063bc21ca0e14610180578063c223a39e14610195578063c738f5e3146101ab578063f222d0b9146101c057600080fd5b806322af00fa146100a1578063357401f5146100df57806357c24b76146100f45780636b42e3b5146101075780636c0c27e114610127575b600080fd5b3480156100ad57600080fd5b506100c16100bc36600461148d565b6101d5565b6040516100d6999897969594939291906114ec565b60405180910390f35b6100f26100ed36600461148d565b6102c7565b005b6100f261010236600461156a565b610406565b34801561011357600080fd5b506100f261012236600461162e565b6105cb565b6100f261013536600461148d565b6106cf565b34801561014657600080fd5b5061015060075481565b6040519081526020016100d6565b34801561016a57600080fd5b50610173610832565b6040516100d6919061165a565b34801561018c57600080fd5b506101506109c8565b3480156101a157600080fd5b5061015060065481565b3480156101b757600080fd5b506100f2610a48565b3480156101cc57600080fd5b50600a54610150565b600b60205260009081526040902080546001820154600283015460038401805493946001600160a01b039384169493909216926102119061169e565b80601f016020809104026020016040519081016040528092919081815260200182805461023d9061169e565b801561028a5780601f1061025f5761010080835404028352916020019161028a565b820191906000526020600020905b81548152906001019060200180831161026d57829003601f168201915b50505060048401546005850154600690950154939490939092506001600160a01b038116915060ff600160a01b8204811691600160a81b90041689565b6000818152600b602052604090206006810154600160a01b900460ff1615156001146103315760405162461bcd60e51b8152602060048201526014602482015273151a194818995d081dd85cc818d85b98d95b195960621b60448201526064015b60405180910390fd5b81600a54101580156103435750600082115b61035f5760405162461bcd60e51b8152600401610328906116d2565b60018101546001600160a01b0316331461037857600080fd5b60068101805460ff60a01b19169055600581015460018201546040516001600160a01b0390911690600090829084156108fc0290859084818181858888f193505050509050806103ff5760405162461bcd60e51b8152602060048201526012602482015271151c985b9cd858dd1a5bdb8811985a5b195960721b6044820152606401610328565b5050505050565b60018110156104575760405162461bcd60e51b815260206004820152601860248201527f4d696e696d756d2070726963652069732031204d6174696300000000000000006044820152606401610328565b8034101561046457600080fd5b600a805490600061047483611716565b90915550506040805161012081018252600a548082523360208084019182526000848601818152606086018a8152608087018a905260a0870189905260c08701839052600160e088018190526101008801849052958352600b90935295902084518155915192820180546001600160a01b03199081166001600160a01b03958616179091559451600283018054909616931692909217909355519091906003820190610520908261177d565b506080820151600482015560a0820151600582015560c08201516006909101805460e0840151610100909401511515600160a81b0260ff60a81b19941515600160a01b026001600160a81b03199092166001600160a01b03909416939093171792909216179055600a54604051829133917f6c8c9777ec614ea853141d54ffec0186d95e218782ca60da8a5198843ba36eb3906105be90889061183d565b60405180910390a4505050565b60008381526005602052604090205483906001600160a01b031633146106445760405162461bcd60e51b815260206004820152602860248201527f536f75726365206d75737420626520746865206f7261636c65206f6620746865604482015267081c995c5d595cdd60c21b6064820152608401610328565b60008181526005602052604080822080546001600160a01b03191690555182917f7cc135e0cebb02c3480ae5d74d377283180a2601f8f644edf7987b009316c63a91a2604080518481526020810184905285917f29d1fd44cc39a4213a364818c158187934866b333b04a59815cdf69b58c809c0910160405180910390a25060069190915560075550565b6000818152600b602052604090206006810154600160a01b900460ff1615156001146107345760405162461bcd60e51b8152602060048201526014602482015273151a194818995d081dd85cc818d85b98d95b195960621b6044820152606401610328565b6000600a54116107565760405162461bcd60e51b8152600401610328906116d2565b6000821180156107685750600a548211155b6107845760405162461bcd60e51b8152600401610328906116d2565b60018101546001600160a01b0316330361079d57600080fd5b80600501543410156107ae57600080fd5b6002810180546001600160a01b0319163390811790915560068201805460ff60a81b1916600160a81b179055600182015460058301546040516001600160a01b03929092169185917fa2d31aef88568a734ed41d11dfc3f095389ac0000df8ddf3f39fcf34b75b6fd891610826916003880191611850565b60405180910390a45050565b60606000600a5467ffffffffffffffff81111561085157610851611554565b60405190808252806020026020018201604052801561087a578160200160208202803683370190505b509050600060015b600a548111610924576000818152600b6020526040902060060154600160a81b900460ff161580156108d157506000818152600b6020526040902060060154600160a01b900460ff1615156001145b15610912576000818152600b602052604090205483518490849081106108f9576108f96118e4565b60209081029190910101528161090e81611716565b9250505b8061091c81611716565b915050610882565b5060008167ffffffffffffffff81111561094057610940611554565b604051908082528060200260200182016040528015610969578160200160208202803683370190505b50905060005b828110156109c057838181518110610989576109896118e4565b60200260200101518282815181106109a3576109a36118e4565b6020908102919091010152806109b881611716565b91505061096f565b509392505050565b60008060015b600a548111610a42576000818152600b6020526040902060060154600160a81b900460ff16158015610a1d57506000818152600b6020526040902060060154600160a01b900460ff1615156001145b15610a305781610a2c81611716565b9250505b80610a3a81611716565b9150506109ce565b50919050565b610a50610b73565b60065460011480610a6357506007546001145b610a6c57600080fd5b60015b600a548111610b70576000818152600b6020526040902060040154158015610a975750600754155b80610ac057506000818152600b60205260409020600401546001148015610ac057506007546001145b15610aeb576000818152600b6020526040902060010154610aeb9082906001600160a01b0316610ccd565b6000818152600b6020526040902060040154158015610b0c57506007546001145b80610b3357506000818152600b60205260409020600401546001148015610b335750600754155b15610b5e576000818152600b6020526040902060020154610b5e9082906001600160a01b0316610ccd565b80610b6881611716565b915050610a6f565b50565b6000610b8960085430636b42e3b560e01b610dc1565b9050610bcb6040518060400160405280600381526020016219d95d60ea1b8152506040518060a0016040528060718152602001611aef60719139839190610de6565b610c1b60405180604001604052806005815260200164706174683160d81b81525060405180604001604052806006815260200165302c4e616d6560d01b81525083610de69092919063ffffffff16565b610c6b604051806040016040528060058152602001643830ba341960d91b81525060405180604001604052806006815260200165302c57696e7360d01b81525083610de69092919063ffffffff16565b610cbd60405180604001604052806005815260200164706174683360d81b81525060405180604001604052806008815260200167302c4c6f7373657360c01b81525083610de69092919063ffffffff16565b610cc981600954610e09565b5050565b6000828152600b6020526040902060060154600160a01b900460ff161580610d0e57506000828152600b6020526040902060060154600160a81b900460ff16155b15610d17575050565b6000828152600b602052604081206006810180546001600160a81b0319166001600160a01b03851617905560050154610d519060026118fa565b60405190915082906000906001600160a01b0383169084156108fc0290859084818181858888f193505050509050806103ff5760405162461bcd60e51b8152602060048201526012602482015271151c985b9cd858dd1a5bdb8811985a5b195960721b6044820152606401610328565b610dc9611452565b610dd1611452565b610ddd81868686610e2c565b95945050505050565b6080830151610df59083610e72565b6080830151610e049082610e72565b505050565b600354600090610e23906001600160a01b03168484610e89565b90505b92915050565b610e34611452565b610e448560800151610100610f1a565b50508284526001600160a01b03821660208501526001600160e01b031981166040850152835b949350505050565b610e7f8260038351610f7f565b610e048282611094565b600454600090610e9a816001611911565b60045583516040808601516080870151519151600093633c6d41b960e01b93610ed0938693849392899160029190602401611924565b60408051601f198184030181529190526020810180516001600160e01b03166001600160e01b0319909316929092179091529050610f10868386846110bb565b9695505050505050565b604080518082019091526060815260006020820152610f3a602083611979565b15610f6257610f4a602083611979565b610f5590602061199b565b610f5f9083611911565b91505b506020828101829052604080518085526000815290920101905290565b60178167ffffffffffffffff1611610faa57610fa48360e0600585901b168317611219565b50505050565b60ff8167ffffffffffffffff1611610fe857610fd1836018611fe0600586901b1617611219565b50610fa48367ffffffffffffffff8316600161123e565b61ffff8167ffffffffffffffff161161102757611010836019611fe0600586901b1617611219565b50610fa48367ffffffffffffffff8316600261123e565b63ffffffff8167ffffffffffffffff16116110685761105183601a611fe0600586901b1617611219565b50610fa48367ffffffffffffffff8316600461123e565b61107d83601b611fe0600586901b1617611219565b50610fa48367ffffffffffffffff8316600861123e565b604080518082019091526060815260006020820152610e2383846000015151848551611264565b6040516bffffffffffffffffffffffff193060601b1660208201526034810184905260009060540160408051808303601f1901815282825280516020918201206000818152600590925291812080546001600160a01b0319166001600160a01b038a1617905590925082917fb5e6e01e79f91267dc17b4e6314d5d4d03593d2ceee0fbb452b750bd70ea5af99190a2600254604051630200057560e51b81526001600160a01b0390911690634000aea09061117e908890879087906004016119ae565b6020604051808303816000875af115801561119d573d6000803e3d6000fd5b505050506040513d601f19601f820116820180604052508101906111c191906119d5565b610e6a5760405162461bcd60e51b815260206004820152602360248201527f756e61626c6520746f207472616e73666572416e6443616c6c20746f206f7261604482015262636c6560e81b6064820152608401610328565b604080518082019091526060815260006020820152610e23838460000151518461134e565b604080518082019091526060815260006020820152610e6a8485600001515185856113a9565b604080518082019091526060815260006020820152825182111561128757600080fd5b60208501516112968386611911565b11156112c9576112c9856112b9876020015187866112b49190611911565b61142a565b6112c49060026118fa565b61143b565b6000808651805187602083010193508088870111156112e85787860182525b505050602084015b602084106113285780518252611307602083611911565b9150611314602082611911565b905061132160208561199b565b93506112f0565b51815160001960208690036101000a019081169019919091161790525083949350505050565b604080518082019091526060815260006020820152836020015183106113835761138384856020015160026112c491906118fa565b835180516020858301018481535080850361139f576001810182525b5093949350505050565b60408051808201909152606081526000602082015260208501516113cd8584611911565b11156113e1576113e1856112b98685611911565b600060016113f184610100611ae2565b6113fb919061199b565b905085518386820101858319825116178152508051848701111561141f5783860181525b509495945050505050565b600081831115610a42575081610e26565b81516114478383610f1a565b50610fa48382611094565b6040805160a0810182526000808252602080830182905282840182905260608084018390528451808601909552845283015290608082015290565b60006020828403121561149f57600080fd5b5035919050565b6000815180845260005b818110156114cc576020818501810151868301820152016114b0565b506000602082860101526020601f19601f83011685010191505092915050565b8981526001600160a01b0389811660208301528881166040830152610120606083018190526000916115208483018b6114a6565b608085019990995260a084019790975250509290931660c0830152151560e082015290151561010090910152949350505050565b634e487b7160e01b600052604160045260246000fd5b60008060006060848603121561157f57600080fd5b833567ffffffffffffffff8082111561159757600080fd5b818601915086601f8301126115ab57600080fd5b8135818111156115bd576115bd611554565b604051601f8201601f19908116603f011681019083821181831017156115e5576115e5611554565b816040528281528960208487010111156115fe57600080fd5b82602086016020830137600060208483010152809750505050505060208401359150604084013590509250925092565b60008060006060848603121561164357600080fd5b505081359360208301359350604090920135919050565b6020808252825182820181905260009190848201906040850190845b8181101561169257835183529284019291840191600101611676565b50909695505050505050565b600181811c908216806116b257607f821691505b602082108103610a4257634e487b7160e01b600052602260045260246000fd5b60208082526014908201527310995d081a5cc81b9bdd081c1d589b1a5cda195960621b604082015260600190565b634e487b7160e01b600052601160045260246000fd5b60006001820161172857611728611700565b5060010190565b601f821115610e0457600081815260208120601f850160051c810160208610156117565750805b601f850160051c820191505b8181101561177557828155600101611762565b505050505050565b815167ffffffffffffffff81111561179757611797611554565b6117ab816117a5845461169e565b8461172f565b602080601f8311600181146117e057600084156117c85750858301515b600019600386901b1c1916600185901b178555611775565b600085815260208120601f198616915b8281101561180f578886015182559484019460019091019084016117f0565b508582101561182d5787850151600019600388901b60f8161c191681555b5050505050600190811b01905550565b602081526000610e2360208301846114a6565b6040815260008084546118628161169e565b8060408601526060600180841660008114611884576001811461189e576118cf565b60ff1985168884015283151560051b8801830195506118cf565b8960005260208060002060005b868110156118c65781548b82018701529084019082016118ab565b8a018501975050505b50505050506020929092019290925292915050565b634e487b7160e01b600052603260045260246000fd5b8082028115828204841417610e2657610e26611700565b80820180821115610e2657610e26611700565b60018060a01b038816815286602082015285604082015263ffffffff60e01b851660608201528360808201528260a082015260e060c0820152600061196c60e08301846114a6565b9998505050505050505050565b60008261199657634e487b7160e01b600052601260045260246000fd5b500690565b81810381811115610e2657610e26611700565b60018060a01b0384168152826020820152606060408201526000610ddd60608301846114a6565b6000602082840312156119e757600080fd5b815180151581146119f757600080fd5b9392505050565b600181815b80851115611a39578160001904821115611a1f57611a1f611700565b80851615611a2c57918102915b93841c9390800290611a03565b509250929050565b600082611a5057506001610e26565b81611a5d57506000610e26565b8160018114611a735760028114611a7d57611a99565b6001915050610e26565b60ff841115611a8e57611a8e611700565b50506001821b610e26565b5060208310610133831016604e8410600b8410161715611abc575081810a610e26565b611ac683836119fe565b8060001904821115611ada57611ada611700565b029392505050565b6000610e238383611a4156fe68747470733a2f2f6170692e73706f727473646174612e696f2f76332f6e62612f73636f7265732f6a736f6e2f5465616d47616d6553746174734279536561736f6e2f323032332f31312f313f6b65793d3736633262353661636532383435633539653834663330623861383861643336a2646970667358221220aac885d5254368a523462aaca7285a7b787a096ca7fac9b68160fac11435cca264736f6c63430008110033",
	"bytecodeSha1": "ce2fab6336626e8a288d1a0dcabc2b94f1993dcc",
	"compiler": {
		"evm_version": "istanbul",
		"optimizer": {
			"enabled": true,
			"runs": 200
		},
		"version": "0.8.17+commit.8df45f5f"
	},
	"contractName": "BetContract",
	"language": "Solidity",
	"natspec": {
		"kind": "dev",
		"methods": {},
		"version": 1
	},
	"opcodes": "PUSH1 0x80 PUSH1 0x40 MSTORE PUSH1 0x4 CALLDATASIZE LT PUSH2 0x9C JUMPI PUSH1 0x0 CALLDATALOAD PUSH1 0xE0 SHR DUP1 PUSH4 0x90C52443 GT PUSH2 0x64 JUMPI DUP1 PUSH4 0x90C52443 EQ PUSH2 0x13A JUMPI DUP1 PUSH4 0x9A7B8918 EQ PUSH2 0x15E JUMPI DUP1 PUSH4 0xBC21CA0E EQ PUSH2 0x180 JUMPI DUP1 PUSH4 0xC223A39E EQ PUSH2 0x195 JUMPI DUP1 PUSH4 0xC738F5E3 EQ PUSH2 0x1AB JUMPI DUP1 PUSH4 0xF222D0B9 EQ PUSH2 0x1C0 JUMPI PUSH1 0x0 DUP1 REVERT JUMPDEST DUP1 PUSH4 0x22AF00FA EQ PUSH2 0xA1 JUMPI DUP1 PUSH4 0x357401F5 EQ PUSH2 0xDF JUMPI DUP1 PUSH4 0x57C24B76 EQ PUSH2 0xF4 JUMPI DUP1 PUSH4 0x6B42E3B5 EQ PUSH2 0x107 JUMPI DUP1 PUSH4 0x6C0C27E1 EQ PUSH2 0x127 JUMPI JUMPDEST PUSH1 0x0 DUP1 REVERT JUMPDEST CALLVALUE DUP1 ISZERO PUSH2 0xAD JUMPI PUSH1 0x0 DUP1 REVERT JUMPDEST POP PUSH2 0xC1 PUSH2 0xBC CALLDATASIZE PUSH1 0x4 PUSH2 0x148D JUMP JUMPDEST PUSH2 0x1D5 JUMP JUMPDEST PUSH1 0x40 MLOAD PUSH2 0xD6 SWAP10 SWAP9 SWAP8 SWAP7 SWAP6 SWAP5 SWAP4 SWAP3 SWAP2 SWAP1 PUSH2 0x14EC JUMP JUMPDEST PUSH1 0x40 MLOAD DUP1 SWAP2 SUB SWAP1 RETURN JUMPDEST PUSH2 0xF2 PUSH2 0xED CALLDATASIZE PUSH1 0x4 PUSH2 0x148D JUMP JUMPDEST PUSH2 0x2C7 JUMP JUMPDEST STOP JUMPDEST PUSH2 0xF2 PUSH2 0x102 CALLDATASIZE PUSH1 0x4 PUSH2 0x156A JUMP JUMPDEST PUSH2 0x406 JUMP JUMPDEST CALLVALUE DUP1 ISZERO PUSH2 0x113 JUMPI PUSH1 0x0 DUP1 REVERT JUMPDEST POP PUSH2 0xF2 PUSH2 0x122 CALLDATASIZE PUSH1 0x4 PUSH2 0x162E JUMP JUMPDEST PUSH2 0x5CB JUMP JUMPDEST PUSH2 0xF2 PUSH2 0x135 CALLDATASIZE PUSH1 0x4 PUSH2 0x148D JUMP JUMPDEST PUSH2 0x6CF JUMP JUMPDEST CALLVALUE DUP1 ISZERO PUSH2 0x146 JUMPI PUSH1 0x0 DUP1 REVERT JUMPDEST POP PUSH2 0x150 PUSH1 0x7 SLOAD DUP2 JUMP JUMPDEST PUSH1 0x40 MLOAD SWAP1 DUP2 MSTORE PUSH1 0x20 ADD PUSH2 0xD6 JUMP JUMPDEST CALLVALUE DUP1 ISZERO PUSH2 0x16A JUMPI PUSH1 0x0 DUP1 REVERT JUMPDEST POP PUSH2 0x173 PUSH2 0x832 JUMP JUMPDEST PUSH1 0x40 MLOAD PUSH2 0xD6 SWAP2 SWAP1 PUSH2 0x165A JUMP JUMPDEST CALLVALUE DUP1 ISZERO PUSH2 0x18C JUMPI PUSH1 0x0 DUP1 REVERT JUMPDEST POP PUSH2 0x150 PUSH2 0x9C8 JUMP JUMPDEST CALLVALUE DUP1 ISZERO PUSH2 0x1A1 JUMPI PUSH1 0x0 DUP1 REVERT JUMPDEST POP PUSH2 0x150 PUSH1 0x6 SLOAD DUP2 JUMP JUMPDEST CALLVALUE DUP1 ISZERO PUSH2 0x1B7 JUMPI PUSH1 0x0 DUP1 REVERT JUMPDEST POP PUSH2 0xF2 PUSH2 0xA48 JUMP JUMPDEST CALLVALUE DUP1 ISZERO PUSH2 0x1CC JUMPI PUSH1 0x0 DUP1 REVERT JUMPDEST POP PUSH1 0xA SLOAD PUSH2 0x150 JUMP JUMPDEST PUSH1 0xB PUSH1 0x20 MSTORE PUSH1 0x0 SWAP1 DUP2 MSTORE PUSH1 0x40 SWAP1 KECCAK256 DUP1 SLOAD PUSH1 0x1 DUP3 ADD SLOAD PUSH1 0x2 DUP4 ADD SLOAD PUSH1 0x3 DUP5 ADD DUP1 SLOAD SWAP4 SWAP5 PUSH1 0x1 PUSH1 0x1 PUSH1 0xA0 SHL SUB SWAP4 DUP5 AND SWAP5 SWAP4 SWAP1 SWAP3 AND SWAP3 PUSH2 0x211 SWAP1 PUSH2 0x169E JUMP JUMPDEST DUP1 PUSH1 0x1F ADD PUSH1 0x20 DUP1 SWAP2 DIV MUL PUSH1 0x20 ADD PUSH1 0x40 MLOAD SWAP1 DUP2 ADD PUSH1 0x40 MSTORE DUP1 SWAP3 SWAP2 SWAP1 DUP2 DUP2 MSTORE PUSH1 0x20 ADD DUP3 DUP1 SLOAD PUSH2 0x23D SWAP1 PUSH2 0x169E JUMP JUMPDEST DUP1 ISZERO PUSH2 0x28A JUMPI DUP1 PUSH1 0x1F LT PUSH2 0x25F JUMPI PUSH2 0x100 DUP1 DUP4 SLOAD DIV MUL DUP4 MSTORE SWAP2 PUSH1 0x20 ADD SWAP2 PUSH2 0x28A JUMP JUMPDEST DUP3 ADD SWAP2 SWAP1 PUSH1 0x0 MSTORE PUSH1 0x20 PUSH1 0x0 KECCAK256 SWAP1 JUMPDEST DUP2 SLOAD DUP2 MSTORE SWAP1 PUSH1 0x1 ADD SWAP1 PUSH1 0x20 ADD DUP1 DUP4 GT PUSH2 0x26D JUMPI DUP3 SWAP1 SUB PUSH1 0x1F AND DUP3 ADD SWAP2 JUMPDEST POP POP POP PUSH1 0x4 DUP5 ADD SLOAD PUSH1 0x5 DUP6 ADD SLOAD PUSH1 0x6 SWAP1 SWAP6 ADD SLOAD SWAP4 SWAP5 SWAP1 SWAP4 SWAP1 SWAP3 POP PUSH1 0x1 PUSH1 0x1 PUSH1 0xA0 SHL SUB DUP2 AND SWAP2 POP PUSH1 0xFF PUSH1 0x1 PUSH1 0xA0 SHL DUP3 DIV DUP2 AND SWAP2 PUSH1 0x1 PUSH1 0xA8 SHL SWAP1 DIV AND DUP10 JUMP JUMPDEST PUSH1 0x0 DUP2 DUP2 MSTORE PUSH1 0xB PUSH1 0x20 MSTORE PUSH1 0x40 SWAP1 KECCAK256 PUSH1 0x6 DUP2 ADD SLOAD PUSH1 0x1 PUSH1 0xA0 SHL SWAP1 DIV PUSH1 0xFF AND ISZERO ISZERO PUSH1 0x1 EQ PUSH2 0x331 JUMPI PUSH1 0x40 MLOAD PUSH3 0x461BCD PUSH1 0xE5 SHL DUP2 MSTORE PUSH1 0x20 PUSH1 0x4 DUP3 ADD MSTORE PUSH1 0x14 PUSH1 0x24 DUP3 ADD MSTORE PUSH20 0x151A194818995D081DD85CC818D85B98D95B1959 PUSH1 0x62 SHL PUSH1 0x44 DUP3 ADD MSTORE PUSH1 0x64 ADD JUMPDEST PUSH1 0x40 MLOAD DUP1 SWAP2 SUB SWAP1 REVERT JUMPDEST DUP2 PUSH1 0xA SLOAD LT ISZERO DUP1 ISZERO PUSH2 0x343 JUMPI POP PUSH1 0x0 DUP3 GT JUMPDEST PUSH2 0x35F JUMPI PUSH1 0x40 MLOAD PUSH3 0x461BCD PUSH1 0xE5 SHL DUP2 MSTORE PUSH1 0x4 ADD PUSH2 0x328 SWAP1 PUSH2 0x16D2 JUMP JUMPDEST PUSH1 0x1 DUP2 ADD SLOAD PUSH1 0x1 PUSH1 0x1 PUSH1 0xA0 SHL SUB AND CALLER EQ PUSH2 0x378 JUMPI PUSH1 0x0 DUP1 REVERT JUMPDEST PUSH1 0x6 DUP2 ADD DUP1 SLOAD PUSH1 0xFF PUSH1 0xA0 SHL NOT AND SWAP1 SSTORE PUSH1 0x5 DUP2 ADD SLOAD PUSH1 0x1 DUP3 ADD SLOAD PUSH1 0x40 MLOAD PUSH1 0x1 PUSH1 0x1 PUSH1 0xA0 SHL SUB SWAP1 SWAP2 AND SWAP1 PUSH1 0x0 SWAP1 DUP3 SWAP1 DUP5 ISZERO PUSH2 0x8FC MUL SWAP1 DUP6 SWAP1 DUP5 DUP2 DUP2 DUP2 DUP6 DUP9 DUP9 CALL SWAP4 POP POP POP POP SWAP1 POP DUP1 PUSH2 0x3FF JUMPI PUSH1 0x40 MLOAD PUSH3 0x461BCD PUSH1 0xE5 SHL DUP2 MSTORE PUSH1 0x20 PUSH1 0x4 DUP3 ADD MSTORE PUSH1 0x12 PUSH1 0x24 DUP3 ADD MSTORE PUSH18 0x151C985B9CD858DD1A5BDB8811985A5B1959 PUSH1 0x72 SHL PUSH1 0x44 DUP3 ADD MSTORE PUSH1 0x64 ADD PUSH2 0x328 JUMP JUMPDEST POP POP POP POP POP JUMP JUMPDEST PUSH1 0x1 DUP2 LT ISZERO PUSH2 0x457 JUMPI PUSH1 0x40 MLOAD PUSH3 0x461BCD PUSH1 0xE5 SHL DUP2 MSTORE PUSH1 0x20 PUSH1 0x4 DUP3 ADD MSTORE PUSH1 0x18 PUSH1 0x24 DUP3 ADD MSTORE PUSH32 0x4D696E696D756D2070726963652069732031204D617469630000000000000000 PUSH1 0x44 DUP3 ADD MSTORE PUSH1 0x64 ADD PUSH2 0x328 JUMP JUMPDEST DUP1 CALLVALUE LT ISZERO PUSH2 0x464 JUMPI PUSH1 0x0 DUP1 REVERT JUMPDEST PUSH1 0xA DUP1 SLOAD SWAP1 PUSH1 0x0 PUSH2 0x474 DUP4 PUSH2 0x1716 JUMP JUMPDEST SWAP1 SWAP2 SSTORE POP POP PUSH1 0x40 DUP1 MLOAD PUSH2 0x120 DUP2 ADD DUP3 MSTORE PUSH1 0xA SLOAD DUP1 DUP3 MSTORE CALLER PUSH1 0x20 DUP1 DUP5 ADD SWAP2 DUP3 MSTORE PUSH1 0x0 DUP5 DUP7 ADD DUP2 DUP2 MSTORE PUSH1 0x60 DUP7 ADD DUP11 DUP2 MSTORE PUSH1 0x80 DUP8 ADD DUP11 SWAP1 MSTORE PUSH1 0xA0 DUP8 ADD DUP10 SWAP1 MSTORE PUSH1 0xC0 DUP8 ADD DUP4 SWAP1 MSTORE PUSH1 0x1 PUSH1 0xE0 DUP9 ADD DUP2 SWAP1 MSTORE PUSH2 0x100 DUP9 ADD DUP5 SWAP1 MSTORE SWAP6 DUP4 MSTORE PUSH1 0xB SWAP1 SWAP4 MSTORE SWAP6 SWAP1 KECCAK256 DUP5 MLOAD DUP2 SSTORE SWAP2 MLOAD SWAP3 DUP3 ADD DUP1 SLOAD PUSH1 0x1 PUSH1 0x1 PUSH1 0xA0 SHL SUB NOT SWAP1 DUP2 AND PUSH1 0x1 PUSH1 0x1 PUSH1 0xA0 SHL SUB SWAP6 DUP7 AND OR SWAP1 SWAP2 SSTORE SWAP5 MLOAD PUSH1 0x2 DUP4 ADD DUP1 SLOAD SWAP1 SWAP7 AND SWAP4 AND SWAP3 SWAP1 SWAP3 OR SWAP1 SWAP4 SSTORE MLOAD SWAP1 SWAP2 SWAP1 PUSH1 0x3 DUP3 ADD SWAP1 PUSH2 0x520 SWAP1 DUP3 PUSH2 0x177D JUMP JUMPDEST POP PUSH1 0x80 DUP3 ADD MLOAD PUSH1 0x4 DUP3 ADD SSTORE PUSH1 0xA0 DUP3 ADD MLOAD PUSH1 0x5 DUP3 ADD SSTORE PUSH1 0xC0 DUP3 ADD MLOAD PUSH1 0x6 SWAP1 SWAP2 ADD DUP1 SLOAD PUSH1 0xE0 DUP5 ADD MLOAD PUSH2 0x100 SWAP1 SWAP5 ADD MLOAD ISZERO ISZERO PUSH1 0x1 PUSH1 0xA8 SHL MUL PUSH1 0xFF PUSH1 0xA8 SHL NOT SWAP5 ISZERO ISZERO PUSH1 0x1 PUSH1 0xA0 SHL MUL PUSH1 0x1 PUSH1 0x1 PUSH1 0xA8 SHL SUB NOT SWAP1 SWAP3 AND PUSH1 0x1 PUSH1 0x1 PUSH1 0xA0 SHL SUB SWAP1 SWAP5 AND SWAP4 SWAP1 SWAP4 OR OR SWAP3 SWAP1 SWAP3 AND OR SWAP1 SSTORE PUSH1 0xA SLOAD PUSH1 0x40 MLOAD DUP3 SWAP2 CALLER SWAP2 PUSH32 0x6C8C9777EC614EA853141D54FFEC0186D95E218782CA60DA8A5198843BA36EB3 SWAP1 PUSH2 0x5BE SWAP1 DUP9 SWAP1 PUSH2 0x183D JUMP JUMPDEST PUSH1 0x40 MLOAD DUP1 SWAP2 SUB SWAP1 LOG4 POP POP POP JUMP JUMPDEST PUSH1 0x0 DUP4 DUP2 MSTORE PUSH1 0x5 PUSH1 0x20 MSTORE PUSH1 0x40 SWAP1 KECCAK256 SLOAD DUP4 SWAP1 PUSH1 0x1 PUSH1 0x1 PUSH1 0xA0 SHL SUB AND CALLER EQ PUSH2 0x644 JUMPI PUSH1 0x40 MLOAD PUSH3 0x461BCD PUSH1 0xE5 SHL DUP2 MSTORE PUSH1 0x20 PUSH1 0x4 DUP3 ADD MSTORE PUSH1 0x28 PUSH1 0x24 DUP3 ADD MSTORE PUSH32 0x536F75726365206D75737420626520746865206F7261636C65206F6620746865 PUSH1 0x44 DUP3 ADD MSTORE PUSH8 0x81C995C5D595CDD PUSH1 0xC2 SHL PUSH1 0x64 DUP3 ADD MSTORE PUSH1 0x84 ADD PUSH2 0x328 JUMP JUMPDEST PUSH1 0x0 DUP2 DUP2 MSTORE PUSH1 0x5 PUSH1 0x20 MSTORE PUSH1 0x40 DUP1 DUP3 KECCAK256 DUP1 SLOAD PUSH1 0x1 PUSH1 0x1 PUSH1 0xA0 SHL SUB NOT AND SWAP1 SSTORE MLOAD DUP3 SWAP2 PUSH32 0x7CC135E0CEBB02C3480AE5D74D377283180A2601F8F644EDF7987B009316C63A SWAP2 LOG2 PUSH1 0x40 DUP1 MLOAD DUP5 DUP2 MSTORE PUSH1 0x20 DUP2 ADD DUP5 SWAP1 MSTORE DUP6 SWAP2 PUSH32 0x29D1FD44CC39A4213A364818C158187934866B333B04A59815CDF69B58C809C0 SWAP2 ADD PUSH1 0x40 MLOAD DUP1 SWAP2 SUB SWAP1 LOG2 POP PUSH1 0x6 SWAP2 SWAP1 SWAP2 SSTORE PUSH1 0x7 SSTORE POP JUMP JUMPDEST PUSH1 0x0 DUP2 DUP2 MSTORE PUSH1 0xB PUSH1 0x20 MSTORE PUSH1 0x40 SWAP1 KECCAK256 PUSH1 0x6 DUP2 ADD SLOAD PUSH1 0x1 PUSH1 0xA0 SHL SWAP1 DIV PUSH1 0xFF AND ISZERO ISZERO PUSH1 0x1 EQ PUSH2 0x734 JUMPI PUSH1 0x40 MLOAD PUSH3 0x461BCD PUSH1 0xE5 SHL DUP2 MSTORE PUSH1 0x20 PUSH1 0x4 DUP3 ADD MSTORE PUSH1 0x14 PUSH1 0x24 DUP3 ADD MSTORE PUSH20 0x151A194818995D081DD85CC818D85B98D95B1959 PUSH1 0x62 SHL PUSH1 0x44 DUP3 ADD MSTORE PUSH1 0x64 ADD PUSH2 0x328 JUMP JUMPDEST PUSH1 0x0 PUSH1 0xA SLOAD GT PUSH2 0x756 JUMPI PUSH1 0x40 MLOAD PUSH3 0x461BCD PUSH1 0xE5 SHL DUP2 MSTORE PUSH1 0x4 ADD PUSH2 0x328 SWAP1 PUSH2 0x16D2 JUMP JUMPDEST PUSH1 0x0 DUP3 GT DUP1 ISZERO PUSH2 0x768 JUMPI POP PUSH1 0xA SLOAD DUP3 GT ISZERO JUMPDEST PUSH2 0x784 JUMPI PUSH1 0x40 MLOAD PUSH3 0x461BCD PUSH1 0xE5 SHL DUP2 MSTORE PUSH1 0x4 ADD PUSH2 0x328 SWAP1 PUSH2 0x16D2 JUMP JUMPDEST PUSH1 0x1 DUP2 ADD SLOAD PUSH1 0x1 PUSH1 0x1 PUSH1 0xA0 SHL SUB AND CALLER SUB PUSH2 0x79D JUMPI PUSH1 0x0 DUP1 REVERT JUMPDEST DUP1 PUSH1 0x5 ADD SLOAD CALLVALUE LT ISZERO PUSH2 0x7AE JUMPI PUSH1 0x0 DUP1 REVERT JUMPDEST PUSH1 0x2 DUP2 ADD DUP1 SLOAD PUSH1 0x1 PUSH1 0x1 PUSH1 0xA0 SHL SUB NOT AND CALLER SWAP1 DUP2 OR SWAP1 SWAP2 SSTORE PUSH1 0x6 DUP3 ADD DUP1 SLOAD PUSH1 0xFF PUSH1 0xA8 SHL NOT AND PUSH1 0x1 PUSH1 0xA8 SHL OR SWAP1 SSTORE PUSH1 0x1 DUP3 ADD SLOAD PUSH1 0x5 DUP4 ADD SLOAD PUSH1 0x40 MLOAD PUSH1 0x1 PUSH1 0x1 PUSH1 0xA0 SHL SUB SWAP3 SWAP1 SWAP3 AND SWAP2 DUP6 SWAP2 PUSH32 0xA2D31AEF88568A734ED41D11DFC3F095389AC0000DF8DDF3F39FCF34B75B6FD8 SWAP2 PUSH2 0x826 SWAP2 PUSH1 0x3 DUP9 ADD SWAP2 PUSH2 0x1850 JUMP JUMPDEST PUSH1 0x40 MLOAD DUP1 SWAP2 SUB SWAP1 LOG4 POP POP JUMP JUMPDEST PUSH1 0x60 PUSH1 0x0 PUSH1 0xA SLOAD PUSH8 0xFFFFFFFFFFFFFFFF DUP2 GT ISZERO PUSH2 0x851 JUMPI PUSH2 0x851 PUSH2 0x1554 JUMP JUMPDEST PUSH1 0x40 MLOAD SWAP1 DUP1 DUP3 MSTORE DUP1 PUSH1 0x20 MUL PUSH1 0x20 ADD DUP3 ADD PUSH1 0x40 MSTORE DUP1 ISZERO PUSH2 0x87A JUMPI DUP2 PUSH1 0x20 ADD PUSH1 0x20 DUP3 MUL DUP1 CALLDATASIZE DUP4 CALLDATACOPY ADD SWAP1 POP JUMPDEST POP SWAP1 POP PUSH1 0x0 PUSH1 0x1 JUMPDEST PUSH1 0xA SLOAD DUP2 GT PUSH2 0x924 JUMPI PUSH1 0x0 DUP2 DUP2 MSTORE PUSH1 0xB PUSH1 0x20 MSTORE PUSH1 0x40 SWAP1 KECCAK256 PUSH1 0x6 ADD SLOAD PUSH1 0x1 PUSH1 0xA8 SHL SWAP1 DIV PUSH1 0xFF AND ISZERO DUP1 ISZERO PUSH2 0x8D1 JUMPI POP PUSH1 0x0 DUP2 DUP2 MSTORE PUSH1 0xB PUSH1 0x20 MSTORE PUSH1 0x40 SWAP1 KECCAK256 PUSH1 0x6 ADD SLOAD PUSH1 0x1 PUSH1 0xA0 SHL SWAP1 DIV PUSH1 0xFF AND ISZERO ISZERO PUSH1 0x1 EQ JUMPDEST ISZERO PUSH2 0x912 JUMPI PUSH1 0x0 DUP2 DUP2 MSTORE PUSH1 0xB PUSH1 0x20 MSTORE PUSH1 0x40 SWAP1 KECCAK256 SLOAD DUP4 MLOAD DUP5 SWAP1 DUP5 SWAP1 DUP2 LT PUSH2 0x8F9 JUMPI PUSH2 0x8F9 PUSH2 0x18E4 JUMP JUMPDEST PUSH1 0x20 SWAP1 DUP2 MUL SWAP2 SWAP1 SWAP2 ADD ADD MSTORE DUP2 PUSH2 0x90E DUP2 PUSH2 0x1716 JUMP JUMPDEST SWAP3 POP POP JUMPDEST DUP1 PUSH2 0x91C DUP2 PUSH2 0x1716 JUMP JUMPDEST SWAP2 POP POP PUSH2 0x882 JUMP JUMPDEST POP PUSH1 0x0 DUP2 PUSH8 0xFFFFFFFFFFFFFFFF DUP2 GT ISZERO PUSH2 0x940 JUMPI PUSH2 0x940 PUSH2 0x1554 JUMP JUMPDEST PUSH1 0x40 MLOAD SWAP1 DUP1 DUP3 MSTORE DUP1 PUSH1 0x20 MUL PUSH1 0x20 ADD DUP3 ADD PUSH1 0x40 MSTORE DUP1 ISZERO PUSH2 0x969 JUMPI DUP2 PUSH1 0x20 ADD PUSH1 0x20 DUP3 MUL DUP1 CALLDATASIZE DUP4 CALLDATACOPY ADD SWAP1 POP JUMPDEST POP SWAP1 POP PUSH1 0x0 JUMPDEST DUP3 DUP2 LT ISZERO PUSH2 0x9C0 JUMPI DUP4 DUP2 DUP2 MLOAD DUP2 LT PUSH2 0x989 JUMPI PUSH2 0x989 PUSH2 0x18E4 JUMP JUMPDEST PUSH1 0x20 MUL PUSH1 0x20 ADD ADD MLOAD DUP3 DUP3 DUP2 MLOAD DUP2 LT PUSH2 0x9A3 JUMPI PUSH2 0x9A3 PUSH2 0x18E4 JUMP JUMPDEST PUSH1 0x20 SWAP1 DUP2 MUL SWAP2 SWAP1 SWAP2 ADD ADD MSTORE DUP1 PUSH2 0x9B8 DUP2 PUSH2 0x1716 JUMP JUMPDEST SWAP2 POP POP PUSH2 0x96F JUMP JUMPDEST POP SWAP4 SWAP3 POP POP POP JUMP JUMPDEST PUSH1 0x0 DUP1 PUSH1 0x1 JUMPDEST PUSH1 0xA SLOAD DUP2 GT PUSH2 0xA42 JUMPI PUSH1 0x0 DUP2 DUP2 MSTORE PUSH1 0xB PUSH1 0x20 MSTORE PUSH1 0x40 SWAP1 KECCAK256 PUSH1 0x6 ADD SLOAD PUSH1 0x1 PUSH1 0xA8 SHL SWAP1 DIV PUSH1 0xFF AND ISZERO DUP1 ISZERO PUSH2 0xA1D JUMPI POP PUSH1 0x0 DUP2 DUP2 MSTORE PUSH1 0xB PUSH1 0x20 MSTORE PUSH1 0x40 SWAP1 KECCAK256 PUSH1 0x6 ADD SLOAD PUSH1 0x1 PUSH1 0xA0 SHL SWAP1 DIV PUSH1 0xFF AND ISZERO ISZERO PUSH1 0x1 EQ JUMPDEST ISZERO PUSH2 0xA30 JUMPI DUP2 PUSH2 0xA2C DUP2 PUSH2 0x1716 JUMP JUMPDEST SWAP3 POP POP JUMPDEST DUP1 PUSH2 0xA3A DUP2 PUSH2 0x1716 JUMP JUMPDEST SWAP2 POP POP PUSH2 0x9CE JUMP JUMPDEST POP SWAP2 SWAP1 POP JUMP JUMPDEST PUSH2 0xA50 PUSH2 0xB73 JUMP JUMPDEST PUSH1 0x6 SLOAD PUSH1 0x1 EQ DUP1 PUSH2 0xA63 JUMPI POP PUSH1 0x7 SLOAD PUSH1 0x1 EQ JUMPDEST PUSH2 0xA6C JUMPI PUSH1 0x0 DUP1 REVERT JUMPDEST PUSH1 0x1 JUMPDEST PUSH1 0xA SLOAD DUP2 GT PUSH2 0xB70 JUMPI PUSH1 0x0 DUP2 DUP2 MSTORE PUSH1 0xB PUSH1 0x20 MSTORE PUSH1 0x40 SWAP1 KECCAK256 PUSH1 0x4 ADD SLOAD ISZERO DUP1 ISZERO PUSH2 0xA97 JUMPI POP PUSH1 0x7 SLOAD ISZERO JUMPDEST DUP1 PUSH2 0xAC0 JUMPI POP PUSH1 0x0 DUP2 DUP2 MSTORE PUSH1 0xB PUSH1 0x20 MSTORE PUSH1 0x40 SWAP1 KECCAK256 PUSH1 0x4 ADD SLOAD PUSH1 0x1 EQ DUP1 ISZERO PUSH2 0xAC0 JUMPI POP PUSH1 0x7 SLOAD PUSH1 0x1 EQ JUMPDEST ISZERO PUSH2 0xAEB JUMPI PUSH1 0x0 DUP2 DUP2 MSTORE PUSH1 0xB PUSH1 0x20 MSTORE PUSH1 0x40 SWAP1 KECCAK256 PUSH1 0x1 ADD SLOAD PUSH2 0xAEB SWAP1 DUP3 SWAP1 PUSH1 0x1 PUSH1 0x1 PUSH1 0xA0 SHL SUB AND PUSH2 0xCCD JUMP JUMPDEST PUSH1 0x0 DUP2 DUP2 MSTORE PUSH1 0xB PUSH1 0x20 MSTORE PUSH1 0x40 SWAP1 KECCAK256 PUSH1 0x4 ADD SLOAD ISZERO DUP1 ISZERO PUSH2 0xB0C JUMPI POP PUSH1 0x7 SLOAD PUSH1 0x1 EQ JUMPDEST DUP1 PUSH2 0xB33 JUMPI POP PUSH1 0x0 DUP2 DUP2 MSTORE PUSH1 0xB PUSH1 0x20 MSTORE PUSH1 0x40 SWAP1 KECCAK256 PUSH1 0x4 ADD SLOAD PUSH1 0x1 EQ DUP1 ISZERO PUSH2 0xB33 JUMPI POP PUSH1 0x7 SLOAD ISZERO JUMPDEST ISZERO PUSH2 0xB5E JUMPI PUSH1 0x0 DUP2 DUP2 MSTORE PUSH1 0xB PUSH1 0x20 MSTORE PUSH1 0x40 SWAP1 KECCAK256 PUSH1 0x2 ADD SLOAD PUSH2 0xB5E SWAP1 DUP3 SWAP1 PUSH1 0x1 PUSH1 0x1 PUSH1 0xA0 SHL SUB AND PUSH2 0xCCD JUMP JUMPDEST DUP1 PUSH2 0xB68 DUP2 PUSH2 0x1716 JUMP JUMPDEST SWAP2 POP POP PUSH2 0xA6F JUMP JUMPDEST POP JUMP JUMPDEST PUSH1 0x0 PUSH2 0xB89 PUSH1 0x8 SLOAD ADDRESS PUSH4 0x6B42E3B5 PUSH1 0xE0 SHL PUSH2 0xDC1 JUMP JUMPDEST SWAP1 POP PUSH2 0xBCB PUSH1 0x40 MLOAD DUP1 PUSH1 0x40 ADD PUSH1 0x40 MSTORE DUP1 PUSH1 0x3 DUP2 MSTORE PUSH1 0x20 ADD PUSH3 0x19D95D PUSH1 0xEA SHL DUP2 MSTORE POP PUSH1 0x40 MLOAD DUP1 PUSH1 0xA0 ADD PUSH1 0x40 MSTORE DUP1 PUSH1 0x71 DUP2 MSTORE PUSH1 0x20 ADD PUSH2 0x1AEF PUSH1 0x71 SWAP2 CODECOPY DUP4 SWAP2 SWAP1 PUSH2 0xDE6 JUMP JUMPDEST PUSH2 0xC1B PUSH1 0x40 MLOAD DUP1 PUSH1 0x40 ADD PUSH1 0x40 MSTORE DUP1 PUSH1 0x5 DUP2 MSTORE PUSH1 0x20 ADD PUSH5 0x7061746831 PUSH1 0xD8 SHL DUP2 MSTORE POP PUSH1 0x40 MLOAD DUP1 PUSH1 0x40 ADD PUSH1 0x40 MSTORE DUP1 PUSH1 0x6 DUP2 MSTORE PUSH1 0x20 ADD PUSH6 0x302C4E616D65 PUSH1 0xD0 SHL DUP2 MSTORE POP DUP4 PUSH2 0xDE6 SWAP1 SWAP3 SWAP2 SWAP1 PUSH4 0xFFFFFFFF AND JUMP JUMPDEST PUSH2 0xC6B PUSH1 0x40 MLOAD DUP1 PUSH1 0x40 ADD PUSH1 0x40 MSTORE DUP1 PUSH1 0x5 DUP2 MSTORE PUSH1 0x20 ADD PUSH5 0x3830BA3419 PUSH1 0xD9 SHL DUP2 MSTORE POP PUSH1 0x40 MLOAD DUP1 PUSH1 0x40 ADD PUSH1 0x40 MSTORE DUP1 PUSH1 0x6 DUP2 MSTORE PUSH1 0x20 ADD PUSH6 0x302C57696E73 PUSH1 0xD0 SHL DUP2 MSTORE POP DUP4 PUSH2 0xDE6 SWAP1 SWAP3 SWAP2 SWAP1 PUSH4 0xFFFFFFFF AND JUMP JUMPDEST PUSH2 0xCBD PUSH1 0x40 MLOAD DUP1 PUSH1 0x40 ADD PUSH1 0x40 MSTORE DUP1 PUSH1 0x5 DUP2 MSTORE PUSH1 0x20 ADD PUSH5 0x7061746833 PUSH1 0xD8 SHL DUP2 MSTORE POP PUSH1 0x40 MLOAD DUP1 PUSH1 0x40 ADD PUSH1 0x40 MSTORE DUP1 PUSH1 0x8 DUP2 MSTORE PUSH1 0x20 ADD PUSH8 0x302C4C6F73736573 PUSH1 0xC0 SHL DUP2 MSTORE POP DUP4 PUSH2 0xDE6 SWAP1 SWAP3 SWAP2 SWAP1 PUSH4 0xFFFFFFFF AND JUMP JUMPDEST PUSH2 0xCC9 DUP2 PUSH1 0x9 SLOAD PUSH2 0xE09 JUMP JUMPDEST POP POP JUMP JUMPDEST PUSH1 0x0 DUP3 DUP2 MSTORE PUSH1 0xB PUSH1 0x20 MSTORE PUSH1 0x40 SWAP1 KECCAK256 PUSH1 0x6 ADD SLOAD PUSH1 0x1 PUSH1 0xA0 SHL SWAP1 DIV PUSH1 0xFF AND ISZERO DUP1 PUSH2 0xD0E JUMPI POP PUSH1 0x0 DUP3 DUP2 MSTORE PUSH1 0xB PUSH1 0x20 MSTORE PUSH1 0x40 SWAP1 KECCAK256 PUSH1 0x6 ADD SLOAD PUSH1 0x1 PUSH1 0xA8 SHL SWAP1 DIV PUSH1 0xFF AND ISZERO JUMPDEST ISZERO PUSH2 0xD17 JUMPI POP POP JUMP JUMPDEST PUSH1 0x0 DUP3 DUP2 MSTORE PUSH1 0xB PUSH1 0x20 MSTORE PUSH1 0x40 DUP2 KECCAK256 PUSH1 0x6 DUP2 ADD DUP1 SLOAD PUSH1 0x1 PUSH1 0x1 PUSH1 0xA8 SHL SUB NOT AND PUSH1 0x1 PUSH1 0x1 PUSH1 0xA0 SHL SUB DUP6 AND OR SWAP1 SSTORE PUSH1 0x5 ADD SLOAD PUSH2 0xD51 SWAP1 PUSH1 0x2 PUSH2 0x18FA JUMP JUMPDEST PUSH1 0x40 MLOAD SWAP1 SWAP2 POP DUP3 SWAP1 PUSH1 0x0 SWAP1 PUSH1 0x1 PUSH1 0x1 PUSH1 0xA0 SHL SUB DUP4 AND SWAP1 DUP5 ISZERO PUSH2 0x8FC MUL SWAP1 DUP6 SWAP1 DUP5 DUP2 DUP2 DUP2 DUP6 DUP9 DUP9 CALL SWAP4 POP POP POP POP SWAP1 POP DUP1 PUSH2 0x3FF JUMPI PUSH1 0x40 MLOAD PUSH3 0x461BCD PUSH1 0xE5 SHL DUP2 MSTORE PUSH1 0x20 PUSH1 0x4 DUP3 ADD MSTORE PUSH1 0x12 PUSH1 0x24 DUP3 ADD MSTORE PUSH18 0x151C985B9CD858DD1A5BDB8811985A5B1959 PUSH1 0x72 SHL PUSH1 0x44 DUP3 ADD MSTORE PUSH1 0x64 ADD PUSH2 0x328 JUMP JUMPDEST PUSH2 0xDC9 PUSH2 0x1452 JUMP JUMPDEST PUSH2 0xDD1 PUSH2 0x1452 JUMP JUMPDEST PUSH2 0xDDD DUP2 DUP7 DUP7 DUP7 PUSH2 0xE2C JUMP JUMPDEST SWAP6 SWAP5 POP POP POP POP POP JUMP JUMPDEST PUSH1 0x80 DUP4 ADD MLOAD PUSH2 0xDF5 SWAP1 DUP4 PUSH2 0xE72 JUMP JUMPDEST PUSH1 0x80 DUP4 ADD MLOAD PUSH2 0xE04 SWAP1 DUP3 PUSH2 0xE72 JUMP JUMPDEST POP POP POP JUMP JUMPDEST PUSH1 0x3 SLOAD PUSH1 0x0 SWAP1 PUSH2 0xE23 SWAP1 PUSH1 0x1 PUSH1 0x1 PUSH1 0xA0 SHL SUB AND DUP5 DUP5 PUSH2 0xE89 JUMP JUMPDEST SWAP1 POP JUMPDEST SWAP3 SWAP2 POP POP JUMP JUMPDEST PUSH2 0xE34 PUSH2 0x1452 JUMP JUMPDEST PUSH2 0xE44 DUP6 PUSH1 0x80 ADD MLOAD PUSH2 0x100 PUSH2 0xF1A JUMP JUMPDEST POP POP DUP3 DUP5 MSTORE PUSH1 0x1 PUSH1 0x1 PUSH1 0xA0 SHL SUB DUP3 AND PUSH1 0x20 DUP6 ADD MSTORE PUSH1 0x1 PUSH1 0x1 PUSH1 0xE0 SHL SUB NOT DUP2 AND PUSH1 0x40 DUP6 ADD MSTORE DUP4 JUMPDEST SWAP5 SWAP4 POP POP POP POP JUMP JUMPDEST PUSH2 0xE7F DUP3 PUSH1 0x3 DUP4 MLOAD PUSH2 0xF7F JUMP JUMPDEST PUSH2 0xE04 DUP3 DUP3 PUSH2 0x1094 JUMP JUMPDEST PUSH1 0x4 SLOAD PUSH1 0x0 SWAP1 PUSH2 0xE9A DUP2 PUSH1 0x1 PUSH2 0x1911 JUMP JUMPDEST PUSH1 0x4 SSTORE DUP4 MLOAD PUSH1 0x40 DUP1 DUP7 ADD MLOAD PUSH1 0x80 DUP8 ADD MLOAD MLOAD SWAP2 MLOAD PUSH1 0x0 SWAP4 PUSH4 0x3C6D41B9 PUSH1 0xE0 SHL SWAP4 PUSH2 0xED0 SWAP4 DUP7 SWAP4 DUP5 SWAP4 SWAP3 DUP10 SWAP2 PUSH1 0x2 SWAP2 SWAP1 PUSH1 0x24 ADD PUSH2 0x1924 JUMP JUMPDEST PUSH1 0x40 DUP1 MLOAD PUSH1 0x1F NOT DUP2 DUP5 SUB ADD DUP2 MSTORE SWAP2 SWAP1 MSTORE PUSH1 0x20 DUP2 ADD DUP1 MLOAD PUSH1 0x1 PUSH1 0x1 PUSH1 0xE0 SHL SUB AND PUSH1 0x1 PUSH1 0x1 PUSH1 0xE0 SHL SUB NOT SWAP1 SWAP4 AND SWAP3 SWAP1 SWAP3 OR SWAP1 SWAP2 MSTORE SWAP1 POP PUSH2 0xF10 DUP7 DUP4 DUP7 DUP5 PUSH2 0x10BB JUMP JUMPDEST SWAP7 SWAP6 POP POP POP POP POP POP JUMP JUMPDEST PUSH1 0x40 DUP1 MLOAD DUP1 DUP3 ADD SWAP1 SWAP2 MSTORE PUSH1 0x60 DUP2 MSTORE PUSH1 0x0 PUSH1 0x20 DUP3 ADD MSTORE PUSH2 0xF3A PUSH1 0x20 DUP4 PUSH2 0x1979 JUMP JUMPDEST ISZERO PUSH2 0xF62 JUMPI PUSH2 0xF4A PUSH1 0x20 DUP4 PUSH2 0x1979 JUMP JUMPDEST PUSH2 0xF55 SWAP1 PUSH1 0x20 PUSH2 0x199B JUMP JUMPDEST PUSH2 0xF5F SWAP1 DUP4 PUSH2 0x1911 JUMP JUMPDEST SWAP2 POP JUMPDEST POP PUSH1 0x20 DUP3 DUP2 ADD DUP3 SWAP1 MSTORE PUSH1 0x40 DUP1 MLOAD DUP1 DUP6 MSTORE PUSH1 0x0 DUP2 MSTORE SWAP1 SWAP3 ADD ADD SWAP1 MSTORE SWAP1 JUMP JUMPDEST PUSH1 0x17 DUP2 PUSH8 0xFFFFFFFFFFFFFFFF AND GT PUSH2 0xFAA JUMPI PUSH2 0xFA4 DUP4 PUSH1 0xE0 PUSH1 0x5 DUP6 SWAP1 SHL AND DUP4 OR PUSH2 0x1219 JUMP JUMPDEST POP POP POP POP JUMP JUMPDEST PUSH1 0xFF DUP2 PUSH8 0xFFFFFFFFFFFFFFFF AND GT PUSH2 0xFE8 JUMPI PUSH2 0xFD1 DUP4 PUSH1 0x18 PUSH2 0x1FE0 PUSH1 0x5 DUP7 SWAP1 SHL AND OR PUSH2 0x1219 JUMP JUMPDEST POP PUSH2 0xFA4 DUP4 PUSH8 0xFFFFFFFFFFFFFFFF DUP4 AND PUSH1 0x1 PUSH2 0x123E JUMP JUMPDEST PUSH2 0xFFFF DUP2 PUSH8 0xFFFFFFFFFFFFFFFF AND GT PUSH2 0x1027 JUMPI PUSH2 0x1010 DUP4 PUSH1 0x19 PUSH2 0x1FE0 PUSH1 0x5 DUP7 SWAP1 SHL AND OR PUSH2 0x1219 JUMP JUMPDEST POP PUSH2 0xFA4 DUP4 PUSH8 0xFFFFFFFFFFFFFFFF DUP4 AND PUSH1 0x2 PUSH2 0x123E JUMP JUMPDEST PUSH4 0xFFFFFFFF DUP2 PUSH8 0xFFFFFFFFFFFFFFFF AND GT PUSH2 0x1068 JUMPI PUSH2 0x1051 DUP4 PUSH1 0x1A PUSH2 0x1FE0 PUSH1 0x5 DUP7 SWAP1 SHL AND OR PUSH2 0x1219 JUMP JUMPDEST POP PUSH2 0xFA4 DUP4 PUSH8 0xFFFFFFFFFFFFFFFF DUP4 AND PUSH1 0x4 PUSH2 0x123E JUMP JUMPDEST PUSH2 0x107D DUP4 PUSH1 0x1B PUSH2 0x1FE0 PUSH1 0x5 DUP7 SWAP1 SHL AND OR PUSH2 0x1219 JUMP JUMPDEST POP PUSH2 0xFA4 DUP4 PUSH8 0xFFFFFFFFFFFFFFFF DUP4 AND PUSH1 0x8 PUSH2 0x123E JUMP JUMPDEST PUSH1 0x40 DUP1 MLOAD DUP1 DUP3 ADD SWAP1 SWAP2 MSTORE PUSH1 0x60 DUP2 MSTORE PUSH1 0x0 PUSH1 0x20 DUP3 ADD MSTORE PUSH2 0xE23 DUP4 DUP5 PUSH1 0x0 ADD MLOAD MLOAD DUP5 DUP6 MLOAD PUSH2 0x1264 JUMP JUMPDEST PUSH1 0x40 MLOAD PUSH12 0xFFFFFFFFFFFFFFFFFFFFFFFF NOT ADDRESS PUSH1 0x60 SHL AND PUSH1 0x20 DUP3 ADD MSTORE PUSH1 0x34 DUP2 ADD DUP5 SWAP1 MSTORE PUSH1 0x0 SWAP1 PUSH1 0x54 ADD PUSH1 0x40 DUP1 MLOAD DUP1 DUP4 SUB PUSH1 0x1F NOT ADD DUP2 MSTORE DUP3 DUP3 MSTORE DUP1 MLOAD PUSH1 0x20 SWAP2 DUP3 ADD KECCAK256 PUSH1 0x0 DUP2 DUP2 MSTORE PUSH1 0x5 SWAP1 SWAP3 MSTORE SWAP2 DUP2 KECCAK256 DUP1 SLOAD PUSH1 0x1 PUSH1 0x1 PUSH1 0xA0 SHL SUB NOT AND PUSH1 0x1 PUSH1 0x1 PUSH1 0xA0 SHL SUB DUP11 AND OR SWAP1 SSTORE SWAP1 SWAP3 POP DUP3 SWAP2 PUSH32 0xB5E6E01E79F91267DC17B4E6314D5D4D03593D2CEEE0FBB452B750BD70EA5AF9 SWAP2 SWAP1 LOG2 PUSH1 0x2 SLOAD PUSH1 0x40 MLOAD PUSH4 0x2000575 PUSH1 0xE5 SHL DUP2 MSTORE PUSH1 0x1 PUSH1 0x1 PUSH1 0xA0 SHL SUB SWAP1 SWAP2 AND SWAP1 PUSH4 0x4000AEA0 SWAP1 PUSH2 0x117E SWAP1 DUP9 SWAP1 DUP8 SWAP1 DUP8 SWAP1 PUSH1 0x4 ADD PUSH2 0x19AE JUMP JUMPDEST PUSH1 0x20 PUSH1 0x40 MLOAD DUP1 DUP4 SUB DUP2 PUSH1 0x0 DUP8 GAS CALL ISZERO DUP1 ISZERO PUSH2 0x119D JUMPI RETURNDATASIZE PUSH1 0x0 DUP1 RETURNDATACOPY RETURNDATASIZE PUSH1 0x0 REVERT JUMPDEST POP POP POP POP PUSH1 0x40 MLOAD RETURNDATASIZE PUSH1 0x1F NOT PUSH1 0x1F DUP3 ADD AND DUP3 ADD DUP1 PUSH1 0x40 MSTORE POP DUP2 ADD SWAP1 PUSH2 0x11C1 SWAP2 SWAP1 PUSH2 0x19D5 JUMP JUMPDEST PUSH2 0xE6A JUMPI PUSH1 0x40 MLOAD PUSH3 0x461BCD PUSH1 0xE5 SHL DUP2 MSTORE PUSH1 0x20 PUSH1 0x4 DUP3 ADD MSTORE PUSH1 0x23 PUSH1 0x24 DUP3 ADD MSTORE PUSH32 0x756E61626C6520746F207472616E73666572416E6443616C6C20746F206F7261 PUSH1 0x44 DUP3 ADD MSTORE PUSH3 0x636C65 PUSH1 0xE8 SHL PUSH1 0x64 DUP3 ADD MSTORE PUSH1 0x84 ADD PUSH2 0x328 JUMP JUMPDEST PUSH1 0x40 DUP1 MLOAD DUP1 DUP3 ADD SWAP1 SWAP2 MSTORE PUSH1 0x60 DUP2 MSTORE PUSH1 0x0 PUSH1 0x20 DUP3 ADD MSTORE PUSH2 0xE23 DUP4 DUP5 PUSH1 0x0 ADD MLOAD MLOAD DUP5 PUSH2 0x134E JUMP JUMPDEST PUSH1 0x40 DUP1 MLOAD DUP1 DUP3 ADD SWAP1 SWAP2 MSTORE PUSH1 0x60 DUP2 MSTORE PUSH1 0x0 PUSH1 0x20 DUP3 ADD MSTORE PUSH2 0xE6A DUP5 DUP6 PUSH1 0x0 ADD MLOAD MLOAD DUP6 DUP6 PUSH2 0x13A9 JUMP JUMPDEST PUSH1 0x40 DUP1 MLOAD DUP1 DUP3 ADD SWAP1 SWAP2 MSTORE PUSH1 0x60 DUP2 MSTORE PUSH1 0x0 PUSH1 0x20 DUP3 ADD MSTORE DUP3 MLOAD DUP3 GT ISZERO PUSH2 0x1287 JUMPI PUSH1 0x0 DUP1 REVERT JUMPDEST PUSH1 0x20 DUP6 ADD MLOAD PUSH2 0x1296 DUP4 DUP7 PUSH2 0x1911 JUMP JUMPDEST GT ISZERO PUSH2 0x12C9 JUMPI PUSH2 0x12C9 DUP6 PUSH2 0x12B9 DUP8 PUSH1 0x20 ADD MLOAD DUP8 DUP7 PUSH2 0x12B4 SWAP2 SWAP1 PUSH2 0x1911 JUMP JUMPDEST PUSH2 0x142A JUMP JUMPDEST PUSH2 0x12C4 SWAP1 PUSH1 0x2 PUSH2 0x18FA JUMP JUMPDEST PUSH2 0x143B JUMP JUMPDEST PUSH1 0x0 DUP1 DUP7 MLOAD DUP1 MLOAD DUP8 PUSH1 0x20 DUP4 ADD ADD SWAP4 POP DUP1 DUP9 DUP8 ADD GT ISZERO PUSH2 0x12E8 JUMPI DUP8 DUP7 ADD DUP3 MSTORE JUMPDEST POP POP POP PUSH1 0x20 DUP5 ADD JUMPDEST PUSH1 0x20 DUP5 LT PUSH2 0x1328 JUMPI DUP1 MLOAD DUP3 MSTORE PUSH2 0x1307 PUSH1 0x20 DUP4 PUSH2 0x1911 JUMP JUMPDEST SWAP2 POP PUSH2 0x1314 PUSH1 0x20 DUP3 PUSH2 0x1911 JUMP JUMPDEST SWAP1 POP PUSH2 0x1321 PUSH1 0x20 DUP6 PUSH2 0x199B JUMP JUMPDEST SWAP4 POP PUSH2 0x12F0 JUMP JUMPDEST MLOAD DUP2 MLOAD PUSH1 0x0 NOT PUSH1 0x20 DUP7 SWAP1 SUB PUSH2 0x100 EXP ADD SWAP1 DUP2 AND SWAP1 NOT SWAP2 SWAP1 SWAP2 AND OR SWAP1 MSTORE POP DUP4 SWAP5 SWAP4 POP POP POP POP JUMP JUMPDEST PUSH1 0x40 DUP1 MLOAD DUP1 DUP3 ADD SWAP1 SWAP2 MSTORE PUSH1 0x60 DUP2 MSTORE PUSH1 0x0 PUSH1 0x20 DUP3 ADD MSTORE DUP4 PUSH1 0x20 ADD MLOAD DUP4 LT PUSH2 0x1383 JUMPI PUSH2 0x1383 DUP5 DUP6 PUSH1 0x20 ADD MLOAD PUSH1 0x2 PUSH2 0x12C4 SWAP2 SWAP1 PUSH2 0x18FA JUMP JUMPDEST DUP4 MLOAD DUP1 MLOAD PUSH1 0x20 DUP6 DUP4 ADD ADD DUP5 DUP2 MSTORE8 POP DUP1 DUP6 SUB PUSH2 0x139F JUMPI PUSH1 0x1 DUP2 ADD DUP3 MSTORE JUMPDEST POP SWAP4 SWAP5 SWAP4 POP POP POP POP JUMP JUMPDEST PUSH1 0x40 DUP1 MLOAD DUP1 DUP3 ADD SWAP1 SWAP2 MSTORE PUSH1 0x60 DUP2 MSTORE PUSH1 0x0 PUSH1 0x20 DUP3 ADD MSTORE PUSH1 0x20 DUP6 ADD MLOAD PUSH2 0x13CD DUP6 DUP5 PUSH2 0x1911 JUMP JUMPDEST GT ISZERO PUSH2 0x13E1 JUMPI PUSH2 0x13E1 DUP6 PUSH2 0x12B9 DUP7 DUP6 PUSH2 0x1911 JUMP JUMPDEST PUSH1 0x0 PUSH1 0x1 PUSH2 0x13F1 DUP5 PUSH2 0x100 PUSH2 0x1AE2 JUMP JUMPDEST PUSH2 0x13FB SWAP2 SWAP1 PUSH2 0x199B JUMP JUMPDEST SWAP1 POP DUP6 MLOAD DUP4 DUP7 DUP3 ADD ADD DUP6 DUP4 NOT DUP3 MLOAD AND OR DUP2 MSTORE POP DUP1 MLOAD DUP5 DUP8 ADD GT ISZERO PUSH2 0x141F JUMPI DUP4 DUP7 ADD DUP2 MSTORE JUMPDEST POP SWAP5 SWAP6 SWAP5 POP POP POP POP POP JUMP JUMPDEST PUSH1 0x0 DUP2 DUP4 GT ISZERO PUSH2 0xA42 JUMPI POP DUP2 PUSH2 0xE26 JUMP JUMPDEST DUP2 MLOAD PUSH2 0x1447 DUP4 DUP4 PUSH2 0xF1A JUMP JUMPDEST POP PUSH2 0xFA4 DUP4 DUP3 PUSH2 0x1094 JUMP JUMPDEST PUSH1 0x40 DUP1 MLOAD PUSH1 0xA0 DUP2 ADD DUP3 MSTORE PUSH1 0x0 DUP1 DUP3 MSTORE PUSH1 0x20 DUP1 DUP4 ADD DUP3 SWAP1 MSTORE DUP3 DUP5 ADD DUP3 SWAP1 MSTORE PUSH1 0x60 DUP1 DUP5 ADD DUP4 SWAP1 MSTORE DUP5 MLOAD DUP1 DUP7 ADD SWAP1 SWAP6 MSTORE DUP5 MSTORE DUP4 ADD MSTORE SWAP1 PUSH1 0x80 DUP3 ADD MSTORE SWAP1 JUMP JUMPDEST PUSH1 0x0 PUSH1 0x20 DUP3 DUP5 SUB SLT ISZERO PUSH2 0x149F JUMPI PUSH1 0x0 DUP1 REVERT JUMPDEST POP CALLDATALOAD SWAP2 SWAP1 POP JUMP JUMPDEST PUSH1 0x0 DUP2 MLOAD DUP1 DUP5 MSTORE PUSH1 0x0 JUMPDEST DUP2 DUP2 LT ISZERO PUSH2 0x14CC JUMPI PUSH1 0x20 DUP2 DUP6 ADD DUP2 ADD MLOAD DUP7 DUP4 ADD DUP3 ADD MSTORE ADD PUSH2 0x14B0 JUMP JUMPDEST POP PUSH1 0x0 PUSH1 0x20 DUP3 DUP7 ADD ADD MSTORE PUSH1 0x20 PUSH1 0x1F NOT PUSH1 0x1F DUP4 ADD AND DUP6 ADD ADD SWAP2 POP POP SWAP3 SWAP2 POP POP JUMP JUMPDEST DUP10 DUP2 MSTORE PUSH1 0x1 PUSH1 0x1 PUSH1 0xA0 SHL SUB DUP10 DUP2 AND PUSH1 0x20 DUP4 ADD MSTORE DUP9 DUP2 AND PUSH1 0x40 DUP4 ADD MSTORE PUSH2 0x120 PUSH1 0x60 DUP4 ADD DUP2 SWAP1 MSTORE PUSH1 0x0 SWAP2 PUSH2 0x1520 DUP5 DUP4 ADD DUP12 PUSH2 0x14A6 JUMP JUMPDEST PUSH1 0x80 DUP6 ADD SWAP10 SWAP1 SWAP10 MSTORE PUSH1 0xA0 DUP5 ADD SWAP8 SWAP1 SWAP8 MSTORE POP POP SWAP3 SWAP1 SWAP4 AND PUSH1 0xC0 DUP4 ADD MSTORE ISZERO ISZERO PUSH1 0xE0 DUP3 ADD MSTORE SWAP1 ISZERO ISZERO PUSH2 0x100 SWAP1 SWAP2 ADD MSTORE SWAP5 SWAP4 POP POP POP POP JUMP JUMPDEST PUSH4 0x4E487B71 PUSH1 0xE0 SHL PUSH1 0x0 MSTORE PUSH1 0x41 PUSH1 0x4 MSTORE PUSH1 0x24 PUSH1 0x0 REVERT JUMPDEST PUSH1 0x0 DUP1 PUSH1 0x0 PUSH1 0x60 DUP5 DUP7 SUB SLT ISZERO PUSH2 0x157F JUMPI PUSH1 0x0 DUP1 REVERT JUMPDEST DUP4 CALLDATALOAD PUSH8 0xFFFFFFFFFFFFFFFF DUP1 DUP3 GT ISZERO PUSH2 0x1597 JUMPI PUSH1 0x0 DUP1 REVERT JUMPDEST DUP2 DUP7 ADD SWAP2 POP DUP7 PUSH1 0x1F DUP4 ADD SLT PUSH2 0x15AB JUMPI PUSH1 0x0 DUP1 REVERT JUMPDEST DUP2 CALLDATALOAD DUP2 DUP2 GT ISZERO PUSH2 0x15BD JUMPI PUSH2 0x15BD PUSH2 0x1554 JUMP JUMPDEST PUSH1 0x40 MLOAD PUSH1 0x1F DUP3 ADD PUSH1 0x1F NOT SWAP1 DUP2 AND PUSH1 0x3F ADD AND DUP2 ADD SWAP1 DUP4 DUP3 GT DUP2 DUP4 LT OR ISZERO PUSH2 0x15E5 JUMPI PUSH2 0x15E5 PUSH2 0x1554 JUMP JUMPDEST DUP2 PUSH1 0x40 MSTORE DUP3 DUP2 MSTORE DUP10 PUSH1 0x20 DUP5 DUP8 ADD ADD GT ISZERO PUSH2 0x15FE JUMPI PUSH1 0x0 DUP1 REVERT JUMPDEST DUP3 PUSH1 0x20 DUP7 ADD PUSH1 0x20 DUP4 ADD CALLDATACOPY PUSH1 0x0 PUSH1 0x20 DUP5 DUP4 ADD ADD MSTORE DUP1 SWAP8 POP POP POP POP POP POP PUSH1 0x20 DUP5 ADD CALLDATALOAD SWAP2 POP PUSH1 0x40 DUP5 ADD CALLDATALOAD SWAP1 POP SWAP3 POP SWAP3 POP SWAP3 JUMP JUMPDEST PUSH1 0x0 DUP1 PUSH1 0x0 PUSH1 0x60 DUP5 DUP7 SUB SLT ISZERO PUSH2 0x1643 JUMPI PUSH1 0x0 DUP1 REVERT JUMPDEST POP POP DUP2 CALLDATALOAD SWAP4 PUSH1 0x20 DUP4 ADD CALLDATALOAD SWAP4 POP PUSH1 0x40 SWAP1 SWAP3 ADD CALLDATALOAD SWAP2 SWAP1 POP JUMP JUMPDEST PUSH1 0x20 DUP1 DUP3 MSTORE DUP3 MLOAD DUP3 DUP3 ADD DUP2 SWAP1 MSTORE PUSH1 0x0 SWAP2 SWAP1 DUP5 DUP3 ADD SWAP1 PUSH1 0x40 DUP6 ADD SWAP1 DUP5 JUMPDEST DUP2 DUP2 LT ISZERO PUSH2 0x1692 JUMPI DUP4 MLOAD DUP4 MSTORE SWAP3 DUP5 ADD SWAP3 SWAP2 DUP5 ADD SWAP2 PUSH1 0x1 ADD PUSH2 0x1676 JUMP JUMPDEST POP SWAP1 SWAP7 SWAP6 POP POP POP POP POP POP JUMP JUMPDEST PUSH1 0x1 DUP2 DUP2 SHR SWAP1 DUP3 AND DUP1 PUSH2 0x16B2 JUMPI PUSH1 0x7F DUP3 AND SWAP2 POP JUMPDEST PUSH1 0x20 DUP3 LT DUP2 SUB PUSH2 0xA42 JUMPI PUSH4 0x4E487B71 PUSH1 0xE0 SHL PUSH1 0x0 MSTORE PUSH1 0x22 PUSH1 0x4 MSTORE PUSH1 0x24 PUSH1 0x0 REVERT JUMPDEST PUSH1 0x20 DUP1 DUP3 MSTORE PUSH1 0x14 SWAP1 DUP3 ADD MSTORE PUSH20 0x10995D081A5CC81B9BDD081C1D589B1A5CDA1959 PUSH1 0x62 SHL PUSH1 0x40 DUP3 ADD MSTORE PUSH1 0x60 ADD SWAP1 JUMP JUMPDEST PUSH4 0x4E487B71 PUSH1 0xE0 SHL PUSH1 0x0 MSTORE PUSH1 0x11 PUSH1 0x4 MSTORE PUSH1 0x24 PUSH1 0x0 REVERT JUMPDEST PUSH1 0x0 PUSH1 0x1 DUP3 ADD PUSH2 0x1728 JUMPI PUSH2 0x1728 PUSH2 0x1700 JUMP JUMPDEST POP PUSH1 0x1 ADD SWAP1 JUMP JUMPDEST PUSH1 0x1F DUP3 GT ISZERO PUSH2 0xE04 JUMPI PUSH1 0x0 DUP2 DUP2 MSTORE PUSH1 0x20 DUP2 KECCAK256 PUSH1 0x1F DUP6 ADD PUSH1 0x5 SHR DUP2 ADD PUSH1 0x20 DUP7 LT ISZERO PUSH2 0x1756 JUMPI POP DUP1 JUMPDEST PUSH1 0x1F DUP6 ADD PUSH1 0x5 SHR DUP3 ADD SWAP2 POP JUMPDEST DUP2 DUP2 LT ISZERO PUSH2 0x1775 JUMPI DUP3 DUP2 SSTORE PUSH1 0x1 ADD PUSH2 0x1762 JUMP JUMPDEST POP POP POP POP POP POP JUMP JUMPDEST DUP2 MLOAD PUSH8 0xFFFFFFFFFFFFFFFF DUP2 GT ISZERO PUSH2 0x1797 JUMPI PUSH2 0x1797 PUSH2 0x1554 JUMP JUMPDEST PUSH2 0x17AB DUP2 PUSH2 0x17A5 DUP5 SLOAD PUSH2 0x169E JUMP JUMPDEST DUP5 PUSH2 0x172F JUMP JUMPDEST PUSH1 0x20 DUP1 PUSH1 0x1F DUP4 GT PUSH1 0x1 DUP2 EQ PUSH2 0x17E0 JUMPI PUSH1 0x0 DUP5 ISZERO PUSH2 0x17C8 JUMPI POP DUP6 DUP4 ADD MLOAD JUMPDEST PUSH1 0x0 NOT PUSH1 0x3 DUP7 SWAP1 SHL SHR NOT AND PUSH1 0x1 DUP6 SWAP1 SHL OR DUP6 SSTORE PUSH2 0x1775 JUMP JUMPDEST PUSH1 0x0 DUP6 DUP2 MSTORE PUSH1 0x20 DUP2 KECCAK256 PUSH1 0x1F NOT DUP7 AND SWAP2 JUMPDEST DUP3 DUP2 LT ISZERO PUSH2 0x180F JUMPI DUP9 DUP7 ADD MLOAD DUP3 SSTORE SWAP5 DUP5 ADD SWAP5 PUSH1 0x1 SWAP1 SWAP2 ADD SWAP1 DUP5 ADD PUSH2 0x17F0 JUMP JUMPDEST POP DUP6 DUP3 LT ISZERO PUSH2 0x182D JUMPI DUP8 DUP6 ADD MLOAD PUSH1 0x0 NOT PUSH1 0x3 DUP9 SWAP1 SHL PUSH1 0xF8 AND SHR NOT AND DUP2 SSTORE JUMPDEST POP POP POP POP POP PUSH1 0x1 SWAP1 DUP2 SHL ADD SWAP1 SSTORE POP JUMP JUMPDEST PUSH1 0x20 DUP2 MSTORE PUSH1 0x0 PUSH2 0xE23 PUSH1 0x20 DUP4 ADD DUP5 PUSH2 0x14A6 JUMP JUMPDEST PUSH1 0x40 DUP2 MSTORE PUSH1 0x0 DUP1 DUP5 SLOAD PUSH2 0x1862 DUP2 PUSH2 0x169E JUMP JUMPDEST DUP1 PUSH1 0x40 DUP7 ADD MSTORE PUSH1 0x60 PUSH1 0x1 DUP1 DUP5 AND PUSH1 0x0 DUP2 EQ PUSH2 0x1884 JUMPI PUSH1 0x1 DUP2 EQ PUSH2 0x189E JUMPI PUSH2 0x18CF JUMP JUMPDEST PUSH1 0xFF NOT DUP6 AND DUP9 DUP5 ADD MSTORE DUP4 ISZERO ISZERO PUSH1 0x5 SHL DUP9 ADD DUP4 ADD SWAP6 POP PUSH2 0x18CF JUMP JUMPDEST DUP10 PUSH1 0x0 MSTORE PUSH1 0x20 DUP1 PUSH1 0x0 KECCAK256 PUSH1 0x0 JUMPDEST DUP7 DUP2 LT ISZERO PUSH2 0x18C6 JUMPI DUP2 SLOAD DUP12 DUP3 ADD DUP8 ADD MSTORE SWAP1 DUP5 ADD SWAP1 DUP3 ADD PUSH2 0x18AB JUMP JUMPDEST DUP11 ADD DUP6 ADD SWAP8 POP POP POP JUMPDEST POP POP POP POP POP PUSH1 0x20 SWAP3 SWAP1 SWAP3 ADD SWAP3 SWAP1 SWAP3 MSTORE SWAP3 SWAP2 POP POP JUMP JUMPDEST PUSH4 0x4E487B71 PUSH1 0xE0 SHL PUSH1 0x0 MSTORE PUSH1 0x32 PUSH1 0x4 MSTORE PUSH1 0x24 PUSH1 0x0 REVERT JUMPDEST DUP1 DUP3 MUL DUP2 ISZERO DUP3 DUP3 DIV DUP5 EQ OR PUSH2 0xE26 JUMPI PUSH2 0xE26 PUSH2 0x1700 JUMP JUMPDEST DUP1 DUP3 ADD DUP1 DUP3 GT ISZERO PUSH2 0xE26 JUMPI PUSH2 0xE26 PUSH2 0x1700 JUMP JUMPDEST PUSH1 0x1 DUP1 PUSH1 0xA0 SHL SUB DUP9 AND DUP2 MSTORE DUP7 PUSH1 0x20 DUP3 ADD MSTORE DUP6 PUSH1 0x40 DUP3 ADD MSTORE PUSH4 0xFFFFFFFF PUSH1 0xE0 SHL DUP6 AND PUSH1 0x60 DUP3 ADD MSTORE DUP4 PUSH1 0x80 DUP3 ADD MSTORE DUP3 PUSH1 0xA0 DUP3 ADD MSTORE PUSH1 0xE0 PUSH1 0xC0 DUP3 ADD MSTORE PUSH1 0x0 PUSH2 0x196C PUSH1 0xE0 DUP4 ADD DUP5 PUSH2 0x14A6 JUMP JUMPDEST SWAP10 SWAP9 POP POP POP POP POP POP POP POP POP JUMP JUMPDEST PUSH1 0x0 DUP3 PUSH2 0x1996 JUMPI PUSH4 0x4E487B71 PUSH1 0xE0 SHL PUSH1 0x0 MSTORE PUSH1 0x12 PUSH1 0x4 MSTORE PUSH1 0x24 PUSH1 0x0 REVERT JUMPDEST POP MOD SWAP1 JUMP JUMPDEST DUP2 DUP2 SUB DUP2 DUP2 GT ISZERO PUSH2 0xE26 JUMPI PUSH2 0xE26 PUSH2 0x1700 JUMP JUMPDEST PUSH1 0x1 DUP1 PUSH1 0xA0 SHL SUB DUP5 AND DUP2 MSTORE DUP3 PUSH1 0x20 DUP3 ADD MSTORE PUSH1 0x60 PUSH1 0x40 DUP3 ADD MSTORE PUSH1 0x0 PUSH2 0xDDD PUSH1 0x60 DUP4 ADD DUP5 PUSH2 0x14A6 JUMP JUMPDEST PUSH1 0x0 PUSH1 0x20 DUP3 DUP5 SUB SLT ISZERO PUSH2 0x19E7 JUMPI PUSH1 0x0 DUP1 REVERT JUMPDEST DUP2 MLOAD DUP1 ISZERO ISZERO DUP2 EQ PUSH2 0x19F7 JUMPI PUSH1 0x0 DUP1 REVERT JUMPDEST SWAP4 SWAP3 POP POP POP JUMP JUMPDEST PUSH1 0x1 DUP2 DUP2 JUMPDEST DUP1 DUP6 GT ISZERO PUSH2 0x1A39 JUMPI DUP2 PUSH1 0x0 NOT DIV DUP3 GT ISZERO PUSH2 0x1A1F JUMPI PUSH2 0x1A1F PUSH2 0x1700 JUMP JUMPDEST DUP1 DUP6 AND ISZERO PUSH2 0x1A2C JUMPI SWAP2 DUP2 MUL SWAP2 JUMPDEST SWAP4 DUP5 SHR SWAP4 SWAP1 DUP1 MUL SWAP1 PUSH2 0x1A03 JUMP JUMPDEST POP SWAP3 POP SWAP3 SWAP1 POP JUMP JUMPDEST PUSH1 0x0 DUP3 PUSH2 0x1A50 JUMPI POP PUSH1 0x1 PUSH2 0xE26 JUMP JUMPDEST DUP2 PUSH2 0x1A5D JUMPI POP PUSH1 0x0 PUSH2 0xE26 JUMP JUMPDEST DUP2 PUSH1 0x1 DUP2 EQ PUSH2 0x1A73 JUMPI PUSH1 0x2 DUP2 EQ PUSH2 0x1A7D JUMPI PUSH2 0x1A99 JUMP JUMPDEST PUSH1 0x1 SWAP2 POP POP PUSH2 0xE26 JUMP JUMPDEST PUSH1 0xFF DUP5 GT ISZERO PUSH2 0x1A8E JUMPI PUSH2 0x1A8E PUSH2 0x1700 JUMP JUMPDEST POP POP PUSH1 0x1 DUP3 SHL PUSH2 0xE26 JUMP JUMPDEST POP PUSH1 0x20 DUP4 LT PUSH2 0x133 DUP4 LT AND PUSH1 0x4E DUP5 LT PUSH1 0xB DUP5 LT AND OR ISZERO PUSH2 0x1ABC JUMPI POP DUP2 DUP2 EXP PUSH2 0xE26 JUMP JUMPDEST PUSH2 0x1AC6 DUP4 DUP4 PUSH2 0x19FE JUMP JUMPDEST DUP1 PUSH1 0x0 NOT DIV DUP3 GT ISZERO PUSH2 0x1ADA JUMPI PUSH2 0x1ADA PUSH2 0x1700 JUMP JUMPDEST MUL SWAP4 SWAP3 POP POP POP JUMP JUMPDEST PUSH1 0x0 PUSH2 0xE23 DUP4 DUP4 PUSH2 0x1A41 JUMP INVALID PUSH9 0x747470733A2F2F6170 PUSH10 0x2E73706F727473646174 PUSH2 0x2E69 PUSH16 0x2F76332F6E62612F73636F7265732F6A PUSH20 0x6F6E2F5465616D47616D65537461747342795365 PUSH2 0x736F PUSH15 0x2F323032332F31312F313F6B65793D CALLDATACOPY CALLDATASIZE PUSH4 0x32623536 PUSH2 0x6365 ORIGIN CODESIZE CALLVALUE CALLDATALOAD PUSH4 0x35396538 CALLVALUE PUSH7 0x33306238613838 PUSH2 0x6433 CALLDATASIZE LOG2 PUSH5 0x6970667358 0x22 SLT KECCAK256 0xAA 0xC8 DUP6 0xD5 0x25 NUMBER PUSH9 0xA523462AACA7285A7B PUSH25 0x7A096CA7FAC9B68160FAC11435CCA264736F6C634300081100 CALLER ",
	"sha1": "42b81c4ae03efb8062a574396be87b4d4ad85519",
	"source": "// SPDX-License-Identifier: MIT\npragma solidity ^0.8.0;\n\n\nimport \"@chainlink/contracts/src/v0.8/ChainlinkClient.sol\";\n\n\ncontract BetContract is ChainlinkClient {\n\n    \n    using Chainlink for Chainlink.Request;\n \n    uint256 public number1;\n    uint256 public number2;\n    bytes32 private externalJobId;\n    uint256 private oraclePayment;\n    \n\n    uint256 betCounter = 0;\n    mapping (uint => Bet) public bets;\n    event RequestFulfilled(bytes32 indexed requestId, uint256 number1, uint256 number2);\n\n\n    struct Bet {\n\n        uint id;\n        address challenger;\n        address accepter;\n        string name;\n        uint conditions;\n        uint256 price;\n        address winner;\n        bool isAlive;\n        bool isAccepted;\n    }\n\n\n    event LogPublishBet(\n\n        uint indexed _id,\n        address indexed _challenger,\n        string _name,\n        uint256 indexed _price\n    ); \n\n    event LogAcceptBet(\n\n        uint indexed _id,\n        address indexed _challenger,\n        address indexed _accepter,\n        string _name,\n        uint256  _price\n    );\n\n    event LogResolveBet(\n\n        uint indexed _id,\n        address indexed _challenger,\n        address indexed _accepter,\n        string _name,\n        uint256 _payout\n    );\n\n    event logNumber (\n        uint number1,\n        uint number2\n    );\n\n\n    constructor() {\n        \n        setChainlinkToken(0x326C977E6efc84E512bB9C30f76E30c160eD06FB);\n        setChainlinkOracle(0x7ca7215c6B8013f249A195cc107F97c4e623e5F5);\n        externalJobId = \"28d535568b7848adb2369e1850aa4e1c\";\n        oraclePayment = (1 * LINK_DIVISIBILITY) / 10;\n\n    } \n\n    function requestMultiVariable() internal {\n\n        Chainlink.Request memory req = buildChainlinkRequest(externalJobId, address(this), this.fulfillBytesAndUint.selector);\n        req.add(\"get\", \"https://api.sportsdata.io/v3/nba/scores/json/TeamGameStatsBySeason/2023/11/1?key=76c2b56ace2845c59e84f30b8a88ad36\");\n        req.add(\"path1\", \"0,Name\");\n        req.add(\"path2\", \"0,Wins\");\n        req.add(\"path3\", \"0,Losses\");\n        sendOperatorRequest(req, oraclePayment);\n    }\n\n\n    function fulfillBytesAndUint(bytes32 requestId, uint256 _number1, uint256 _number2)\n        public recordChainlinkFulfillment(requestId){\n    \n        emit RequestFulfilled(requestId, _number1, _number2);\n        number1 = _number1;\n        number2 = _number2;\n    }\n \n    \n    // find winners and then close bets\n    function upkeep_setWinner() public {\n\n        requestMultiVariable();\n        require(number1 == 1 || number2 == 1);\n\n        for(uint i = 1; i <= betCounter; i++){\n        \n            if ((bets[i].conditions == 0 && number2 == 0) || (bets[i].conditions == 1 && number2 == 1)){\n                close_bet(i, bets[i].challenger);\n            }\n\n            if ((bets[i].conditions == 0 && number2 == 1) || (bets[i].conditions == 1 && number2 == 0)){\n                close_bet(i, bets[i].accepter);\n            }\n        } \n    }\n\n\n    // send reward for winner and close bet\n    function close_bet(uint id, address _to) internal  {\n\n        if (bets[id].isAlive == false || bets[id].isAccepted == false) {\n            return;\n        }\n        \n        bets[id].winner = _to;\n        bets[id].isAlive = false;\n        \n        uint256 amount = bets[id].price * 2;\n        address payable to = payable(_to);\n\n        bool isSuccess = to.send(amount);\n        require(isSuccess, \"Transaction Failed\");\n\n\n    }\n    \n\n    // Publish a new bet\n    function publishBet(string memory _name, uint  _conditions, uint256 _price) public payable {\n\n        require(_price >= 1, \"Minimum price is 1 Matic\");\n        require(msg.value >= _price);\n        \n        betCounter++;\n        bets[betCounter] = Bet(\n\n            betCounter,\n            msg.sender,\n            payable(0x0),\n            _name,\n            _conditions,\n            _price, \n            payable(0x0),\n            true,\n            false\n        );\n\n        emit LogPublishBet(betCounter, msg.sender, _name, _price);\n    }\n\n\n    function acceptBet(uint _id ) public payable {\n\n        Bet storage bet = bets[_id];\n\n        require(bet.isAlive == true, \"The bet was canceled\");\n        require(betCounter > 0, \"Bet is not published\");\n        require(_id > 0 && _id <= betCounter, \"Bet is not published\");\n        require(msg.sender != bet.challenger);\n        require(msg.value >= bet.price);\n        \n        bet.accepter = msg.sender;\n        bet.isAccepted = true;\n        emit LogAcceptBet(_id, bet.challenger, bet.accepter, bet.name, bet.price);\n\n    } \n\n    // cancel bet from challenger before accept bet\n    function cancelBet(uint _id) public payable {\n\n        Bet storage bet = bets[_id];\n\n        require(bet.isAlive == true, \"The bet was canceled\");\n        require(betCounter >= _id && _id > 0, \"Bet is not published\");\n        require(msg.sender == bet.challenger);\n\n        bet.isAlive = false;\n        uint256 amount = bet.price;\n        address payable to = payable(bet.challenger);\n\n        bool isSuccess = to.send(amount);\n        require(isSuccess, \"Transaction Failed\");\n        \n    }\n\n\n    function getNumberOfBets() public view returns (uint) {\n        return betCounter;\n    }\n\n\n    function getNumberOfAvailableBets() public view returns(uint) {\n        \n        uint numberOfAvailableBets = 0;\n\n        for(uint i = 1; i <=  betCounter ; i++){\n\n            if(bets[i].isAccepted == false && bets[i].isAlive == true) {\n\n                numberOfAvailableBets++;\n            }\n        }\n\n        return numberOfAvailableBets;\n    }\n\n\n    function getAvailableBets() public view returns (uint[] memory) {\n\n        uint[] memory betIds = new uint[](betCounter);\n        uint numberOfAvailableBets = 0;\n\n        for(uint i = 1; i <=  betCounter ; i++){\n\n            // Keep the ID if the bet is still available\n            if(bets[i].isAccepted == false && bets[i].isAlive == true) {\n\n                betIds[numberOfAvailableBets] = bets[i].id;\n                numberOfAvailableBets++;\n            }\n        }\n        \n        uint256[] memory availableBets = new uint[](numberOfAvailableBets);\n\n        // Copy the betIds array into a smaller availableBets array to get rid of empty indexes\n        for(uint j = 0; j < numberOfAvailableBets; j++) {\n            availableBets[j] = betIds[j];\n        }\n        \n        return availableBets; \n    \n    }   \n}\n",
	"sourcePath": "contracts/BetContract.sol",
	"type": "contract"
}